:020000040800F2
:10000000480B002049010008E1370008FD2A0008DC
:100010007B370008D5150008AF6C00080000000011
:100020000000000000000000000000000D53000868
:10003000391F000800000000394400086F5900080B
:100040006301000863010008630100086301000800
:1000500063010008630100086301000863010008F0
:1000600063010008630100086301000863010008E0
:1000700063010008630100086301000863010008D0
:1000800063010008630100086301000863010008C0
:1000900063010008630100086301000863010008B0
:1000A00063010008630100086301000863010008A0
:1000B00063010008115C0008295C00086301000866
:1000C0006301000863010008630100086301000880
:1000D00063010008DD670008216800086D690008F9
:1000E000611F000863010008630100086301000844
:1000F0006301000863010008630100086301000850
:10010000630100086301000863010008630100083F
:1001100063010008A1670008415C00086301000852
:10012000630100086301000863010008630100081F
:10013000DFF810D000F056FD004800476197000836
:10014000AFF30080480B0020064880470648004770
:10015000FEE7FEE7FEE7FEE7FEE7FEE7FEE7FEE777
:10016000FEE7FEE771590008310100082DE9F04172
:100170000024061B254671F1000605DA012400273C
:10018000D0EB070067EB0101161E73F1000605DADC
:100190000027D2EB0702012567EB030300F096FB73
:1001A00086460E4617469C46AC4204D00025D0EB4E
:1001B000050E65EB010624B10020D2EB000760EBD1
:1001C000030C704631463A466346BDE8F08140EA8A
:1001D00001039B0703D009E008C9121F08C0042AC5
:1001E000FAD203E011F8013B00F8013B521EF9D2AC
:1001F0007047D2B201E000F8012B491EFBD27047D4
:100200000022F6E710B513460A4604461946FFF7E2
:10021000F0FF204610BD421E12F8013F002BFBD11B
:1002200011F8013B02F8013B002BF9D17047421C49
:1002300010F8011B0029FBD1801A704710B500226D
:1002400000E0521C835C8C5CA34201D1002BF8D1EE
:10025000D8B2E1B2401A10BD30B5044600200346C2
:1002600000E05B1C934203D2E05CCD5C401BF8D005
:1002700030BDF0B480EA0102D40F4200B2EB410F6E
:1002800002D20246084611464A0042D0C30DDDB2F2
:10029000C1F3C752AD1A202D35DAC1F3160141F46E
:1002A000000204B15242C5F1200602FA06F12A41C9
:1002B0001044B3EBD05F23D0C4B1012DA0EBC350E9
:1002C00009DCF0BC4FF0004202EAC352DBB200F599
:1002D000000000F0B4BB400000F1807000EBC350A0
:1002E000A0F1807040EAD170490009E0490841EA74
:1002F000C071A0EBC35000F50000400800EBC350F4
:10030000F0BC00F093BB6142012202EB4101001BF3
:10031000F6E7F0BC704781F00041AAE780F00040AA
:10032000A7E780EA010210B502F00043400022D0A6
:100330004A001FD0010E01EB1261C0F35600C2F358
:10034000560240F4000042F40002A0FB0220000428
:100350007F39140400D0401C50EA124001D4400000
:10036000491EC2B20C0604EBD010401C4008802A83
:1003700002D003E0002010BD20F00100002900DAC7
:100380000020184310BD30B480EA010202F000459D
:1003900030F0004221F0004013D090B1C30DD40DD5
:1003A000C2F31601C0F31600E41A41F4000140F450
:1003B00000027D34914201D3641C00E04900002C0E
:1003C00002DA30BC002070474FF400000023914255
:1003D00001D3891A034340084FEA4101F7D151B1D3
:1003E000914202D14FF0004105E002D24FF00101ED
:1003F00001E06FF0010103EBC450284430BC00F071
:1004000015BB2DE9FE4F804681EA0300C00F0C4664
:10041000009021F0004123F00045B8EB0200A94113
:1004200005D24046214690461C460B46024623F024
:100430000040104347D0270DC7F30A00C3F30A5109
:100440000290401A019040286BDAC3F3130040F485
:10045000801B0098924620B10023D2EB030A63EB85
:100460000B0B01985946C0F14002504600F05FFA6C
:1004700006460D4650465946019A00F077FA10EBB1
:1004800008006141002487EA115284EAE7731A43A5
:1004900040D0009A62B3019A012A4FEA075215DC54
:1004A000001B61EB02014FF0004202EA0752CDE966
:1004B0000042001C41F5801132462B4600F0FCFA48
:1004C00003B0BDE8F08F40462146F9E7001B61EB21
:1004D0000201001C41F5801300185B412018A2F5B1
:1004E000001747EB030140EAD570B6196D4111E0E2
:1004F0006D084FEA360645EAC0754FEA0752001B01
:1005000061EB0201001C41F5801149084FEA3000FF
:100510000019514132462B4603B0BDE8F04F00F0C0
:10052000BCBA0098012240000023D0EB020263EB2A
:10053000E073009821464FEAE074B8EB000061EBED
:100540000401E9E783F000435BE781F0004158E7ED
:100550002DE9FE4F81EA030404F0004421F000413C
:1005600000944FF0000B23F0004350EA01045ED0EA
:1005700052EA03045BD0C3F30A54C1F30A552C4476
:10058000A4F2F3340194A0FB0254C1F3130141F42B
:100590008011C3F3130343F4801301FB024400FBF7
:1005A000034E840A970A44EA815447EA8357A4FB1E
:1005B000076802958D0A05FB07854FEA932C04FB1B
:1005C0000C542705029D4FEA065847EA1637B5EB4B
:1005D00008056EEB070C870E920E47EA811742EA78
:1005E0008312A7FB0201B6EB0B0164EB00042B0D99
:1005F00043EA0C335E1844EB1C50DA465146E7FBE5
:100600000201C5F313044FEA0B3343EA14534FEAD4
:100610000432019C43EA0603A4F10C040294009CFA
:10062000CDE900B400F048FA03B0BDE8F08F002037
:100630000146F9E72DE9F04D81EA030404F0004B8F
:1006400021F0004514464FF0000A23F0004150EA23
:10065000050220D054EA01021DD0C5F30A57024614
:10066000C5F31303C1F31300C1F30A5640F4801518
:1006700043F48013A7EB0608101BD64608F2FD389A
:1006800073EB050002D308F1010801E092185B4109
:10069000B8F1000F03DA00200146BDE8F08D00201C
:1006A0004FF48011064684460EE0171B73EB0507D6
:1006B00005D3121B63EB050306434CEA010C490802
:1006C0004FEA300092185B4150EA0107EDD152EA3F
:1006D000030012D082EA040083EA0501084305D032
:1006E000101BAB4106D20122002306E000224FF08E
:1006F000004302E06FF0010253101AEB06004CEBCE
:10070000085110EB0A0041EB0B01BDE8F04D00F081
:10071000C4B9C10F80EAE0700844CA0796230021DB
:1007200000F08DB996230022114600F088B90EB56D
:10073000C10F80EAE0700844CA07002140F2334349
:100740008DE80E000A460B4600F0B6F903B000BD76
:1007500000F0004220F00040C10DC0F3160040F44C
:1007600000007F2901DA00207047962903DCC1F1DF
:100770009601C84001E096398840002AF4D04042F2
:10078000704720F00040C10DC0F3160040F4000097
:100790007F2901DA00207047962903DCC1F1960118
:1007A000C840704796398840704770B5C1F30A5207
:1007B00001F000450024C1F3130140F2FF3341F47E
:1007C00080119A4201DA002070BD40F233439A4210
:1007D000A2F2334203DC524200F0B8F800E090404D
:1007E0002C43F1D0404270BD00F0004230F0004098
:1007F0000AD0C10D01F56071C0F3160042EA015143
:10080000C2084007114370470020014670470000AE
:1008100030B5041E71F1000404DB4FF00044404287
:1008200064EB0101141E73F1000405DB1C464FF05C
:100830000043524263EB04038B4208BF824230BD47
:1008400001F0004330B421F0004150EA010206D02B
:100850000A0DA2F56072C1F31301002A02DC30BC5C
:1008600000207047440F44EAC104C100E01830BCC6
:1008700000EBC25000F0DAB8002801DBC0F1004004
:10088000002901DBC1F1004181427047002801DBF2
:10089000C0F10040002901DBC1F1004188427047EE
:1008A00030B50B46014600202022012409E021FA40
:1008B00002F59D4205D303FA02F5491B04FA02F53D
:1008C0002844151EA2F10102F1DC30BD2DE9F05FD4
:1008D0000546002092469B468846064681464024AF
:1008E0001BE0284641464746224600F02FF8534673
:1008F0005A46C01A914110D311461846224600F0BC
:1009000016F82D1A67EB01084F46224601200021F8
:1009100000F00DF817EB00094E41201EA4F1010470
:10092000DFDC484631462A464346BDE8F09F202A90
:1009300004DB203A00FA02F1002070479140C2F136
:10094000200320FA03F3194390407047202A04DB68
:10095000203A21FA02F00021704721FA02F3D04038
:10096000C2F120029140084319467047202A06DB55
:10097000CB17203A41FA02F043EAE07306E041FA6D
:1009800002F3D040C2F1200291400843194670475B
:100990000FB4002300B589B00CA900910B996FF03A
:1009A0000042CB601E4B06931E4B07930423CDE9F8
:1009B00001321D4A089202466B46002000F0BEF943
:1009C00009B05DF814FB70B586B006464FF0FF30F5
:1009D0000091CDE90101002015460C4604903246F5
:1009E000694604A8FFF7D4FF02460498211825B1F0
:1009F00008B1084600E020462860049800280DD081
:100A0000002A02DD0098884208D0081B0094CDE936
:100A100001043246694604A8FFF7BAFF06B070BD6C
:100A2000750F0008930F0008090C00080029A8BFE3
:100A30007047401C490008BF20F00100704710B407
:100A4000B0FA80FC00FA0CF050EA010404BF10BCBC
:100A5000704749B1CCF1200421FA04F411FA0CF1E9
:100A600018BF012121430843A3EB0C01CB1D4FEA22
:100A700000614FEA102042BF002010BC704700EB1D
:100A8000C35010440029A4BF10BC7047401C49004B
:100A900008BF20F0010010BC704710B5141E73F1A0
:100AA000000408DA401C41F1000192185B411A432E
:100AB00001D120F0010010BD2DE9F04D92469B467A
:100AC00011B1B1FA81F202E0B0FA80F22032904620
:100AD000FFF72DFF04460F4640EA0A0041EA0B01EA
:100AE00053465A46084313D0114653EA010019D021
:100AF000C8F140025046FFF729FF05460E46504612
:100B000059464246FFF713FF084305D0012004E091
:100B100020463946BDE8F08D0020054346EAE076E0
:100B20002C4337430A986305E40AA0EB080000222F
:100B3000FD0A44EA47540A3002D500200146E9E79D
:100B4000010510196941DDE9084500196941BDE851
:100B5000F04DA2E770B521F0004303430CD0C1F380
:100B60000A550024D5EB040564EB0403D617AD1A2F
:100B7000B34102DB0020014670BD201841EB025159
:100B800070BDC1F30A52C1F3130140F2FF3341F4C7
:100B900080119A4202DA00200146704740F2334346
:100BA0009A42A2F2334202DC5242FFF7CFBEFFF775
:100BB000BEBE000030B5041E71F1000404DB4FF02E
:100BC0000044404264EB0101141E73F1000405DB94
:100BD0001C464FF00043524263EB0403994208BFA6
:100BE000904230BD064C074D06E0E06840F001033E
:100BF00094E8070098471034AC42F6D3FFF79CFA0C
:100C000058E4000878E40008C0B24FF4F05100F056
:100C100023BA00002DE9FF4F087883B09946FF28DA
:100C200005D0491C2D2804D00024002008E0002015
:100C30000BE00124F9E700EB800003EB4000491CC6
:100C40000B78FF2BF7D104B14042002302931478B4
:100C500019461D462D2C01D02B2C04D1521C2D2CB5
:100C600013D000240294AA461478FF2C0FD00A2532
:100C7000A3FB057801FB05814FF0000C03FB0C1171
:100C8000521CE3194AEB0101EEE70124EAE7814433
:100C900053EA010002D019F5C87F06DA0398002153
:100CA000C0E9001107B0BDE8F08F0025AE4E2F4619
:100CB000DFF8B882184600F0E3F9CDE90001B9F198
:100CC000000002DAC9F1000400E004460023A74A4C
:100CD0001AEB030B42EB045A12E0E00707D02A4656
:100CE000334638464146FFF733FC074688462A46D6
:100CF000334610461946FFF72BFC05460E46641096
:100D0000002CEAD1DDE90001B9F1000F5A46534643
:100D100006DAFFF78FFC3A464346FFF78BFC05E007
:100D2000FFF716FC3A464346FFF712FC029A0AB157
:100D300081F00041039AC2E90001B3E72DE9FF4FBA
:100D40001F468DB0D7E901464FF0FF382E204546AB
:100D50004FF000090B90B9696D1C0E988847396AED
:100D6000824688470028F6D1BAF1FF3F0AD024F422
:100D7000D064002E11DDBAF12B0F08D0BAF12D0F7F
:100D80000BD102E0404611B08DE744F48064B969AC
:100D90006D1C0E9888478246761E6946600501D50F
:100DA0002D2000E02B208DF8000001F1010B0DF14A
:100DB000200809E0B9696D1C0E98884782460F9893
:100DC00044F40074761E0560002E02DDBAF1300F87
:100DD000F0D00B998A453ED144F0800406E00F998B
:100DE000681CA9F1010944F400740860B9696D1C1C
:100DF000761E0E98884782463028F0D02BE00B995B
:100E00008A4505D1200603D444F08004761E18E0FC
:100E1000504606F09FF908B30DF11301761E44F415
:100E200000748B4508D2AAF130000BF8010B2006A4
:100E300007D5A9F1010003E0200602D409F1010061
:100E40008146A00502D50F99681C0860B9696D1C20
:100E50000E9888478246002ED1DC53E0002E51DDEB
:100E6000BAF1650F02D0BAF1450F4BD1A00549D5B3
:100E7000B9696D1C24F44074761E0E98884782462A
:100E8000002E0CDD2B2804D0BAF12D0F07D144F42D
:100E90008074B9696D1C0E9888478246761EE005FD
:100EA00001D52D2100E02B2108F8011BCDF82C8065
:100EB00021E00DF12901761E44F4007488450CD21E
:100EC000AAF1300010F0FF0088F8000002D10B9961
:100ED000884509D908F1010806E0E00501D5244854
:100EE00001E042F20F708146B9696D1C0E98884787
:100EF00082460F980560002E04DD504606F02AF960
:100F00000028D6D1F9690E988847FF208BF8000099
:100F100088F800000020069007904B466A4608A912
:100F200006A8FFF777FEA00502D46FF001002AE7BC
:100F300014F0240F0AD0E00714D1DDE90612386856
:100F4000031D3B600068C0E900120BE0DDE906010B
:100F5000FFF776FC0146E00704D13868021D3A60CD
:100F60000068016028460EE7000014400000F03FD2
:100F7000F1D8FFFF426842B1016811F8013B23B18B
:100F8000521EC0E90012184670470121C160881E38
:100F9000704742685AB1C368016843B983688B429D
:100FA00005D0491E521CC0E90012002070474FF0C6
:100FB000FF3070472DE9F04D00231A461B1A8A4175
:100FC00003DB00200146BDE8F08DC1F30A52C1F3F6
:100FD000130141F480154FF0000BD10702D1001826
:100FE0006D41521E0027044640F2FF11384601EBC6
:100FF000620A3E468046024600204FF48011FFF709
:10100000A5FCC2197141BB1846EB0100B4EB030CFF
:1010100075EB000C04D3E41A65EB000517460E4689
:10102000241908F101006D4180463428E3DDF919E7
:1010300046EB0600091BA84103D24FF0FF321346CE
:1010400001E0002213461BEB070046EB0A51BDE806
:10105000F04DFFF722BD00007F2801D9002208E0F3
:10106000064A02EB5002C007127800D1120902F0C2
:101070000F0201209040084070470000C8E30008BC
:101080000EB540F2334202920022CDE9002213460F
:10109000FFF712FD03B000BD70B58C1810F8015BAE
:1010A00015F0070301D110F8013B2A1106D110F801
:1010B000012B03E010F8016B01F8016B5B1EF9D105
:1010C0002B0705D40023521E0DD401F8013BFAE78B
:1010D00010F8013BCB1A921C03E013F8015B01F8F6
:1010E000015B521EF9D5A142D8D3002070BD21B1B9
:1010F000826842F00102826003E0826822F001020D
:101100008260704710B504461248844208D101211C
:10111000401503F08DFD0021601503F089FD17E0F7
:101120000D48844208D10121001503F081FD002102
:10113000201503F07DFD0BE00848844208D1012111
:10114000C80303F075FD00214FF4004003F070FD6B
:1011500010BD00000024014000280140003C014077
:10116000014600208A6802F004020AB1012000E072
:10117000002070470146C86C80B2704702460020CC
:1011800013680B400BB1012000E0002070470146BE
:1011900000208A6802F008020AB1012000E0002065
:1011A0007047000030B502460020002350680F4C05
:1011B00020400D790C6844EA052420435060906873
:1011C0000B4C2040D1E902542C434D7944EA4504AC
:1011D00020439060D06A20F470000C7C641EE4B25E
:1011E000234340EA0350D06230BD0000FFFEF0FF11
:1011F000FDF7F1FFF0B504460D4600200021092D52
:1012000011DDE068A5F10A0606EB4607072606FA97
:1012100007F18843A5F10A0606EB460603FA06F134
:101220000843E0600CE0206905EB4507072606FA55
:1012300007F1884305EB450603FA06F108432061F0
:10124000072A0FDA606B561E06EB86071F2606FA82
:1012500007F18843561E06EB860605FA06F1084399
:10126000606322E00D2A0FDA206BD61F06EB86079B
:101270001F2606FA07F18843D61F06EB860605FAF5
:1012800006F10843206310E0E06AA2F10D0606EBC8
:1012900086071F2606FA07F18843A2F10D0606EB22
:1012A000860605FA06F10843E062F0BD816841F068
:1012B00008018160704721B1826842F4A002826017
:1012C00003E0826822F4A00282607047816841F0E6
:1012D000040181607047000010B527480088C0F104
:1012E000A00000B2254908802348008943F2C821A4
:1012F000884202DD0846204908811F48008941F6DE
:101300006411081A00B21E4908801B48008928B9D8
:1013100000201C4908601C49086010BD1848B0F93D
:10132000000040F2DC51884205DC1548B0F90000AD
:1013300010F57A6F04DA00F0B3FF1249086002E09A
:1013400000201049086005F0A9F90F4908600F490D
:101350000C480068FFF79AFA03D20C480949086064
:1013600008E00B4907480068FFF786FA02D20848F0
:101370000449086000BFD0E7A4020020B0020020AA
:10138000B402002024000020280000200000F041CA
:101390000000F0C108B50121102003F039FC4FF422
:1013A0007070ADF8000018208DF8030003208DF850
:1013B00002006946014800F0D5FF08BD0010014059
:1013C00030B587B005460C460121480303F020FCE8
:1013D000254804F0FDFC681E80B2ADF81400ADF89D
:1013E00010400020ADF81600ADF8120004A91E4808
:1013F00005F006F86020ADF800000120ADF802000D
:101400000020ADF80600ADF808006946164804F063
:101410006DFE6946144804F0BFFE6946124804F0A8
:101420001BFF6946104804F071FF01210E4804F0CB
:10143000BFFC08210C4804F0A5FE08210A4804F06E
:10144000FDFE0821084804F057FF0821064804F073
:101450009BFF0121044804F08DFC0121024804F0A7
:101460009BFC07B030BD0000003401402DE9FC5F5B
:1014700004460D461E4801682046FEF74FFF0190C6
:1014800029460020FEF747FF00901A48016800989F
:10149000FEF747FF82461849FEF775FF804617485A
:1014A000006880F0004B14495846FEF76CFF8246F6
:1014B0000199FEF736FF81464146FEF72CFF0746AD
:1014C000FFF746F906460E48007801280CD1304651
:1014D000FFF71FF980460B4801684046FEF721FFE1
:1014E0000746FFF735F906463046BDE8FC9F000089
:1014F000200000200C0100200000C842080100204C
:101500009D010020FC00002070B504464FF47A7560
:101510000723012221460B48FFF76CFE01210948F1
:10152000FFF7C9FE00BF02210648FFF727FE20B9DA
:10153000281EA5F101018DB2F5D10248FFF71AFE70
:1015400070BD00000024014000B587B001214FF4B8
:10155000017003F05DFB4FF4004003F02DFB2020F1
:10156000ADF8040000208DF8070001A9174800F02D
:10157000F9FE1748FFF7C6FD002002908DF80C0019
:101580008DF80D004FF4602004900020059001209C
:101590008DF8180002A90E48FFF704FE01210C483F
:1015A000FFF7A5FD0A48FFF781FE00BF0848FFF7D7
:1015B000EEFD0028FAD10648FFF788FE00BF044878
:1015C000FFF7CEFD0028FAD107B000BD00080140AA
:1015D0000024014000BFFEE72DE9F04F91B000204C
:1015E00010902F480068012856D12E48D0F800A04E
:1015F0002D48D0F800B02D492D480068FEF7C3FEF5
:101600002C4908602C4800682C49086050212C485F
:10161000FEF7F6FD2A482BA1096801602A480068F8
:10162000FFF7E2F804460D461098FFF7DDF806468E
:101630000F4622480068FFF7D7F8804689461D48C4
:101640000068FFF7D1F8CDE90E015846FFF7CCF856
:10165000CDE90C015046FFF7C7F8CDE90489CDE983
:101660000667CDE90845CDE90A01DDE90E01CDE9BE
:101670000201DDE90C01CDE9000114A11048DDE90A
:101680000A2305F0F9FB50211D48FEF7B9FD502251
:101690000B491B48FEF79BFD11B0BDE8F08F000021
:1016A00048010020F4000020F80000200000C8429B
:1016B0001C00002090010020080000209401002060
:1016C00004050020244C5600E4000020244C56253C
:1016D000332E32662C525625332E32662C4143254A
:1016E000332E32662C475925332E32662C43534213
:1016F00025332E32662C565425332E3266230000B5
:101700005405002010B54248007801287ED1002001
:101710003F4908703F4940A0FEF790FD98B901206D
:101720003F490860142006F015FE00203D49C1F82D
:10173000AC013D483D490860022009F05FF90020F6
:101740003A49086062E0334939A0FEF777FD98B95D
:10175000012033490860142006F0FCFD00203149C7
:10176000C1F8AC01344831490860022009F046F95B
:1017700000202E49086049E0264930A0FEF75EFDB2
:1017800098B9012026490860142006F0E3FD0020E6
:101790002449C1F8AC012C482C490860012009F00B
:1017A0002DF900202949086030E01A4928A0FEF7E9
:1017B00045FD98B901201A490860142006F0CAFDB9
:1017C00000201849C1F8AC012448204908600120D4
:1017D00009F014F900201D49086017E00D4920A008
:1017E000FEF72CFD90B900240EE001200C490860A2
:1017F000142006F0AFFD00200A49C1F8AC01142006
:1018000006F0A8FD601CC4B2032CEEDB10BD000086
:101810009E02002004070020676F6261636B000076
:10182000AC01214200002142000070C124000020D0
:10183000676F616865616400000070417475726E65
:101840006C656674000000000000C8C3280000201A
:101850007475726E72696768740000000000C84396
:1018600062757A7A6572000010B526480078012802
:1018700046D1002023490870234924A0FEF7DEFC4E
:1018800078B901230022032121A001F0E8FF012003
:101890002249086009F0B2F800202149C1F8AC01E2
:1018A0002EE019491FA0FEF7C9FC90B901230022C0
:1018B00003211DA001F0D3FF1E481F49086001202D
:1018C00009F09CF8012009F099F800201A490860F5
:1018D00016E00D4919A0FEF7B1FC88B901230022DA
:1018E000032117A001F0BBFF18481349086001202D
:1018F00009F084F8012009F081F800200E49086001
:1019000010BD00009E0200200407002036000000E9
:101910006E756D3A3621202000000000AC01214296
:1019200000002142320000006E756D3A3221202005
:10193000000000000000C8C32800002033000000A1
:101940006E756D3A33212020000000000000C8436E
:1019500010B523480078012840D1002020490870A4
:10196000204921A0FEF76AFC48B9204820490860B8
:10197000022009F043F800201D4908602EE01949B3
:101980001CA0FEF75BFC90B91B481C4908600120B5
:1019900009F034F800201949086019481449086012
:1019A000012009F02BF800201149086016E00D49CC
:1019B00014A0FEF743FC88B90C48104908600120C8
:1019C00009F01CF800200D4908600D48084908601E
:1019D000012009F013F800200549086010BD00003F
:1019E0009E02002004070020310000000000C843D0
:1019F00024000020320000000000C8C3280000209E
:101A000000007041330000002DE9F05F05460C46F0
:101A1000124E134801682046FEF783FC83461148A6
:101A200001685846FEF725FC804631464FF07E504F
:101A3000FEF771FC82464146FEF773FC07463146CD
:101A40002846FEF76EFC81463946FEF712FC054932
:101A5000086008460068BDE8F09F00000AD7A33C74
:101A6000D00100200C0200202DE9F05F05460C4655
:101A7000124E134801682046FEF753FC8346114876
:101A800001685846FEF7F5FB804631464FF07E5020
:101A9000FEF741FC82464146FEF743FC07463146CD
:101AA0002846FEF73EFC81463946FEF7E2FB054933
:101AB000086008460068BDE8F09F00000AD7A33C14
:101AC000D0010020480200200146072323EA01023A
:101AD0001202054B18684FF6FF031840034B1843DA
:101AE0001043014B186070470CED00E00000FA0550
:101AF00038B5002000906B4601227521682007F060
:101B000051FD2CA005F0A8F99DF8000068280ED022
:101B100000BF3148006800F4E06030490843001D10
:101B20002D490860BFF34F8F00BF00BFFEE708F0EC
:101B300059F800283CD1782008F05EFE10B91DA0AD
:101B400005F08AF9782007F03BFF10B924A005F0D2
:101B500083F9C82008F002FE10B92BA005F07CF92B
:101B600006F096FD10B932A005F076F93D4807F071
:101B7000BBFD044606F0E6FF10B93BA005F06CF98A
:101B800040F2731006F02CFC10B941A005F064F986
:101B9000C82006F007FF10B947A005F05DF908F06E
:101BA0006BFF012008F0D6FC10B94CA005F054F9E9
:101BB00038BD00006D70755F7365745F73656E731B
:101BC0006F7220636F6D706C657465202E2E2E2EE3
:101BD0002E2E0D0A000000000CED00E00000FA05BA
:101BE0006D70755F636F6E6669677572655F666954
:101BF000666F20636F6D706C657465202E2E2E2EBF
:101C00002E2E0D0A000000006D70755F7365745F05
:101C100073616D706C655F7261746520636F6D7068
:101C20006C657465202E2E2E2E2E2E0D0A000000BF
:101C3000646D705F6C6F61645F6D6F74696F6E5F10
:101C40006472697665725F6669726D77617265202C
:101C5000636F6D706C657465202E2E2E2E2E2E0DEA
:101C60000A00000088000020646D705F7365745F77
:101C70006F7269656E746174696F6E20636F6D70E9
:101C80006C657465202E2E2E2E2E2E0D0A0000005F
:101C9000646D705F656E61626C655F6665617475C9
:101CA000726520636F6D706C657465202E2E2E2E0C
:101CB0002E2E0D0A00000000646D705F7365745F66
:101CC0006669666F5F7261746520636F6D706C65C5
:101CD0007465202E2E2E2E2E2E0D0A006D70755F2F
:101CE0007365745F646D705F737461746520636F96
:101CF0006D706C657465202E2E2E2E2E2E0D0A0012
:101D000010B50446242C0AD11E48007838B90120A9
:101D10001C49087014211C48FEF772FA10BD1948BE
:101D2000007801282BD1232C0ED1002015490870F2
:101D30001649087000F0F0FD0120154908701421C3
:101D40001148FEF75DFA1AE00E480078012816D116
:101D5000242C14D00D4801780078401C0B4A1070D8
:101D60000948445410460078142808DD0020114624
:101D700008700449087014210348FEF741FA00BFB7
:101D8000CCE70000A00200202D070020A1020020C7
:101D9000A202002010B50446242C0AD11C48007869
:101DA00038B901201A49087014211A48FEF728FA98
:101DB00010BD17480078012828D1232C09D101F043
:101DC00017F90020124908701349087001201349BF
:101DD00008700F480078012818D1242C16D00E481E
:101DE00001780078401C0C4A10700A484454104690
:101DF000007814280ADD0020114608700449087094
:101E00000649087014210348FEF7FAF900BFCFE72E
:101E10009C020020040700209D0200209E0200205A
:101E200010B50446242C0AD11C48007838B901208A
:101E30001A49087014211A48FEF7E2F910BD174834
:101E40000078012828D1232C09D101F0D1F80020F5
:101E500012490870134908700120134908700F488F
:101E60000078012818D1242C16D00E48017800786B
:101E7000401C0C4A10700A4844541046007814283C
:101E80000ADD0020114608700449087006490870F0
:101E900014210348FEF7B4F900BFCFE79C020020ED
:101EA000040700209D0200209E02002010B5044679
:101EB000242C0AD11C48007838B901201A4908702E
:101EC00014211A48FEF79CF910BD17480078012824
:101ED00028D1232C09D101F08BF800201249087079
:101EE000134908700120134908700F480078012831
:101EF00018D1242C16D00E4801780078401C0C4ACA
:101F000010700A4844541046007814280ADD002056
:101F100011460870044908700649087014210348E6
:101F2000FEF76EF900BFCFE79C02002004070020F7
:101F30009D0200209E020020704701B500200AE0AB
:101F4000002001E0411CC8B20A28FBDB9DF800100C
:101F5000491EC9B200919DF800100029F0D108BDBA
:101F60002DE9F0414C48006800287DD14FF48050A5
:101F70004A4908604A480088002804DD484800882B
:101F8000401E4749088047480078032802D103F0E3
:101F900053FA05E043480078042801D1FFF79CF983
:101FA0004148007800F0BCFA002002F0E9FF8046CA
:101FB000012002F0E5FF45422946404600F018FDA9
:101FC0003A4801683A480068FFF750FA0746294640
:101FD000404604F06FFE064632480078032805D1DB
:101FE0003448006804F068FA044604E031480068A8
:101FF00004F0D0FA0446B81920442F490860B819F3
:10200000001B2E4908602C48006802F0FFF92A499D
:1020100008602A48006802F0F9F928490860284A4F
:1020200051422548006802F0FEF923490860244A1D
:1020300051422248006802F0F6F920490860194828
:102040000078D0B92B464246194801681D480068FF
:1020500002F0F4F910B101201B4908701B48007808
:1020600058B12A46414600E014E01148006802F0E9
:1020700055FD10B1002014490870154801680C483E
:10208000006804F04BFA28B90C4801680A48006857
:1020900003F06EFABDE8F0813001214214040140E2
:1020A000E00000209D01002000000020080000202A
:1020B000040000200C00002010000020140000206C
:1020C000D8F5FFFF1C0000202C0000202D00002070
:1020D000E4000020002123498279002A3AD00A46F0
:1020E000126803689A430B461A600A1D1268036857
:1020F0009A430B1D1A60027911440A6803681A4357
:102100000A60184A0832126803689A43154B08336C
:102110001A601A1D126803689A43124B0C331A6036
:102120004279102A0ED11A1F126803681A430D4B08
:1021300008331A601A1D126803681A43094B0C33DE
:102140001A600DE00749427911440A6803681A438E
:102150000A6005E0027911440A6803689A430A603C
:10216000704700000004014000B587B00121022043
:1021700002F02EFD0121042002F04AFDC020ADF83E
:10218000000004208DF8030069461C4800F0EAF8BE
:1021900004A804F087F90020ADF810004FF6FF7096
:1021A000ADF814000020ADF81600ADF8120004A937
:1021B000134804F025F900231A460321104803F0C0
:1021C000FBFE01A803F080FF0A20ADF80C0001A976
:1021D0000B4803F023FF0121094803F0D7FD01223A
:1021E0001146074803F079FF0021054804F0D9F8AB
:1021F0000121034803F0D0FD07B000BD00080140F5
:102200000004004000B587B00121042002F0E0FC8A
:102210000121082002F0FCFCC020ADF800000420E1
:102220008DF8030069461C4800F09CF804A804F0EF
:1022300039F90020ADF810004FF6FF70ADF814002A
:102240000020ADF81600ADF8120004A9134804F000
:10225000D7F800231A460321104803F0ADFE01A869
:1022600003F032FF0A20ADF80C0001A90B4803F07F
:10227000D5FE0121094803F089FD012211460748D6
:1022800003F02BFF0021054804F08BF801210348DF
:1022900003F082FD07B000BD000C014000080040C3
:1022A0002DE9F05F1848B0F9000018490880B1F92D
:1022B0000010174AB2F90020881AFEF738FA0646CD
:1022C000144A154BFEF744F904460D460F48B0F981
:1022D0000000FEF72CFA06460E4A104BFEF738F9BE
:1022E000804622462B46FEF78CF88246FEF7A8FA77
:1022F0000B4908600548B0F9000005490880084806
:102300000068BDE8F09F0000B4020020B602002083
:10231000B8020020FCA9F1D24D62403F4D62503F0F
:10232000BC02002030B500228B071C0F0F2303FADC
:1023300004F20B4B8C1053F824309343084C8D104F
:1023400044F8253023468C1053F824308C07240F92
:1023500000FA04F42343024C8D1044F8253030BDBC
:10236000080001402DE9F04102460025002600202A
:1023700000230024002791F803C00CF00F0591F80A
:1023800003C00CF0100CBCF1000F03D091F802C098
:102390004CEA050591F800C0BCF1000F31D014687B
:1023A00000202BE04FF0010C0CFA00F3B1F800C054
:1023B0000CEA03069E4220D183004FF00F0C0CFA6A
:1023C00003F7BC4305FA03FC4CEA040491F803C08C
:1023D000BCF1280F06D14FF0010C0CFA00FCC2F83A
:1023E00014C00AE091F803C0BCF1480F05D14FF0CA
:1023F000010C0CFA00FCC2F810C0401C0828D1D314
:102400001460B1F800C0BCF1FF0F34DD5468002047
:102410002EE000F1080C4FF0010808FA0CF3B1F8B7
:1024200000C00CEA03069E4221D183004FF00F0C3E
:102430000CFA03F7BC4305FA03FC4CEA040491F8D8
:1024400003C0BCF1280F05D100F1080C08FA0CF804
:10245000C2F8148091F803C0BCF1480F07D100F115
:10246000080C4FF0010808FA0CF8C2F81080401C64
:102470000828CED35460BDE8F0810000F0B50A46CC
:10248000002300240021002500F00046B6F1004F93
:1024900002D11D4EF16901E01B4E7168C0F3034586
:1024A00083B200F44016B6F5401F08D121F07061E8
:1024B000154E766826F07066134F7E6012E000F4C9
:1024C0008016B6F5801F06D1032606FA05F4A1434F
:1024D00041F0706106E0460D360103FA06F6B1439D
:1024E00041F0706122B1460D360103FA06F6314320
:1024F00000F00046B6F1004F02D1034EF16101E059
:10250000014E7160F0BD0000000001400246002055
:1025100093680B400BB1012000E0002070470000E1
:102520002DE9F04F91B0804602F046FDE249086087
:10253000B8F1010F1BD102F0F5FBE0480068E0495B
:102540000860E049B1F90000FEF7E3F8DE490860F1
:10255000DC49B1F90400FEF7DCF8DC490860DC492D
:10256000B1F90400FEF7D5F8DA490860A1E1442189
:10257000D02000F0C5FA83464321D02000F0C0FAF5
:102580000BEB00200990FEF7C4F806464621D02048
:1025900000F0B6FA83464521D02000F0B1FA0BEBEB
:1025A00000200990FEF7B5F80A904821D02000F0ED
:1025B000A7FA83464721D02000F0A2FA0BEB0020B7
:1025C0000990FEF7A6F807463C21D02000F098FAC3
:1025D00083463B21D02000F093FA0BEB00200990BA
:1025E000FEF797F80D903E21D02000F089FA83463F
:1025F0003D21D02000F084FA0BEB00200990FEF77B
:1026000088F882464021D02000F07AFA83463F21A4
:10261000D02000F075FA0BEB00200990FEF779F856
:1026200005464FF08E413046FEF730F905D24FF0A7
:102630008F413046FDF76FFE06464FF08E410A98F7
:10264000FEF724F905D24FF08F410A98FDF763FE9B
:102650000A904FF08E413846FEF718F905D24FF038
:102660008F413846FDF757FE07464FF08E410D98D3
:10267000FEF70CF905D24FF08F410D98FDF74BFE98
:102680000D904FF08E415046FEF700F905D24FF005
:102690008F415046FDF73FFE82464FF08E4128465F
:1026A000FEF7F4F805D24FF08F412846FDF733FED0
:1026B000054686F00040844908600D98FEF794F8BE
:1026C000854A864BCDE90601FDF7B4FFCDE9080147
:1026D000FEF7B6F810905046FEF786F87E4A7F4B1C
:1026E000CDE90601FDF7A6FFCDE90801FEF7A8F840
:1026F0000F902846FEF778F8774A784BCDE9060127
:10270000FDF798FFCDE90801FEF79AF80E903046E4
:10271000FEF76AF84FF06632714BCDE90601FDF71E
:1027200089FFCDE90801FEF78BF881460A98FEF78C
:102730005BF84FF066326A4BCDE90601FDF77AFF90
:10274000CDE90801FEF77CF80446664800780228C7
:1027500037D189F0004002460390DDE90E1000F009
:102760005FFC8346FEF740F85F4A604BCDE9040109
:10277000FDF760FF00225E4BCDE90601FDF7E8FEA4
:10278000CDE90801FEF75CF84C49086022460E9935
:10279000109800F0A1FD8346FEF726F8524A534BED
:1027A000CDE90401FDF746FF0022514BCDE90601BA
:1027B000FDF7CEFECDE90801FEF742F84D4908606D
:1027C0006FE04848007803286BD12846FEF70CF8E4
:1027D000CDE902015046FEF707F8CDE90001DDE939
:1027E000022305F0E3FA0022414BCDE90401FDF795
:1027F000AFFE3D4A3D4BCDE90601FDF71BFFCDE99C
:102800000801FEF71DF80C902846FDF7EDFFCDE915
:1028100002010D98FDF7E8FFCDE90001DDE9022393
:1028200005F0C4FA0022324BCDE90401FDF790FE19
:102830002D4A2E4BCDE90601FDF7FCFECDE908013E
:10284000FDF7FEFF0B903046FDF7CEFF4FF06632EE
:10285000294BCDE90601FDF7EDFECDE90801FDF7B5
:10286000EFFF834659460C98FFF7CEF880F0004002
:10287000124908600A98FDF7B7FF4FF066321E4B09
:10288000CDE90601FDF7D6FECDE90801FDF7D8FF39
:10289000834659460B98FFF7E7F880F0004015494A
:1028A000086006480068064908600848076009484B
:1028B000056011B0BDE8F08F180000207000002006
:1028C000040000205C000020080000200C00002014
:1028D000620000201C0000208FC2F5285C1F9A4077
:1028E000665E8D4000000020F1D4C853FB210940F2
:1028F000008066406C0000206666304010B500F035
:1029000065F8044603492046FDF70BFD04462046C2
:1029100010BD0000C3F5804029480078303864219C
:10292000484327494978303901EB810100EB4101E7
:102930002348807830380844224908802048C078ED
:102940003038642148431E490979303901EB81014F
:1029500000EB41011A484079303808441949488051
:1029600019480078042829D1154880793038642125
:1029700048431349C979303901EB810100EB41012A
:102980000F48007A303808440E4988800C48407A55
:102990003038642148430A49897A303901EB810192
:1029A00000EB41010648C07A303808440549C88028
:1029B00008468088C988484302490881704700005A
:1029C0002D070020A40200209D01002070B50520E5
:1029D000FEF79AFD05462846FDF7A4FE0646034984
:1029E000FDF79FFC0446204670BD00003333533A88
:1029F0002DE9F04F87B083468A465846FDF797FE8B
:102A00000022344BCDE90001FDF7A2FD0022324B3C
:102A1000CDE90201FDF70EFE804600222F4BFDF7A7
:102A200009FE064600222E4BFDF704FE0446FDF784
:102A300007FF05900598FDF7D7FE2A4A2A4BCDE9F6
:102A40000201FDF785FD80460022284BFDF780FD41
:102A500006460022264BFDF7EDFD0446FDF7F0FE8D
:102A6000244908605046FDF762FE0022194BCDE96B
:102A70000001FDF76DFD06460022174BFDF7DAFD5C
:102A800004460022154BFDF7D5FD80460022144B6D
:102A9000FDF7D0FDCDE90201FDF7D2FE04900498C8
:102AA000FDF7A2FE80460F4A0F4BFDF751FD0022B5
:102AB0000E4BCDE90201FDF74BFD064600220C4B03
:102AC000FDF7B8FD0446FDF7BBFE0B49086007B0F3
:102AD000BDE8F08F000069400000104000003E405B
:102AE00000002640F1D4C853FB21094000C05040EB
:102AF00000002440F4000020F800002000BFFEE7A2
:102B000070B505460E46002400F0EAF8284600F0AD
:102B1000B5F8641C00F03CF9304600F0AFF8641CD6
:102B200000F036F900F0DCF8691CC8B200F0A6F835
:102B3000641C00F02DF9002000F068F8044600F055
:102B400003F9204670BD000010B500200E49086052
:102B50000E48006820F470600C4908600846006860
:102B600040F44070086000200949C1F8A801012024
:102B700005F0FAFB01200449086005F0F5FB002090
:102B80000349C1F8AC0110BDAC812142040C0140E5
:102B90000080214208B50121082002F039F84FF4E5
:102BA0004060ADF8000010208DF8030003208DF880
:102BB000020069460148FFF7D5FB08BD000C014043
:102BC00010B500200E4908600E48006820F47060BF
:102BD0000C4908600846006840F440700860012015
:102BE0000949C1F8A80105F0BFFB012004490860AC
:102BF00005F0BAFB00200449C1F8AC0110BD00008B
:102C0000AC812142040C01400080214270B5054690
:102C100000241748006820F47060154908600846D1
:102C2000006840F400600860002616E000201149AA
:102C30000860022005F098FB01200F49C1F8AC01A3
:102C40006006040E0B488438006808B1601CC4B2EA
:102C5000022005F089FB701CC6B2082EE6DB15B118
:102C6000FFF772FF01E0FFF7ABFF204670BD0000E9
:102C7000040C0140AC8121420080214270B5044621
:102C80001448006820F47060124908600846006823
:102C900040F44070086000200F490860002516E0ED
:102CA000E0090D49091F08606006040E012005F0C7
:102CB0005BFB01200949C1F8AC0105F055FB002080
:102CC00005490860012005F04FFB681CC5B2082DBE
:102CD000E6DB70BD040C0140AC8121420080214242
:102CE00010B51648006820F4706014490860084662
:102CF000006840F4407008600120114908601148E4
:102D0000D0F8280108B9002010BD01200C49091D88
:102D1000086005F029FB00200A49C1F8A80108480D
:102D20008038006808B10020EEE7012005F01CFBA8
:102D300000200349091D08600120E5E7040C01405B
:102D4000A88121420080214210B50E48006820F47D
:102D500070600C4908600846006840F440700860E4
:102D60000020094908600949C1F8A801012005F0BF
:102D7000FBFA0120044908600449C1F8A80105F0E4
:102D8000F3FA10BD040C0140AC81214200802142C5
:102D900010B500241548006820F4706013490860DD
:102DA0000846006840F4006008600120104908608F
:102DB00005F0DAFA01200F49C1F8AC0105F0D4FAA8
:102DC0000AE0601CC4B2322C03DDFFF7BDFF002017
:102DD00010BD012005F0C8FA0548803800680028B9
:102DE000EFD10349091D08600120F1E7040C0140FF
:102DF000A88121420080214270B505460E46144646
:102E000031462846FFF77CFE2070012070BDF8B5E2
:102E100006460F4614461D466A4639463046FFF7B9
:102E2000EBFF2DB10120A0409DF80010084305E004
:102E30000120A0409DF8001021EA0000C0B20090DF
:102E40009DF800203946304600F036F8F8BD2DE9EF
:102E5000F8430746884614461D46089E6A46414682
:102E60003846FFF7C9FF28B3601CFF2101FA00F0C4
:102E7000C4F108012944491EFF220A41104300F011
:102E8000FF09C5F1080006FA00F0C6B2C4F1070058
:102E900006419DF8000000EA090000909DF800003E
:102EA000304300909DF800204146384600F004F879
:102EB000BDE8F8830020FBE737B504460D4602ABBA
:102EC00001222946204600F001F83EBD2DE9F041DF
:102ED00080460D4616461F460024FFF701FF404678
:102EE000FFF7CCFEFFF754FF2846FFF7C7FEFFF7BA
:102EF0004FFF00BF06E0385DFFF7C0FEFFF748FF59
:102F0000601CC4B2B442F6DBFFF71EFF0120BDE82F
:102F1000F081000009480068094908600948006814
:102F2000486009480068886008480068C860084828
:102F30000068086107480068486170470801002080
:102F4000BC0600200C01002010010020140100200C
:102F5000180100201C01002001464906084A926918
:102F600042F00102064B9A61064A526822F0E06282
:102F7000044B5A601A4652680A435A607047000070
:102F8000001002400000014000B9704704490A687F
:102F900002604A6842600989018100BFF5E70000CC
:102FA000A402002070B506460D461EB115B10B48AF
:102FB000007808B9002070BD0948FDF738F9C4B29F
:102FC000AC4201DB681EC4B2224605493046FDF71B
:102FD000FEF8002030552046EDE700009F0200205B
:102FE000180700200148007870470000A202002066
:102FF00010B5142207490848FDF7E9F800200649F2
:1030000008750846007808B1012000E00020034957
:10301000087010BD04070020180700209F02002040
:103020002DE9F04FADB0044689469246A3482B9057
:10303000A349D1E90023D1E90201CDE92723CDE954
:103040002901CDF898A09E4B1033D3E90021D3E994
:103050000203CDE92403CDE922219949203103C996
:10306000CDE920019649283103C9CDE91E01944BD1
:1030700030330FCB1AAD0FC591484030006819901E
:103080008F4B4433D3E90020D3E9021316AD0BC5AF
:1030900015928B49543103C9CDE9130100201190D9
:1030A00012900F9010900B900C900D900E90079036
:1030B000089009900A900590069004904846FDF704
:1030C00093FB0746884684F000400190FDF78CFB97
:1030D0003A464346CDE9020104F068FE0546FDF795
:1030E000AFFB834611A8774922AA0123CDE900212D
:1030F000029002221146104607F026FC0FA826A9CE
:1031000020AA0123CDE9002102901A461946022087
:1031100007F01AFC0F991198FDF7ABF86A4908609F
:1031200010991298FDF7A5F8674948600BA8674900
:1031300022AA0223CDE9002102901A461946184618
:1031400007F002FC07A815A90BAA0223CDE900216C
:1031500002901A461946184607F0F6FB1A99079886
:10316000FDF787F85A4908601B990898FDF781F820
:10317000574948601C990998FDF77BF854498860C5
:103180001D990A98FDF775F85149C86005A81EAA4F
:103190000223CDE9002102901A461946012007F0CA
:1031A000D3FB04A813A905AA0123CDE900210290AD
:1031B00002221146184607F0C7FB19990498FDF73B
:1031C00058F8054629464FF07E50FDF7DCF804908C
:1031D00011A813A93E4A0123CDE900210290022241
:1031E0001146104607F0B0FB3A4804A911AA012382
:1031F000CDE9002102901A461946022007F0A4FBEF
:1032000004A831491EAA0123CDE90021029002221F
:103210001146184607F098FB58460499FDF77BF8CD
:10322000049011A804A92B4A0123CDE900210290A2
:103230001A461946022007F087FB234A11991068A5
:10324000FDF717F81F4908601F4A12995068FDF7EB
:1032500010F81C4948600BA81EA91E4A0223CDE99C
:103260000021029001221146184607F06DFB0B99D0
:103270002798FDF750F80B900C992898FDF74BF81C
:103280000C900D992998FDF746F80D9027AA0E99F4
:10329000D068FDF740F80E900C480D490BAA0223A8
:1032A000CDE9002102901A461946184607F04CFB5A
:1032B000044800682DB0BDE8F08F00000AD7A33B9A
:1032C00020E200084C020020540200205C02002092
:1032D000E40600206C0200202DE9F04FADB004465A
:1032E00089469246A3482B90A349D1E90023D1E90E
:1032F0000201CDE92723CDE92901CDF898A09E4B05
:103300001033D3E90021D3E90203CDE92403CDE949
:1033100022219949203103C9CDE92001964928315C
:1033200003C9CDE91E01944B30330FCB1AAD0FC545
:1033300091484030006819908F4B4433D3E9002006
:10334000D3E9021316AD0BC515928B49543103C94D
:10335000CDE913010020119012900F9010900B9066
:103360000C900D900E900790089009900A9005908F
:10337000069004904846FDF737FA0746884684F0E1
:1033800000400190FDF730FA3A464346CDE902018C
:1033900004F00CFD0546FDF753FA834611A8774962
:1033A00022AA0123CDE900210290022211461046F3
:1033B00007F0CAFA0FA826A920AA0123CDE9002107
:1033C00002901A461946022007F0BEFA0F9911988A
:1033D000FCF74FFF6A49086010991298FCF749FF03
:1033E000674948600BA8674922AA0223CDE900215A
:1033F00002901A461946184607F0A6FA07A815A91A
:103400000BAA0223CDE9002102901A46194618465C
:1034100007F09AFA1A990798FCF72BFF5A490860A7
:103420001B990898FCF725FF574948601C99099893
:10343000FCF71FFF544988601D990A98FCF719FF93
:103440005149C86005A81EAA0223CDE900210290B7
:103450001A461946012007F077FA04A813A905AA0D
:103460000123CDE90021029002221146184607F0FF
:103470006BFA19990498FCF7FCFE054629464FF0B3
:103480007E50FCF780FF049011A813A93E4A012347
:10349000CDE90021029002221146104607F054FAAD
:1034A0003A4804A911AA0123CDE9002102901A4645
:1034B0001946022007F048FA04A831491EAA012340
:1034C000CDE90021029002221146184607F03CFA8D
:1034D00058460499FCF71FFF049011A804A92B4A31
:1034E0000123CDE9002102901A461946022007F077
:1034F0002BFA234A11991068FCF7BBFE1F4908609C
:103500001F4A12995068FCF7B4FE1C4948600BA88A
:103510001EA91E4A0223CDE9002102900122114674
:10352000184607F011FA0B992798FCF7F4FE0B9058
:103530000C992898FCF7EFFE0C900D992998FCF750
:10354000EAFE0D9027AA0E99D068FCF7E4FE0E90D3
:103550000C480D490BAA0223CDE9002102901A461E
:103560001946184607F0F0F9044800682DB0BDE888
:10357000F08F00000AD7A33B7CE200087402002011
:103580007C02002084020020F40600209402002027
:1035900008B50121042001F03BFB4FF48070ADF829
:1035A000000048208DF8030069460248FEF7DAFE65
:1035B00008BD0000000801400146124800880028AC
:1035C0001EDD01EBC10000EB0110022202EB8000C6
:1035D0000C4A1288904213DD0A480088401C094AB0
:1035E000108001EBC10000EB0110022202EB800011
:1035F000044A1288904201D1012070470020FCE764
:103600000020FAE7CE00002010B5044600F022F8B2
:1036100001280BD1601C0D490988B1EB400F0ADA73
:103620000A480088401C0949088004E00020074936
:1036300008800749088005480088022803D1012036
:103640000349088010BD0020FCE70000D0000020E6
:10365000CE00002010B54FF480710448FEF756FFED
:1036600008B9012010BD0020FCE70000000801405F
:103670001FB50121084601F0CBFA0121042001F019
:10368000C7FA4FF48050ADF80C0048208DF80F00B9
:1036900003A91248FEF766FE0C210020FEF742FE49
:1036A0004FF48050019000208DF808000C208DF818
:1036B000090001208DF80A0001A8FEF70BFD282063
:1036C0008DF8000002208DF8010001208DF8020025
:1036D0008DF80300684600F085F81FBD0008014022
:1036E00010B5022000F010F8032000F021F80020AF
:1036F00000F014F8002000F037F8002000F02BF85C
:10370000002000F01FF810BD38B504460323022244
:103710006B21D0200094FFF79AFB38BD38B50446E2
:10372000022304221C21D0200094FFF790FB38BD17
:1037300038B50446022304221B21D0200094FFF751
:1037400086FB38BD10B50446234601223721D02020
:10375000FFF75DFB10BD10B50446234605226A2124
:10376000D020FFF754FB10BD10B5044623460622B7
:103770006B21D020FFF74BFB10BD00BFFEE7000020
:1037800010B5002401231A46194611A000F067F86D
:103790000FE0002001F0F4FB204404B2012001F00E
:1037A000EFFB4042204404B2204604F095FC07F0B1
:1037B000F3F90120FFF728FF0028EAD001F044FECA
:1037C00001F014FF01F032FF01F05EFE10BD0000B9
:1037D000312E5374616E64617264204D6F646500B4
:1037E0007047000070B5002100230F22C47804B395
:1037F000154C246804F4E064C4F5E064210AC1F1C6
:103800000403CA40447804FA03F184781440214345
:1038100009010E4C0678A155047804F01F05012417
:10382000AC4005786D11AD0005F1E025C5F800410B
:1038300009E0047804F01F050124AC40044D06782B
:10384000761145F8264070BD0CED00E000E400E084
:1038500080E100E010B5002001F0B4FC10BDF8B527
:1038600007460C4615461E46002C0CDD032C0ADCD0
:10387000601E00EB80004006020E2B4600213846F9
:10388000009600F001F8F8BD2DE9F04107460C461E
:1038900015461E46DDF818800EB1FFF7DBFF2946FE
:1038A000204601F09FFC01220549384601F0F4FC56
:1038B000B8F1000F01D000F095F9BDE8F0810000EB
:1038C000A400002010B500F013F800F0E9F801237F
:1038D0001A46194601A0FFF7C2FF10BD6F6C656460
:1038E00020696E69742073756363657373210000CA
:1038F0000848806940F00800064988610648006869
:1039000020F0FF00044908600846006840F03300DA
:103910000860704700100240040C014070B5044676
:103920001448006820F0F00012490860084600685A
:1039300040F03000086000200F490860002516E0C4
:10394000E0090D49091D08606006040E0120FEF71C
:10395000F4FA01200949C1F8A001FEF7EEFA0020AF
:10396000054908600120FEF7E8FA681CC5B2082D79
:10397000E6DB70BD040C0140A081214200802142A1
:1039800010B51648006820F0F00014490860084699
:10399000006840F0300008600120114908601148BB
:1039A000D0F8240108B9002010BD01200C49091FDE
:1039B0000860FEF7C2FA00200A49C1F8A4010848CD
:1039C0008038006808B10020EEE70220FEF7B5FA63
:1039D00000200349091F08600120E5E7040C0140AD
:1039E000A48121420080214210B51048006820F0D7
:1039F000F0000E4908600846006840F0300008609A
:103A000000200B4908600B49C1F8A4010220FEF711
:103A100094FA012006490860FEF78FFA0120054953
:103A2000C1F8A4010220FEF788FA10BD040C014081
:103A3000A08121420080214210B500241548006871
:103A400020F0F000134908600846006840F080004C
:103A50000860012010490860FEF76FFA01200F4945
:103A6000C1F8A001FEF769FA0AE0601CC4B2322C6A
:103A700003DDFFF7B9FF002010BD0120FEF75DFA5E
:103A80000548803800680028EFD10349091F086005
:103A90000120F1E7040C0140A48121420080214271
:103AA00010B540F6C41400E0641E002CFCD1AE2218
:103AB00000213C2007F01EF9A62200213C2007F03F
:103AC00019F9AE2200213C2007F014F9D52200217B
:103AD0003C2007F00FF9802200213C2007F00AF972
:103AE000A82200213C2007F005F91F2200213C20DC
:103AF00007F000F9D32200213C2007F0FBF8002258
:103B000011463C2007F0F6F8402200213C2007F047
:103B1000F1F88D2200213C2007F0ECF8142200215E
:103B20003C2007F0E7F8202200213C2007F0E2F8D3
:103B3000022200213C2007F0DDF8A12200213C20D8
:103B400007F0D8F8C82200213C2007F0D3F8DA2289
:103B500000213C2007F0CEF8022200213C2007F093
:103B6000C9F8812200213C2007F0C4F8CF220021AF
:103B70003C2007F0BFF8D92200213C2007F0BAF81A
:103B8000F12200213C2007F0B5F8DB2200213C2087
:103B900007F0B0F8402200213C2007F0ABF82E22BD
:103BA00000213C2007F0A6F8A42200213C2007F0C9
:103BB000A1F8A62200213C2007F09CF8AF220021AA
:103BC0003C2007F097F8002001F0FCFA01F07AFBA6
:103BD00000200349088048800120487110BD000082
:103BE0009C00002010B501F06DFB10BD2DE9F041E7
:103BF00005460E4617469846FFF7C2FE10B901204B
:103C0000BDE8F0816906080EFFF788FEFFF714FF94
:103C100018B9FFF7E9FE0120F2E73046FFF77EFE14
:103C2000FFF70AFF00240BE018F80400FFF776FE08
:103C3000FFF702FF18B9FFF7D7FE0020E0E7641C8A
:103C4000BC42F1DBFFF7D0FE0020D9E710B52548D4
:103C50000078F0B1244800884FF6FF71884204DAFA
:103C600021480088401C204908801F4800883228CD
:103C70000FDB1E48007860B900201D4908601D490F
:103C8000086001201C49087018490870042000F0E1
:103C900087FA1A4800781A49097888420DD01848DE
:103CA0000078164908701648007818B1012000F015
:103CB00077FA02E0022000F073FA124800780E4909
:103CC000097888420DD00C4800780E4908700A48DF
:103CD000007818B1122000F063FA02E0132000F01F
:103CE0005FFA10BDDA000020D8000020DB000020C1
:103CF00024000020280000202C000020DC000020F0
:103D0000CA000020DD000020014608784A7840EA19
:103D1000022000B2704770B504460D4684F00106DB
:103D20006E4086EA0200002103E05E5C70404E1C9B
:103D3000F1B29142F9DB70BD10B504460749204647
:103D4000FCF7A4FD01D2054810BD05492046FCF74B
:103D500093FD01D20248F7E72046F5E70000F04165
:103D60000000F0C110B50548007830B94FF4E130DB
:103D700002F0ACFD01200149087010BDDF000020F9
:103D80000148007870470000DE0000202DE9F05F58
:103D900006460F4615461C460B2E6FD2DFE806F08E
:103DA0006E0613456FABB6E5FEC6D10034B10222F4
:103DB0003146384600F035FABDE8F09F31463846C6
:103DC00000F0C2F900E1012C05D00222314638464C
:103DD00000F027FAF0E72878012805DD04223146B3
:103DE000384600F01EFAE7E7287858B900207849ED
:103DF00008700120774908700020774908607749EA
:103E000008600BE07248007828B905223146384630
:103E100000F007FAD0E700206E49087000F06EF954
:103E20003146384600F090F9CEE0012C05D0022250
:103E30003146384600F0F5F9BEE72878072805DB5B
:103E400004223146384600F0ECF9B5E72878644999
:103E5000087000205E4908705F4908605F4908608B
:103E600001205C4908705E48007800F021F900F0FC
:103E700045F93146384600F067F9A5E09EE0042C8C
:103E800005D002223146384600F0CBF994E7544879
:103E9000007848B152480078012805D00522314603
:103EA000384600F0BEF987E72846FFF72DFF834626
:103EB000FCF72FFC82464B49FCF765FA8046A81CAC
:103EC000FFF722FF8346FCF724FC82464549FCF7B6
:103ED0005AFA81464046FFF72FFF3F49086048469F
:103EE000FFF72AFF3D49086000F008F931463846DF
:103EF00000F02AF968E02CB102223146384600F081
:103F000090F959E7384600F09DF95DE02CB10222A6
:103F10003146384600F085F94EE700F0EFF800230F
:103F20001A463946852000F04BF94DE02CB10222AB
:103F30003146384600F075F93EE7384600F0E6F9BC
:103F400042E00CB1202C05DD02223146384600F05B
:103F500068F931E7FFF706FF2146284602F098FC92
:103F60003146384600F0F0F82EE02CB102223146FE
:103F7000384600F056F91FE7002017490860174936
:103F800008601349087001201249087000F0B6F863
:103F90003146384600F0D8F816E0FFE7012C05D08E
:103FA00002223146384600F03CF905E728780E49F0
:103FB00008703146384600F0C7F805E00322314664
:103FC000384600F02EF900BF00BF00BFF4E6000045
:103FD0002D0000202C0000202400002028000020BC
:103FE0009D01002000002041DE00002001480078F3
:103FF00070470000DB00002010B586B004460121A8
:10400000112000F005FE0121880400F0E1FD0121EE
:104010002448FEF733FA4FF48060ADF814001820FE
:104020008DF8170003208DF8160005A91E48FEF72D
:1040300099F94FF40060ADF8140004208DF81700D2
:1040400005A91948FEF78EF927208DF800000120F8
:104050008DF8010002208DF8020001208DF8030088
:104060006846FFF7BFFB01940020ADF80800ADF8EB
:104070000A00ADF80C00ADF810000C20ADF80E00F1
:1040800001A90A4802F09EFD012240F2255107488D
:1040900002F072FD0121054802F02BFD00F03EF810
:1040A00006B010BD10001400001001400048004090
:1040B00010B504460CB1012C02D103F05BFF0BE0FC
:1040C000022C07D0032C05D0042C03D0052C01D0E2
:1040D000062C01D1FFF746FE10BD00000248007813
:1040E000C0F3800070470000DE00002010B542548D
:1040F000C2F307244B1CC45410BD00000120044926
:1041000008700020034908800349087070470000C8
:10411000DA000020D8000020DB0000200020054944
:104120000870054908700549087005490870054977
:1041300008707047D2000020D3000020D400002077
:10414000D5000020D600002038B504460D468DF875
:1041500000508DF8014002236A462146812000F07C
:104160002FF838BD70B505460E46002404E0285DE2
:1041700000F006F8601CC4B2B442F8DB70BD000069
:1041800010B5044600BF8021044802F0BEFC0028A0
:10419000F9D02146014802F086FD10BD00480040DC
:1041A00038B50446009401236A460021842000F0BB
:1041B00007F838BD10B504462046FFF7F1FF10BDE3
:1041C0002DE9F0418AB00746884616461C46AA20CB
:1041D0008DF8000055208DF8010001208DF80200B7
:1041E0008DF803708DF804808DF80540002505E0FA
:1041F000715DA81D0DF80010681CC5B2A542F7DB63
:104200003346224641463846FFF785FDA11D0DF88D
:104210000100E01DC1B26846FFF7A4FF0AB0BDE887
:10422000F081F8B504460E4615468DF800608DF80D
:1042300001408DF8025003236A4621468220FFF791
:10424000BFFFF8BD2DE9FE43044627492748006813
:10425000FCF767F88146FCF77BFA06B2224924484E
:104260000068FCF75EF88146FCF772FA07B2214954
:1042700021480068FCF755F88146FCF782FA85B2C0
:1042800019491E480068FCF74CF88146FCF760FAB3
:104290000FFA80F81A4800788DF800001948007865
:1042A0008DF80100184800788DF80200324603218D
:1042B0006846FFF71BFF3A4605216846FFF716FFE1
:1042C000E8B28DF80700280A8DF808004246092157
:1042D0006846FFF70BFF0B236A4621468320FFF752
:1042E0006FFFBDE8FE830000000020412400002095
:1042F000280000200000C842E40000200400002044
:104300009D0100202C000020CA00002070B592B052
:1043100005460026182104A8FBF772FF002420217F
:104320000AA8FBF76DFF384800788DF82900364859
:104330000078022807D034480078052803D0324896
:10434000007806281AD1152104A8FEF72BFE044692
:1043500001208DF82800002C00DD00E000208DF801
:104360002A008DF82B400426002C44DD224604A9A7
:104370000BA8FBF72CFF201DC6B23CE022480078BA
:10438000032803D02048007804282ED102208DF87D
:104390002800FEF727FE8DF82A0001A8FEF7F4FD9D
:1043A000BDF8040002B203210AA8FFF79FFEBDF882
:1043B000060002B205210AA8FFF798FEBDF8080022
:1043C00002B207210AA8FFF791FEBDF80A0002B267
:1043D00009210AA8FFF78AFEBDF80C0002B20B21E2
:1043E0000AA8FFF783FE0D2605E000208DF82800BF
:1043F0008DF82A00032633460AAA29468620FFF7AD
:10440000DFFE12B070BD00009D01002001460029B2
:1044100002DD01F214507047002902DAA1F21450B3
:10442000F9E70846F7E703461846884200DD0846E4
:10443000904200DA10467047704700002DE9F041C5
:1044400006460F4614461D4634480088E0B920460B
:1044500006F0DFFA8046284606F0DBFA40443228B0
:1044600005DA2F480088401C2D49088002E0002012
:104470002B4908802A4800880A2805DD01202749A1
:10448000088000202649088024480088012827D178
:1044900024480088401C80B222490880C82803DDD7
:1044A000002008801D4908801F493046FCF7EEF9BE
:1044B00016D21E4801681E48FBF7DBFE80463946CF
:1044C000FCF7DAF90CD2194801681A48FBF7D1FE5B
:1044D00080463946FCF7DAF902D202200F490880FB
:1044E0000E480088022816D113480088401C80B26C
:1044F00011490880642803DD0020088007490880EE
:10450000601906F086FA322805DD0020034908808C
:104510000120BDE8F0810020FBE70000E80000205A
:10452000EA000020EC00002000E0AB462000002064
:104530000000A0C10000A041EE0000202DE9F043E2
:104540008BB0D34840783038052818D2DFE800F027
:104550001303070B0F000120CE49087013E002205F
:10456000CC4908700FE00320CA4908700BE0042012
:10457000C849087007E00020C649087003E0002021
:10458000C449087000BF00BFC148C078312802D1BB
:104590000520C0490870BE48C078322802D10620E4
:1045A000BC490870BA48FBF742FE15280CD200201F
:1045B000B94908705021B648FBF722FEB7A002F0B7
:1045C00001F90BB0BDE8F083B1484079312807D13B
:1045D00000F0A2F9052003F09FFE00F09DF90AE02B
:1045E000AB484079322806D100F026FD00F094F95E
:1045F000AFA002F0E7F8A648C079312806D1012023
:10460000AD490860AAA002F0DDF809E0A048C07931
:10461000322805D10020A8490860A5A002F0D2F8F0
:104620009B48407A312860D11C2104A8FBF7E8FDA3
:1046300000200290039000900190A0A1944801F006
:104640005DF9814609F1010000B9BAE79C480068AC
:10465000A0EB09028E4800EB090104A8FBF7B7FDA7
:1046600098A104A801F04AF90446601C00B9A8E723
:10467000A21E0DF1120102A8FBF7A9FD02A803F08A
:1046800063FC07460022904BFBF762FF0546FCF7F0
:10469000D7F88E4908601C2104A8FBF7B1FD09EB8F
:1046A0000400874B1B681A1A794848442044411C6F
:1046B00004A8FBF78CFD83A104A801F01FF90446B0
:1046C000601C00B97DE7A21E0DF112016846FBF7E0
:1046D0007EFD684603F038FC0546FCF7B1F87C49DE
:1046E000086073A002F06EF800BF6948C07A3128F4
:1046F00060D11C2104A8FBF783FD002002900390E9
:104700000090019073A1624801F0F8F8814609F128
:10471000010000B955E76A480068A0EB09025C484F
:1047200000EB090104A8FBF752FD66A104A801F003
:10473000E5F80446601C00B943E7A21E0DF1120122
:1047400002A8FBF744FD02A803F0FEFB0746002287
:104750005D4BFBF7FDFE0546FCF772F85E4908600D
:104760001C2104A8FBF74CFD09EB0400544B1B680B
:104770001A1A474848442044411C04A8FBF727FD67
:1047800050A104A801F0BAF80446601C00B918E76B
:10479000A21E0DF112016846FBF719FD684603F0F1
:1047A000D3FB0546FCF74CF84C49086040A002F0EA
:1047B00009F800BF3648407B312860D11C2104A88D
:1047C000FBF71EFD0020029003900090019044A191
:1047D0002F4801F093F8814609F1010000B9F0E695
:1047E00037480068A0EB0902294800EB090104A83A
:1047F000FBF7EDFC33A104A801F080F80446601C2F
:1048000000B9DEE6A21E0DF1120102A8FBF7DFFCE3
:1048100002A803F099FB074600222B4BFBF798FEFA
:104820000546FCF70DF82F4908601C2104A8FBF78A
:10483000E7FC09EB0400224B1B681A1A1448484491
:104840002044411C04A8FBF7C2FC27A104A801F0E6
:1048500055F80446601C00B9B3E6A21E0DF1120122
:104860006846FBF7B4FC684603F06EFB0546FBF7B1
:10487000E7FF1E4908600EA001F0A4FF00BF002062
:104880000549087050210248FBF7BAFC00BF98E6C2
:10489000300600205C0100204C010020245265639A
:1048A000656976655061636B4572726F72230000B3
:1048B000244F4B230000000048010020415000001D
:1048C000580100202C000000000059400801002081
:1048D0000C0100205650000010010020140100209F
:1048E0005450000018010020230000001C0100208B
:1048F00010B506480268521C05490648FBF767FCDC
:1049000050210348FBF77CFC10BD00005001002043
:10491000E00500203006002070B532216548FBF725
:104920006FFC644864A10968016000216348006865
:10493000FBF7ACFF0FD8624960480068FBF723FD26
:104940000646FBF751FF044622460B465DA15F4831
:1049500002F092FA03E05EA001F034FF70BD002186
:104960005F480068FBF792FF0BD85D480068FBF7D3
:104970003BFF044622460B4652A15A4802F07CFAFD
:1049800003E053A001F01EFFE8E70021564800684D
:10499000FBF77CFF0FD84A4953480068FBF7F3FC4C
:1049A0000646FBF721FF044622460B4645A14F4829
:1049B00002F062FA03E046A001F004FFCEE7002116
:1049C0004B480068FBF762FF0BD849480068FBF7CB
:1049D0000BFF044622460B463AA1464802F04CFA29
:1049E00003E03BA001F0EEFEB8E70021424800687A
:1049F000FBF74CFF0FD832493F480068FBF7C3FC78
:104A00000646FBF7F1FE044622460B462DA13B4825
:104A100002F032FA03E02EA001F0D4FE9EE700215E
:104A200037480068FBF732FF0BD835480068FBF7C2
:104A3000DBFE044622460B4622A1324802F01CFA55
:104A400003E023A001F0BEFE88E720491948FBF7E8
:104A5000E2FB2DA11748FBF7DEFB22491548FBF7C7
:104A6000DAFB2AA11348FBF7D6FB20491148FBF7D4
:104A7000D2FB27A10F48FBF7CEFB1E490D48FBF7E1
:104A8000CAFB24A10B48FBF7C6FB1C490948FBF7EE
:104A9000C2FB21A10748FBF7BEFB1A490548FBF7FB
:104AA000BAFB0EA10348FBF7B6FB024801F08AFEF1
:104AB00000BF53E75D0100202441500008010020A1
:104AC0000000C84225332E32660000008006002018
:104AD000244765745049444572726F722300000088
:104AE0000C0100208A0600201001002094060020FE
:104AF000140100209E06002018010020A8060020B6
:104B00001C010020B20600202C4144002C5650000D
:104B10002C5649002C5450002C5444002DE9F041EF
:104B200006460C4615461E48007820B900201D494F
:104B30000880BDE8F0811C48007808B90020F8E73B
:104B400018480088C0B9194801681948FBF791FB5B
:104B500007463146FBF790FE0ED21448016815480F
:104B6000FBF787FB07463146FBF790FE04D21CB9E2
:104B700015B901200B4908800A48008801280CD18A
:104B8000032C01DD282C03DB032D06DD282D04DAA0
:104B90000020044908800120CBE70020C9E700007D
:104BA0002D000020F00000202C000020200000201C
:104BB000000020C10000204101460020034A506847
:104BC00020F440400843506070470000001002404D
:104BD00029B1064AD2690243044BDA6104E0034A70
:104BE000D2698243014BDA61704700000010024035
:104BF00029B1064A12690243044B1A6104E0034AD0
:104C000012698243014B1A61704700000010024094
:104C100029B1064A92690243044B9A6104E0034AAF
:104C200092698243014B9A61704700000010024074
:104C300029B1064AD2680243044BDA6004E0034A11
:104C4000D2688243014BDA607047000000100240D6
:104C500030B500210022002400232D4D6D6805F0A1
:104C60000C0121B1042905D0082923D105E0294DE3
:104C7000056022E0274D05601FE0254D6D6805F4B5
:104C80007012234D6D6805F48034022505EB9242C5
:104C90001CB9214D554305600BE01D4D6D6805F4B1
:104CA00000351DB11C4D5543056002E0194D5543BB
:104CB000056002E0174D056000BF00BF144D6D6830
:104CC00005F0F0010909154D6B5C0568DD40456094
:104CD0000F4D6D6805F4E061090A104D6B5C456885
:104CE000DD4085600A4D6D6805F46051C90A0B4DC1
:104CF0006B5C4568DD40C560054D6D6805F440415D
:104D0000890B074D6B5CC568B5FBF3F5056130BDDC
:104D10000010024000127A0000093D00440000200B
:104D2000540000202DE9F04F8FB00CA889490DAB3D
:104D300008AACDE900108849884803F0B5FC8548E9
:104D4000008800F4807000287ED00898FBF7E1FC12
:104D500004464FF09D41FBF716FB81490860099816
:104D6000FBF7D7FC04464FF09D41FBF70CFB7D4958
:104D700008600A98FBF7CDFC04464FF09D41FBF715
:104D800002FB794908600B98FBF7C3FC04464FF01F
:104D90009D41FBF7F8FA75490860714801684FF0CA
:104DA0008040FBF7BEFA06906F4801680698FBF753
:104DB000B8FA82466B4801684FF04040FBF7B1FA01
:104DC00006906A4801680698FBF7ABFA834651469D
:104DD000FBF74FFA0790FBF707FD804602F09EFDB8
:104DE00006464FF06632624BFBF7B2FB0446FBF718
:104DF00027FD604908605C4801684FF08040FBF780
:104E000090FA0390584801680398FBF78AFA8246A3
:104E1000544801684FF04040FBF783FA0390514833
:104E200001680398FBF77DFA83465146FBF773FA56
:104E300081464FF07E51FBF71CFA0446FBF7D4FC89
:104E4000CDE90401464800E081E001684FF0804070
:104E5000FBF767FA8346434801685846FBF761FA57
:104E60008146414801684FF08040FBF75AFA83467B
:104E70003E4801685846FBF754FA82464946FBF71C
:104E8000F8F90446FBF7B0FC0746DDE9042302F01D
:104E90008DFF4FF06632364BCDE90601FBF758FB2C
:104EA0000546FBF7CDFC34490860304801680068CE
:104EB000FBF737FA03902C4801680068FBF731FADA
:104EC0000290284801680068FBF72BFA83462448C3
:104ED00001680068FBF725FA59460190FBF7C9F90C
:104EE00082460299FBF717FA81460399FBF713FAFA
:104EF0000446FBF779FCCDE904011C480168184819
:104F00000068FBF70EFA82461748016815480068EA
:104F1000FBF707FA83465146FBF7ABF981464FF0A2
:104F20008041FBF7FEF90446FBF75EFC0746DDE92E
:104F3000042302F03BFF4FF066320D4BCDE9060132
:104F4000FBF706FB0546FBF77BFC0C4908600FB03E
:104F5000BDE8F08F68000020620000205C000020A7
:104F6000780000207C0000208000002084000020C9
:104F700066A64C406C0000207000002074000020E9
:104F8000014611B101290ED106E0094A128810B27A
:104F90000022074B1A8008E0064A128810B200224D
:104FA000044B1A8001E0002000BF00BF70470000E2
:104FB00024040040240800402DE9F05F4221D02065
:104FC000FDF79EFD05464121D020FDF799FD05EB3B
:104FD00000242046FBF79DFB82464FF08E41504651
:104FE000FBF754FC05D24FF08F415046FBF793F985
:104FF00082460D495046FBF7C6F98346FBF7F4FBA2
:1050000080460A4A0A4BFBF7FCF906460022094B88
:10501000FBF79EFA0446FBF713FC82465046FBF76B
:1050200097FBBDE8F09F00000000AA43A4703D0A72
:10503000D74342400000244010B521480168214870
:105040000068FBF719FC03D01D4800681D49086083
:105050001B4841681C480068FBF70EFC03D0184849
:105060004068194908601648816818480068FBF7CD
:1050700003FC03D012488068144908601048C168D6
:1050800013480068FBF7F8FB03D00D48C0681049CF
:1050900008600B4801690F480068FBF7EDFB03D07F
:1050A000074800690B490860054841690A480068DB
:1050B000FBF7E2FB03D0024840690749086010BDD6
:1050C000BC060020080100200C0100201001002077
:1050D00014010020180100201C01002010B5002040
:1050E0000B49087001200B49087000200A4908602C
:1050F0000A4908600A49087000F0A6F900F076FA3B
:1051000000F094FA00F0C0F902F0C0FF10BD0000FA
:105110002D0000202C00002024000020280000206A
:105120009D010020F0B503461446802B01DA2029AA
:1051300000DBF0BD2148007920B10CB9012000E06E
:1051400000200446012C1CD1CD1701EB5575ED1044
:1051500003EBC5151A4E755D0A46CE1701EB567660
:10516000F610A1EBC6070126BE403543EEB2084655
:10517000CD1701EB5575ED1003EBC515104F7E559E
:105180001AE0CD1701EB5575ED1003EBC5150C4E6C
:10519000755D0A46CE1701EB5676F610A1EBC607F1
:1051A0000126BE40B5430846CE1701EB5676F610F1
:1051B00003EBC616024FBD5500BFBAE79C000020A6
:1051C000E402002010B504460CB9002000E0FF20E6
:1051D00002464FF400710248FBF70BF810BD0000C7
:1051E000E4020020014A1080518070479C0000209A
:1051F0002DE9F04307460C46904626480088217862
:105200000844802805DA234840886178084420282B
:1052100002DB0020BDE8F083002530E0A7F120008C
:10522000617800FB0150616831F81090002622E09F
:1052300009FA06F000F4004058B1164A52882A4490
:1052400091B2144A1288324490B24246FFF76AFF84
:1052500010E0B8F1000F01D1012300E000231A464D
:105260000C4B5B882B4499B20A4B1B88334498B291
:10527000FFF758FF761C2078B042D9D86D1C6078B3
:10528000A842CBD803480088217808440149088007
:105290003846BFE79C00002070B504460D46164610
:1052A0000AE0207832462946FFF7A2FF217888429B
:1052B00001D0207870BD641C20780028F1D12078BE
:1052C000F8E7000010B500241BE004F1B000C2B202
:1052D00000213C2005F00EFD002211463C2005F087
:1052E00009FD102200213C2005F004FD0648802124
:1052F00001FB04020B4640213C2005F005FD601C2B
:10530000C4B2082CE1DB10BDE402002070470000AD
:1053100010B50C480068401E0A4908600A48006839
:10532000012807D10846006820B9FCF755F907485D
:1053300001F048FA0348006810B9012001490860EB
:1053400010BD0000980100204801002054050020F5
:1053500010B500F001F810BD0CB5002001900090D0
:105360003348006840F480303149086000BF30485D
:10537000006800F4003000900198401C01900098F3
:1053800018B90198B0F5A06FF1D12948006800F470
:10539000003010B10120009001E000200090009842
:1053A000012843D12348006840F0100021490860DB
:1053B0000846006820F0030008600846006840F0D6
:1053C000020008601A484068194948600846406869
:1053D00048600846406840F480604860084640687D
:1053E00020F47C1048600846406840F4E8104860AB
:1053F0000846006840F08070086000BF0C480068F4
:1054000000F000700028F9D00948406820F003003F
:10541000074948600846406840F00200486000BF05
:105420000348406800F00C000828F9D10CBD0000CA
:105430000010024000200240014802490860704705
:1054400000007041240000200C480078072812D288
:10545000DFE800F00405090A0B0C0D0000BF002076
:105460000749086007E000BF00BF00BF00BF054854
:105470000349086000BF00BF704700009D01002085
:1054800020000020000080BF23480078012803D0BE
:1054900021480078042812D1204821490860214879
:1054A00021490860214822490860224822490860B1
:1054B0002248234908602348234908602BE0164806
:1054C0000078032812D12148154908602048164960
:1054D00008602048164908601F48174908601F489F
:1054E0001749086017481849086014E00A4800780E
:1054F00088B90A480A49086019480B4908601948E0
:105500000B49086018480C49086018480C490860A5
:105510000C480D49086070479D01002000001646A8
:1055200008010020000096420C01002000C0DA456E
:105530001001002000000C42140100200000AF44C4
:10554000180100200000A0411C01002000803B4603
:10555000000090420000FA450000204200401C4537
:105560000000404200C0C1450000F8410080D44422
:1055700070B505460C4625B900201B490880091D59
:1055800008802CB90020184908310880091D0880BE
:10559000002D09DD284605F03CFA1349091D088055
:1055A0000020091F088008E000200F49091D08801D
:1055B000284605F02EFA0C490880002C09DD20460B
:1055C00005F027FA0849083108800020091D0880E5
:1055D00009E00020044908310880204605F019FA46
:1055E00001490C31088070BD343401400D48007809
:1055F00002280FD00B48007803280BD00948007808
:10560000042807D007480078052803D0054800780B
:10561000062803D11E200449087002E02820024910
:10562000087070479D0100209C010020064800780A
:1056300018B105480078012805D1044804490860DC
:1056400004480549086070479D0100200000F041B2
:1056500020010020000010422401002070B5FEF758
:105660008FFB0446FEF7C2FC0546002301221146CB
:105670001AA0FEF7F4F815B904F0010030B90023C0
:105680001A4602211AA0FEF7EAF819E004F0020017
:1056900030B900231A4602211AA0FEF7E0F80FE005
:1056A00004F0040030B900231A4602211AA0FEF7C4
:1056B000D6F805E000231A4602211CA0FEF7CFF819
:1056C00000231A4603211EA0FEF7C9F80123002279
:1056D000042120A0FEF7C3F870BD00006C696E6B5A
:1056E0002F636F6D706F6E656E742065727200004F
:1056F0004552523A205049204C494E4B204C4F5372
:10570000542000004552523A204C49444152204C0A
:105710004F535420202000004552523A20535953F1
:1057200054454D204C4F5354202000004552523ACE
:1057300020554E4B4E4F574E202020202020000059
:1057400066616C6C6261636B3A206E6F726D616C46
:105750002020000077616974207265636F7665723E
:105760002E2E2E202020000010B5FEF709FB044647
:1057700000230122114614A0FEF771F804F0010184
:1057800009B116A100E01AA1084600231A46022119
:10579000FEF765F804F0020109B11AA100E01EA1AC
:1057A000084600231A460321FEF759F804F00401C5
:1057B00009B11EA100E022A1084601230022042114
:1057C000FEF74DF810BD00005069207379737465C1
:1057D0006D20696E69742E2E2E00000050493A200B
:1057E0005245414459202020202020202020000024
:1057F00050493A2057414954202020202020202081
:10580000202000004C494441523A2052454144591D
:1058100020202020202000004C494441523A2057AB
:105820004149542020202020202000005359535467
:10583000454D3A2052454144592020202020000067
:1058400053595354454D3A20424F4F54494E4720E7
:105850002020000010B500231A46022107A0FDF702
:10586000FEFF00231A46032109A0FDF7F8FF0123DC
:10587000002204210BA0FDF7F2FF10BD73687574C0
:10588000646F776E207265717565737420200000F7
:105890007761697420706920706F7765726F6666D2
:1058A000202000007361666520706F7765726F66F7
:1058B0006620736F6F6E000010B500231A46022138
:1058C00004A0FDF7CCFF01230022032106A0FDF771
:1058D000C6FF10BD7072657373206B657920746F9D
:1058E0002073746172740000686F6C64206B65795A
:1058F00020746F2073687574646E000030B50346C1
:105900000C4600211AE0585C2578A84200D014E02B
:10591000002206E0521CA05C8D185D5DA84200D0FC
:1059200005E0A05C18B18818185C0028F2D100BF0F
:10593000A05C08B9084630BD00BF491C585C00286F
:10594000E1D1401EF7E7042808D14FF0E0210969B2
:1059500041F004014FF0E022116107E04FF0E02137
:10596000096921F004014FF0E0221161704770478E
:1059700010B51348006840F001001149086008465E
:105980004068104908400E494860084600680E49C2
:1059900008400B4908600846006820F48020086031
:1059A0000846406820F4FE0048604FF41F008860FD
:1059B000FFF7CEFC4FF000600449086010BD000006
:1059C000001002400000FFF8FFFFF6FE08ED00E0C7
:1059D000F0B50C46154600220021068C4FF6FE77E6
:1059E0003E400684028B018C4FF60C7632407E1CC2
:1059F00006EA03162E433243104EB0420ED0104E2C
:105A0000B0420BD0B0F1804F08D00E4EB04205D05E
:105A10000D4EB04202D00D4EB04206D14FF6FD768B
:105A2000314044F00106314305E04FF6F576314050
:105A300044F00106314302830184F0BD002C014093
:105A4000003401400004004000080040000C004009
:105A5000F0B50C461546002200210026078C4FF6B3
:105A6000EF7C07EA0C070784028B018C4FF6FF7767
:105A700007EA041640F6FF473A404FF6FF7707EA79
:105A800003373A434FF6FF7707EA05273A43114FAA
:105A9000B8420ED0104FB8420BD0B0F1804F08D0B2
:105AA0000E4FB84205D00E4FB84202D00D4FB8424B
:105AB00006D14FF6DF77394046F01007394305E04D
:105AC0004FF65F77394044F0100739430283018471
:105AD000F0BD0000002C01400034014000040040F3
