:020000040800F2
:10000000D80A002049010008852F0008D1220008E5
:10001000B72E0008BD140008E360000800000000CF
:100020000000000000000000000000007D4A000801
:10003000E518000800000000A93B0008D3500008A4
:100040006301000863010008630100086301000800
:1000500063010008630100086301000863010008F0
:1000600063010008630100086301000863010008E0
:1000700063010008630100086301000863010008D0
:1000800063010008630100086301000863010008C0
:1000900063010008630100086301000863010008B0
:1000A00063010008630100086301000863010008A0
:1000B00063010008755300088D53000863010008B0
:1000C0006301000863010008630100086301000880
:1000D00063010008D95D00081D5E00086301000887
:1000E0000D1900086301000863010008630100089E
:1000F0006301000863010008630100086301000850
:10010000630100086301000863010008630100083F
:10011000630100089D5D0008A55300086301000805
:10012000630100086301000863010008630100081F
:10013000DFF810D000F028FD00480047358B00089C
:10014000AFF30080D80A00200648804706480047E1
:10015000FEE7FEE7FEE7FEE7FEE7FEE7FEE7FEE777
:10016000FEE7FEE7D5500008310100082DE9F04117
:100170000024061B254671F1000605DA012400273C
:10018000D0EB070067EB0101161E73F1000605DADC
:100190000027D2EB0702012567EB030300F068FBA1
:1001A00086460E4617469C46AC4204D00025D0EB4E
:1001B000050E65EB010624B10020D2EB000760EBD1
:1001C000030C704631463A466346BDE8F08140EA8A
:1001D00001039B0703D009E008C9121F08C0042AC5
:1001E000FAD203E011F8013B00F8013B521EF9D2AC
:1001F0007047D2B201E000F8012B491EFBD27047D4
:100200000022F6E710B513460A4604461946FFF7E2
:10021000F0FF204610BD421E12F8013F002BFBD11B
:1002200011F8013B02F8013B002BF9D17047421C49
:1002300010F8011B0029FBD1801A704730B5044625
:100240000020034600E05B1C934203D2E05CCD5CDF
:10025000401BF8D030BDF0B480EA0102D40F420058
:10026000B2EB410F02D20246084611464A0042D084
:10027000C30DDDB2C1F3C752AD1A202D35DAC1F37B
:10028000160141F4000204B15242C5F1200602FAFF
:1002900006F12A411044B3EBD05F23D0C4B1012D45
:1002A000A0EBC35009DCF0BC4FF0004202EAC3529D
:1002B000DBB200F5000000F094BB400000F180705C
:1002C00000EBC350A0F1807040EAD170490009E012
:1002D000490841EAC071A0EBC35000F50000400896
:1002E00000EBC350F0BC00F073BB6142012202EB93
:1002F0004101001BF6E7F0BC704781F00041AAE71E
:1003000080F00040A7E780EA010210B502F0004348
:10031000400022D04A001FD0010E01EB1261C0F351
:100320005600C2F3560240F4000042F40002A0FB63
:10033000022000047F39140400D0401C50EA12400F
:1003400001D44000491EC2B20C0604EBD010401C80
:100350004008802A02D003E0002010BD20F00100F8
:10036000002900DA0020184310BD30B480EA0102F1
:1003700002F0004530F0004221F0004013D090B16F
:10038000C30DD40DC2F31601C0F31600E41A41F4F4
:10039000000140F400027D34914201D3641C00E06E
:1003A0004900002C02DA30BC002070474FF40000F6
:1003B0000023914201D3891A034340084FEA4101C7
:1003C000F7D151B1914202D14FF0004105E002D284
:1003D0004FF0010101E06FF0010103EBC45028442C
:1003E00030BC00F0F5BA2DE9FE4F804681EA0300EB
:1003F000C00F0C46009021F0004123F00045B8EBFF
:100400000200A94105D24046214690461C460B46B3
:10041000024623F00040104347D0270DC7F30A00DF
:10042000C3F30A510290401A019040286BDAC3F3DB
:10043000130040F4801B0098924620B10023D2EBB9
:10044000030A63EB0B0B01985946C0F1400250467A
:1004500000F03FFA06460D4650465946019A00F014
:1004600057FA10EB08006141002487EA115284EA30
:10047000E7731A4340D0009A62B3019A012A4FEA07
:10048000075215DC001B61EB02014FF0004202EA4B
:100490000752CDE90042001C41F5801132462B463F
:1004A00000F0DCFA03B0BDE8F08F40462146F9E7E2
:1004B000001B61EB0201001C41F5801300185B4139
:1004C0002018A2F5001747EB030140EAD570B619D2
:1004D0006D4111E06D084FEA360645EAC0754FEAF6
:1004E0000752001B61EB0201001C41F58011490815
:1004F0004FEA30000019514132462B4603B0BDE8A7
:10050000F04F00F09CBA0098012240000023D0EB8D
:10051000020263EBE073009821464FEAE074B8EB07
:10052000000061EB0401E9E783F000435BE781F041
:10053000004158E72DE9FE4F81EA030404F000442E
:1005400021F0004100944FF0000B23F0004350EAEB
:1005500001045ED052EA03045BD0C3F30A54C1F332
:100560000A552C44A4F2F3340194A0FB0254C1F3C5
:10057000130141F48011C3F3130343F4801301FB0F
:10058000024400FB034E840A970A44EA815447EA76
:100590008357A4FB076802958D0A05FB07854FEA80
:1005A000932C04FB0C542705029D4FEA065847EA9A
:1005B0001637B5EB08056EEB070C870E920E47EA6F
:1005C000811742EA8312A7FB0201B6EB0B0164EB31
:1005D00000042B0D43EA0C335E1844EB1C50DA4642
:1005E0005146E7FB0201C5F313044FEA0B3343EA1C
:1005F00014534FEA0432019C43EA0603A4F10C04AD
:100600000294009CCDE900B400F028FA03B0BDE8E4
:10061000F08F00200146F9E72DE9F04D81EA03044F
:1006200004F0004B21F0004514464FF0000A23F07F
:10063000004150EA050220D054EA01021DD0C5F362
:100640000A570246C5F31303C1F31300C1F30A5658
:1006500040F4801543F48013A7EB0608101BD64620
:1006600008F2FD3873EB050002D308F1010801E040
:1006700092185B41B8F1000F03DA00200146BDE893
:10068000F08D00204FF48011064684460EE0171BC3
:1006900073EB050705D3121B63EB050306434CEA16
:1006A000010C49084FEA300092185B4150EA0107FB
:1006B000EDD152EA030012D082EA040083EA050178
:1006C000084305D0101BAB4106D20122002306E0EF
:1006D00000224FF0004302E06FF0010253101AEBCA
:1006E00006004CEB085110EB0A0041EB0B01BDE892
:1006F000F04D00F0A4B9C10F80EAE0700844CA07C9
:100700009623002100F06DB996230022114600F0D7
:1007100068B90EB5C10F80EAE0700844CA0700212D
:1007200040F233438DE80E000A460B4600F096F97E
:1007300003B000BD00F0004220F00040C10DC0F346
:10074000160040F400007F2901DA00207047962946
:1007500003DCC1F19601C84001E096398840002AC7
:10076000F4D04042704720F00040C10DC0F31600A5
:1007700040F400007F2901DA00207047962903DC4D
:10078000C1F19601C840704796398840704700F023
:10079000004230F000400AD0C10D01F56071C0F395
:1007A000160042EA0151C208400711437047002079
:1007B0000146704730B5041E71F1000404DB4FF0B0
:1007C0000044404264EB0101141E73F1000405DB98
:1007D0001C464FF00043524263EB04038B4208BFB8
:1007E000824230BD01F0004330B421F0004150EAB4
:1007F000010206D00A0DA2F56072C1F31301002AAE
:1008000002DC30BC00207047440F44EAC104C10040
:10081000E01830BC00EBC25000F0DAB8002801DB71
:10082000C0F10040002901DBC1F100418142704765
:10083000002801DBC0F10040002901DBC1F10041CB
:100840008842704730B50B46014600202022012423
:1008500009E021FA02F59D4205D303FA02F5491B8E
:1008600004FA02F52844151EA2F10102F1DC30BDA4
:100870002DE9F05F0546002092469B4688460646D5
:10088000814640241BE0284641464746224600F068
:100890002FF853465A46C01A914110D311461846B4
:1008A000224600F016F82D1A67EB01084F46224643
:1008B0000120002100F00DF817EB00094E41201E29
:1008C000A4F10104DFDC484631462A464346BDE830
:1008D000F09F202A04DB203A00FA02F10020704742
:1008E0009140C2F1200320FA03F31943904070476E
:1008F000202A04DB203A21FA02F00021704721FA75
:1009000002F3D040C2F120029140084319467047DB
:10091000202A06DBCB17203A41FA02F043EAE073C3
:1009200006E041FA02F3D040C2F1200291400843B0
:10093000194670470FB4002300B589B00CA9009187
:100940000B996FF00042CB601E4B06931E4B079332
:100950000423CDE901321D4A089202466B4600206D
:1009600000F0BEF909B05DF814FB70B586B006461C
:100970004FF0FF300091CDE90101002015460C46F3
:1009800004903246694604A8FFF7D4FF0246049853
:10099000211825B108B1084600E0204628600498D7
:1009A00000280DD0002A02DD0098884208D0081BDC
:1009B0000094CDE901043246694604A8FFF7BAFF66
:1009C00006B070BD190F0008370F0008AD0B000806
:1009D0000029A8BF7047401C490008BF20F0010053
:1009E000704710B4B0FA80FC00FA0CF050EA010431
:1009F00004BF10BC704749B1CCF1200421FA04F4C3
:100A000011FA0CF118BF012121430843A3EB0C019B
:100A1000CB1D4FEA00614FEA102042BF002010BCFE
:100A2000704700EBC35010440029A4BF10BC7047AE
:100A3000401C490008BF20F0010010BC704710B5F1
:100A4000141E73F1000408DA401C41F100019218F1
:100A50005B411A4301D120F0010010BD2DE9F04D9A
:100A600092469B4611B1B1FA81F202E0B0FA80F2EF
:100A700020329046FFF72DFF04460F4640EA0A0059
:100A800041EA0B0153465A46084313D0114653EA34
:100A9000010019D0C8F140025046FFF729FF054672
:100AA0000E46504659464246FFF713FF084305D00D
:100AB000012004E020463946BDE8F08D00200543C2
:100AC00046EAE0762C4337430A986305E40AA0EB34
:100AD00008000022FD0A44EA47540A3002D50020EB
:100AE0000146E9E7010510196941DDE908450019EA
:100AF0006941BDE8F04DA2E770B521F00043034322
:100B00000CD0C1F30A550024D5EB040564EB0403B3
:100B1000D617AD1AB34102DB0020014670BD201884
:100B200041EB025170BDC1F30A52C1F3130140F20F
:100B3000FF3341F480119A4202DA002001467047E7
:100B400040F233439A42A2F2334202DC5242FFF7B0
:100B5000CFBEFFF7BEBE000030B5041E71F1000429
:100B600004DB4FF00044404264EB0101141E73F1BA
:100B7000000405DB1C464FF00043524263EB0403C4
:100B8000994208BF904230BD064C074D06E0E06830
:100B900040F0010394E8070098471034AC42F6D3C4
:100BA000FFF7CAFA18D8000838D80008C0B24FF4C6
:100BB000F05100F023BA00002DE9FF4F087883B010
:100BC0009946FF2805D0491C2D2804D00024002078
:100BD00008E000200BE00124F9E700EB800003EBC4
:100BE0004000491C0B78FF2BF7D104B14042002391
:100BF0000293147819461D462D2C01D02B2C04D1BC
:100C0000521C2D2C13D000240294AA461478FF2CD9
:100C10000FD00A25A3FB057801FB05814FF0000CDE
:100C200003FB0C11521CE3194AEB0101EEE701240E
:100C3000EAE7814453EA010002D019F5C87F06DAD9
:100C400003980021C0E9001107B0BDE8F08F00252E
:100C5000AE4E2F46DFF8B882184600F0E3F9CDE932
:100C60000001B9F1000002DAC9F1000400E0044615
:100C70000023A74A1AEB030B42EB045A12E0E007E9
:100C800007D02A46334638464146FFF753FC07460D
:100C900088462A46334610461946FFF74BFC054660
:100CA0000E466410002CEAD1DDE90001B9F1000F15
:100CB0005A46534606DAFFF7AFFC3A464346FFF77B
:100CC000ABFC05E0FFF736FC3A464346FFF732FC43
:100CD000029A0AB181F00041039AC2E90001B3E728
:100CE0002DE9FF4F1F468DB0D7E901464FF0FF3881
:100CF0002E2045464FF000090B90B9696D1C0E98E7
:100D00008847396A824688470028F6D1BAF1FF3F02
:100D10000AD024F4D064002E11DDBAF12B0F08D0D4
:100D2000BAF12D0F0BD102E0404611B08DE744F42B
:100D30008064B9696D1C0E9888478246761E6946A4
:100D4000600501D52D2000E02B208DF8000001F179
:100D5000010B0DF1200809E0B9696D1C0E98884758
:100D600082460F9844F40074761E0560002E02DD62
:100D7000BAF1300FF0D00B998A453ED144F080048F
:100D800006E00F99681CA9F1010944F40074086099
:100D9000B9696D1C761E0E98884782463028F0D0BF
:100DA0002BE00B998A4505D1200603D444F080043A
:100DB000761E18E0504605F0E7FB08B30DF113016D
:100DC000761E44F400748B4508D2AAF130000BF86B
:100DD000010B200607D5A9F1010003E0200602D48B
:100DE00009F101008146A00502D50F99681C086031
:100DF000B9696D1C0E9888478246002ED1DC53E0FD
:100E0000002E51DDBAF1650F02D0BAF1450F4BD17A
:100E1000A00549D5B9696D1C24F44074761E0E985E
:100E200088478246002E0CDD2B2804D0BAF12D0F06
:100E300007D144F48074B9696D1C0E9888478246C6
:100E4000761EE00501D52D2100E02B2108F8011BBD
:100E5000CDF82C8021E00DF12901761E44F40074B8
:100E600088450CD2AAF1300010F0FF0088F800008D
:100E700002D10B99884509D908F1010806E0E0057F
:100E800001D5244801E042F20F708146B9696D1C1A
:100E90000E98884782460F980560002E04DD504664
:100EA00005F072FB0028D6D1F9690E988847FF201B
:100EB0008BF8000088F800000020069007904B4651
:100EC0006A4608A906A8FFF777FEA00502D46FF0CE
:100ED00001002AE714F0240F0AD0E00714D1DDE95D
:100EE00006123868031D3B600068C0E900120BE081
:100EF000DDE90601FFF776FC0146E00704D138681A
:100F0000021D3A600068016028460EE700001440A8
:100F10000000F03FF1D8FFFF426842B1016811F8CC
:100F2000013B23B1521EC0E900121846704701214F
:100F3000C160881E704742685AB1C368016843B9EE
:100F400083688B4205D0491E521CC0E90012002064
:100F500070474FF0FF3070472DE9F04D00231A46DF
:100F60001B1A8A4103DB00200146BDE8F08DC1F366
:100F70000A52C1F3130141F480154FF0000BD10761
:100F800002D100186D41521E0027044640F2FF11A5
:100F9000384601EB620A3E468046024600204FF486
:100FA0008011FFF7A5FCC2197141BB1846EB010087
:100FB000B4EB030C75EB000C04D3E41A65EB0005ED
:100FC00017460E46241908F101006D418046342869
:100FD000E3DDF91946EB0600091BA84103D24FF0E7
:100FE000FF32134601E0002213461BEB070046EBDD
:100FF0000A51BDE8F04DFFF722BD00007F2801D95E
:10100000002208E0064A02EB5002C007127800D125
:10101000120902F00F0201209040084070470000C2
:1010200088D700080EB540F2334202920022CDE983
:1010300000221346FFF712FD03B000BD70B58C18F7
:1010400010F8015B15F0070301D110F8013B2A11DC
:1010500006D110F8012B03E010F8016B01F8016BC9
:101060005B1EF9D12B0705D40023521E0DD401F8C5
:10107000013BFAE710F8013BCB1A921C03E013F88E
:10108000015B01F8015B521EF9D5A142D8D30020C3
:1010900070BD21B1826842F00102826003E0826883
:1010A00022F001028260704710B504461248844263
:1010B00008D10121401503F073F90021601503F0F8
:1010C0006FF917E00D48844208D10121001503F0A3
:1010D00067F90021201503F063F90BE0084884420A
:1010E00008D10121C80303F05BF900214FF400404F
:1010F00003F056F910BD0000002401400028014013
:10110000003C0140014600208A6802F004020AB156
:10111000012000E0002070470146C86C80B2704793
:101120000246002013680B400BB1012000E00020B4
:101130007047014600208A6802F008020AB10120C7
:1011400000E000207047000030B502460020002378
:1011500050680F4C20400D790C6844EA0524204368
:10116000506090680B4C2040D1E902542C434D79DB
:1011700044EA450420439060D06A20F470000C7C5F
:10118000641EE4B2234340EA0350D06230BD000045
:10119000FFFEF0FFFDF7F1FFF0B504460D4600201D
:1011A0000021092D11DDE068A5F10A0606EB4607CE
:1011B000072606FA07F18843A5F10A0606EB46065C
:1011C00003FA06F10843E0600CE0206905EB4507EF
:1011D000072606FA07F1884305EB450603FA06F1F0
:1011E00008432061072A0FDA606B561E06EB86075C
:1011F0001F2606FA07F18843561E06EB860605FAF7
:1012000006F10843606322E00D2A0FDA206BD61F37
:1012100006EB86071F2606FA07F18843D61F06EB62
:10122000860605FA06F10843206310E0E06AA2F1A1
:101230000D0606EB86071F2606FA07F18843A2F182
:101240000D0606EB860605FA06F10843E062F0BDDE
:10125000816841F008018160704721B1826842F4E1
:10126000A002826003E0826822F4A00282607047DC
:10127000816841F0040181607047000008B50121D8
:10128000102003F07DF84FF47070ADF800001820C6
:101290008DF8030003208DF802006946014800F034
:1012A000EFFC08BD0010014030B587B005460C4684
:1012B0000121480303F064F8254804F03BF9681E57
:1012C00080B2ADF81400ADF810400020ADF8160063
:1012D000ADF8120004A91E4804F044FC6020ADF8EB
:1012E00000000120ADF802000020ADF80600ADF8C6
:1012F00008006946164804F0ABFA6946144804F041
:10130000FDFA6946124804F059FB6946104804F09A
:10131000AFFB01210E4804F0FDF808210C4804F051
:10132000E3FA08210A4804F03BFB0821084804F0CE
:1013300095FB0821064804F0D9FB0121044804F07C
:10134000CBF80121024804F0D9F807B030BD000005
:10135000003401402DE9FC5F04460D461E4801683B
:101360002046FEF7CDFF019029460020FEF7C5FF7D
:1013700000901A4801680098FEF7C5FF8246184998
:10138000FEF7F3FF80461748006880F0004B1449D1
:101390005846FEF7EAFF82460199FEF7B4FF814600
:1013A0004146FEF7AAFF0746FFF7C4F906460E4876
:1013B000007801280CD13046FFF79DF980460B4894
:1013C00001684046FEF79FFF0746FFF7B3F9064660
:1013D0003046BDE8FC9F0000200000200C010020EA
:1013E0000000C842080100209D010020FC000020F0
:1013F00070B504464FF47A750723012221460B4845
:10140000FFF7CAFE01210948FFF727FF00BF0221AD
:101410000648FFF785FE20B9281EA5F101018DB20F
:10142000F5D10248FFF778FE70BD000000240140AE
:1014300000B587B001214FF4017002F0A1FF4FF415
:10144000004002F071FF2020ADF8040000208DF86C
:10145000070001A9174800F013FC1748FFF724FE06
:10146000002002908DF80C008DF80D004FF46020E4
:1014700004900020059001208DF8180002A90E4864
:10148000FFF762FE01210C48FFF703FE0A48FFF751
:10149000DFFE00BF0848FFF74CFE0028FAD10648DF
:1014A000FFF7E6FE00BF0448FFF72CFE0028FAD144
:1014B00007B000BD000801400024014000BFFEE766
:1014C0002DE9F04F91B0002010902F4800680128BE
:1014D00056D12E48D0F800A02D48D0F800B02D49A4
:1014E0002D480068FEF741FF2C4908602C48006831
:1014F0002C49086050212C48FEF782FE2A482BA177
:10150000096801602A480068FFF741F904460D4662
:101510001098FFF73CF906460F4622480068FFF78F
:1015200036F9804689461D480068FFF730F9CDE955
:101530000E015846FFF72BF9CDE90C015046FFF795
:1015400026F9CDE90489CDE90667CDE90845CDE95D
:101550000A01DDE90E01CDE90201DDE90C01CDE969
:10156000000114A11048DDE90A2304F09FFE502178
:101570001D48FEF745FE50220B491B48FEF727FE8B
:1015800011B0BDE8F08F000048010020F4000020F9
:10159000F80000200000C8421C000020900100203C
:1015A0000800002094010020D4040020244C5600A0
:1015B000E4000020244C5625332E32662C5256254A
:1015C000332E32662C414325332E32662C47592563
:1015D000332E32662C43534225332E32662C56541A
:1015E00025332E3266230000240500202DE9F05F0C
:1015F00005460C46124E134801682046FEF783FE4E
:101600008346114801685846FEF725FE804631465C
:101610004FF07E50FEF771FE82464146FEF773FEA4
:10162000074631462846FEF76EFE81463946FEF7EC
:1016300012FE0549086008460068BDE8F09F0000FA
:101640000AD7A33CD00100200C0200202DE9F05F56
:1016500005460C46124E134801682046FEF753FE1D
:101660008346114801685846FEF7F5FD804631462D
:101670004FF07E50FEF741FE82464146FEF743FEA4
:10168000074631462846FEF73EFE81463946FEF7BC
:10169000E2FD0549086008460068BDE8F09F0000CB
:1016A0000AD7A33CD00100204802002001460723AE
:1016B00023EA01021202054B18684FF6FF03184097
:1016C000034B18431043014B186070470CED00E0CA
:1016D0000000FA0538B5002000906B460122752104
:1016E000682007F049F92CA004F0D0FD9DF8000017
:1016F00068280ED000BF3148006800F4E06030492F
:101700000843001D2D490860BFF34F8F00BF00BF85
:10171000FEE707F071FC00283CD1782008F076FA4B
:1017200010B91DA004F0B2FD782007F053FB10B9EA
:1017300024A004F0ABFDC82008F01AFA10B92BA0C1
:1017400004F0A4FD06F08EF910B932A004F09EFD5D
:101750003D4807F0B3F9044606F0DEFB10B93BA0A4
:1017600004F094FD40F2731006F024F810B941A083
:1017700004F08CFDC82006F0FFFA10B947A004F071
:1017800085FD08F077FB012008F0EEF810B94CA0B9
:1017900004F07CFD38BD00006D70755F7365745F8B
:1017A00073656E736F7220636F6D706C6574652006
:1017B0002E2E2E2E2E2E0D0A000000000CED00E025
:1017C0000000FA056D70755F636F6E66696775720C
:1017D000655F6669666F20636F6D706C6574652008
:1017E0002E2E2E2E2E2E0D0A000000006D70755F1D
:1017F0007365745F73616D706C655F726174652091
:10180000636F6D706C657465202E2E2E2E2E2E0D3E
:101810000A000000646D705F6C6F61645F6D6F74CF
:10182000696F6E5F6472697665725F6669726D7703
:1018300061726520636F6D706C657465202E2E2E4D
:101840002E2E2E0D0A00000088000020646D705FAF
:101850007365745F6F7269656E746174696F6E2011
:10186000636F6D706C657465202E2E2E2E2E2E0DDE
:101870000A000000646D705F656E61626C655F6692
:1018800065617475726520636F6D706C6574652039
:101890002E2E2E2E2E2E0D0A00000000646D705F7D
:1018A0007365745F6669666F5F7261746520636FEC
:1018B0006D706C657465202E2E2E2E2E2E0D0A0056
:1018C0006D70755F7365745F646D705F7374617460
:1018D0006520636F6D706C657465202E2E2E2E2E24
:1018E0002E0D0A00704701B500200AE0002001E03B
:1018F000411CC8B20A28FBDB9DF80010491EC9B282
:1019000000919DF800100029F0D108BD2DE9F041AB
:101910004948006800287DD14FF48050474908604D
:1019200047480088002804DD45480088401E444997
:1019300008804448007800F037FA002002F0D8FE12
:101940008046012002F0D4FE44422146404600F089
:1019500039FC3D4801683D480068FFF7FBFC05463F
:101960002146404604F0C0FB06463948006804F0B2
:1019700091F90746A819384436490860A819C01BD0
:10198000354908603348006802F0F8F831490860CA
:101990003148006802F0F2F82F4908602F4A51429E
:1019A0002C48006802F0F7F82A4908602B4A514297
:1019B0002948006802F0EFF82749086028480078B5
:1019C00078B12748007801280BD0254800780328F3
:1019D00007D023480078042803D02148007808283D
:1019E0001AD123464246194801681E48006802F091
:1019F000DDF810B101201C4908701C48007858B16E
:101A0000224641461148006802F040FC20B1002007
:101A1000154900E00DE00870154801680B480068A2
:101A200004F0FCF828B90C4801680A48006803F083
:101A300053F9BDE8F0810000300121421404014057
:101A4000E00000200000002008000020040000202A
:101A50000C0000201000002014000020D8F5FFFF2B
:101A60009D0100201C0000202C0000202D000020E3
:101A7000E4000020002123498279002A3AD00A4656
:101A8000126803689A430B461A600A1D12680368BD
:101A90009A430B1D1A60027911440A6803681A43BD
:101AA0000A60184A0832126803689A43154B0833D3
:101AB0001A601A1D126803689A43124B0C331A609D
:101AC0004279102A0ED11A1F126803681A430D4B6F
:101AD00008331A601A1D126803681A43094B0C3345
:101AE0001A600DE00749427911440A6803681A43F5
:101AF0000A6005E0027911440A6803689A430A60A3
:101B0000704700000004014000B587B001210220A9
:101B100002F016FC0121042002F032FCC020ADF8D6
:101B2000000004208DF8030069461C4800F0A8F866
:101B300004A804F069F80020ADF810004FF6FF701B
:101B4000ADF814000020ADF81600ADF8120004A99D
:101B5000134804F007F800231A460321104803F045
:101B6000DDFD01A803F062FE0A20ADF80C0001A91A
:101B70000B4803F005FE0121094803F0B9FC0122DE
:101B80001146074803F05BFE0021054803F0BBFF48
:101B90000121034803F0B2FC07B000BD000801407A
:101BA0000004004000B587B00121042002F0C8FB0A
:101BB0000121082002F0E4FBC020ADF80000042061
:101BC0008DF8030069461C4800F05AF804A804F098
:101BD0001BF80020ADF810004FF6FF70ADF81400B0
:101BE0000020ADF81600ADF8120004A9134803F068
:101BF000B9FF00231A460321104803F08FFD01A806
:101C000003F014FE0A20ADF80C0001A90B4803F004
:101C1000B7FD0121094803F06BFC0122114607487A
:101C200003F00DFE0021054803F06DFF012103487C
:101C300003F064FC07B000BD000C01400008004048
:101C400030B500228B071C0F0F2303FA04F20B4B55
:101C50008C1053F824309343084C8D1044F82530F1
:101C600023468C1053F824308C07240F00FA04F418
:101C70002343024C8D1044F8253030BD080001404C
:101C80002DE9F04102460025002600200023002413
:101C9000002791F803C00CF00F0591F803C00CF079
:101CA000100CBCF1000F03D091F802C04CEA0505FE
:101CB00091F800C0BCF1000F31D0146800202BE077
:101CC0004FF0010C0CFA00F3B1F800C00CEA030667
:101CD0009E4220D183004FF00F0C0CFA03F7BC4357
:101CE00005FA03FC4CEA040491F803C0BCF1280F88
:101CF00006D14FF0010C0CFA00FCC2F814C00AE047
:101D000091F803C0BCF1480F05D14FF0010C0CFA5B
:101D100000FCC2F810C0401C0828D1D31460B1F8F0
:101D200000C0BCF1FF0F34DD546800202EE000F14C
:101D3000080C4FF0010808FA0CF3B1F800C00CEAE7
:101D400003069E4221D183004FF00F0C0CFA03F7DB
:101D5000BC4305FA03FC4CEA040491F803C0BCF14F
:101D6000280F05D100F1080C08FA0CF8C2F814800D
:101D700091F803C0BCF1480F07D100F1080C4FF0F7
:101D8000010808FA0CF8C2F81080401C0828CED3CD
:101D90005460BDE8F0810246002093680B400BB10F
:101DA000012000E0002070472DE9F04F91B08046FF
:101DB00002F0BAFCE2490860B8F1010F1BD102F051
:101DC00069FBE0480068E0490860E049B1F90000BB
:101DD000FEF791FCDE490860DC49B1F90400FEF72A
:101DE0008AFCDC490860DC49B1F90400FEF783FC99
:101DF000DA490860A1E14421D02000F06BFA834663
:101E00004321D02000F066FA0BEB00200990FEF78A
:101E100072FC06464621D02000F05CFA834645213C
:101E2000D02000F057FA0BEB00200990FEF763FC7E
:101E30000A904821D02000F04DFA83464721D02057
:101E400000F048FA0BEB00200990FEF754FC07461F
:101E50003C21D02000F03EFA83463B21D02000F008
:101E600039FA0BEB00200990FEF745FC0D903E215E
:101E7000D02000F02FFA83463D21D02000F02AFA2E
:101E80000BEB00200990FEF736FC82464021D02063
:101E900000F020FA83463F21D02000F01BFA0BEB24
:101EA00000200990FEF727FC05464FF08E41304692
:101EB000FEF7BEFC05D24FF08F413046FEF71DFA0B
:101EC00006464FF08E410A98FEF7B2FC05D24FF05D
:101ED0008F410A98FEF711FA0A904FF08E4138466A
:101EE000FEF7A6FC05D24FF08F413846FEF705FA03
:101EF00007464FF08E410D98FEF79AFC05D24FF041
:101F00008F410D98FEF7F9F90D904FF08E41504634
:101F1000FEF78EFC05D24FF08F415046FEF7EDF9EB
:101F200082464FF08E412846FEF782FC05D24FF0E4
:101F30008F412846FEF7E1F9054686F000408449C6
:101F400008600D98FEF723FC854A864BCDE9060113
:101F5000FEF762FBCDE90801FEF744FC1090504605
:101F6000FEF715FC7E4A7F4BCDE90601FEF754FBD8
:101F7000CDE90801FEF736FC0F902846FEF707FC76
:101F8000774A784BCDE90601FEF746FBCDE908011B
:101F9000FEF728FC0E903046FEF7F9FB4FF0663254
:101FA000714BCDE90601FEF737FBCDE90801FEF7DD
:101FB00019FC81460A98FEF7EAFB4FF066326A4B3D
:101FC000CDE90601FEF728FBCDE90801FEF70AFC82
:101FD000044666480078022837D189F0004002465E
:101FE0000390DDE90E1000F0B9FB8346FEF7CFFB4E
:101FF0005F4A604BCDE90401FEF70EFB00225E4B09
:10200000CDE90601FEF796FACDE90801FEF7EAFBF5
:102010004C49086022460E99109800F0FBFC83465C
:10202000FEF7B5FB524A534BCDE90401FEF7F4FA33
:102030000022514BCDE90601FEF77CFACDE90801FB
:10204000FEF7D0FB4D4908606FE048480078032850
:102050006BD12846FEF79BFBCDE902015046FEF707
:1020600096FBCDE90001DDE9022305F0B9F8002275
:10207000414BCDE90401FEF75DFA3D4A3D4BCDE908
:102080000601FEF7C9FACDE90801FEF7ABFB0C909B
:102090002846FEF77CFBCDE902010D98FEF777FBA1
:1020A000CDE90001DDE9022305F09AF80022324B68
:1020B000CDE90401FEF73EFA2D4A2E4BCDE906018B
:1020C000FEF7AAFACDE90801FEF78CFB0B9030462B
:1020D000FEF75DFB4FF06632294BCDE90601FEF7B6
:1020E0009BFACDE90801FEF77DFB834659460C9823
:1020F000FFF77CFA80F00040124908600A98FEF76A
:1021000046FB4FF066321E4BCDE90601FEF784FA1E
:10211000CDE90801FEF766FB834659460B98FFF7A9
:1021200095FA80F0004015490860064800680649A5
:102130000860084807600948056011B0BDE8F08FE5
:102140001800002070000020040000205C00002027
:10215000080000200C000020620000201C0000206D
:102160008FC2F5285C1F9A40665E8D4000000020FB
:10217000F1D4C853FB210940008066406C00002068
:102180006666304010B500F00BF80446034920465F
:10219000FEF7B9F80446204610BD0000C3F58040A4
:1021A00070B50520FFF724F905462846FEF7ACFA7E
:1021B00006460349FEF7A7F80446204670BD000016
:1021C0003333533A2DE9F04F87B083468A46584659
:1021D000FEF79FFA0022344BCDE90001FEF7AAF981
:1021E0000022324BCDE90201FEF716FA80460022AA
:1021F0002F4BFEF711FA064600222E4BFEF70CFA83
:102200000446FEF7EFFA05900598FEF7C0FA2A4A51
:102210002A4BCDE90201FEF78DF980460022284BBA
:10222000FEF788F906460022264BFEF7F5F904462C
:10223000FEF7D8FA244908605046FEF76AFA0022F1
:10224000194BCDE90001FEF775F906460022174B40
:10225000FEF7E2F904460022154BFEF7DDF9804651
:102260000022144BFEF7D8F9CDE90201FEF7BAFAC5
:1022700004900498FEF78BFA80460F4A0F4BFEF746
:1022800059F900220E4BCDE90201FEF753F906463B
:1022900000220C4BFEF7C0F90446FEF7A3FA0B49E7
:1022A000086007B0BDE8F08F0000694000001040F2
:1022B00000003E4000002640F1D4C853FB210940F5
:1022C00000C0504000002440F4000020F80000202E
:1022D00000BFFEE770B505460E46002400F0EAF8A0
:1022E000284600F0B5F8641C00F03CF9304600F0D8
:1022F000AFF8641C00F036F900F0DCF8691CC8B2D5
:1023000000F0A6F8641C00F02DF9002000F068F839
:10231000044600F003F9204670BD000010B500200F
:102320000E4908600E48006820F470600C4908608F
:102330000846006840F44070086000200949C1F870
:10234000A801012005F0FAF901200449086005F010
:10235000F5F900200349C1F8AC0110BDAC81214260
:10236000040C01400080214208B50121082002F040
:1023700007F84FF44060ADF8000010208DF803001E
:1023800003208DF8020069460148FFF779FC08BD7B
:10239000000C014010B500200E4908600E4800688E
:1023A00020F470600C4908600846006840F44070F2
:1023B000086001200949C1F8A80105F0BFF9012012
:1023C0000449086005F0BAF900200449C1F8AC01DD
:1023D00010BD0000AC812142040C0140008021426C
:1023E00070B5054600241748006820F47060154950
:1023F00008600846006840F400600860002616E0A7
:10240000002011490860022005F098F901200F49C9
:10241000C1F8AC016006040E0B488438006808B1AE
:10242000601CC4B2022005F089F9701CC6B2082EE7
:10243000E6DB15B1FFF772FF01E0FFF7ABFF2046C7
:1024400070BD0000040C0140AC812142008021429B
:1024500070B504461448006820F4706012490860A2
:102460000846006840F44070086000200F4908608A
:10247000002516E0E0090D49091F08606006040EFA
:10248000012005F05BF901200949C1F8AC0105F014
:1024900055F9002005490860012005F04FF9681C36
:1024A000C5B2082DE6DB70BD040C0140AC812142B1
:1024B0000080214210B51648006820F4706014496D
:1024C00008600846006840F4407008600120114927
:1024D00008601148D0F8280108B9002010BD01207B
:1024E0000C49091D086005F029F900200A49C1F8C6
:1024F000A80108488038006808B10020EEE70120F4
:1025000005F01CF900200349091D08600120E5E7DA
:10251000040C0140A88121420080214210B50E48E0
:10252000006820F470600C4908600846006840F4B8
:10253000407008600020094908600949C1F8A801F5
:10254000012005F0FBF80120044908600449C1F8A6
:10255000A80105F0F3F810BD040C0140AC81214244
:102560000080214210B500241548006820F47060F6
:10257000134908600846006840F4006008600120C4
:102580001049086005F0DAF801200F49C1F8AC01E4
:1025900005F0D4F80AE0601CC4B2322C03DDFFF76A
:1025A000BDFF002010BD012005F0C8F805488038A7
:1025B00000680028EFD10349091D08600120F1E7F8
:1025C000040C0140A88121420080214270B50546DB
:1025D0000E46144631462846FFF77CFE2070012047
:1025E00070BDF8B506460F4614461D466A46394684
:1025F0003046FFF7EBFF2DB10120A0409DF8001001
:10260000084305E00120A0409DF8001021EA0000E9
:10261000C0B200909DF800203946304600F036F8F0
:10262000F8BD2DE9F8430746884614461D46089E26
:102630006A4641463846FFF7C9FF28B3601CFF21B0
:1026400001FA00F0C4F108012944491EFF220A41A1
:10265000104300F0FF09C5F1080006FA00F0C6B209
:10266000C4F1070006419DF8000000EA090000904F
:102670009DF80000304300909DF800204146384608
:1026800000F004F8BDE8F8830020FBE737B5044606
:102690000D4602AB01222946204600F001F83EBD5E
:1026A0002DE9F04180460D4616461F460024FFF7EF
:1026B00001FF4046FFF7CCFEFFF754FF2846FFF727
:1026C000C7FEFFF74FFF00BF06E0385DFFF7C0FE13
:1026D000FFF748FF601CC4B2B442F6DBFFF71EFFF1
:1026E0000120BDE8F0810000094800680949086040
:1026F0000948006848600948006888600848006820
:10270000C860084800680861074800684861704769
:10271000080100208C0600200C0100201001002080
:1027200014010020180100201C0100200146490668
:10273000084A926942F00102064B9A61064A5268C1
:1027400022F0E062044B5A601A4652680A435A600B
:102750007047000000100240000001402DE9F04FDA
:10276000ADB0044689469246A3482B90A349D1E9CF
:102770000023D1E90201CDE92723CDE92901CDF8D4
:1027800098A09E4B1033D3E90021D3E90203CDE991
:102790002403CDE922219949203103C9CDE9200143
:1027A0009649283103C9CDE91E01944B30330FCB34
:1027B0001AAD0FC591484030006819908F4B4433D3
:1027C000D3E90020D3E9021316AD0BC515928B494E
:1027D000543103C9CDE913010020119012900F90DC
:1027E00010900B900C900D900E900790089009900F
:1027F0000A900590069004904846FDF7C8FF0746EA
:10280000884684F000400190FDF7C1FF3A464346F8
:10281000CDE9020104F0E4FC0546FDF7E3FF834641
:1028200011A8774922AA0123CDE9002102900222B2
:102830001146104607F092FA0FA826A920AA0123F4
:10284000CDE9002102901A461946022007F086FAC7
:102850000F991198FDF7FFFC6A49086010991298CA
:10286000FDF7F9FC674948600BA8674922AA0223D3
:10287000CDE9002102901A461946184607F06EFA73
:1028800007A815A90BAA0223CDE9002102901A4638
:102890001946184607F062FA1A990798FDF7DBFC0B
:1028A0005A4908601B990898FDF7D5FC57494860BC
:1028B0001C990998FDF7CFFC544988601D990A9826
:1028C000FDF7C9FC5149C86005A81EAA0223CDE93D
:1028D000002102901A461946012007F03FFA04A889
:1028E00013A905AA0123CDE9002102900222114675
:1028F000184607F033FA19990498FDF7ACFC054621
:1029000029464FF07E50FDF730FD049011A813A921
:102910003E4A0123CDE900210290022211461046D1
:1029200007F01CFA3A4804A911AA0123CDE90021B5
:1029300002901A461946022007F010FA04A83149FD
:102940001EAA0123CDE90021029002221146184659
:1029500007F004FA58460499FDF7CFFC049011A83B
:1029600004A92B4A0123CDE9002102901A461946F9
:10297000022007F0F3F9234A11991068FDF76BFC68
:102980001F4908601F4A12995068FDF764FC1C49F2
:1029900048600BA81EA91E4A0223CDE9002102901F
:1029A00001221146184607F0D9F90B992798FDF72F
:1029B000A4FC0B900C992898FDF79FFC0C900D99A6
:1029C0002998FDF79AFC0D9027AA0E99D068FDF77B
:1029D00094FC0E900C480D490BAA0223CDE900216E
:1029E00002901A461946184607F0B8F904480068DC
:1029F0002DB0BDE8F08F00000AD7A33BE0D500085A
:102A00004C020020540200205C020020B40600208A
:102A10006C0200202DE9F04FADB004468946924685
:102A2000A3482B90A349D1E90023D1E90201CDE9C4
:102A30002723CDE92901CDF898A09E4B1033D3E987
:102A40000021D3E90203CDE92403CDE922219949EC
:102A5000203103C9CDE920019649283103C9CDE9C8
:102A60001E01944B30330FCB1AAD0FC59148403047
:102A7000006819908F4B4433D3E90020D3E9021347
:102A800016AD0BC515928B49543103C9CDE913011D
:102A90000020119012900F9010900B900C900D90C0
:102AA0000E900790089009900A9005900690049067
:102AB0004846FDF76CFE0746884684F000400190CA
:102AC000FDF765FE3A464346CDE9020104F088FB76
:102AD0000546FDF787FE834611A8774922AA012300
:102AE000CDE90021029002221146104607F036F986
:102AF0000FA826A920AA0123CDE9002102901A4699
:102B00001946022007F02AF90F991198FDF7A3FB47
:102B10006A49086010991298FDF79DFB6749486063
:102B20000BA8674922AA0223CDE9002102901A4688
:102B30001946184607F012F907A815A90BAA02238F
:102B4000CDE9002102901A461946184607F006F909
:102B50001A990798FDF77FFB5A4908601B99089856
:102B6000FDF779FB574948601C990998FDF773FBFD
:102B7000544988601D990A98FDF76DFB5149C8605A
:102B800005A81EAA0223CDE9002102901A46194683
:102B9000012007F0E3F804A813A905AA0123CDE951
:102BA0000021029002221146184607F0D7F8199921
:102BB0000498FDF750FB054629464FF07E50FDF77F
:102BC000D4FB049011A813A93E4A0123CDE90021AA
:102BD000029002221146104607F0C0F83A4804A9B4
:102BE00011AA0123CDE9002102901A4619460220BC
:102BF00007F0B4F804A831491EAA0123CDE9002149
:102C0000029002221146184607F0A8F85846049987
:102C1000FDF773FB049011A804A92B4A0123CDE909
:102C2000002102901A461946022007F097F8234A1D
:102C300011991068FDF70FFB1F4908601F4A129990
:102C40005068FDF708FB1C4948600BA81EA91E4AE6
:102C50000223CDE90021029001221146184607F017
:102C60007DF80B992798FDF748FB0B900C99289855
:102C7000FDF743FB0C900D992998FDF73EFB0D9055
:102C800027AA0E99D068FDF738FB0E900C480D4925
:102C90000BAA0223CDE9002102901A4619461846D4
:102CA00007F05CF8044800682DB0BDE8F08F000024
:102CB0000AD7A33B3CD60008740200207C02002007
:102CC00084020020C40600209402002008B50121DF
:102CD000042001F055FB4FF48070ADF8000048204F
:102CE0008DF8030069460248FEF7CAFF08BD0000E0
:102CF0000008014001461248008800281EDD01EB53
:102D0000C10000EB0110022202EB80000C4A128885
:102D1000904213DD0A480088401C094A108001EBEC
:102D2000C10000EB0110022202EB8000044A12886D
:102D3000904201D1012070470020FCE70020FAE713
:102D4000CE00002010B5044600F022F801280BD177
:102D5000601C0D490988B1EB400F0ADA0A48008867
:102D6000401C0949088004E0002007490880074901
:102D7000088005480088022803D101200349088003
:102D800010BD0020FCE70000D0000020CE00002095
:102D900010B54FF480710448FEF7FDFF08B901201B
:102DA00010BD0020FCE70000000801401FB5012114
:102DB000084601F0E5FA0121042001F0E1FA4FF4A0
:102DC0008050ADF80C0048208DF80F0003A9124880
:102DD000FEF756FF0C210020FEF732FF4FF4805023
:102DE000019000208DF808000C208DF809000120CA
:102DF0008DF80A0001A8FEF73DFE28208DF800009E
:102E000002208DF8010001208DF802008DF80300EA
:102E1000684600F0B9F81FBD0008014010B5022057
:102E200000F010F8032000F021F8002000F014F862
:102E3000002000F037F8002000F02BF8002000F010
:102E40001FF810BD38B50446032302226B21D020A1
:102E50000094FFF7E6FB38BD38B504460223042290
:102E60001C21D0200094FFF7DCFB38BD38B50446A8
:102E7000022304221B21D0200094FFF7D2FB38BD8F
:102E800010B50446234601223721D020FFF7A9FBC5
:102E900010BD10B50446234605226A21D020FFF755
:102EA000A0FB10BD10B50446234606226B21D0209E
:102EB000FFF797FB10BD00BFFEE7014609290ED2C0
:102EC000DFE801F005070D090B0D0D0D0E000120C7
:102ED00070470320FCE70420FAE70820F8E700BF6A
:102EE0000020F5E7014609290ED2DFE801F00507C9
:102EF0000D090B0D0D0D0E00042070470020FCE79E
:102F00000120FAE70320F8E700BF0420F5E70146B7
:102F1000032903D0042901D0082901D101207047D9
:102F20000020FCE710B5002401231A46194611A021
:102F300000F067F80FE0002001F0DAFB204404B253
:102F4000012001F0D5FB4042204404B2204604F0A9
:102F5000C5FA07F01FF80120FFF7F4FE0028EAD0B9
:102F600001F022FE01F0F6FE01F00CFF01F03EFE42
:102F700010BD0000312E5374616E64617264204D87
:102F80006F6465007047000070B5002100230F22B8
:102F9000C47804B3154C246804F4E064C4F5E06418
:102FA000210AC1F10403CA40447804FA03F1847889
:102FB0001440214309010E4C0678A155047804F011
:102FC0001F050124AC4005786D11AD0005F1E02529
:102FD000C5F8004109E0047804F01F050124AC4065
:102FE000044D0678761145F8264070BD0CED00E0E2
:102FF00000E400E080E100E010B5002001F09AFC60
:1030000010BDF8B507460C4615461E46002C0DDDD2
:10301000032C0BDC00200090601E00EB80004006BB
:10302000020E2B460021384600F004F80EB100F0E5
:10303000AFF9F8BD2DE9F04107460C4615461E468E
:10304000DDF818800EB1FFF7D7FF2946204601F0C2
:1030500081FC01220549384601F0D6FCB8F1000F89
:1030600001D000F095F9BDE8F0810000A400002037
:1030700010B500F013F800F0E9F801231A461946DC
:1030800001A0FFF7BEFF10BD6F6C656420696E691B
:103090007420737563636573732100000848806949
:1030A00040F00800064988610648006820F0FF00EB
:1030B000044908600846006840F033000860704723
:1030C00000100240040C014070B50446144800682A
:1030D00020F0F000124908600846006840F0300017
:1030E000086000200F490860002516E0E0090D493E
:1030F000091D08606006040E0120FEF7F4FB0120A4
:103100000949C1F8A001FEF7EEFB0020054908605F
:103110000120FEF7E8FB681CC5B2082DE6DB70BD98
:10312000040C0140A08121420080214210B51648C4
:10313000006820F0F000144908600846006840F07C
:10314000300008600120114908601148D0F82401BE
:1031500008B9002010BD01200C49091F0860FEF7C6
:10316000C2FB00200A49C1F8A40108488038006861
:1031700008B10020EEE70220FEF7B5FB002003496E
:10318000091F08600120E5E7040C0140A4812142E9
:103190000080214210B51048006820F0F0000E4970
:1031A00008600846006840F03000086000200B49C5
:1031B00008600B49C1F8A4010220FEF794FB01202E
:1031C00006490860FEF78FFB01200549C1F8A401FC
:1031D0000220FEF788FB10BD040C0140A0812142B3
:1031E0000080214210B500241548006820F0F0004E
:1031F000134908600846006840F08000086001201C
:1032000010490860FEF76FFB01200F49C1F8A001CB
:10321000FEF769FB0AE0601CC4B2322C03DDFFF745
:10322000B9FF002010BD0120FEF75DFB0548803886
:1032300000680028EFD10349091F08600120F1E769
:10324000040C0140A48121420080214210B540F6C7
:10325000C41400E0641E002CFCD1AE2200213C20EE
:1032600006F028FFA62200213C2006F023FFAE2214
:1032700000213C2006F01EFFD52200213C2006F054
:1032800019FF802200213C2006F014FFA822002113
:103290003C2006F00FFF1F2200213C2006F00AFF11
:1032A000D32200213C2006F005FF002211463C20DD
:1032B00006F000FF402200213C2006F0FBFE8D229C
:1032C00000213C2006F0F6FE142200213C2006F0EE
:1032D000F1FE202200213C2006F0ECFE022200211B
:1032E0003C2006F0E7FEA12200213C2006F0E2FE91
:1032F000C82200213C2006F0DDFEDA2200213C201D
:1033000006F0D8FE022200213C2006F0D3FE8122E6
:1033100000213C2006F0CEFECF2200213C2006F00A
:10332000C9FED92200213C2006F0C4FEF122002172
:103330003C2006F0BFFEDB2200213C2006F0BAFE56
:10334000402200213C2006F0B5FE2E2200213C2028
:1033500006F0B0FEA42200213C2006F0ABFEA6221F
:1033600000213C2006F0A6FEAF2200213C2006F002
:10337000A1FE002001F0DEFA01F05CFB0020034911
:10338000088048800120487110BD00009C0000208A
:1033900010B501F04FFB10BD2DE9F04105460E467A
:1033A00017469846FFF7C2FE10B90120BDE8F0812C
:1033B0006906080EFFF788FEFFF714FF18B9FFF73C
:1033C000E9FE0120F2E73046FFF77EFEFFF70AFF35
:1033D00000240BE018F80400FFF776FEFFF702FF69
:1033E00018B9FFF7D7FE0020E0E7641CBC42F1DB10
:1033F000FFF7D0FE0020D9E710B525480078F0B1DE
:10340000244800884FF6FF71884204DA214800887A
:10341000401C204908801F48008832280FDB1E48C6
:10342000007860B900201D4908601D49086001202E
:103430001C49087018490870042000F0CDFA1A4899
:1034400000781A49097888420DD018480078164942
:1034500008701648007818B1012000F0BDFA02E0AB
:10346000022000F0B9FA124800780E490978884223
:103470000DD00C4800780E4908700A48007818B141
:10348000122000F0A9FA02E0132000F0A5FA10BD06
:10349000DA000020D8000020DB00002024000020FB
:1034A000280000202C000020DC000020CA000020A2
:1034B000DD000020014608784A7840EA022000B288
:1034C000704770B504460D4684F001066E4086EAEA
:1034D0000200002103E05E5C70404E1CF1B291429C
:1034E000F9DB70BD10B5044607492046FDF7A0F989
:1034F00001D2054810BD05492046FDF78FF901D2DC
:103500000248F7E72046F5E70000F0410000F0C16F
:1035100010B5044607492046FDF78AF901D205484F
:1035200010BD05492046FDF779F901D20248F7E7B9
:103530002046F5E70000F0420000F0C201480078A4
:1035400070470000DE0000202DE9F05F06460F46C0
:1035500015461C460C2E70D2DFE806F06F061345A8
:1035600070B8C3E5FED3DEDF34B1022231463846FF
:1035700000F073FABDE8F09F3146384600F000FADB
:1035800000E1012C05D002223146384600F065FAF0
:10359000F0E72878012805DD04223146384600F09E
:1035A0005CFAE7E7287858B90020784908700120CC
:1035B00077490870002077490860774908600BE078
:1035C0007248007828B905223146384600F045FA9D
:1035D000D0E700206E49087000F0ACF9314638465B
:1035E00000F0CEF9CEE0012C05D00222314638465B
:1035F00000F033FABEE7287800F0ECF828B904228E
:103600003146384600F029FAB4E728786349087053
:1036100000205E4908705F4908605F49086001202A
:103620005B4908705D48007800F0CCF800F082F942
:103630003146384600F0A4F9A4E09DE0042C05D002
:1036400002223146384600F008FA93E753480078E2
:10365000A8B152480078012811D0504800780328BA
:103660000DD04E480078042809D04C48007808282E
:1036700005D005223146384600F0EFF97AE72846B2
:10368000FFF718FF8346FDF736F882464449FCF7FA
:103690006CFE8046A81CFFF70DFF8346FDF72BF854
:1036A00082463F49FCF761FE81464046FFF71AFF1C
:1036B000384908604846FFF72BFF3749086000F09B
:1036C00039F93146384600F05BF95BE02CB1022253
:1036D0003146384600F0C1F94CE7384600F0CEF9E3
:1036E00050E02CB102223146384600F0B6F941E7ED
:1036F00000F020F900231A463946852000F07CF9B5
:1037000040E02CB102223146384600F0A6F931E7FC
:10371000384600F017FA35E000BF0522314638463A
:1037200000F09BF92EE02CB102223146384600F021
:1037300094F91FE7002017490860174908601349EA
:10374000087001201249087000F0F4F8314638463C
:1037500000F016F916E0FFE7012C05D002223146F1
:10376000384600F07AF905E728780E4908703146A6
:10377000384600F005F905E003223146384600F0EE
:103780006CF900BF00BF00BFF4E600002D00002070
:103790002C00002024000020280000209D01002093
:1037A00000002041DE000020014800787047000042
:1037B000DB00002010B50446204602F045FB00F077
:1037C000C9F810BD10B504460CB1012C01D103F0AD
:1037D000EBFD10BD014639B1012905D0032903D005
:1037E000042901D0082901D1012070470020FCE7FD
:1037F00002480078C0F3800070470000DE0000201F
:1038000070B5044641480078082879D2DFE800F016
:10381000040A131C22284657AA2C02D101203B4936
:10382000087070E0552C03D102203849087001E07F
:1038300000F090F867E0012C03D1032033490870B1
:1038400001E000F087F85EE03148047004202F4961
:10385000087058E02F48047005202C49087052E089
:103860002D48047000202D4908702B48007820282E
:1038700009DD0222264801782648007800F0EDF89C
:1038800000F068F809E02448007818B907201F49BB
:10389000087002E006201D49087034E01F490878CE
:1038A000411C1E4A11701E490C54104600781A49DA
:1038B0000978884202DB07201449087023E0184B7E
:1038C000154802781348017811480078FFF7F9FD90
:1038D0000546A5420AD110480378114A0D480178DF
:1038E0000B480078FFF730FE07E009E001220848A6
:1038F00001780848007800F0B0F800F02BF802E0FA
:1039000000F028F800BF00BF70BD0000D20000200A
:10391000D3000020D4000020D5000020D6000020D5
:10392000B404002010B54254C2F307244B1CC45405
:1039300010BD0000012004490870002003490880E0
:103940000349087070470000DA000020D80000200A
:10395000DB00002000200549087005490870054972
:10396000087005490870054908707047D2000020AA
:10397000D3000020D4000020D5000020D600002075
:1039800038B504460D468DF800508DF801400223ED
:103990006A462146812000F02FF838BD70B50546F3
:1039A0000E46002404E0285D00F006F8601CC4B256
:1039B000B442F8DB70BD000010B5044600BF8021A2
:1039C000044802F0BCFA0028F9D02146014802F070
:1039D00084FB10BD0044004038B504460094012328
:1039E0006A460021842000F007F838BD10B504466F
:1039F0002046FFF7F1FF10BD2DE9F0418AB00746E0
:103A0000884616461C46AA208DF8000055208DF8E1
:103A1000010001208DF802008DF803708DF80480FC
:103A20008DF80540002505E0715DA81D0DF800101A
:103A3000681CC5B2A542F7DB3346224641463846EC
:103A4000FFF73FFDA11D0DF80100E01DC1B2684662
:103A5000FFF7A4FF0AB0BDE8F081F8B504460E46B2
:103A600015468DF800608DF801408DF80250032353
:103A70006A4621468220FFF7BFFFF8BD2DE9FE43CD
:103A80000446274927480068FCF73DFC8146FCF7BF
:103A900051FE06B2224924480068FCF734FC8146F6
:103AA000FCF748FE07B2214921480068FCF72BFCCF
:103AB0008146FCF758FE85B219491E480068FCF79C
:103AC00022FC8146FCF736FE0FFA80F81A4800788F
:103AD0008DF80000194800788DF80100184800782A
:103AE0008DF80200324603216846FFF71BFF3A4675
:103AF00005216846FFF716FFE8B28DF80700280A8F
:103B00008DF80800424609216846FFF70BFF0B239A
:103B10006A4621468320FFF76FFFBDE8FE83000061
:103B20000000204124000020280000200000C8429E
:103B3000E4000020040000209D0100202C00002053
:103B4000CA00002010B588B0044620216846FCF762
:103B500057FB00208DF80000074800788DF8010021
:103B600000208DF8020003236A4621468620FFF7D5
:103B700043FF08B010BD00009D0100200146002950
:103B800002DD01F214507047002902DAA1F214504C
:103B9000F9E70846F7E703461846884200DD08467D
:103BA000904200DA10467047704700002DE9F0415E
:103BB00006460F4614461D4634480088E0B92046A4
:103BC00006F026F98046284606F022F940443228BD
:103BD00005DA2F480088401C2D49088002E00020AB
:103BE0002B4908802A4800880A2805DD012027493A
:103BF000088000202649088024480088012827D111
:103C000024480088401C80B222490880C82803DD6F
:103C1000002008801D4908801F493046FCF708FE37
:103C200016D21E4801681E48FCF715FB804639462F
:103C3000FCF7F4FD0CD2194801681A48FCF70BFB9D
:103C400080463946FCF7F4FD02D202200F49088075
:103C50000E480088022816D113480088401C80B204
:103C600011490880642803DD002008800749088086
:103C7000601906F0CDF8322805DD002003490880E0
:103C80000120BDE8F0810020FBE70000E8000020F3
:103C9000EA000020EC00002000E0AB4620000020FD
:103CA0000000A0C10000A041EE0000202DE9F0437B
:103CB0008BB0D34840783038052818D2DFE800F0C0
:103CC0001303070B0F000120CE49087013E00220F8
:103CD000CC4908700FE00320CA4908700BE00420AB
:103CE000C849087007E00020C649087003E00020BA
:103CF000C449087000BF00BFC148C078312802D154
:103D00000520C0490870BE48C078322802D106207C
:103D1000BC490870BA48FCF78AFA15280CD2002072
:103D2000B94908705021B648FCF76AFAB7A002F00A
:103D300047F80BB0BDE8F083B1484079312807D18E
:103D400000F0A2F9052003F0DBFC00F09DF90AE089
:103D5000AB484079322806D100F026FD00F094F9F6
:103D6000AFA002F02DF8A648C079312806D1012075
:103D7000AD490860AAA002F023F809E0A048C07984
:103D8000322805D10020A8490860A5A002F018F843
:103D90009B48407A312860D11C2104A8FCF730FAF6
:103DA00000200290039000900190A0A1944801F09F
:103DB00057F9814609F1010000B9BAE79C4800684B
:103DC000A0EB09028E4800EB090104A8FCF7FFF9FB
:103DD00098A104A801F044F90446601C00B9A8E7C2
:103DE000A21E0DF1120102A8FCF7F1F902A803F0DE
:103DF000C5FA07460022904BFCF79CFB0546FCF7F2
:103E0000F1FC8E4908601C2104A8FCF7F9F909EBC4
:103E10000400874B1B681A1A794848442044411C07
:103E200004A8FCF7D4F983A104A801F019F9044609
:103E3000601C00B97DE7A21E0DF112016846FCF777
:103E4000C6F9684603F09AFA0546FCF7CBFC7C49B4
:103E5000086073A001F0B4FF00BF6948C07A312840
:103E600060D11C2104A8FCF7CBF90020029003903C
:103E70000090019073A1624801F0F2F8814609F1C7
:103E8000010000B955E76A480068A0EB09025C48E8
:103E900000EB090104A8FCF79AF966A104A801F057
:103EA000DFF80446601C00B943E7A21E0DF11201C1
:103EB00002A8FCF78CF902A803F060FA074600227A
:103EC0005D4BFCF737FB0546FCF78CFC5E49086050
:103ED0001C2104A8FCF794F909EB0400544B1B685F
:103EE0001A1A474848442044411C04A8FCF76FF9BB
:103EF00050A104A801F0B4F80446601C00B918E70A
:103F0000A21E0DF112016846FCF761F9684603F044
:103F100035FA0546FCF766FC4C49086040A001F004
:103F20004FFF00BF3648407B312860D11C2104A8D8
:103F3000FCF766F90020029003900090019044A1E4
:103F40002F4801F08DF8814609F1010000B9F0E633
:103F500037480068A0EB0902294800EB090104A8D2
:103F6000FCF735F933A104A801F07AF80446601C87
:103F700000B9DEE6A21E0DF1120102A8FCF727F936
:103F800002A803F0FBF9074600222B4BFCF7D2FAFC
:103F90000546FCF727FC2F4908601C2104A8FCF704
:103FA0002FF909EB0400224B1B681A1A14484844E5
:103FB0002044411C04A8FCF70AF927A104A801F039
:103FC0004FF80446601C00B9B3E6A21E0DF11201C1
:103FD0006846FCF7FCF8684603F0D0F90546FCF7A4
:103FE00001FC1E4908600EA001F0EAFE00BF00209F
:103FF0000549087050210248FCF702F900BF98E615
:10400000000600205C0100204C0100202452656362
:10401000656976655061636B4572726F722300004B
:10402000244F4B23000000004801002041500000B5
:10403000580100202C000000000059400801002019
:104040000C01002056500000100100201401002037
:104050005450000018010020230000001C01002023
:1040600010B506480268521C05490648FCF7AFF82F
:1040700050210348FCF7C4F810BD00005001002097
:10408000B00500200006002070B532216548FCF71D
:10409000B7F8644864A109680160002163480068BA
:1040A000FCF7C6FB0FD8624960480068FCF75DF971
:1040B0000646FCF76CFB044622460B465DA15F48B2
:1040C00002F0F4F803E05EA001F07AFE70BD00217A
:1040D0005F480068FCF7ACFB0BD85D480068FCF754
:1040E00056FB044622460B4652A15A4802F0DEF81F
:1040F00003E053A001F064FEE8E7002156480068A1
:10410000FCF796FB0FD84A4953480068FCF72DF995
:104110000646FCF73CFB044622460B4645A14F48A9
:1041200002F0C4F803E046A001F04AFECEE7002109
:104130004B480068FCF77CFB0BD849480068FCF74B
:1041400026FB044622460B463AA1464802F0AEF84A
:1041500003E03BA001F034FEB8E7002142480068CC
:10416000FCF766FB0FD832493F480068FCF7FDF8C2
:104170000646FCF70CFB044622460B462DA13B48A5
:1041800002F094F803E02EA001F01AFE9EE7002151
:1041900037480068FCF74CFB0BD835480068FCF743
:1041A000F6FA044622460B4622A1324802F07EF877
:1041B00003E023A001F004FE88E720491948FCF73A
:1041C0002AF82DA11748FCF726F822491548FCF7D4
:1041D00022F82AA11348FCF71EF820491148FCF7E1
:1041E0001AF827A10F48FCF716F81E490D48FCF7EE
:1041F00012F824A10B48FCF70EF81C490948FCF7FB
:104200000AF821A10748FCF706F81A490548FCF707
:1042100002F80EA10348FBF7FEFF024801F0D0FDB3
:1042200000BF53E75D010020244150000801002039
:104230000000C84225332E326600000050060020E0
:10424000244765745049444572726F722300000020
:104250000C0100205A0600201001002064060020F6
:10426000140100206E0600201801002078060020AE
:104270001C010020820600202C4144002C565000D6
:104280002C5649002C5450002C5444002DE9F04188
:1042900006460C4615461E48007820B900201D49E8
:1042A0000880BDE8F0811C48007808B90020F8E7D4
:1042B00018480088C0B9194801681948FBF7CBFFB6
:1042C00007463146FCF7AAFA0ED214480168154891
:1042D000FBF7C1FF07463146FCF7AAFA04D21CB926
:1042E00015B901200B4908800A48008801280CD123
:1042F000032C01DD282C03DB032D06DD282D04DA39
:104300000020044908800120CBE70020C9E7000015
:104310002D000020F00000202C00002020000020B4
:10432000000020C10000204101460020034A5068DF
:1043300020F44040084350607047000000100240E5
:1043400029B1064AD2690243044BDA6104E0034A08
:10435000D2698243014BDA617047000000100240CD
:1043600029B1064A12690243044B1A6104E0034A68
:1043700012698243014B1A6170470000001002402D
:1043800029B1064A92690243044B9A6104E0034A48
:1043900092698243014B9A6170470000001002400D
:1043A00029B1064AD2680243044BDA6004E0034AAA
:1043B000D2688243014BDA6070470000001002406F
:1043C00030B500210022002400232D4D6D6805F03A
:1043D0000C0121B1042905D0082923D105E0294D7C
:1043E000056022E0274D05601FE0254D6D6805F44E
:1043F0007012234D6D6805F48034022505EB92425E
:104400001CB9214D554305600BE01D4D6D6805F449
:1044100000351DB11C4D5543056002E0194D554353
:10442000056002E0174D056000BF00BF144D6D68C8
:1044300005F0F0010909154D6B5C0568DD4045602C
:104440000F4D6D6805F4E061090A104D6B5C45681D
:10445000DD4085600A4D6D6805F46051C90A0B4D59
:104460006B5C4568DD40C560054D6D6805F44041F5
:10447000890B074D6B5CC568B5FBF3F5056130BD75
:104480000010024000127A0000093D0044000020A4
:10449000540000202DE9F04F8FB00CA889490DABD6
:1044A00008AACDE900108849884803F0E7FA854852
:1044B000008800F4807000287ED00898FCF71BF973
:1044C00004464FF09D41FBF750FF81490860099871
:1044D000FCF711F904464FF09D41FBF746FF7D497B
:1044E00008600A98FCF707F904464FF09D41FBF776
:1044F0003CFF794908600B98FCF7FDF804464FF043
:104500009D41FBF732FF75490860714801684FF023
:104510008040FBF7F8FE06906F4801680698FBF7AD
:10452000F2FE82466B4801684FF04040FBF7EBFE1D
:1045300006906A4801680698FBF7E5FE83465146F7
:10454000FBF789FE0790FCF722F9804602F000FC99
:1045500006464FF06632624BFBF7ECFF0446FCF771
:1045600041F9604908605C4801684FF08040FBF702
:10457000CAFE0390584801680398FBF7C4FE8246C0
:10458000544801684FF04040FBF7BDFE039051488E
:1045900001680398FBF7B7FE83465146FBF7ADFE73
:1045A00081464FF07E51FBF756FE0446FCF7EFF8CC
:1045B000CDE90401464800E081E001684FF0804009
:1045C000FBF7A1FE8346434801685846FBF79BFE74
:1045D0008146414801684FF08040FBF794FE8346D6
:1045E0003E4801685846FBF78EFE82464946FBF777
:1045F00032FE0446FCF7CBF80746DDE9042302F05F
:10460000EFFD4FF06632364BCDE90601FBF792FF26
:104610000546FCF7E7F8344908603048016800684F
:10462000FBF771FE03902C4801680068FBF76BFEF6
:104630000290284801680068FBF765FE834624481D
:1046400001680068FBF75FFE59460190FBF703FE27
:1046500082460299FBF751FE81460399FBF74DFE16
:104660000446FCF794F8CDE904011C480168184899
:104670000068FBF748FE8246174801681548006845
:10468000FBF741FE83465146FBF7E5FD81464FF0BF
:104690008041FBF738FE0446FCF779F80746DDE970
:1046A000042302F09DFD4FF066320D4BCDE906016B
:1046B000FBF740FF0546FCF795F80C4908600FB082
:1046C000BDE8F08F68000020620000205C00002040
:1046D000780000207C000020800000208400002062
:1046E00066A64C406C000020700000207400002082
:1046F000014611B101290ED106E0094A128810B213
:104700000022074B1A8008E0064A128810B20022E5
:10471000044B1A8001E0002000BF00BF704700007A
:1047200024040040240800402DE9F05F4221D020FD
:10473000FDF7D0FD05464121D020FDF7CBFD05EB6F
:1047400000242046FBF7D7FF82464FF08E415046AB
:10475000FCF76EF805D24FF08F415046FBF7CDFDC8
:1047600082460D495046FBF700FE8346FCF70FF8E2
:1047700080460A4A0A4BFBF736FE06460022094BE2
:10478000FBF7D8FE0446FCF72DF882465046FBF7AF
:10479000D1FFBDE8F09F00000000AA43A4703D0ACD
:1047A000D74342400000244010B521480168214809
:1047B0000068FCF733F803D01D4800681D49086005
:1047C0001B4841681C480068FCF728F803D01848CB
:1047D0004068194908601648816818480068FCF765
:1047E0001DF803D012488068144908601048C16859
:1047F00013480068FCF712F803D00D48C068104950
:1048000008600B4801690F480068FCF707F803D0FF
:10481000074800690B490860054841690A48006873
:10482000FBF7FCFF03D0024840690749086010BD50
:104830008C060020080100200C010020100100203F
:1048400014010020180100201C01002010B50020D8
:104850000B49087001200B49087000200A490860C4
:104860000A4908600A49087000F09EF900F072FADF
:1048700000F088FA00F0BAF902F022FE10BD000044
:104880002D0000202C000020240000202800002003
:104890009D010020F0B503461446802B01DA202943
:1048A00000DBF0BD2148007920B10CB9012000E007
:1048B00000200446012C1CD1CD1701EB5575ED10DD
:1048C00003EBC5151A4E755D0A46CE1701EB5676F9
:1048D000F610A1EBC6070126BE403543EEB20846EE
:1048E000CD1701EB5575ED1003EBC515104F7E5537
:1048F0001AE0CD1701EB5575ED1003EBC5150C4E05
:10490000755D0A46CE1701EB5676F610A1EBC60789
:104910000126BE40B5430846CE1701EB5676F61089
:1049200003EBC616024FBD5500BFBAE79C0000203E
:10493000B402002010B504460CB9002000E0FF20AE
:1049400002464FF400710248FBF753FC10BD000013
:10495000B4020020014A1080518070479C00002062
:104960002DE9F04307460C469046264800882178FA
:104970000844802805DA23484088617808442028C4
:1049800002DB0020BDE8F083002530E0A7F1200025
:10499000617800FB0150616831F81090002622E038
:1049A00009FA06F000F4004058B1164A52882A4429
:1049B00091B2144A1288324490B24246FFF76AFF1D
:1049C00010E0B8F1000F01D1012300E000231A46E6
:1049D0000C4B5B882B4499B20A4B1B88334498B22A
:1049E000FFF758FF761C2078B042D9D86D1C60784C
:1049F000A842CBD8034800882178084401490880A0
:104A00003846BFE79C00002070B504460D461646A8
:104A10000AE0207832462946FFF7A2FF2178884233
:104A200001D0207870BD641C20780028F1D1207856
:104A3000F8E7000010B500241BE004F1B000C2B29A
:104A400000213C2005F036FB002211463C2005F0F9
:104A500031FB102200213C2005F02CFB0648802170
:104A600001FB04020B4640213C2005F02DFB601C9D
:104A7000C4B2082CE1DB10BDB40200207047000076
:104A800010B50C480068401E0A4908600A480068D2
:104A9000012807D10846006820B9FCF711FD074836
:104AA00001F08EF90348006810B90120014908603F
:104AB00010BD0000980100204801002024050020BE
:104AC00010B500F001F810BD0CB500200190009069
:104AD0003348006840F480303149086000BF3048F6
:104AE000006800F4003000900198401C019000988C
:104AF00018B90198B0F5A06FF1D12948006800F409
:104B0000003010B10120009001E0002000900098DA
:104B1000012843D12348006840F010002149086073
:104B20000846006820F0030008600846006840F06E
:104B3000020008601A484068194948600846406801
:104B400048600846406840F4806048600846406815
:104B500020F47C1048600846406840F4E810486043
:104B60000846006840F08070086000BF0C4800688C
:104B700000F000700028F9D00948406820F00300D8
:104B8000074948600846406840F00200486000BF9E
:104B90000348406800F00C000828F9D10CBD000063
:104BA00000100240002002400D480078092811D270
:104BB000DFE800F00506100A0B1010100C0000BF13
:104BC00000200849086009E000BF00BF0648054909
:104BD000086003E000200349086000BF00BF704781
:104BE0009D01002020000020000080BF24480078A4
:104BF000012807D022480078042803D020480078F4
:104C0000082812D11F482049086020482049086020
:104C1000204821490860214821490860214822494B
:104C2000086022482249086028E0154800780328D7
:104C300012D12048144908601F48154908601F48D0
:104C4000154908601E48164908601E481649086044
:104C500016481749086011E00A480B4908601A48CD
:104C60000B49086019480C49086019480C4908604C
:104C700018480D4908600D480D490860704700004C
:104C80009D01002000001646080100200000964209
:104C90000C01002000C0DA451001002000000C4289
:104CA000140100200000AF44180100200000A041C2
:104CB0001C01002000803B46000090420000FA45A5
:104CC0000000204200401C450000404200C0C14599
:104CD0000000F8410080D44470B505460C4625B963
:104CE00000201B490880091D08802CB900201849A4
:104CF00008310880091D0880002D09DD284605F0CF
:104D000087F81349091D08800020091F088008E062
:104D100000200F49091D0880284605F079F80C4944
:104D20000880002C09DD204605F072F8084908319A
:104D300008800020091D088009E00020044908318E
:104D40000880204605F064F801490C31088070BDE8
:104D50003434014009480078032807D00748007818
:104D6000042803D005480078082803D11E200449F0
:104D7000087002E028200249087070479D01002059
:104D80009C0100200948007818B1084800780128E3
:104D900006D107480749086007480849086004E049
:104DA0000020044908600549086070479D01002003
:104DB0000000F041200100200000104224010020EA
:104DC00070B5FEF7BBFB0446FEF7EEFC054600237C
:104DD000012211461AA0FEF714F915B904F00100DA
:104DE00030B900231A4602211AA0FEF70AF919E089
:104DF00004F0020030B900231A4602211AA0FEF77F
:104E000000F90FE004F0040030B900231A46022133
:104E10001AA0FEF7F6F805E000231A4602211CA0AE
:104E2000FEF7EFF800231A4603211EA0FEF7E9F86B
:104E300001230022042120A0FEF7E3F870BD00004A
:104E40006C696E6B2F636F6D706F6E656E7420652D
:104E5000727200004552523A205049204C494E4B44
:104E6000204C4F53542000004552523A204C4944A4
:104E70004152204C4F535420202000004552523ABA
:104E80002053595354454D204C4F5354202000007B
:104E90004552523A20554E4B4E4F574E202020201F
:104EA0002020000066616C6C6261636B3A206E6F5B
:104EB000726D616C202000007761697420726563F7
:104EC0006F7665722E2E2E202020000010B5FEF782
:104ED00035FB044600230122114614A0FEF791F889
:104EE00004F0010109B116A100E01AA1084600234F
:104EF0001A460221FEF785F804F0020109B11AA151
:104F000000E01EA1084600231A460321FEF779F8A7
:104F100004F0040109B11EA100E022A1084601230A
:104F200000220421FEF76DF810BD000050692073C7
:104F3000797374656D20696E69742E2E2E000000E1
:104F400050493A2052454144592020202020202019
:104F50002020000050493A20574149542020202069
:104F600020202020202000004C494441523A205269
:104F70004541445920202020202000004C49444134
:104F8000523A205741495420202020202020000060
:104F900053595354454D3A205245414459202020FD
:104FA0002020000053595354454D3A20424F4F544E
:104FB000494E47202020000010B500231A46022148
:104FC00007A0FEF71EF800231A46032109A0FEF7EA
:104FD00018F80123002204210BA0FEF712F810BDDF
:104FE00073687574646F776E20726571756573741C
:104FF000202000007761697420706920706F7765E8
:10500000726F6666202000007361666520706F779E
:1050100065726F666620736F6F6E000010B50023B7
:105020001A46022104A0FDF7ECFF01230022032110
:1050300006A0FDF7E6FF10BD7072657373206B6507
:105040007920746F2073746172740000686F6C64EF
:10505000206B657920746F2073687574646E00002E
:1050600030B503460C4600211AE0585C2578A8426A
:1050700000D014E0002206E0521CA05C8D185D5D9B
:10508000A84200D005E0A05C18B18818185C002880
:10509000F2D100BFA05C08B9084630BD00BF491C72
:1050A000585C0028E1D1401EF7E7042808D14FF0F2
:1050B000E021096941F004014FF0E022116107E0AD
:1050C0004FF0E021096921F004014FF0E022116165
:1050D0007047704710B51348006840F0010011494F
:1050E000086008464068104908400E494860084674
:1050F00000680E4908400B4908600846006820F423
:10510000802008600846406820F4FE0048604FF4A4
:105110001F008860FFF7D4FC4FF00060044908606E
:1051200010BD0000001002400000FFF8FFFFF6FE77
:1051300008ED00E0F0B50C46154600220021068C73
:105140004FF6FE773E400684028B018C4FF60C76BC
:1051500032407E1C06EA03162E433243104EB04204
:105160000ED0104EB0420BD0B0F1804F08D00E4E92
:10517000B04205D00D4EB04202D00D4EB04206D125
:105180004FF6FD76314044F00106314305E04FF61D
:10519000F576314044F00106314302830184F0BDCD
:1051A000002C014000340140000400400008004091
:1051B000000C0040F0B50C461546002200210026E8
:1051C000078C4FF6EF7C07EA0C070784028B018CF3
:1051D0004FF6FF7707EA041640F6FF473A404FF6CE
:1051E000FF7707EA03373A434FF6FF7707EA0527C9
:1051F0003A43114FB8420ED0104FB8420BD0B0F125
:10520000804F08D00E4FB84205D00E4FB84202D0A2
:105210000D4FB84206D14FF6DF77394046F0100700
:10522000394305E04FF65F77394044F010073943C2
:1052300002830184F0BD0000002C014000340140D5
:105240000004004000080040000C0040F0B50C468F
:105250001546002200210026078C4FF6FF6C07EA56
:105260000C070784828B018C4FF6FF7707EA042630
:105270004FF60C773A404FF6FF7707EA03172F43B4
:105280003A43114FB8420ED0104FB8420BD0B0F194
:10529000804F08D00E4FB84205D00E4FB84202D012
:1052A0000D4FB84206D14FF6FF57394046F480778C
:1052B000394305E04FF2FF57394044F480773943D2
:1052C00082830184F0BD0000002C014000340140C5
:1052D0000004004000080040000C0040F0B50C46FF
:1052E0001546002200210026078C4EF6FF7C07EAB7
:1052F0000C070784828B018C4FF6FF7707EA043690
:1053000040F6FF473A404FF6FF7707EA05273A4352
:105310004FF6FF7707EA03373A43114FB8420ED0F2
:10532000104FB8420BD0B0F1804F08D00E4FB842AA
:1053300005D00E4FB84202D00D4FB84206D14DF6FF
:10534000FF77394046F48057394305E047F6FF5769
:10535000394044F48057394382830184F0BD000012
:10536000002C0140003401400004004000080040CF
:10537000000C0040044800880348008820F0010029
:10538000014908807047000010040040044800886C
:105390000348008820F001000149088070470000A0
:1053A0001008004010B50121294800F0D8F9002864
:1053B0004CD00121264800F09EF826480088401C69
:1053C0002449088024480078401C23490870234859
:1053D0000088002804DD21480088401E1F490880FD
:1053E000FEF70AF81E48007818B11D480078012819
:1053F00002D101201B49087017480078022823DDDC
:10540000002015490870FCF7BDFE044616480168E7
:105410002046FAF720FF1449086014480078401C21
:10542000124908700846007832280DD110490E48FC
:105430000068FAF79AFF0F49086000200A490860DF
:105440000A49087004F0ECFC02F072F810BD00008C
:1054500000100040C8000020C1000020C200002051
:105460009D010020CB000020BC000020C0000020D7
:1054700000004842E40000201FB501211020FEF783
:105480005FFF41F61F40ADF804006320ADF808004F
:1054900001A9104800F066FB01210E4800F028F831
:1054A000012211460B4800F0CAF936208DF80000A1
:1054B00004208DF8010002208DF8020001208DF8F3
:1054C00003006846FDF760FD0121024800F016F870
:1054D0001FBD00000010004021B1028842F0800290
:1054E000028004E002884FF67F731A400280704702
:1054F000CA4302827047CA430282704721B10288C0
:1055000042F00102028004E002884FF6FE731A4066
:105510000280704731B1B0F8442042F40042A0F854
:10552000442005E0B0F84420C2F30E02A0F8442065
:105530007047000010B504466848844208D1012134
:10554000C014FEF72DFF0021E014FEF729FFC4E090
:10555000B4F1804F08D101210846FEF701FF002178
:105560000120FEF7FDFEB8E05D48844208D101212C
:105570000220FEF7F5FE00210220FEF7F1FEACE06E
:105580005848844208D101210420FEF7E9FE002199
:105590000420FEF7E5FEA0E05348844208D1012133
:1055A0000820FEF7DDFE00210820FEF7D9FE94E07A
:1055B0004E48844208D101211020FEF7D1FE00217F
:1055C0001020FEF7CDFE88E04948844208D1012131
:1055D0002020FEF7C5FE00212020FEF7C1FE7CE062
:1055E0004448844208D101214014FEF7D9FE00212D
:1055F0006014FEF7D5FE70E03F48844209D10121D6
:10560000C804FEF7CDFE00214FF40020FEF7C8FECF
:1056100063E03A48844209D101210805FEF7C0FE43
:1056200000214FF48010FEF7BBFE56E03448844260
:1056300009D101214805FEF7B3FE00214FF4001007
:10564000FEF7AEFE49E02F48844208D101214020F8
:10565000FEF786FE00214020FEF782FE3DE02A484C
:10566000844208D101218020FEF77AFE00218020AB
:10567000FEF776FE31E02548844208D101218015ED
:10568000FEF76EFE0021A015FEF76AFE25E0204819
:10569000844209D101210804FEF782FE00214FF463
:1056A0008030FEF77DFE18E01A48844209D10121BE
:1056B0004804FEF775FE00214FF40030FEF770FE3F
:1056C0000BE01548844208D101218804FEF768FEEA
:1056D00000214FF48020FEF763FE10BD002C014036
:1056E0000004004000080040000C00400010004092
:1056F0000014004000340140004C014000500140C3
:105700000054014000180040001C004000200040F0
:10571000004001400044014000480140F0B50C4603
:1057200015461E460021002200230189028B038CAE
:105730004FF6F877394021434FF6FC473A4040F2A4
:1057400001173A434FF6DD773B404FF6FF7707EA04
:1057500006172F433B43018102830384F0BD30B51C
:105760000246002000230024158A05EA01039589DA
:1057700005EA010413B10CB1012000E0002030BDA6
:1057800070B505460C46244885420ED02348854214
:105790000BD0B5F1804F08D02148854205D0214873
:1057A000854202D02048854200D100E000BF208819
:1057B00050B92389A28861882846FFF7BBFCE1889D
:1057C000284600F0A2F925E0208804280AD1238980
:1057D000A28861882846FFF7EDFCE188284600F0A2
:1057E0009DF917E0208808280AD12389A2886188BA
:1057F0002846FFF72BFDE188284600F09CF909E0D8
:105800002389A28861882846FFF768FDE188284639
:1058100000F09AF970BD0000002C014000340140F6
:105820000004004000080040000C004000210180FE
:105830004180012181800021C180018170471AB11E
:1058400083890B43838102E083898B438381704783
:1058500070B5002400220023058C4FF6FE763540FB
:105860000584028C8388048B4FF68F752C40B51EFF
:105870002C400D882C43751E2A400D892A434D88E3
:105880002A43144DA8420BD0134DA84208D0134D03
:10589000A84205D0124DA84202D0124DA84213D101
:1058A0004FF6F7752A404D892A434FF6FB752A407B
:1058B0008D882A434FF6FF652B404FF6FF552B404E
:1058C0008D892B43CD892B4383800483CD888586A6
:1058D000028470BD002C01400034014000400140B2
:1058E00000440140004801400A460021018B4FF668
:1058F000F7731940114301837047000070B500240D
:1059000000220023058C4FF6EF7635400584028C8B
:105910008388048B48F6FF752C404FF6FF452C40DA
:105920000D884FF6FF7606EA05252C434FF6DF7506
:105930002A400D8906EA05152A434D8806EA051511
:105940002A43154DA84202D0144DA8421DD14FF64E
:105950007F752A404D894FF6FF7606EA05152A43E2
:105960004FF6BF752A408D8806EA05152A434FF683
:10597000FF352B404FF2FF752B408D8906EA8505D8
:105980002B43CD8906EA85052B4383800483CD888C
:105990000587028470BD0000002C014000340140E6
:1059A0000A460021018B4FF2FF7319404FF6FF7337
:1059B00003EA0223194301837047000070B50024F5
:1059C00000220023058C4FF6FF6635400584028CCB
:1059D0008388848B4FF68F752C404FF6FC752C40D6
:1059E0000D882C434FF6FF552A400D894FF6FF7660
:1059F00006EA05252A434D8806EA05252A43154D62
:105A0000A84202D0144DA8421DD14FF2FF752A4082
:105A10004D894FF6FF7606EA05252A434FF6FF35F6
:105A20002A408D8806EA05252A434EF6FF752B404D
:105A30004DF6FF752B408D8906EA05152B43CD8960
:105A400006EA05152B4383808483CD8885870284ED
:105A500070BD0000002C0140003401400A460021C6
:105A6000818B4FF6F7731940114381837047000013
:105A700070B5002200230024058C4EF6FF763540D9
:105A80000584038C8488828B48F6FF752A404FF684
:105A9000FF452A400D884FF6FF7606EA05252A4382
:105AA0004DF6FF752B400D8906EA05352B434D88D1
:105AB00006EA05352B430B4DA84202D00A4DA842F9
:105AC00008D14BF6FF752C408D894FF6FF7606EA1C
:105AD00085152C4384808283CD88A0F840500384B0
