:020000040800F2
:10000000E00A002049010008013000084D230008E3
:10001000332F0008BD1400086163000800000000D1
:10002000000000000000000000000000FD4A000881
:10003000E518000800000000293C0008AF51000846
:100040006301000863010008630100086301000800
:1000500063010008630100086301000863010008F0
:1000600063010008630100086301000863010008E0
:1000700063010008630100086301000863010008D0
:1000800063010008630100086301000863010008C0
:1000900063010008630100086301000863010008B0
:1000A00063010008630100086301000863010008A0
:1000B00063010008515400086954000863010008F6
:1000C0006301000863010008630100086301000880
:1000D00063010008B55E0008F95E000863010008CE
:1000E0000D1900086301000863010008630100089E
:1000F0006301000863010008630100086301000850
:10010000630100086301000863010008630100083F
:1001100063010008795E000881540008630100084B
:10012000630100086301000863010008630100081F
:10013000DFF810D000F028FD00480047A58E000829
:10014000AFF30080E00A00200648804706480047D9
:10015000FEE7FEE7FEE7FEE7FEE7FEE7FEE7FEE777
:10016000FEE7FEE7B1510008310100082DE9F0413A
:100170000024061B254671F1000605DA012400273C
:10018000D0EB070067EB0101161E73F1000605DADC
:100190000027D2EB0702012567EB030300F068FBA1
:1001A00086460E4617469C46AC4204D00025D0EB4E
:1001B000050E65EB010624B10020D2EB000760EBD1
:1001C000030C704631463A466346BDE8F08140EA8A
:1001D00001039B0703D009E008C9121F08C0042AC5
:1001E000FAD203E011F8013B00F8013B521EF9D2AC
:1001F0007047D2B201E000F8012B491EFBD27047D4
:100200000022F6E710B513460A4604461946FFF7E2
:10021000F0FF204610BD421E12F8013F002BFBD11B
:1002200011F8013B02F8013B002BF9D17047421C49
:1002300010F8011B0029FBD1801A704730B5044625
:100240000020034600E05B1C934203D2E05CCD5CDF
:10025000401BF8D030BDF0B480EA0102D40F420058
:10026000B2EB410F02D20246084611464A0042D084
:10027000C30DDDB2C1F3C752AD1A202D35DAC1F37B
:10028000160141F4000204B15242C5F1200602FAFF
:1002900006F12A411044B3EBD05F23D0C4B1012D45
:1002A000A0EBC35009DCF0BC4FF0004202EAC3529D
:1002B000DBB200F5000000F094BB400000F180705C
:1002C00000EBC350A0F1807040EAD170490009E012
:1002D000490841EAC071A0EBC35000F50000400896
:1002E00000EBC350F0BC00F073BB6142012202EB93
:1002F0004101001BF6E7F0BC704781F00041AAE71E
:1003000080F00040A7E780EA010210B502F0004348
:10031000400022D04A001FD0010E01EB1261C0F351
:100320005600C2F3560240F4000042F40002A0FB63
:10033000022000047F39140400D0401C50EA12400F
:1003400001D44000491EC2B20C0604EBD010401C80
:100350004008802A02D003E0002010BD20F00100F8
:10036000002900DA0020184310BD30B480EA0102F1
:1003700002F0004530F0004221F0004013D090B16F
:10038000C30DD40DC2F31601C0F31600E41A41F4F4
:10039000000140F400027D34914201D3641C00E06E
:1003A0004900002C02DA30BC002070474FF40000F6
:1003B0000023914201D3891A034340084FEA4101C7
:1003C000F7D151B1914202D14FF0004105E002D284
:1003D0004FF0010101E06FF0010103EBC45028442C
:1003E00030BC00F0F5BA2DE9FE4F804681EA0300EB
:1003F000C00F0C46009021F0004123F00045B8EBFF
:100400000200A94105D24046214690461C460B46B3
:10041000024623F00040104347D0270DC7F30A00DF
:10042000C3F30A510290401A019040286BDAC3F3DB
:10043000130040F4801B0098924620B10023D2EBB9
:10044000030A63EB0B0B01985946C0F1400250467A
:1004500000F03FFA06460D4650465946019A00F014
:1004600057FA10EB08006141002487EA115284EA30
:10047000E7731A4340D0009A62B3019A012A4FEA07
:10048000075215DC001B61EB02014FF0004202EA4B
:100490000752CDE90042001C41F5801132462B463F
:1004A00000F0DCFA03B0BDE8F08F40462146F9E7E2
:1004B000001B61EB0201001C41F5801300185B4139
:1004C0002018A2F5001747EB030140EAD570B619D2
:1004D0006D4111E06D084FEA360645EAC0754FEAF6
:1004E0000752001B61EB0201001C41F58011490815
:1004F0004FEA30000019514132462B4603B0BDE8A7
:10050000F04F00F09CBA0098012240000023D0EB8D
:10051000020263EBE073009821464FEAE074B8EB07
:10052000000061EB0401E9E783F000435BE781F041
:10053000004158E72DE9FE4F81EA030404F000442E
:1005400021F0004100944FF0000B23F0004350EAEB
:1005500001045ED052EA03045BD0C3F30A54C1F332
:100560000A552C44A4F2F3340194A0FB0254C1F3C5
:10057000130141F48011C3F3130343F4801301FB0F
:10058000024400FB034E840A970A44EA815447EA76
:100590008357A4FB076802958D0A05FB07854FEA80
:1005A000932C04FB0C542705029D4FEA065847EA9A
:1005B0001637B5EB08056EEB070C870E920E47EA6F
:1005C000811742EA8312A7FB0201B6EB0B0164EB31
:1005D00000042B0D43EA0C335E1844EB1C50DA4642
:1005E0005146E7FB0201C5F313044FEA0B3343EA1C
:1005F00014534FEA0432019C43EA0603A4F10C04AD
:100600000294009CCDE900B400F028FA03B0BDE8E4
:10061000F08F00200146F9E72DE9F04D81EA03044F
:1006200004F0004B21F0004514464FF0000A23F07F
:10063000004150EA050220D054EA01021DD0C5F362
:100640000A570246C5F31303C1F31300C1F30A5658
:1006500040F4801543F48013A7EB0608101BD64620
:1006600008F2FD3873EB050002D308F1010801E040
:1006700092185B41B8F1000F03DA00200146BDE893
:10068000F08D00204FF48011064684460EE0171BC3
:1006900073EB050705D3121B63EB050306434CEA16
:1006A000010C49084FEA300092185B4150EA0107FB
:1006B000EDD152EA030012D082EA040083EA050178
:1006C000084305D0101BAB4106D20122002306E0EF
:1006D00000224FF0004302E06FF0010253101AEBCA
:1006E00006004CEB085110EB0A0041EB0B01BDE892
:1006F000F04D00F0A4B9C10F80EAE0700844CA07C9
:100700009623002100F06DB996230022114600F0D7
:1007100068B90EB5C10F80EAE0700844CA0700212D
:1007200040F233438DE80E000A460B4600F096F97E
:1007300003B000BD00F0004220F00040C10DC0F346
:10074000160040F400007F2901DA00207047962946
:1007500003DCC1F19601C84001E096398840002AC7
:10076000F4D04042704720F00040C10DC0F31600A5
:1007700040F400007F2901DA00207047962903DC4D
:10078000C1F19601C840704796398840704700F023
:10079000004230F000400AD0C10D01F56071C0F395
:1007A000160042EA0151C208400711437047002079
:1007B0000146704730B5041E71F1000404DB4FF0B0
:1007C0000044404264EB0101141E73F1000405DB98
:1007D0001C464FF00043524263EB04038B4208BFB8
:1007E000824230BD01F0004330B421F0004150EAB4
:1007F000010206D00A0DA2F56072C1F31301002AAE
:1008000002DC30BC00207047440F44EAC104C10040
:10081000E01830BC00EBC25000F0DAB8002801DB71
:10082000C0F10040002901DBC1F100418142704765
:10083000002801DBC0F10040002901DBC1F10041CB
:100840008842704730B50B46014600202022012423
:1008500009E021FA02F59D4205D303FA02F5491B8E
:1008600004FA02F52844151EA2F10102F1DC30BDA4
:100870002DE9F05F0546002092469B4688460646D5
:10088000814640241BE0284641464746224600F068
:100890002FF853465A46C01A914110D311461846B4
:1008A000224600F016F82D1A67EB01084F46224643
:1008B0000120002100F00DF817EB00094E41201E29
:1008C000A4F10104DFDC484631462A464346BDE830
:1008D000F09F202A04DB203A00FA02F10020704742
:1008E0009140C2F1200320FA03F31943904070476E
:1008F000202A04DB203A21FA02F00021704721FA75
:1009000002F3D040C2F120029140084319467047DB
:10091000202A06DBCB17203A41FA02F043EAE073C3
:1009200006E041FA02F3D040C2F1200291400843B0
:10093000194670470FB4002300B589B00CA9009187
:100940000B996FF00042CB601E4B06931E4B079332
:100950000423CDE901321D4A089202466B4600206D
:1009600000F0BEF909B05DF814FB70B586B006461C
:100970004FF0FF300091CDE90101002015460C46F3
:1009800004903246694604A8FFF7D4FF0246049853
:10099000211825B108B1084600E0204628600498D7
:1009A00000280DD0002A02DD0098884208D0081BDC
:1009B0000094CDE901043246694604A8FFF7BAFF66
:1009C00006B070BD190F0008370F0008AD0B000806
:1009D0000029A8BF7047401C490008BF20F0010053
:1009E000704710B4B0FA80FC00FA0CF050EA010431
:1009F00004BF10BC704749B1CCF1200421FA04F4C3
:100A000011FA0CF118BF012121430843A3EB0C019B
:100A1000CB1D4FEA00614FEA102042BF002010BCFE
:100A2000704700EBC35010440029A4BF10BC7047AE
:100A3000401C490008BF20F0010010BC704710B5F1
:100A4000141E73F1000408DA401C41F100019218F1
:100A50005B411A4301D120F0010010BD2DE9F04D9A
:100A600092469B4611B1B1FA81F202E0B0FA80F2EF
:100A700020329046FFF72DFF04460F4640EA0A0059
:100A800041EA0B0153465A46084313D0114653EA34
:100A9000010019D0C8F140025046FFF729FF054672
:100AA0000E46504659464246FFF713FF084305D00D
:100AB000012004E020463946BDE8F08D00200543C2
:100AC00046EAE0762C4337430A986305E40AA0EB34
:100AD00008000022FD0A44EA47540A3002D50020EB
:100AE0000146E9E7010510196941DDE908450019EA
:100AF0006941BDE8F04DA2E770B521F00043034322
:100B00000CD0C1F30A550024D5EB040564EB0403B3
:100B1000D617AD1AB34102DB0020014670BD201884
:100B200041EB025170BDC1F30A52C1F3130140F20F
:100B3000FF3341F480119A4202DA002001467047E7
:100B400040F233439A42A2F2334202DC5242FFF7B0
:100B5000CFBEFFF7BEBE000030B5041E71F1000429
:100B600004DB4FF00044404264EB0101141E73F1BA
:100B7000000405DB1C464FF00043524263EB0403C4
:100B8000994208BF904230BD064C074D06E0E06830
:100B900040F0010394E8070098471034AC42F6D3C4
:100BA000FFF7CAFAB0DB0008D0DB0008C0B24FF490
:100BB000F05100F023BA00002DE9FF4F087883B010
:100BC0009946FF2805D0491C2D2804D00024002078
:100BD00008E000200BE00124F9E700EB800003EBC4
:100BE0004000491C0B78FF2BF7D104B14042002391
:100BF0000293147819461D462D2C01D02B2C04D1BC
:100C0000521C2D2C13D000240294AA461478FF2CD9
:100C10000FD00A25A3FB057801FB05814FF0000CDE
:100C200003FB0C11521CE3194AEB0101EEE701240E
:100C3000EAE7814453EA010002D019F5C87F06DAD9
:100C400003980021C0E9001107B0BDE8F08F00252E
:100C5000AE4E2F46DFF8B882184600F0E3F9CDE932
:100C60000001B9F1000002DAC9F1000400E0044615
:100C70000023A74A1AEB030B42EB045A12E0E007E9
:100C800007D02A46334638464146FFF753FC07460D
:100C900088462A46334610461946FFF74BFC054660
:100CA0000E466410002CEAD1DDE90001B9F1000F15
:100CB0005A46534606DAFFF7AFFC3A464346FFF77B
:100CC000ABFC05E0FFF736FC3A464346FFF732FC43
:100CD000029A0AB181F00041039AC2E90001B3E728
:100CE0002DE9FF4F1F468DB0D7E901464FF0FF3881
:100CF0002E2045464FF000090B90B9696D1C0E98E7
:100D00008847396A824688470028F6D1BAF1FF3F02
:100D10000AD024F4D064002E11DDBAF12B0F08D0D4
:100D2000BAF12D0F0BD102E0404611B08DE744F42B
:100D30008064B9696D1C0E9888478246761E6946A4
:100D4000600501D52D2000E02B208DF8000001F179
:100D5000010B0DF1200809E0B9696D1C0E98884758
:100D600082460F9844F40074761E0560002E02DD62
:100D7000BAF1300FF0D00B998A453ED144F080048F
:100D800006E00F99681CA9F1010944F40074086099
:100D9000B9696D1C761E0E98884782463028F0D0BF
:100DA0002BE00B998A4505D1200603D444F080043A
:100DB000761E18E0504605F09FFD08B30DF11301B3
:100DC000761E44F400748B4508D2AAF130000BF86B
:100DD000010B200607D5A9F1010003E0200602D48B
:100DE00009F101008146A00502D50F99681C086031
:100DF000B9696D1C0E9888478246002ED1DC53E0FD
:100E0000002E51DDBAF1650F02D0BAF1450F4BD17A
:100E1000A00549D5B9696D1C24F44074761E0E985E
:100E200088478246002E0CDD2B2804D0BAF12D0F06
:100E300007D144F48074B9696D1C0E9888478246C6
:100E4000761EE00501D52D2100E02B2108F8011BBD
:100E5000CDF82C8021E00DF12901761E44F40074B8
:100E600088450CD2AAF1300010F0FF0088F800008D
:100E700002D10B99884509D908F1010806E0E0057F
:100E800001D5244801E042F20F708146B9696D1C1A
:100E90000E98884782460F980560002E04DD504664
:100EA00005F02AFD0028D6D1F9690E988847FF2061
:100EB0008BF8000088F800000020069007904B4651
:100EC0006A4608A906A8FFF777FEA00502D46FF0CE
:100ED00001002AE714F0240F0AD0E00714D1DDE95D
:100EE00006123868031D3B600068C0E900120BE081
:100EF000DDE90601FFF776FC0146E00704D138681A
:100F0000021D3A600068016028460EE700001440A8
:100F10000000F03FF1D8FFFF426842B1016811F8CC
:100F2000013B23B1521EC0E900121846704701214F
:100F3000C160881E704742685AB1C368016843B9EE
:100F400083688B4205D0491E521CC0E90012002064
:100F500070474FF0FF3070472DE9F04D00231A46DF
:100F60001B1A8A4103DB00200146BDE8F08DC1F366
:100F70000A52C1F3130141F480154FF0000BD10761
:100F800002D100186D41521E0027044640F2FF11A5
:100F9000384601EB620A3E468046024600204FF486
:100FA0008011FFF7A5FCC2197141BB1846EB010087
:100FB000B4EB030C75EB000C04D3E41A65EB0005ED
:100FC00017460E46241908F101006D418046342869
:100FD000E3DDF91946EB0600091BA84103D24FF0E7
:100FE000FF32134601E0002213461BEB070046EBDD
:100FF0000A51BDE8F04DFFF722BD00007F2801D95E
:10100000002208E0064A02EB5002C007127800D125
:10101000120902F00F0201209040084070470000C2
:1010200020DB00080EB540F2334202920022CDE9E7
:1010300000221346FFF712FD03B000BD70B58C18F7
:1010400010F8015B15F0070301D110F8013B2A11DC
:1010500006D110F8012B03E010F8016B01F8016BC9
:101060005B1EF9D12B0705D40023521E0DD401F8C5
:10107000013BFAE710F8013BCB1A921C03E013F88E
:10108000015B01F8015B521EF9D5A142D8D30020C3
:1010900070BD21B1826842F00102826003E0826883
:1010A00022F001028260704710B504461248844263
:1010B00008D10121401503F0B3F90021601503F0B8
:1010C000AFF917E00D48844208D10121001503F063
:1010D000A7F90021201503F0A3F90BE0084884428A
:1010E00008D10121C80303F09BF900214FF400400F
:1010F00003F096F910BD00000024014000280140D3
:10110000003C0140014600208A6802F004020AB156
:10111000012000E0002070470146C86C80B2704793
:101120000246002013680B400BB1012000E00020B4
:101130007047014600208A6802F008020AB10120C7
:1011400000E000207047000030B502460020002378
:1011500050680F4C20400D790C6844EA0524204368
:10116000506090680B4C2040D1E902542C434D79DB
:1011700044EA450420439060D06A20F470000C7C5F
:10118000641EE4B2234340EA0350D06230BD000045
:10119000FFFEF0FFFDF7F1FFF0B504460D4600201D
:1011A0000021092D11DDE068A5F10A0606EB4607CE
:1011B000072606FA07F18843A5F10A0606EB46065C
:1011C00003FA06F10843E0600CE0206905EB4507EF
:1011D000072606FA07F1884305EB450603FA06F1F0
:1011E00008432061072A0FDA606B561E06EB86075C
:1011F0001F2606FA07F18843561E06EB860605FAF7
:1012000006F10843606322E00D2A0FDA206BD61F37
:1012100006EB86071F2606FA07F18843D61F06EB62
:10122000860605FA06F10843206310E0E06AA2F1A1
:101230000D0606EB86071F2606FA07F18843A2F182
:101240000D0606EB860605FA06F10843E062F0BDDE
:10125000816841F008018160704721B1826842F4E1
:10126000A002826003E0826822F4A00282607047DC
:10127000816841F0040181607047000008B50121D8
:10128000102003F0BDF84FF47070ADF80000182086
:101290008DF8030003208DF802006946014800F034
:1012A00015FD08BD0010014030B587B005460C465D
:1012B0000121480303F0A4F8254804F0A9F9681EA9
:1012C00080B2ADF81400ADF810400020ADF8160063
:1012D000ADF8120004A91E4804F0B2FC6020ADF87D
:1012E00000000120ADF802000020ADF80600ADF8C6
:1012F00008006946164804F019FB6946144804F0D2
:101300006BFB6946124804F0C7FB6946104804F0BD
:101310001DFC01210E4804F06BF908210C4804F073
:1013200051FB08210A4804F0A9FB0821084804F0F1
:1013300003FC0821064804F047FC0121044804F09E
:1013400039F90121024804F047F907B030BD000027
:10135000003401402DE9FC5F04460D461E4801683B
:101360002046FEF7CDFF019029460020FEF7C5FF7D
:1013700000901A4801680098FEF7C5FF8246184998
:10138000FEF7F3FF80461748006880F0004B1449D1
:101390005846FEF7EAFF82460199FEF7B4FF814600
:1013A0004146FEF7AAFF0746FFF7C4F906460E4876
:1013B000007801280CD13046FFF79DF980460B4894
:1013C00001684046FEF79FFF0746FFF7B3F9064660
:1013D0003046BDE8FC9F00002000002010010020E6
:1013E0000000C8420C010020A901002000010020DB
:1013F00070B504464FF47A750723012221460B4845
:10140000FFF7CAFE01210948FFF727FF00BF0221AD
:101410000648FFF785FE20B9281EA5F101018DB20F
:10142000F5D10248FFF778FE70BD000000240140AE
:1014300000B587B001214FF4017002F0E1FF4FF4D5
:10144000004002F0B1FF2020ADF8040000208DF82C
:10145000070001A9174800F039FC1748FFF724FEE0
:10146000002002908DF80C008DF80D004FF46020E4
:1014700004900020059001208DF8180002A90E4864
:10148000FFF762FE01210C48FFF703FE0A48FFF751
:10149000DFFE00BF0848FFF74CFE0028FAD10648DF
:1014A000FFF7E6FE00BF0448FFF72CFE0028FAD144
:1014B00007B000BD000801400024014000BFFEE766
:1014C0002DE9F04F91B0002010902F4800680128BE
:1014D00056D12E48D0F800A02D48D0F800B02D49A4
:1014E0002D480068FEF741FF2C4908602C48006831
:1014F0002C49086050212C48FEF782FE2A482BA177
:10150000096801602A480068FFF741F904460D4662
:101510001098FFF73CF906460F4622480068FFF78F
:1015200036F9804689461D480068FFF730F9CDE955
:101530000E015846FFF72BF9CDE90C015046FFF795
:1015400026F9CDE90489CDE90667CDE90845CDE95D
:101550000A01DDE90E01CDE90201DDE90C01CDE969
:10156000000114A11048DDE90A2305F057F85021C5
:101570001D48FEF745FE50220B491B48FEF727FE8B
:1015800011B0BDE8F08F000054010020F8000020E9
:10159000FC0000200000C8421C0000209C0100202C
:1015A00008000020A0010020E0040020244C560088
:1015B000E4000020244C5625332E32662C5256254A
:1015C000332E32662C414325332E32662C47592563
:1015D000332E32662C43534225332E32662C56541A
:1015E00025332E3266230000300500202DE9F05F00
:1015F00005460C46124E134801682046FEF783FE4E
:101600008346114801685846FEF725FE804631465C
:101610004FF07E50FEF771FE82464146FEF773FEA4
:10162000074631462846FEF76EFE81463946FEF7EC
:1016300012FE0549086008460068BDE8F09F0000FA
:101640000AD7A33CDC010020180200202DE9F05F3E
:1016500005460C46124E134801682046FEF753FE1D
:101660008346114801685846FEF7F5FD804631462D
:101670004FF07E50FEF741FE82464146FEF743FEA4
:10168000074631462846FEF73EFE81463946FEF7BC
:10169000E2FD0549086008460068BDE8F09F0000CB
:1016A0000AD7A33CDC010020540200200146072396
:1016B00023EA01021202054B18684FF6FF03184097
:1016C000034B18431043014B186070470CED00E0CA
:1016D0000000FA0538B5002000906B460122752104
:1016E000682007F001FB2CA004F088FF9DF80000A3
:1016F00068280ED000BF3148006800F4E06030492F
:101700000843001D2D490860BFF34F8F00BF00BF85
:10171000FEE707F03BFE00283CD1782008F040FCB3
:1017200010B91DA004F06AFF782007F01DFD10B964
:1017300024A004F063FFC82008F0E4FB10B92BA03C
:1017400004F05CFF06F046FB10B932A004F056FF2F
:101750003D4807F06BFB044606F096FD10B93BA030
:1017600004F04CFF40F2731006F0DCF910B941A010
:1017700004F044FFC82006F0B7FC10B947A004F0FD
:101780003DFF08F041FD012008F0B8FA10B94CA067
:1017900004F034FF38BD00006D70755F7365745FD1
:1017A00073656E736F7220636F6D706C6574652006
:1017B0002E2E2E2E2E2E0D0A000000000CED00E025
:1017C0000000FA056D70755F636F6E66696775720C
:1017D000655F6669666F20636F6D706C6574652008
:1017E0002E2E2E2E2E2E0D0A000000006D70755F1D
:1017F0007365745F73616D706C655F726174652091
:10180000636F6D706C657465202E2E2E2E2E2E0D3E
:101810000A000000646D705F6C6F61645F6D6F74CF
:10182000696F6E5F6472697665725F6669726D7703
:1018300061726520636F6D706C657465202E2E2E4D
:101840002E2E2E0D0A00000088000020646D705FAF
:101850007365745F6F7269656E746174696F6E2011
:10186000636F6D706C657465202E2E2E2E2E2E0DDE
:101870000A000000646D705F656E61626C655F6692
:1018800065617475726520636F6D706C6574652039
:101890002E2E2E2E2E2E0D0A00000000646D705F7D
:1018A0007365745F6669666F5F7261746520636FEC
:1018B0006D706C657465202E2E2E2E2E2E0D0A0056
:1018C0006D70755F7365745F646D705F7374617460
:1018D0006520636F6D706C657465202E2E2E2E2E24
:1018E0002E0D0A00704701B500200AE0002001E03B
:1018F000411CC8B20A28FBDB9DF80010491EC9B282
:1019000000919DF800100029F0D108BD2DE9F047A5
:101910005948006800287DD14FF48050574908602D
:1019200057480088002804DD55480088401E544967
:1019300008805448007800F05DFA002002F018FF9B
:101940008046012002F014FF44422146404600F048
:1019500077FC4D4801684D480068FFF7FBFC0546E1
:101960002146404604F0FEFC06464948006804F063
:10197000FFF90746A819384446490860A819C01B52
:10198000454908604348006802F038F94149086059
:101990004148006802F032F93F4908603F4A51422D
:1019A0003C48006802F037F93A4908603B4A514226
:1019B0003948006802F02FF9374908603848007844
:1019C00078B13748007801280BD0354800780328D3
:1019D00007D033480078042803D03148007808281D
:1019E0001AD123464246294801682E48006802F071
:1019F0001DF910B101202C4908702C48007858B10D
:101A0000224641462148006802F080FC20B10020B7
:101A1000254900E02EE0087023480078E8B9234803
:101A20000078D0B1224923480068FEF701FF14D89E
:101A3000214916480068FEF7FBFE0ED21F480078C9
:101A4000FEF762FE8146114801684846FEF7F0FE47
:101A500003D22146404604F0B3FB164801680B4808
:101A6000006804F049F928B90B4801680948006882
:101A700003F08CF9BDE8F0873001214214040140E5
:101A8000E0000020000000200800002004000020EA
:101A90000C0000201000002014000020D8F5FFFFEB
:101AA000A90100201C0000202C0000202D00002097
:101AB0009A991941E4000020000020C2A8010020EA
:101AC000002123498279002A3AD00A461268036825
:101AD0009A430B461A600A1D126803689A430B1D4D
:101AE0001A60027911440A6803681A430A60184AA6
:101AF0000832126803689A43154B08331A601A1D9E
:101B0000126803689A43124B0C331A604279102A08
:101B10000ED11A1F126803681A430D4B08331A605E
:101B20001A1D126803681A43094B0C331A600DE042
:101B30000749427911440A6803681A430A6005E0BC
:101B4000027911440A6803689A430A6070470000EA
:101B50000004014000B587B00121022002F030FCF2
:101B60000121042002F04CFCC020ADF8000004204C
:101B70008DF8030069461C4800F0A8F804A804F09A
:101B8000B1F80020ADF810004FF6FF70ADF814006A
:101B90000020ADF81600ADF8120004A9134804F0B7
:101BA0004FF800231A460321104803F025FE01A830
:101BB00003F0AAFE0A20ADF80C0001A90B4803F0BF
:101BC0004DFE0121094803F001FD0122114607489D
:101BD00003F0A3FE0021054804F003F801210348A7
:101BE00003F0FAFC07B000BD00080140000400400B
:101BF00000B587B00121042002F0E2FB012108209A
:101C000002F0FEFBC020ADF8000004208DF80300B8
:101C100069461C4800F05AF804A804F063F8002054
:101C2000ADF810004FF6FF70ADF814000020ADF8CD
:101C30001600ADF8120004A9134804F001F80023BF
:101C40001A460321104803F0D7FD01A803F05CFEFB
:101C50000A20ADF80C0001A90B4803F0FFFD01219B
:101C6000094803F0B3FC01221146074803F055FE72
:101C70000021054803F0B5FF0121034803F0ACFC47
:101C800007B000BD000C01400008004030B5002244
:101C90008B071C0F0F2303FA04F20B4B8C1053F825
:101CA00024309343084C8D1044F8253023468C1083
:101CB00053F824308C07240F00FA04F42343024C19
:101CC0008D1044F8253030BD080001402DE9F04169
:101CD000024600250026002000230024002791F85A
:101CE00003C00CF00F0591F803C00CF0100CBCF110
:101CF000000F03D091F802C04CEA050591F800C02E
:101D0000BCF1000F31D0146800202BE04FF0010C23
:101D10000CFA00F3B1F800C00CEA03069E4220D191
:101D200083004FF00F0C0CFA03F7BC4305FA03FCD9
:101D30004CEA040491F803C0BCF1280F06D14FF01F
:101D4000010C0CFA00FCC2F814C00AE091F803C0C0
:101D5000BCF1480F05D14FF0010C0CFA00FCC2F8A1
:101D600010C0401C0828D1D31460B1F800C0BCF1E9
:101D7000FF0F34DD546800202EE000F1080C4FF016
:101D8000010808FA0CF3B1F800C00CEA03069E4201
:101D900021D183004FF00F0C0CFA03F7BC4305FA76
:101DA00003FC4CEA040491F803C0BCF1280F05D1F0
:101DB00000F1080C08FA0CF8C2F8148091F803C07E
:101DC000BCF1480F07D100F1080C4FF0010808FAE8
:101DD0000CF8C2F81080401C0828CED35460BDE82F
:101DE000F0810246002093680B400BB1012000E017
:101DF000002070472DE9F04F91B0804602F0D4FCEE
:101E0000E2490860B8F1010F1BD102F083FBE04802
:101E10000068E0490860E049B1F90000FEF76BFC9A
:101E2000DE490860DC49B1F90400FEF764FCDC49D6
:101E30000860DC49B1F90400FEF75DFCDA4908608E
:101E4000A1E14421D02000F083FA83464321D02031
:101E500000F07EFA0BEB00200990FEF74CFC0646E2
:101E60004621D02000F074FA83464521D02000F0AE
:101E70006FFA0BEB00200990FEF73DFC0A90482119
:101E8000D02000F065FA83464721D02000F060FAA8
:101E90000BEB00200990FEF72EFC07463C21D020DA
:101EA00000F056FA83463B21D02000F051FA0BEBAC
:101EB00000200990FEF71FFC0D903E21D02000F07D
:101EC00047FA83463D21D02000F042FA0BEB002078
:101ED0000990FEF710FC82464021D02000F038FA2D
:101EE00083463F21D02000F033FA0BEB002009900D
:101EF000FEF701FC05464FF08E413046FEF798FC98
:101F000005D24FF08F413046FEF7F7F906464FF005
:101F10008E410A98FEF78CFC05D24FF08F410A984B
:101F2000FEF7EBF90A904FF08E413846FEF780FC41
:101F300005D24FF08F413846FEF7DFF907464FF0E4
:101F40008E410D98FEF774FC05D24FF08F410D982D
:101F5000FEF7D3F90D904FF08E415046FEF768FC26
:101F600005D24FF08F415046FEF7C7F982464FF039
:101F70008E412846FEF75CFC05D24FF08F41284683
:101F8000FEF7BBF9054686F00040844908600D98CD
:101F9000FEF7FDFB854A864BCDE90601FEF73CFBCB
:101FA000CDE90801FEF71EFC10905046FEF7EFFB4E
:101FB0007E4A7F4BCDE90601FEF72EFBCDE90801F5
:101FC000FEF710FC0F902846FEF7E1FB774A784BAE
:101FD000CDE90601FEF720FBCDE90801FEF702FC82
:101FE0000E903046FEF7D3FB4FF06632714BCDE9D1
:101FF0000601FEF711FBCDE90801FEF7F3FB814670
:102000000A98FEF7C4FB4FF066326A4BCDE9060131
:10201000FEF702FBCDE90801FEF7E4FB0446664843
:102020000078022837D189F0004002460390DDE9AC
:102030000E1000F0D1FB8346FEF7A9FB5F4A604B10
:10204000CDE90401FEF7E8FA00225E4BCDE9060176
:10205000FEF770FACDE90801FEF7C4FB4C490860B1
:1020600022460E99109800F013FD8346FEF78FFB71
:10207000524A534BCDE90401FEF7CEFA0022514BF0
:10208000CDE90601FEF756FACDE90801FEF7AAFBF5
:102090004D4908606FE04848007803286BD1284616
:1020A000FEF775FBCDE902015046FEF770FBCDE966
:1020B0000001DDE9022305F04BFA0022414BCDE996
:1020C0000401FEF737FA3D4A3D4BCDE90601FEF724
:1020D000A3FACDE90801FEF785FB0C902846FEF730
:1020E00056FBCDE902010D98FEF751FBCDE9000149
:1020F000DDE9022305F02CFA0022324BCDE9040180
:10210000FEF718FA2D4A2E4BCDE90601FEF784FAA8
:10211000CDE90801FEF766FB0B903046FEF737FB72
:102120004FF06632294BCDE90601FEF775FACDE98D
:102130000801FEF757FB834659460C98FFF756FAFD
:1021400080F00040124908600A98FEF720FB4FF02B
:1021500066321E4BCDE90601FEF75EFACDE90801B5
:10216000FEF740FB834659460B98FFF76FFA80F065
:10217000004015490860064800680649086008489C
:1021800007600948056011B0BDE8F08F1800002015
:1021900070000020040000205C00002008000020E7
:1021A0000C000020620000201C0000208FC2F528D7
:1021B0005C1F9A40665E8D4000000020F1D4C85339
:1021C000FB210940008066406C00002066663040BC
:1021D00010B500F00BF8044603492046FEF793F8CB
:1021E0000446204610BD0000C3F5804070B50520B0
:1021F000FFF7FEF805462846FEF786FA064603492D
:10220000FEF781F80446204670BD00003333533A90
:102210000948007809280AD2DFE800F00A0B09050E
:1022200006090909070000BF00BF0448704700BF46
:1022300000BF0020FAE70000A9010020000080BFD5
:102240002DE9F04F87B083468A465846FEF761FA7B
:102250000022344BCDE90001FEF76CF90022324B2D
:10226000CDE90201FEF7D8F9804600222F4BFEF798
:10227000D3F9064600222E4BFEF7CEF90446FEF7B0
:10228000B1FA05900598FEF782FA2A4A2A4BCDE961
:102290000201FEF74FF980460022284BFEF74AF96B
:1022A00006460022264BFEF7B7F90446FEF79AFAD7
:1022B000244908605046FEF72CFA0022194BCDE95C
:1022C0000001FEF737F906460022174BFEF7A4F986
:1022D00004460022154BFEF79FF980460022144B5E
:1022E000FEF79AF9CDE90201FEF77CFA0490049812
:1022F000FEF74DFA80460F4A0F4BFEF71BF90022FE
:102300000E4BCDE90201FEF715F9064600220C4BF3
:10231000FEF782F90446FEF765FA0B49086007B03C
:10232000BDE8F08F000069400000104000003E4012
:1023300000002640F1D4C853FB21094000C05040A2
:1023400000002440F8000020FC00002000BFFEE751
:1023500070B505460E46002400F0EAF8284600F065
:10236000B5F8641C00F03CF9304600F0AFF8641C8E
:1023700000F036F900F0DCF8691CC8B200F0A6F8ED
:10238000641C00F02DF9002000F068F8044600F00D
:1023900003F9204670BD000010B500200E4908600A
:1023A0000E48006820F470600C4908600846006818
:1023B00040F44070086000200949C1F8A8010120DC
:1023C00005F074FB01200449086005F06FFB002054
:1023D0000349C1F8AC0110BDAC812142040C01409D
:1023E0000080214208B50121082002F009F84FF4CD
:1023F0004060ADF8000010208DF8030003208DF838
:10240000020069460148FFF761FC08BD000C01406D
:1024100010B500200E4908600E48006820F4706076
:102420000C4908600846006840F4407008600120CC
:102430000949C1F8A80105F039FB012004490860E9
:1024400005F034FB00200449C1F8AC0110BD0000C8
:10245000AC812142040C01400080214270B5054648
:1024600000241748006820F4706015490860084689
:10247000006840F400600860002616E00020114962
:102480000860022005F012FB01200F49C1F8AC01E1
:102490006006040E0B488438006808B1601CC4B2A2
:1024A000022005F003FB701CC6B2082EE6DB15B156
:1024B000FFF772FF01E0FFF7ABFF204670BD0000A1
:1024C000040C0140AC8121420080214270B50446D9
:1024D0001448006820F470601249086008460068DB
:1024E00040F44070086000200F490860002516E0A5
:1024F000E0090D49091F08606006040E012005F07F
:10250000D5FA01200949C1F8AC0105F0CFFA002045
:1025100005490860012005F0C9FA681CC5B2082DFC
:10252000E6DB70BD040C0140AC81214200802142F9
:1025300010B51648006820F4706014490860084619
:10254000006840F44070086001201149086011489B
:10255000D0F8280108B9002010BD01200C49091D40
:10256000086005F0A3FA00200A49C1F8A80108484C
:102570008038006808B10020EEE7012005F096FAE7
:1025800000200349091D08600120E5E7040C014013
:10259000A88121420080214210B50E48006820F435
:1025A00070600C4908600846006840F4407008609C
:1025B0000020094908600949C1F8A801012005F077
:1025C00075FA0120044908600449C1F8A80105F022
:1025D0006DFA10BD040C0140AC8121420080214203
:1025E00010B500241548006820F470601349086095
:1025F0000846006840F40060086001201049086047
:1026000005F054FA01200F49C1F8AC0105F04EFA6B
:102610000AE0601CC4B2322C03DDFFF7BDFF0020CE
:1026200010BD012005F042FA0548803800680028F6
:10263000EFD10349091D08600120F1E7040C0140B6
:10264000A88121420080214270B505460E461446FD
:1026500031462846FFF77CFE2070012070BDF8B59A
:1026600006460F4614461D466A4639463046FFF771
:10267000EBFF2DB10120A0409DF80010084305E0BC
:102680000120A0409DF8001021EA0000C0B2009097
:102690009DF800203946304600F036F8F8BD2DE9A7
:1026A000F8430746884614461D46089E6A4641463A
:1026B0003846FFF7C9FF28B3601CFF2101FA00F07C
:1026C000C4F108012944491EFF220A41104300F0C9
:1026D000FF09C5F1080006FA00F0C6B2C4F1070010
:1026E00006419DF8000000EA090000909DF80000F6
:1026F000304300909DF800204146384600F004F831
:10270000BDE8F8830020FBE737B504460D4602AB71
:1027100001222946204600F001F83EBD2DE9F04196
:1027200080460D4616461F460024FFF701FF40462F
:10273000FFF7CCFEFFF754FF2846FFF7C7FEFFF771
:102740004FFF00BF06E0385DFFF7C0FEFFF748FF10
:10275000601CC4B2B442F6DBFFF71EFF0120BDE8E7
:10276000F0810000094800680949086009480068CC
:10277000486009480068886008480068C8600848E0
:102780000068086107480068486170470C01002034
:1027900098060020100100201401002018010020DC
:1027A0001C0100202001002001464906084A9269C8
:1027B00042F00102064B9A61064A526822F0E0623A
:1027C000044B5A601A4652680A435A607047000028
:1027D00000100240000001402DE9F04FADB004466A
:1027E00089469246A3482B90A349D1E90023D1E919
:1027F0000201CDE92723CDE92901CDF898A09E4B10
:102800001033D3E90021D3E90203CDE92403CDE954
:1028100022219949203103C9CDE920019649283167
:1028200003C9CDE91E01944B30330FCB1AAD0FC550
:1028300091484030006819908F4B4433D3E9002011
:10284000D3E9021316AD0BC515928B49543103C958
:10285000CDE913010020119012900F9010900B9071
:102860000C900D900E900790089009900A9005909A
:10287000069004904846FDF78AFF0746884684F094
:1028800000400190FDF783FF3A464346CDE902013F
:1028900004F05EFE0546FDF7A5FF834611A87749C3
:1028A00022AA0123CDE900210290022211461046FE
:1028B00007F01EFC0FA826A920AA0123CDE90021BC
:1028C00002901A461946022007F012FC0F9911983F
:1028D000FDF7C1FC6A49086010991298FDF7BBFC2E
:1028E000674948600BA8674922AA0223CDE9002165
:1028F00002901A461946184607F0FAFB07A815A9D0
:102900000BAA0223CDE9002102901A461946184667
:1029100007F0EEFB1A990798FDF79DFC5A490860ED
:102920001B990898FDF797FC574948601C9909982E
:10293000FDF791FC544988601D990A98FDF78BFCBE
:102940005149C86005A81EAA0223CDE900210290C2
:102950001A461946012007F0CBFB04A813A905AAC3
:102960000123CDE90021029002221146184607F00A
:10297000BFFB19990498FDF76EFC054629464FF0F8
:102980007E50FDF7F2FC049011A813A93E4A0123E2
:10299000CDE90021029002221146104607F0A8FB63
:1029A0003A4804A911AA0123CDE9002102901A4650
:1029B0001946022007F09CFB04A831491EAA0123F6
:1029C000CDE90021029002221146184607F090FB43
:1029D00058460499FDF791FC049011A804A92B4ACC
:1029E0000123CDE9002102901A461946022007F082
:1029F0007FFB234A11991068FDF72DFC1F490860E1
:102A00001F4A12995068FDF726FC1C4948600BA824
:102A10001EA91E4A0223CDE900210290012211467F
:102A2000184607F065FB0B992798FDF766FC0B909D
:102A30000C992898FDF761FC0C900D992998FDF7E9
:102A40005CFC0D9027AA0E99D068FDF756FC0E90FD
:102A50000C480D490BAA0223CDE9002102901A4629
:102A60001946184607F044FB044800682DB0BDE83D
:102A7000F08F00000AD7A33B74D900085802002049
:102A80006002002068020020C006002078020020BA
:102A90002DE9F04FADB0044689469246A3482B90ED
:102AA000A349D1E90023D1E90201CDE92723CDE9EA
:102AB0002901CDF898A09E4B1033D3E90021D3E92A
:102AC0000203CDE92403CDE922219949203103C92C
:102AD000CDE920019649283103C9CDE91E01944B67
:102AE00030330FCB1AAD0FC59148403000681990B4
:102AF0008F4B4433D3E90020D3E9021316AD0BC545
:102B000015928B49543103C9CDE91301002011906E
:102B100012900F9010900B900C900D900E900790CB
:102B2000089009900A900590069004904846FDF799
:102B30002EFE0746884684F000400190FDF727FEF0
:102B40003A464346CDE9020104F002FD0546FDF791
:102B500049FE834611A8774922AA0123CDE9002125
:102B6000029002221146104607F0C2FA0FA826A9C9
:102B700020AA0123CDE9002102901A46194602201D
:102B800007F0B6FA0F991198FDF765FB6A490860DE
:102B900010991298FDF75FFB674948600BA86749D9
:102BA00022AA0223CDE9002102901A4619461846AE
:102BB00007F09EFA07A815A90BAA0223CDE9002168
:102BC00002901A461946184607F092FA1A99079881
:102BD000FDF741FB5A4908601B990898FDF73BFB3C
:102BE000574948601C990998FDF735FB544988609E
:102BF0001D990A98FDF72FFB5149C86005A81EAA28
:102C00000223CDE9002102901A461946012007F05F
:102C10006FFA04A813A905AA0123CDE900210290A7
:102C200002221146184607F063FA19990498FDF735
:102C300012FB054629464FF07E50FDF796FB0490A7
:102C400011A813A93E4A0123CDE9002102900222D6
:102C50001146104607F04CFA3A4804A911AA01237C
:102C6000CDE9002102901A461946022007F040FAE9
:102C700004A831491EAA0123CDE9002102900222B5
:102C80001146184607F034FA58460499FDF735FB0B
:102C9000049011A804A92B4A0123CDE90021029038
:102CA0001A461946022007F023FA234A11991068A0
:102CB000FDF7D1FA1F4908601F4A12995068FDF7C5
:102CC000CAFA1C4948600BA81EA91E4A0223CDE976
:102CD0000021029001221146184607F009FA0B99CB
:102CE0002798FDF70AFB0B900C992898FDF705FB38
:102CF0000C900D992998FDF700FB0D9027AA0E99CD
:102D0000D068FDF7FAFA0E900C480D490BAA022381
:102D1000CDE9002102901A461946184607F0E8F955
:102D2000044800682DB0BDE8F08F00000AD7A33B2F
:102D3000D0D90008800200208802002090020020E4
:102D4000D0060020A002002008B50121042001F0D7
:102D500057FB4FF48070ADF8000048208DF8030059
:102D600069460248FEF7B2FF08BD000000080140B6
:102D700001461248008800281EDD01EBC10000EB6F
:102D80000110022202EB80000C4A1288904213DDEF
:102D90000A480088401C094A108001EBC10000EB82
:102DA0000110022202EB8000044A1288904201D1F5
:102DB000012070470020FCE70020FAE7CE00002049
:102DC00010B5044600F022F801280BD1601C0D4913
:102DD0000988B1EB400F0ADA0A480088401C09490B
:102DE000088004E00020074908800749088005485A
:102DF0000088022803D101200349088010BD00206B
:102E0000FCE70000D0000020CE00002010B54FF4F9
:102E100080710448FEF7E5FF08B9012010BD0020CD
:102E2000FCE70000000801401FB50121084601F041
:102E3000E7FA0121042001F0E3FA4FF48050ADF8E5
:102E40000C0048208DF80F0003A91248FEF73EFF42
:102E50000C210020FEF71AFF4FF480500190002053
:102E60008DF808000C208DF8090001208DF80A006B
:102E700001A8FEF725FE28208DF8000002208DF81D
:102E8000010001208DF802008DF80300684600F073
:102E9000B9F81FBD0008014010B5022000F010F87D
:102EA000032000F021F8002000F014F8002000F0CA
:102EB00037F8002000F02BF8002000F01FF810BDBC
:102EC00038B50446032302226B21D0200094FFF77B
:102ED000E6FB38BD38B50446022304221C21D0206D
:102EE0000094FFF7DCFB38BD38B50446022304220A
:102EF0001B21D0200094FFF7D2FB38BD10B504464B
:102F0000234601223721D020FFF7A9FB10BD10B5C1
:102F10000446234605226A21D020FFF7A0FB10BDFE
:102F200010B50446234606226B21D020FFF797FBFD
:102F300010BD00BFFEE7014609290ED2DFE801F00F
:102F400005070D090B0D0D0D0E0001207047032024
:102F5000FCE70420FAE70820F8E700BF0020F5E7C7
:102F6000014609290ED2DFE801F005070D090B0D16
:102F70000D0D0E00042070470020FCE70120FAE749
:102F80000320F8E700BF0420F5E70146032903D03A
:102F9000042901D0082901D1012070470020FCE755
:102FA00010B5002401231A46194611A000F067F855
:102FB0000FE0002001F0DCFB204404B2012001F00E
:102FC000D7FB4042204404B2204604F03FFC07F007
:102FD000ABF90120FFF7F4FE0028EAD001F024FE4F
:102FE00001F012FF01F028FF01F040FE10BD0000CB
:102FF000312E5374616E64617264204D6F6465009C
:103000007047000070B5002100230F22C47804B37C
:10301000154C246804F4E064C4F5E064210AC1F1AD
:103020000403CA40447804FA03F18478144021432D
:1030300009010E4C0678A155047804F01F050124FF
:10304000AC4005786D11AD0005F1E025C5F80041F3
:1030500009E0047804F01F050124AC40044D067813
:10306000761145F8264070BD0CED00E000E400E06C
:1030700080E100E010B5002001F09CFC10BDF8B527
:1030800007460C4615461E46002C0DDD032C0BDCB6
:1030900000200090601E00EB80004006020E2B46D0
:1030A0000021384600F004F80EB100F0AFF9F8BD89
:1030B0002DE9F04107460C4615461E46DDF81880FE
:1030C0000EB1FFF7D7FF2946204601F083FC01220D
:1030D0000549384601F0D8FCB8F1000F01D000F0E6
:1030E00095F9BDE8F0810000A400002010B500F0C3
:1030F00013F800F0E9F801231A46194601A0FFF77A
:10310000BEFF10BD6F6C656420696E6974207375B5
:1031100063636573732100000848806940F008000C
:10312000064988610648006820F0FF0004490860ED
:103130000846006840F03300086070470010024005
:10314000040C014070B504461448006820F0F000FB
:10315000124908600846006840F03000086000200E
:103160000F490860002516E0E0090D49091D0860B7
:103170006006040E0120FEF7B6FB01200949C1F8E4
:10318000A001FEF7B0FB0020054908600120FEF712
:10319000AAFB681CC5B2082DE6DB70BD040C01401B
:1031A000A08121420080214210B51648006820F01D
:1031B000F000144908600846006840F030000860DC
:1031C0000120114908601148D0F8240108B90020F5
:1031D00010BD01200C49091F0860FEF784FB002088
:1031E0000A49C1F8A40108488038006808B10020E5
:1031F000EEE70220FEF777FB00200349091F086075
:103200000120E5E7040C0140A48121420080214215
:1032100010B51048006820F0F0000E49086008461C
:10322000006840F03000086000200B4908600B493E
:10323000C1F8A4010220FEF756FB012006490860F0
:10324000FEF751FB01200549C1F8A4010220FEF759
:103250004AFB10BD040C0140A081214200802142A4
:1032600010B500241548006820F0F00013490860EC
:103270000846006840F0800008600120104908609E
:10328000FEF731FB01200F49C1F8A001FEF72BFB2F
:103290000AE0601CC4B2322C03DDFFF7B9FF002046
:1032A00010BD0120FEF71FFB05488038006800288C
:1032B000EFD10349091F08600120F1E7040C014028
:1032C000A48121420080214210B540F6C41400E0E0
:1032D000641E002CFCD1AE2200213C2007F0B4F883
:1032E000A62200213C2007F0AFF8AE2200213C20AE
:1032F00007F0AAF8D52200213C2007F0A5F880228B
:1033000000213C2007F0A0F8A82200213C2007F073
:103310009BF81F2200213C2007F096F8D3220021C1
:103320003C2007F091F8002211463C2007F08CF871
:10333000402200213C2007F087F88D2200213C200C
:1033400007F082F8142200213C2007F07DF82022AB
:1033500000213C2007F078F8022200213C2007F0F1
:1033600073F8A12200213C2007F06EF8C82200214A
:103370003C2007F069F8DA2200213C2007F064F8CD
:10338000022200213C2007F05FF8812200213C202E
:1033900007F05AF8CF2200213C2007F055F8D92237
:1033A00000213C2007F050F8F12200213C2007F0DA
:1033B0004BF8DB2200213C2007F046F84022002198
:1033C0003C2007F041F82E2200213C2007F03CF879
:1033D000A42200213C2007F037F8A62200213C203F
:1033E00007F032F8AF2200213C2007F02DF8002032
:1033F00001F0E0FA01F05EFB0020034908804880FC
:103400000120487110BD00009C00002010B501F0A3
:1034100051FB10BD2DE9F04105460E461746984672
:10342000FFF7C2FE10B90120BDE8F0816906080E61
:10343000FFF788FEFFF714FF18B9FFF7E9FE012038
:10344000F2E73046FFF77EFEFFF70AFF00240BE0AD
:1034500018F80400FFF776FEFFF702FF18B9FFF730
:10346000D7FE0020E0E7641CBC42F1DBFFF7D0FE92
:103470000020D9E710B525480078F0B1244800882D
:103480004FF6FF71884204DA21480088401C204929
:1034900008801F48008896280FDB1E48007860B916
:1034A00000201D4908601D49086001201C49087062
:1034B00018490870042000F0CFFA1A4800781A4919
:1034C000097888420DD018480078164908701648C7
:1034D000007818B1012000F0BFFA02E0022000F0ED
:1034E000BBFA124800780E49097888420DD00C4882
:1034F00000780E4908700A48007818B1122000F0D0
:10350000ABFA02E0132000F0A7FA10BDDA000020A9
:10351000D8000020DB00002024000020280000202C
:103520002C000020DC000020CA000020DD0000206C
:10353000014608784A7840EA022000B2704770B528
:1035400004460D4684F001066E4086EA0200002122
:1035500003E05E5C70404E1CF1B29142F9DB70BD3D
:1035600010B5044607492046FDF762F901D2054827
:1035700010BD05492046FDF751F901D20248F7E791
:103580002046F5E70000F0410000F0C110B5044608
:1035900007492046FDF74CF901D2054810BD054901
:1035A0002046FDF73BF901D20248F7E72046F5E750
:1035B0000000E1430000E1C30148007870470000CB
:1035C000DE0000202DE9F05F06460F4615461C463A
:1035D00000F0F0F90C2E70D2DFE806F06F0613450C
:1035E00070B8C3E5FED3DEDF34B10222314638467F
:1035F00000F073FABDE8F09F3146384600F000FA5B
:1036000000E1012C05D002223146384600F065FA6F
:10361000F0E72878012805DD04223146384600F01D
:103620005CFAE7E7287858B900207849087001204B
:1036300077490870002077490860774908600BE0F7
:103640007248007828B905223146384600F045FA1C
:10365000D0E700206E49087000F0ACF931463846DA
:1036600000F0CEF9CEE0012C05D0022231463846DA
:1036700000F033FABEE7287800F0ECF828B904220D
:103680003146384600F029FAB4E7287863490870D3
:1036900000205E4908705F4908605F4908600120AA
:1036A0005B4908705D48007800F0CCF800F082F9C2
:1036B0003146384600F0A4F9A4E09DE0042C05D082
:1036C00002223146384600F008FA93E75348007862
:1036D000A8B152480078012811D05048007803283A
:1036E0000DD04E480078042809D04C4800780828AE
:1036F00005D005223146384600F0EFF97AE7284632
:10370000FFF716FF8346FCF7F6FF82464449FCF7B5
:103710002CFE8046A81CFFF70BFF8346FCF7EBFF4F
:1037200082463F49FCF721FE81464046FFF718FFDD
:10373000384908604846FFF729FF3749086000F01C
:1037400039F93146384600F05BF95BE02CB10222D2
:103750003146384600F0C1F94CE7384600F0CEF962
:1037600050E02CB102223146384600F0B6F941E76C
:1037700000F020F900231A463946852000F07CF934
:1037800040E02CB102223146384600F0A6F931E77C
:10379000384600F017FA35E000BF052231463846BA
:1037A00000F09BF92EE02CB102223146384600F0A1
:1037B00094F91FE70020174908601749086013496A
:1037C000087001201249087000F0F4F831463846BC
:1037D00000F016F916E0FFE7012C05D00222314671
:1037E000384600F07AF905E728780E490870314626
:1037F000384600F005F905E003223146384600F06E
:103800006CF900BF00BF00BFF4E600002D000020EF
:103810002C0000202400002028000020A901002006
:1038200000002041DE0000200148007870470000C1
:10383000DB00002010B50446204602F073FB00F0C8
:10384000C9F810BD10B504460CB1012C01D103F02C
:1038500063FF10BD014639B1012905D0032903D00A
:10386000042901D0082901D1012070470020FCE77C
:1038700002480078C0F3800070470000DE0000209E
:1038800070B5044641480078082879D2DFE800F096
:10389000040A131C22284657AA2C02D101203B49B6
:1038A000087070E0552C03D102203849087001E0FF
:1038B00000F090F867E0012C03D103203349087031
:1038C00001E000F087F85EE03148047004202F49E1
:1038D000087058E02F48047005202C49087052E009
:1038E0002D48047000202D4908702B4800782028AE
:1038F00009DD0222264801782648007800F0EDF81C
:1039000000F068F809E02448007818B907201F493A
:10391000087002E006201D49087034E01F4908784D
:10392000411C1E4A11701E490C54104600781A4959
:103930000978884202DB07201449087023E0184BFD
:10394000154802781348017811480078FFF7F7FD11
:103950000546A5420AD110480378114A0D4801785E
:103960000B480078FFF72EFE07E009E00122084827
:1039700001780848007800F0B0F800F02BF802E079
:1039800000F028F800BF00BF70BD0000D20000208A
:10399000D3000020D4000020D5000020D600002055
:1039A000C004002010B54254C2F307244B1CC45479
:1039B00010BD000001200449087000200349088060
:1039C0000349087070470000DA000020D80000208A
:1039D000DB000020002005490870054908700549F2
:1039E000087005490870054908707047D20000202A
:1039F000D3000020D4000020D5000020D6000020F5
:103A000038B504460D468DF800508DF8014002236C
:103A10006A462146812000F02FF838BD70B5054672
:103A20000E46002404E0285D00F006F8601CC4B2D5
:103A3000B442F8DB70BD000010B5044600BF802121
:103A4000044802F0EAFA0028F9D02146014802F0C1
:103A5000B2FB10BD0044004038B504460094012379
:103A60006A460021842000F007F838BD10B50446EE
:103A70002046FFF7F1FF10BD2DE9F0418AB007465F
:103A8000884616461C46AA208DF8000055208DF861
:103A9000010001208DF802008DF803708DF804807C
:103AA0008DF80540002505E0715DA81D0DF800109A
:103AB000681CC5B2A542F7DB33462246414638466C
:103AC000FFF73DFDA11D0DF80100E01DC1B26846E4
:103AD000FFF7A4FF0AB0BDE8F081F8B504460E4632
:103AE00015468DF800608DF801408DF802500323D3
:103AF0006A4621468220FFF7BFFFF8BD2DE9FE434D
:103B00000446274927480068FCF7FDFB8146FCF77F
:103B100011FE06B2224924480068FCF7F4FB8146F6
:103B2000FCF708FE07B2214921480068FCF7EBFBCF
:103B30008146FCF718FE85B219491E480068FCF75B
:103B4000E2FB8146FCF7F6FD0FFA80F81A48007890
:103B50008DF80000194800788DF8010018480078A9
:103B60008DF80200324603216846FFF71BFF3A46F4
:103B700005216846FFF716FFE8B28DF80700280A0E
:103B80008DF80800424609216846FFF70BFF0B231A
:103B90006A4621468320FFF76FFFBDE8FE830000E1
:103BA0000000204124000020280000200000C8421E
:103BB000E400002004000020A90100202C000020C7
:103BC000CA00002010B588B0044620216846FCF7E2
:103BD00017FB00208DF80000074800788DF80100E1
:103BE00000208DF8020003236A4621468620FFF755
:103BF00043FF08B010BD0000A901002001460029C4
:103C000002DD01F214507047002902DAA1F21450CB
:103C1000F9E70846F7E703461846884200DD0846FC
:103C2000904200DA10467047704700002DE9F041DD
:103C300006460F4614461D4634480088E0B9204623
:103C400006F0B0FA8046284606F0ACFA4044322826
:103C500005DA2F480088401C2D49088002E000202A
:103C60002B4908802A4800880A2805DD01202749B9
:103C7000088000202649088024480088012827D190
:103C800024480088401C80B222490880C82803DDEF
:103C9000002008801D4908801F493046FCF7C8FDF8
:103CA00016D21E4801681E48FCF7D5FA80463946F0
:103CB000FCF7B4FD0CD2194801681A48FCF7CBFA9E
:103CC00080463946FCF7B4FD02D202200F49088035
:103CD0000E480088022816D113480088401C80B284
:103CE00011490880642803DD002008800749088006
:103CF000601906F057FA322805DD002003490880D4
:103D00000120BDE8F0810020FBE70000EE0000206C
:103D1000F0000020F200002000E0AB462000002070
:103D20000000A0C10000A041F40000202DE9F043F4
:103D30008BB0D34840783038052818D2DFE800F03F
:103D40001303070B0F000120CE49087013E0022077
:103D5000CC4908700FE00320CA4908700BE004202A
:103D6000C849087007E00020C649087003E0002039
:103D7000C449087000BF00BFC148C078312802D1D3
:103D80000520C0490870BE48C078322802D10620FC
:103D9000BC490870BA48FCF74AFA15280CD2002032
:103DA000B94908705021B648FCF72AFAB7A002F0CA
:103DB00075F80BB0BDE8F083B1484079312807D1E0
:103DC00000F0A2F9052003F053FE00F09DF90AE08F
:103DD000AB484079322806D100F026FD00F094F976
:103DE000AFA002F05BF8A648C079312806D10120C7
:103DF000AD490860AAA002F051F809E0A048C079D6
:103E0000322805D10020A8490860A5A002F046F894
:103E10009B48407A312860D11C2104A8FCF7F0F9B6
:103E200000200290039000900190A0A1944801F01E
:103E300085F9814609F1010000B9BAE79C4800689C
:103E4000A0EB09028E4800EB090104A8FCF7BFF9BA
:103E500098A104A801F072F90446601C00B9A8E713
:103E6000A21E0DF1120102A8FCF7B1F902A803F09D
:103E70003DFC07460022904BFCF75CFB0546FCF737
:103E8000B1FC8E4908601C2104A8FCF7B9F909EBC4
:103E90000400874B1B681A1A794848442044411C87
:103EA00004A8FCF794F983A104A801F047F904469B
:103EB000601C00B97DE7A21E0DF112016846FCF7F7
:103EC00086F9684603F012FC0546FCF78BFC7C493A
:103ED000086073A001F0E2FF00BF6948C07A312892
:103EE00060D11C2104A8FCF78BF9002002900390FC
:103EF0000090019073A1624801F020F9814609F118
:103F0000010000B955E76A480068A0EB09025C4867
:103F100000EB090104A8FCF75AF966A104A801F016
:103F20000DF90446601C00B943E7A21E0DF1120111
:103F300002A8FCF74CF902A803F0D8FB07460022C0
:103F40005D4BFCF7F7FA0546FCF74CFC5E49086050
:103F50001C2104A8FCF754F909EB0400544B1B681E
:103F60001A1A474848442044411C04A8FCF72FF97A
:103F700050A104A801F0E2F80446601C00B918E75B
:103F8000A21E0DF112016846FCF721F9684603F004
:103F9000ADFB0546FCF726FC4C49086040A001F04B
:103FA0007DFF00BF3648407B312860D11C2104A82A
:103FB000FCF726F90020029003900090019044A1A4
:103FC0002F4801F0BBF8814609F1010000B9F0E685
:103FD00037480068A0EB0902294800EB090104A852
:103FE000FCF7F5F833A104A801F0A8F80446601C1A
:103FF00000B9DEE6A21E0DF1120102A8FCF7E7F8F7
:1040000002A803F073FB074600222B4BFCF792FA41
:104010000546FCF7E7FB2F4908601C2104A8FCF7C4
:10402000EFF809EB0400224B1B681A1A14484844A5
:104030002044411C04A8FCF7CAF827A104A801F0F9
:104040007DF80446601C00B9B3E6A21E0DF1120112
:104050006846FCF7BCF8684603F048FB0546FCF7E9
:10406000C1FB1E4908600EA001F018FF00BF002030
:104070000549087050210248FCF7C2F800BF98E6D5
:104080000C060020680100205801002024526563BE
:10409000656976655061636B4572726F72230000CB
:1040A000244F4B2300000000540100204150000029
:1040B000640100202C000000000059400C01002089
:1040C00010010020565000001401002018010020AB
:1040D000545000001C01002023000000200100209B
:1040E00010B506480268521C05490648FCF76FF8EF
:1040F00050210348FCF784F810BD00005C0100204B
:10410000BC0500200C06002070B532216548FCF784
:1041100077F8644864A10968016000216348006879
:10412000FCF786FB0FD8624960480068FCF71DF970
:104130000646FCF72CFB044622460B465DA15F4871
:1041400002F06CFA03E05EA001F0A8FE70BD002151
:104150005F480068FCF76CFB0BD85D480068FCF713
:1041600016FB044622460B4652A15A4802F056FA64
:1041700003E053A001F092FEE8E7002156480068F2
:10418000FCF756FB0FD84A4953480068FCF7EDF896
:104190000646FCF7FCFA044622460B4645A14F486A
:1041A00002F03CFA03E046A001F078FECEE70021E1
:1041B0004B480068FCF73CFB0BD849480068FCF70B
:1041C000E6FA044622460B463AA1464802F026FA91
:1041D00003E03BA001F062FEB8E70021424800681E
:1041E000FCF726FB0FD832493F480068FCF7BDF8C2
:1041F0000646FCF7CCFA044622460B462DA13B4866
:1042000002F00CFA03E02EA001F048FE9EE7002128
:1042100037480068FCF70CFB0BD835480068FCF702
:10422000B6FA044622460B4622A1324802F0F6F9BD
:1042300003E023A001F032FE88E720491948FBF78C
:10424000EAFF2DA11748FBF7E6FF22491548FBF7C7
:10425000E2FF2AA11348FBF7DEFF20491148FBF7D4
:10426000DAFF27A10F48FBF7D6FF1E490D48FBF7E1
:10427000D2FF24A10B48FBF7CEFF1C490948FBF7EE
:10428000CAFF21A10748FBF7C6FF1A490548FBF7FB
:10429000C2FF0EA10348FBF7BEFF024801F0FEFD7E
:1042A00000BF53E769010020244150000C010020A9
:1042B0000000C84225332E32660000005C06002054
:1042C000244765745049444572726F7223000000A0
:1042D0001001002066060020140100207006002056
:1042E000180100207A0600201C010020840600200E
:1042F000200100208E0600202C4144002C56500046
:104300002C5649002C5450002C5444002DE9F04107
:1043100006460C4615461E48007820B900201D4967
:104320000880BDE8F0811C48007808B90020F8E753
:1043300018480088C0B9194801681948FBF78BFF75
:1043400007463146FCF76AFA0ED214480168154850
:10435000FBF781FF07463146FCF76AFA04D21CB925
:1043600015B901200B4908800A48008801280CD1A2
:10437000032C01DD282C03DB032D06DD282D04DAB8
:104380000020044908800120CBE70020C9E7000095
:104390002D000020F60000202C000020200000202E
:1043A000000020C10000204101460020034A50685F
:1043B00020F4404008435060704700000010024065
:1043C00029B1064AD2690243044BDA6104E0034A88
:1043D000D2698243014BDA6170470000001002404D
:1043E00029B1064A12690243044B1A6104E0034AE8
:1043F00012698243014B1A617047000000100240AD
:1044000029B1064A92690243044B9A6104E0034AC7
:1044100092698243014B9A6170470000001002408C
:1044200029B1064AD2680243044BDA6004E0034A29
:10443000D2688243014BDA607047000000100240EE
:1044400030B500210022002400232D4D6D6805F0B9
:104450000C0121B1042905D0082923D105E0294DFB
:10446000056022E0274D05601FE0254D6D6805F4CD
:104470007012234D6D6805F48034022505EB9242DD
:104480001CB9214D554305600BE01D4D6D6805F4C9
:1044900000351DB11C4D5543056002E0194D5543D3
:1044A000056002E0174D056000BF00BF144D6D6848
:1044B00005F0F0010909154D6B5C0568DD404560AC
:1044C0000F4D6D6805F4E061090A104D6B5C45689D
:1044D000DD4085600A4D6D6805F46051C90A0B4DD9
:1044E0006B5C4568DD40C560054D6D6805F4404175
:1044F000890B074D6B5CC568B5FBF3F5056130BDF5
:104500000010024000127A0000093D004400002023
:10451000540000202DE9F04F8FB00CA889490DAB55
:1045200008AACDE900108849884803F05FFC854857
:10453000008800F4807000287ED00898FCF7DBF833
:1045400004464FF09D41FBF710FF81490860099830
:10455000FCF7D1F804464FF09D41FBF706FF7D497B
:1045600008600A98FCF7C7F804464FF09D41FBF736
:10457000FCFE794908600B98FCF7BDF804464FF043
:104580009D41FBF7F2FE75490860714801684FF0E4
:104590008040FBF7B8FE06906F4801680698FBF76D
:1045A000B2FE82466B4801684FF04040FBF7ABFE1D
:1045B00006906A4801680698FBF7A5FE83465146B7
:1045C000FBF749FE0790FCF7E2F8804602F078FD21
:1045D00006464FF06632624BFBF7ACFF0446FCF731
:1045E00001F9604908605C4801684FF08040FBF7C2
:1045F0008AFE0390584801680398FBF784FE8246C0
:10460000544801684FF04040FBF77DFE039051484D
:1046100001680398FBF777FE83465146FBF76DFE72
:1046200081464FF07E51FBF716FE0446FCF7AFF8CB
:10463000CDE90401464800E081E001684FF0804088
:10464000FBF761FE8346434801685846FBF75BFE73
:104650008146414801684FF08040FBF754FE834695
:104660003E4801685846FBF74EFE82464946FBF736
:10467000F2FD0446FCF78BF80746DDE9042302F05F
:1046800067FF4FF06632364BCDE90601FBF752FF6C
:104690000546FCF7A7F8344908603048016800680F
:1046A000FBF731FE03902C4801680068FBF72BFEF6
:1046B0000290284801680068FBF725FE83462448DD
:1046C00001680068FBF71FFE59460190FBF7C3FD28
:1046D00082460299FBF711FE81460399FBF70DFE16
:1046E0000446FCF754F8CDE904011C480168184859
:1046F0000068FBF708FE8246174801681548006805
:10470000FBF701FE83465146FBF7A5FD81464FF0BE
:104710008041FBF7F8FD0446FCF739F80746DDE970
:10472000042302F015FF4FF066320D4BCDE9060170
:10473000FBF700FF0546FCF755F80C4908600FB081
:10474000BDE8F08F68000020620000205C000020BF
:10475000780000207C0000208000002084000020E1
:1047600066A64C406C000020700000207400002001
:10477000014611B101290ED106E0094A128810B292
:104780000022074B1A8008E0064A128810B2002265
:10479000044B1A8001E0002000BF00BF70470000FA
:1047A00024040040240800402DE9F05F4221D0207D
:1047B000FDF7CEFD05464121D020FDF7C9FD05EBF3
:1047C00000242046FBF797FF82464FF08E4150466B
:1047D000FCF72EF805D24FF08F415046FBF78DFDC8
:1047E00082460D495046FBF7C0FD8346FBF7CFFFDD
:1047F00080460A4A0A4BFBF7F6FD06460022094BA3
:10480000FBF798FE0446FBF7EDFF82465046FBF7A8
:1048100091FFBDE8F09F00000000AA43A4703D0A8C
:10482000D74342400000244010B521480168214888
:104830000068FBF7F3FF03D01D4800681D490860BE
:104840001B4841681C480068FBF7E8FF03D0184884
:104850004068194908601648816818480068FBF7E5
:10486000DDFF03D012488068144908601048C16811
:1048700013480068FBF7D2FF03D00D48C068104909
:1048800008600B4801690F480068FBF7C7FF03D0B9
:10489000074800690B490860054841690A480068F3
:1048A000FBF7BCFF03D0024840690749086010BD10
:1048B000980600200C0100201001002014010020A7
:1048C000180100201C0100202001002010B500204C
:1048D0000B49087001200B49087000200A49086044
:1048E0000A4908600A49087000F09EF900F08CFA45
:1048F00000F0A2FA00F0BAF902F09AFF10BD000031
:104900002D0000202C000020240000202800002082
:10491000A9010020F0B503461446802B01DA2029B6
:1049200000DBF0BD2148007920B10CB9012000E086
:1049300000200446012C1CD1CD1701EB5575ED105C
:1049400003EBC5151A4E755D0A46CE1701EB567678
:10495000F610A1EBC6070126BE403543EEB208466D
:10496000CD1701EB5575ED1003EBC515104F7E55B6
:104970001AE0CD1701EB5575ED1003EBC5150C4E84
:10498000755D0A46CE1701EB5676F610A1EBC60709
:104990000126BE40B5430846CE1701EB5676F61009
:1049A00003EBC616024FBD5500BFBAE79C000020BE
:1049B000C002002010B504460CB9002000E0FF2022
:1049C00002464FF400710248FBF713FC10BD0000D3
:1049D000C0020020014A1080518070479C000020D6
:1049E0002DE9F04307460C4690462648008821787A
:1049F0000844802805DA2348408861780844202844
:104A000002DB0020BDE8F083002530E0A7F12000A4
:104A1000617800FB0150616831F81090002622E0B7
:104A200009FA06F000F4004058B1164A52882A44A8
:104A300091B2144A1288324490B24246FFF76AFF9C
:104A400010E0B8F1000F01D1012300E000231A4665
:104A50000C4B5B882B4499B20A4B1B88334498B2A9
:104A6000FFF758FF761C2078B042D9D86D1C6078CB
:104A7000A842CBD80348008821780844014908801F
:104A80003846BFE79C00002070B504460D46164628
:104A90000AE0207832462946FFF7A2FF21788842B3
:104AA00001D0207870BD641C20780028F1D12078D6
:104AB000F8E7000010B500241BE004F1B000C2B21A
:104AC00000213C2005F0C0FC002211463C2005F0EE
:104AD000BBFC102200213C2005F0B6FC06488021DA
:104AE00001FB04020B4640213C2005F0B7FC601C92
:104AF000C4B2082CE1DB10BDC002002070470000EA
:104B000010B50C480068401E0A4908600A48006851
:104B1000012807D10846006820B9FCF7D1FC0748F6
:104B200001F0BCF90348006810B901200149086090
:104B300010BD0000A4010020540100203005002019
:104B400010B500F001F810BD0CB5002001900090E8
:104B50003348006840F480303149086000BF304875
:104B6000006800F4003000900198401C019000980B
:104B700018B90198B0F5A06FF1D12948006800F488
:104B8000003010B10120009001E00020009000985A
:104B9000012843D12348006840F0100021490860F3
:104BA0000846006820F0030008600846006840F0EE
:104BB000020008601A484068194948600846406881
:104BC00048600846406840F4806048600846406895
:104BD00020F47C1048600846406840F4E8104860C3
:104BE0000846006840F08070086000BF0C4800680C
:104BF00000F000700028F9D00948406820F0030058
:104C0000074948600846406840F00200486000BF1D
:104C10000348406800F00C000828F9D10CBD0000E2
:104C200000100240002002400D480078092811D2EF
:104C3000DFE800F00506100A0B1010100C0000BF92
:104C400000200849086009E000BF00BF0648054988
:104C5000086003E000200349086000BF00BF704700
:104C6000A901002020000020000080BF2D4800780E
:104C7000082812D12C482D4908602D482D4908607C
:104C80002D482E4908602E482E4908602E482F498D
:104C900008602F482F49086043E022480078012827
:104CA00003D020480078042812D12B481F490860FF
:104CB0002A48204908602A48204908602948214993
:104CC000086029482149086021482249086028E0F5
:104CD00014480078032812D1244814490860244855
:104CE000144908602348154908602348154908609D
:104CF00015481649086016481649086011E016481C
:104D00000A4908601D480B4908601D480B490860A6
:104D10001C480C4908601C480C4908600C480D49A7
:104D200008607047A901002000601F460C010020A8
:104D30000000AA421001002000A00C46140100202F
:104D4000000034421801002000401C451C010020D6
:104D50000000A041200100200000164600009642FD
:104D600000C0DA4500000C420000AF4400803B4622
:104D7000000090420000FA4500002042000040423E
:104D800000C0C1450000F8410080D44470B505461C
:104D90000C4625B900201B490880091D08802CB944
:104DA0000020184908310880091D0880002D09DD00
:104DB000284605F0F7F91349091D08800020091F4E
:104DC000088008E000200F49091D0880284605F0EA
:104DD000E9F90C490880002C09DD204605F0E2F9CC
:104DE0000849083108800020091D088009E00020DA
:104DF000044908310880204605F0D4F901490C31F6
:104E0000088070BD3434014009480078032807D079
:104E100007480078042803D005480078082803D103
:104E20001E200449087002E02820024908707047DB
:104E3000A9010020A80100200948007818B10848FD
:104E40000078012806D10748074908600748084943
:104E5000086004E0002004490860054908607047C4
:104E6000A90100200000F0412401002000001042B0
:104E70002801002070B5FEF79FFB0446FEF7D4FC26
:104E800005460023012211461AA0FEF7F8F815B9CD
:104E900004F0010030B900231A4602211AA0FEF7DF
:104EA000EEF819E004F0020030B900231A4602219E
:104EB0001AA0FEF7E4F80FE004F0040030B9002374
:104EC0001A4602211AA0FEF7DAF805E000231A4676
:104ED00002211CA0FEF7D3F800231A4603211EA0CE
:104EE000FEF7CDF801230022042120A0FEF7C7F829
:104EF00070BD00006C696E6B2F636F6D706F6E65B7
:104F00006E742065727200004552523A205049205A
:104F10004C494E4B204C4F53542000004552523ABE
:104F2000204C49444152204C4F5354202020000033
:104F30004552523A2053595354454D204C4F5354E7
:104F4000202000004552523A20554E4B4E4F574EAE
:104F5000202020202020000066616C6C6261636B61
:104F60003A206E6F726D616C202000007761697469
:104F7000207265636F7665722E2E2E202020000031
:104F800010B5FEF719FB044600230122114614A0B8
:104F9000FEF775F804F0010109B116A100E01AA1AD
:104FA000084600231A460221FEF769F804F00201C0
:104FB00009B11AA100E01EA1084600231A460321E8
:104FC000FEF75DF804F0040109B11EA100E022A182
:104FD0000846012300220421FEF751F810BD00000D
:104FE00050692073797374656D20696E69742E2E13
:104FF0002E00000050493A205245414459202020BB
:10500000202020202020000050493A2057414954B8
:105010002020202020202020202000004C49444136
:10502000523A20524541445920202020202000009F
:105030004C494441523A20574149542020202020D5
:105040002020000053595354454D3A2052454144C5
:10505000592020202020000053595354454D3A2018
:10506000424F4F54494E47202020000010B50023E6
:105070000122114602A0FEF702F800F03DF810BD33
:1050800050692073797374656D207265616479204D
:105090002020000010B500231A46022107A0FDF7CA
:1050A000EEFF00231A46032109A0FDF7E8FF0123C4
:1050B000002204210BA0FDF7E2FF10BD7368757498
:1050C000646F776E207265717565737420200000BF
:1050D0007761697420706920706F7765726F66669A
:1050E000202000007361666520706F7765726F66BF
:1050F0006620736F6F6E000010B500231A46022100
:1051000004A0FDF7BCFF01230022032106A0FDF748
:10511000B6FF10BD7072657373206B657920746F74
:105120002073746172740000686F6C64206B657921
:1051300020746F2073687574646E000030B5034688
:105140000C4600211AE0585C2578A84200D014E0F3
:10515000002206E0521CA05C8D185D5DA84200D0C4
:1051600005E0A05C18B18818185C0028F2D100BFD7
:10517000A05C08B9084630BD00BF491C585C002837
:10518000E1D1401EF7E7042808D14FF0E02109697A
:1051900041F004014FF0E022116107E04FF0E021FF
:1051A000096921F004014FF0E02211617047704756
:1051B00010B51348006840F0010011490860084626
:1051C0004068104908400E494860084600680E498A
:1051D00008400B4908600846006820F480200860F9
:1051E0000846406820F4FE0048604FF41F008860C5
:1051F000FFF7A6FC4FF000600449086010BD0000F6
:10520000001002400000FFF8FFFFF6FE08ED00E08E
:10521000F0B50C46154600220021068C4FF6FE77AD
:105220003E400684028B018C4FF60C7632407E1C89
:1052300006EA03162E433243104EB0420ED0104EF3
:10524000B0420BD0B0F1804F08D00E4EB04205D026
:105250000D4EB04202D00D4EB04206D14FF6FD7653
:10526000314044F00106314305E04FF6F576314018
:1052700044F00106314302830184F0BD002C01405B
:10528000003401400004004000080040000C0040D1
:10529000F0B50C461546002200210026078C4FF67B
:1052A000EF7C07EA0C070784028B018C4FF6FF772F
:1052B00007EA041640F6FF473A404FF6FF7707EA41
:1052C00003373A434FF6FF7707EA05273A43114F72
:1052D000B8420ED0104FB8420BD0B0F1804F08D07A
:1052E0000E4FB84205D00E4FB84202D00D4FB84213
:1052F00006D14FF6DF77394046F01007394305E015
:105300004FF65F77394044F0100739430283018438
:10531000F0BD0000002C01400034014000040040BA
:1053200000080040000C0040F0B50C461546002275
:1053300000210026078C4FF6FF6C07EA0C07078454
:10534000828B018C4FF6FF7707EA04264FF60C7725
:105350003A404FF6FF7707EA03172F433A43114FBE
:10536000B8420ED0104FB8420BD0B0F1804F08D0E9
:105370000E4FB84205D00E4FB84202D00D4FB84282
:1053800006D14FF6FF57394046F48077394305E0A0
:105390004FF2FF57394044F48077394382830184C8
:1053A000F0BD0000002C014000340140000400402A
:1053B00000080040000C0040F0B50C4615460022E5
:1053C00000210026078C4EF6FF7C07EA0C070784B5
:1053D000828B018C4FF6FF7707EA043640F6FF47D1
:1053E0003A404FF6FF7707EA05273A434FF6FF7733
:1053F00007EA03373A43114FB8420ED0104FB84274
:105400000BD0B0F1804F08D00E4FB84205D00E4FF0
:10541000B84202D00D4FB84206D14DF6FF77394061
:1054200046F48057394305E047F6FF57394044F4C6
:105430008057394382830184F0BD0000002C014075
:10544000003401400004004000080040000C00400F
:10545000044800880348008820F0010001490880C2
:10546000704700001004004004480088034800888A
:1054700020F001000149088070470000100800403A
:1054800010B50121294800F0D8F900284CD001219D
:10549000264800F09EF826480088401C24490880D1
:1054A00024480078401C23490870234800880028BD
:1054B00004DD21480088401E1F490880FDF7DAFFFF
:1054C0001E48007818B11D480078012802D101203B
:1054D0001B49087017480078022823DD0020154971
:1054E0000870FCF775FE0446164801682046FAF776
:1054F000B2FE1449086014480078401C1249087034
:105500000846007832280DD110490E480068FAF795
:105510002CFF0F49086000200A4908600A490870FA
:1055200004F048FE02F0BCF910BD0000001000407D
:10553000C8000020C1000020C2000020A9010020F6
:10554000CB000020BC000020C0000020000048422A
:10555000E40000201FB501211020FEF731FF41F6C5
:105560001F40ADF804006320ADF8080001A9104801
:1055700000F066FB01210E4800F028F801221146D8
:105580000B4800F0CAF936208DF8000004208DF891
:10559000010002208DF8020001208DF8030068460A
:1055A000FDF730FD0121024800F016F81FBD000094
:1055B0000010004021B1028842F08002028004E025
:1055C00002884FF67F731A4002807047CA430282F6
:1055D0007047CA430282704721B1028842F001023B
:1055E000028004E002884FF6FE731A400280704782
:1055F00031B1B0F8442042F40042A0F8442005E064
:10560000B0F84420C2F30E02A0F844207047000016
:1056100010B504466848844208D10121C014FEF741
:10562000FFFE0021E014FEF7FBFEC4E0B4F1804F62
:1056300008D101210846FEF7D3FE00210120FEF724
:10564000CFFEB8E05D48844208D101210220FEF778
:10565000C7FE00210220FEF7C3FEACE0584884429A
:1056600008D101210420FEF7BBFE00210420FEF733
:10567000B7FEA0E05348844208D101210820FEF77C
:10568000AFFE00210820FEF7ABFE94E04E488442B6
:1056900008D101211020FEF7A3FE00211020FEF703
:1056A0009FFE88E04948844208D101212020FEF76E
:1056B00097FE00212020FEF793FE7CE044488442C0
:1056C00008D101214014FEF7ABFE00216014FEF763
:1056D000A7FE70E03F48844209D10121C804FEF7CB
:1056E0009FFE00214FF40020FEF79AFE63E03A4847
:1056F000844209D101210805FEF792FE00214FF4F2
:105700008010FEF78DFE56E03448844209D1012115
:105710004805FEF785FE00214FF40010FEF780FEDD
:1057200049E02F48844208D101214020FEF758FE6D
:1057300000214020FEF754FE3DE02A48844208D173
:1057400001218020FEF74CFE00218020FEF748FE5C
:1057500031E02548844208D101218015FEF740FE42
:105760000021A015FEF73CFE25E02048844209D127
:1057700001210804FEF754FE00214FF48030FEF7AB
:105780004FFE18E01A48844209D101214804FEF76F
:1057900047FE00214FF40030FEF742FE0BE01548B3
:1057A000844208D101218804FEF73AFE00214FF41B
:1057B0008020FEF735FE10BD002C014000040040A3
:1057C00000080040000C00400010004000140040A1
:1057D00000340140004C01400050014000540140A1
:1057E00000180040001C0040002000400040014024
:1057F0000044014000480140F0B50C4615461E46E5
:105800000021002200230189028B038C4FF6F877D8
:10581000394021434FF6FC473A4040F201173A43E2
:105820004FF6DD773B404FF6FF7707EA06172F4329
:105830003B43018102830384F0BD30B50246002062
:1058400000230024158A05EA0103958905EA01046D
:1058500013B10CB1012000E0002030BD70B5054649
:105860000C46244885420ED0234885420BD0B5F122
:10587000804F08D02148854205D02148854202D07A
:105880002048854200D100E000BF208850B923891C
:10589000A28861882846FFF7BBFCE188284600F013
:1058A000A2F925E0208804280AD12389A2886188EA
:1058B0002846FFF7EDFCE188284600F09DF917E047
:1058C000208808280AD12389A28861882846FFF702
:1058D0002BFDE188284600F09CF909E02389A28885
:1058E00061882846FFF768FDE188284600F09AF9AC
:1058F00070BD0000002C0140003401400004004055
:1059000000080040000C004000210180418001217E
:1059100081800021C180018170471AB183890B43C6
:10592000838102E083898B438381704770B50024B3
:1059300000220023058C4FF6FE7635400584028C4C
:105940008388048B4FF68F752C40B51E2C400D8834
:105950002C43751E2A400D892A434D882A43144D35
:10596000A8420BD0134DA84208D0134DA84205D031
:10597000124DA84202D0124DA84213D14FF6F7752E
:105980002A404D892A434FF6FB752A408D882A43C9
:105990004FF6FF652B404FF6FF552B408D892B436B
:1059A000CD892B4383800483CD888586028470BD96
:1059B000002C0140003401400040014000440140FF
:1059C000004801400A460021018B4FF6F773194049
:1059D000114301837047000070B5002400220023AA
:1059E000058C4FF6EF7635400584028C8388048B56
:1059F00048F6FF752C404FF6FF452C400D884FF6BA
:105A0000FF7606EA05252C434FF6DF752A400D89FF
:105A100006EA05152A434D8806EA05152A43154D61
:105A2000A84202D0144DA8421DD14FF67F752A40DE
:105A30004D894FF6FF7606EA05152A434FF6BF75E6
:105A40002A408D8806EA05152A434FF6FF352B407C
:105A50004FF2FF752B408D8906EA85052B43CD89D2
:105A600006EA85052B4383800483CD88058702845D
:105A700070BD0000002C0140003401400A460021A6
:105A8000018B4FF2FF7319404FF6FF7303EA0223B5
:105A9000194301837047000070B5002400220023E1
:105AA000058C4FF6FF6635400584028C8388848B15
:105AB0004FF68F752C404FF6FC752C400D882C430B
:105AC0004FF6FF552A400D894FF6FF7606EA052569
:105AD0002A434D8806EA05252A43154DA84202D0DF
