:020000040800F2
:10000000180B002049010008D9360008DD2A000835
:1000100073360008D5150008676600080000000068
:10002000000000000000000000000000A14F0008D8
:10003000211F000800000000294100086353000848
:100040006301000863010008630100086301000800
:1000500063010008630100086301000863010008F0
:1000600063010008630100086301000863010008E0
:1000700063010008630100086301000863010008D0
:1000800063010008630100086301000863010008C0
:1000900063010008630100086301000863010008B0
:1000A00063010008630100086301000863010008A0
:1000B00063010008055600081D560008630100088A
:1000C0006301000863010008630100086301000880
:1000D00063010008D161000815620008256300086B
:1000E000491F00086301000863010008630100085C
:1000F0006301000863010008630100086301000850
:10010000630100086301000863010008630100083F
:100110006301000895610008355600086301000876
:10012000630100086301000863010008630100081F
:10013000DFF810D000F056FD004800471991000884
:10014000AFF30080180B00200648804706480047A0
:10015000FEE7FEE7FEE7FEE7FEE7FEE7FEE7FEE777
:10016000FEE7FEE765530008310100082DE9F04184
:100170000024061B254671F1000605DA012400273C
:10018000D0EB070067EB0101161E73F1000605DADC
:100190000027D2EB0702012567EB030300F096FB73
:1001A00086460E4617469C46AC4204D00025D0EB4E
:1001B000050E65EB010624B10020D2EB000760EBD1
:1001C000030C704631463A466346BDE8F08140EA8A
:1001D00001039B0703D009E008C9121F08C0042AC5
:1001E000FAD203E011F8013B00F8013B521EF9D2AC
:1001F0007047D2B201E000F8012B491EFBD27047D4
:100200000022F6E710B513460A4604461946FFF7E2
:10021000F0FF204610BD421E12F8013F002BFBD11B
:1002200011F8013B02F8013B002BF9D17047421C49
:1002300010F8011B0029FBD1801A704710B500226D
:1002400000E0521C835C8C5CA34201D1002BF8D1EE
:10025000D8B2E1B2401A10BD30B5044600200346C2
:1002600000E05B1C934203D2E05CCD5C401BF8D005
:1002700030BDF0B480EA0102D40F4200B2EB410F6E
:1002800002D20246084611464A0042D0C30DDDB2F2
:10029000C1F3C752AD1A202D35DAC1F3160141F46E
:1002A000000204B15242C5F1200602FA06F12A41C9
:1002B0001044B3EBD05F23D0C4B1012DA0EBC350E9
:1002C00009DCF0BC4FF0004202EAC352DBB200F599
:1002D000000000F0B4BB400000F1807000EBC350A0
:1002E000A0F1807040EAD170490009E0490841EA74
:1002F000C071A0EBC35000F50000400800EBC350F4
:10030000F0BC00F093BB6142012202EB4101001BF3
:10031000F6E7F0BC704781F00041AAE780F00040AA
:10032000A7E780EA010210B502F00043400022D0A6
:100330004A001FD0010E01EB1261C0F35600C2F358
:10034000560240F4000042F40002A0FB0220000428
:100350007F39140400D0401C50EA124001D4400000
:10036000491EC2B20C0604EBD010401C4008802A83
:1003700002D003E0002010BD20F00100002900DAC7
:100380000020184310BD30B480EA010202F000459D
:1003900030F0004221F0004013D090B1C30DD40DD5
:1003A000C2F31601C0F31600E41A41F4000140F450
:1003B00000027D34914201D3641C00E04900002C0E
:1003C00002DA30BC002070474FF400000023914255
:1003D00001D3891A034340084FEA4101F7D151B1D3
:1003E000914202D14FF0004105E002D24FF00101ED
:1003F00001E06FF0010103EBC450284430BC00F071
:1004000015BB2DE9FE4F804681EA0300C00F0C4664
:10041000009021F0004123F00045B8EB0200A94113
:1004200005D24046214690461C460B46024623F024
:100430000040104347D0270DC7F30A00C3F30A5109
:100440000290401A019040286BDAC3F3130040F485
:10045000801B0098924620B10023D2EB030A63EB85
:100460000B0B01985946C0F14002504600F05FFA6C
:1004700006460D4650465946019A00F077FA10EBB1
:1004800008006141002487EA115284EAE7731A43A5
:1004900040D0009A62B3019A012A4FEA075215DC54
:1004A000001B61EB02014FF0004202EA0752CDE966
:1004B0000042001C41F5801132462B4600F0FCFA48
:1004C00003B0BDE8F08F40462146F9E7001B61EB21
:1004D0000201001C41F5801300185B412018A2F5B1
:1004E000001747EB030140EAD570B6196D4111E0E2
:1004F0006D084FEA360645EAC0754FEA0752001B01
:1005000061EB0201001C41F5801149084FEA3000FF
:100510000019514132462B4603B0BDE8F04F00F0C0
:10052000BCBA0098012240000023D0EB020263EB2A
:10053000E073009821464FEAE074B8EB000061EBED
:100540000401E9E783F000435BE781F0004158E7ED
:100550002DE9FE4F81EA030404F0004421F000413C
:1005600000944FF0000B23F0004350EA01045ED0EA
:1005700052EA03045BD0C3F30A54C1F30A552C4476
:10058000A4F2F3340194A0FB0254C1F3130141F42B
:100590008011C3F3130343F4801301FB024400FBF7
:1005A000034E840A970A44EA815447EA8357A4FB1E
:1005B000076802958D0A05FB07854FEA932C04FB1B
:1005C0000C542705029D4FEA065847EA1637B5EB4B
:1005D00008056EEB070C870E920E47EA811742EA78
:1005E0008312A7FB0201B6EB0B0164EB00042B0D99
:1005F00043EA0C335E1844EB1C50DA465146E7FBE5
:100600000201C5F313044FEA0B3343EA14534FEAD4
:100610000432019C43EA0603A4F10C040294009CFA
:10062000CDE900B400F048FA03B0BDE8F08F002037
:100630000146F9E72DE9F04D81EA030404F0004B8F
:1006400021F0004514464FF0000A23F0004150EA23
:10065000050220D054EA01021DD0C5F30A57024614
:10066000C5F31303C1F31300C1F30A5640F4801518
:1006700043F48013A7EB0608101BD64608F2FD389A
:1006800073EB050002D308F1010801E092185B4109
:10069000B8F1000F03DA00200146BDE8F08D00201C
:1006A0004FF48011064684460EE0171B73EB0507D6
:1006B00005D3121B63EB050306434CEA010C490802
:1006C0004FEA300092185B4150EA0107EDD152EA3F
:1006D000030012D082EA040083EA0501084305D032
:1006E000101BAB4106D20122002306E000224FF08E
:1006F000004302E06FF0010253101AEB06004CEBCE
:10070000085110EB0A0041EB0B01BDE8F04D00F081
:10071000C4B9C10F80EAE0700844CA0796230021DB
:1007200000F08DB996230022114600F088B90EB56D
:10073000C10F80EAE0700844CA07002140F2334349
:100740008DE80E000A460B4600F0B6F903B000BD76
:1007500000F0004220F00040C10DC0F3160040F44C
:1007600000007F2901DA00207047962903DCC1F1DF
:100770009601C84001E096398840002AF4D04042F2
:10078000704720F00040C10DC0F3160040F4000097
:100790007F2901DA00207047962903DCC1F1960118
:1007A000C840704796398840704770B5C1F30A5207
:1007B00001F000450024C1F3130140F2FF3341F47E
:1007C00080119A4201DA002070BD40F233439A4210
:1007D000A2F2334203DC524200F0B8F800E090404D
:1007E0002C43F1D0404270BD00F0004230F0004098
:1007F0000AD0C10D01F56071C0F3160042EA015143
:10080000C2084007114370470020014670470000AE
:1008100030B5041E71F1000404DB4FF00044404287
:1008200064EB0101141E73F1000405DB1C464FF05C
:100830000043524263EB04038B4208BF824230BD47
:1008400001F0004330B421F0004150EA010206D02B
:100850000A0DA2F56072C1F31301002A02DC30BC5C
:1008600000207047440F44EAC104C100E01830BCC6
:1008700000EBC25000F0DAB8002801DBC0F1004004
:10088000002901DBC1F1004181427047002801DBF2
:10089000C0F10040002901DBC1F1004188427047EE
:1008A00030B50B46014600202022012409E021FA40
:1008B00002F59D4205D303FA02F5491B04FA02F53D
:1008C0002844151EA2F10102F1DC30BD2DE9F05FD4
:1008D0000546002092469B468846064681464024AF
:1008E0001BE0284641464746224600F02FF8534673
:1008F0005A46C01A914110D311461846224600F0BC
:1009000016F82D1A67EB01084F46224601200021F8
:1009100000F00DF817EB00094E41201EA4F1010470
:10092000DFDC484631462A464346BDE8F09F202A90
:1009300004DB203A00FA02F1002070479140C2F136
:10094000200320FA03F3194390407047202A04DB68
:10095000203A21FA02F00021704721FA02F3D04038
:10096000C2F120029140084319467047202A06DB55
:10097000CB17203A41FA02F043EAE07306E041FA6D
:1009800002F3D040C2F1200291400843194670475B
:100990000FB4002300B589B00CA900910B996FF03A
:1009A0000042CB601E4B06931E4B07930423CDE9F8
:1009B00001321D4A089202466B46002000F0BEF943
:1009C00009B05DF814FB70B586B006464FF0FF30F5
:1009D0000091CDE90101002015460C4604903246F5
:1009E000694604A8FFF7D4FF02460498211825B1F0
:1009F00008B1084600E020462860049800280DD081
:100A0000002A02DD0098884208D0081B0094CDE936
:100A100001043246694604A8FFF7BAFF06B070BD6C
:100A2000750F0008930F0008090C00080029A8BFE3
:100A30007047401C490008BF20F00100704710B407
:100A4000B0FA80FC00FA0CF050EA010404BF10BCBC
:100A5000704749B1CCF1200421FA04F411FA0CF1E9
:100A600018BF012121430843A3EB0C01CB1D4FEA22
:100A700000614FEA102042BF002010BC704700EB1D
:100A8000C35010440029A4BF10BC7047401C49004B
:100A900008BF20F0010010BC704710B5141E73F1A0
:100AA000000408DA401C41F1000192185B411A432E
:100AB00001D120F0010010BD2DE9F04D92469B467A
:100AC00011B1B1FA81F202E0B0FA80F22032904620
:100AD000FFF72DFF04460F4640EA0A0041EA0B01EA
:100AE00053465A46084313D0114653EA010019D021
:100AF000C8F140025046FFF729FF05460E46504612
:100B000059464246FFF713FF084305D0012004E091
:100B100020463946BDE8F08D0020054346EAE076E0
:100B20002C4337430A986305E40AA0EB080000222F
:100B3000FD0A44EA47540A3002D500200146E9E79D
:100B4000010510196941DDE9084500196941BDE851
:100B5000F04DA2E770B521F0004303430CD0C1F380
:100B60000A550024D5EB040564EB0403D617AD1A2F
:100B7000B34102DB0020014670BD201841EB025159
:100B800070BDC1F30A52C1F3130140F2FF3341F4C7
:100B900080119A4202DA00200146704740F2334346
:100BA0009A42A2F2334202DC5242FFF7CFBEFFF775
:100BB000BEBE000030B5041E71F1000404DB4FF02E
:100BC0000044404264EB0101141E73F1000405DB94
:100BD0001C464FF00043524263EB0403994208BFA6
:100BE000904230BD064C074D06E0E06840F001033E
:100BF00094E8070098471034AC42F6D3FFF79CFA0C
:100C0000C8DC0008E8DC0008C0B24FF4F05100F086
:100C100023BA00002DE9FF4F087883B09946FF28DA
:100C200005D0491C2D2804D00024002008E0002015
:100C30000BE00124F9E700EB800003EB4000491CC6
:100C40000B78FF2BF7D104B14042002302931478B4
:100C500019461D462D2C01D02B2C04D1521C2D2CB5
:100C600013D000240294AA461478FF2C0FD00A2532
:100C7000A3FB057801FB05814FF0000C03FB0C1171
:100C8000521CE3194AEB0101EEE70124EAE7814433
:100C900053EA010002D019F5C87F06DA0398002153
:100CA000C0E9001107B0BDE8F08F0025AE4E2F4619
:100CB000DFF8B882184600F0E3F9CDE90001B9F198
:100CC000000002DAC9F1000400E004460023A74A4C
:100CD0001AEB030B42EB045A12E0E00707D02A4656
:100CE000334638464146FFF733FC074688462A46D6
:100CF000334610461946FFF72BFC05460E46641096
:100D0000002CEAD1DDE90001B9F1000F5A46534643
:100D100006DAFFF78FFC3A464346FFF78BFC05E007
:100D2000FFF716FC3A464346FFF712FC029A0AB157
:100D300081F00041039AC2E90001B3E72DE9FF4FBA
:100D40001F468DB0D7E901464FF0FF382E204546AB
:100D50004FF000090B90B9696D1C0E988847396AED
:100D6000824688470028F6D1BAF1FF3F0AD024F422
:100D7000D064002E11DDBAF12B0F08D0BAF12D0F7F
:100D80000BD102E0404611B08DE744F48064B969AC
:100D90006D1C0E9888478246761E6946600501D50F
:100DA0002D2000E02B208DF8000001F1010B0DF14A
:100DB000200809E0B9696D1C0E98884782460F9893
:100DC00044F40074761E0560002E02DDBAF1300F87
:100DD000F0D00B998A453ED144F0800406E00F998B
:100DE000681CA9F1010944F400740860B9696D1C1C
:100DF000761E0E98884782463028F0D02BE00B995B
:100E00008A4505D1200603D444F08004761E18E0FC
:100E1000504605F07BFE08B30DF11301761E44F435
:100E200000748B4508D2AAF130000BF8010B2006A4
:100E300007D5A9F1010003E0200602D409F1010061
:100E40008146A00502D50F99681C0860B9696D1C20
:100E50000E9888478246002ED1DC53E0002E51DDEB
:100E6000BAF1650F02D0BAF1450F4BD1A00549D5B3
:100E7000B9696D1C24F44074761E0E98884782462A
:100E8000002E0CDD2B2804D0BAF12D0F07D144F42D
:100E90008074B9696D1C0E9888478246761EE005FD
:100EA00001D52D2100E02B2108F8011BCDF82C8065
:100EB00021E00DF12901761E44F4007488450CD21E
:100EC000AAF1300010F0FF0088F8000002D10B9961
:100ED000884509D908F1010806E0E00501D5244854
:100EE00001E042F20F708146B9696D1C0E98884787
:100EF00082460F980560002E04DD504605F006FE80
:100F00000028D6D1F9690E988847FF208BF8000099
:100F100088F800000020069007904B466A4608A912
:100F200006A8FFF777FEA00502D46FF001002AE7BC
:100F300014F0240F0AD0E00714D1DDE90612386856
:100F4000031D3B600068C0E900120BE0DDE906010B
:100F5000FFF776FC0146E00704D13868021D3A60CD
:100F60000068016028460EE7000014400000F03FD2
:100F7000F1D8FFFF426842B1016811F8013B23B18B
:100F8000521EC0E90012184670470121C160881E38
:100F9000704742685AB1C368016843B983688B429D
:100FA00005D0491E521CC0E90012002070474FF0C6
:100FB000FF3070472DE9F04D00231A461B1A8A4175
:100FC00003DB00200146BDE8F08DC1F30A52C1F3F6
:100FD000130141F480154FF0000BD10702D1001826
:100FE0006D41521E0027044640F2FF11384601EBC6
:100FF000620A3E468046024600204FF48011FFF709
:10100000A5FCC2197141BB1846EB0100B4EB030CFF
:1010100075EB000C04D3E41A65EB000517460E4689
:10102000241908F101006D4180463428E3DDF919E7
:1010300046EB0600091BA84103D24FF0FF321346CE
:1010400001E0002213461BEB070046EB0A51BDE806
:10105000F04DFFF722BD00007F2801D9002208E0F3
:10106000064A02EB5002C007127800D1120902F0C2
:101070000F020120904008407047000038DC000853
:101080000EB540F2334202920022CDE9002213460F
:10109000FFF712FD03B000BD70B58C1810F8015BAE
:1010A00015F0070301D110F8013B2A1106D110F801
:1010B000012B03E010F8016B01F8016B5B1EF9D105
:1010C0002B0705D40023521E0DD401F8013BFAE78B
:1010D00010F8013BCB1A921C03E013F8015B01F8F6
:1010E000015B521EF9D5A142D8D3002070BD21B1B9
:1010F000826842F00102826003E0826822F001020D
:101100008260704710B504461248844208D101211C
:10111000401503F0FBFB0021601503F0F7FB17E01F
:101120000D48844208D10121001503F0EFFB002196
:10113000201503F0EBFB0BE00848844208D10121A5
:10114000C80303F0E3FB00214FF4004003F0DEFB93
:1011500010BD00000024014000280140003C014077
:10116000014600208A6802F004020AB1012000E072
:10117000002070470146C86C80B2704702460020CC
:1011800013680B400BB1012000E0002070470146BE
:1011900000208A6802F008020AB1012000E0002065
:1011A0007047000030B502460020002350680F4C05
:1011B00020400D790C6844EA052420435060906873
:1011C0000B4C2040D1E902542C434D7944EA4504AC
:1011D00020439060D06A20F470000C7C641EE4B25E
:1011E000234340EA0350D06230BD0000FFFEF0FF11
:1011F000FDF7F1FFF0B504460D4600200021092D52
:1012000011DDE068A5F10A0606EB4607072606FA97
:1012100007F18843A5F10A0606EB460603FA06F134
:101220000843E0600CE0206905EB4507072606FA55
:1012300007F1884305EB450603FA06F108432061F0
:10124000072A0FDA606B561E06EB86071F2606FA82
:1012500007F18843561E06EB860605FA06F1084399
:10126000606322E00D2A0FDA206BD61F06EB86079B
:101270001F2606FA07F18843D61F06EB860605FAF5
:1012800006F10843206310E0E06AA2F10D0606EBC8
:1012900086071F2606FA07F18843A2F10D0606EB22
:1012A000860605FA06F10843E062F0BD816841F068
:1012B00008018160704721B1826842F4A002826017
:1012C00003E0826822F4A00282607047816841F0E6
:1012D000040181607047000010B527480088C0F104
:1012E000A00000B2254908802348008943F2C821A4
:1012F000884202DD0846204908811F48008941F6DE
:101300006411081A00B21E4908801B48008928B9D8
:1013100000201C4908601C49086010BD1848B0F93D
:10132000000040F2DC51884205DC1548B0F90000AD
:1013300010F57A6F04DA00F0A3FF1249086002E0AA
:1013400000201049086004F0A3FE0F4908600F490F
:101350000C480068FFF79AFA03D20C480949086064
:1013600008E00B4907480068FFF786FA02D20848F0
:101370000449086000BFD0E7A2020020AC020020B0
:10138000B002002024000020280000200000F041CE
:101390000000F0C108B50121102003F0A7FA4FF4B6
:1013A0007070ADF8000018208DF8030003208DF850
:1013B00002006946014800F0C5FF08BD0010014069
:1013C00030B587B005460C460121480303F08EFA7C
:1013D000254804F0F7F9681E80B2ADF81400ADF8A6
:1013E00010400020ADF81600ADF8120004A91E4808
:1013F00004F000FD6020ADF800000120ADF802000F
:101400000020ADF80600ADF808006946164804F063
:1014100067FB6946144804F0B9FB6946124804F0BA
:1014200015FC6946104804F06BFC01210E4804F0DD
:10143000B9F908210C4804F09FFB08210A4804F080
:10144000F7FB0821084804F051FC0821064804F085
:1014500095FC0121044804F087F90121024804F0B9
:1014600095F907B030BD0000003401402DE9FC5F64
:1014700004460D461E4801682046FEF74FFF0190C6
:1014800029460020FEF747FF00901A48016800989F
:10149000FEF747FF82461849FEF775FF804617485A
:1014A000006880F0004B14495846FEF76CFF8246F6
:1014B0000199FEF736FF81464146FEF72CFF0746AD
:1014C000FFF746F906460E48007801280CD1304651
:1014D000FFF71FF980460B4801684046FEF721FFE1
:1014E0000746FFF735F906463046BDE8FC9F000089
:1014F000200000200C0100200000C842080100204C
:101500009D010020FC00002070B504464FF47A7560
:101510000723012221460B48FFF76CFE01210948F1
:10152000FFF7C9FE00BF02210648FFF727FE20B9DA
:10153000281EA5F101018DB2F5D10248FFF71AFE70
:1015400070BD00000024014000B587B001214FF4B8
:10155000017003F0CBF94FF4004003F09BF9202019
:10156000ADF8040000208DF8070001A9174800F02D
:10157000E9FE1748FFF7C6FD002002908DF80C0029
:101580008DF80D004FF4602004900020059001209C
:101590008DF8180002A90E48FFF704FE01210C483F
:1015A000FFF7A5FD0A48FFF781FE00BF0848FFF7D7
:1015B000EEFD0028FAD10648FFF788FE00BF044878
:1015C000FFF7CEFD0028FAD107B000BD00080140AA
:1015D0000024014000BFFEE72DE9F04F91B000204C
:1015E00010902F480068012856D12E48D0F800A04E
:1015F0002D48D0F800B02D492D480068FEF7C3FEF5
:101600002C4908602C4800682C49086050212C485F
:10161000FEF7F6FD2A482BA1096801602A480068F8
:10162000FFF7E2F804460D461098FFF7DDF806468E
:101630000F4622480068FFF7D7F8804689461D48C4
:101640000068FFF7D1F8CDE90E015846FFF7CCF856
:10165000CDE90C015046FFF7C7F8CDE90489CDE983
:101660000667CDE90845CDE90A01DDE90E01CDE9BE
:101670000201DDE90C01CDE9000114A11048DDE90A
:101680000A2305F0D5F850211D48FEF7B9FD502278
:101690000B491B48FEF79BFD11B0BDE8F08F000021
:1016A00048010020F4000020F80000200000C8429B
:1016B0001C00002090010020080000209401002060
:1016C000F0040020244C5600E4000020244C562551
:1016D000332E32662C525625332E32662C4143254A
:1016E000332E32662C475925332E32662C43534213
:1016F00025332E32662C565425332E3266230000B5
:101700004005002010B54248007801287ED1002015
:101710003F4908703F4940A0FEF790FD98B901206D
:101720003F490860142006F0F1FA00203D49C1F855
:10173000AC013D483D490860022008F095FD0020BD
:101740003A49086062E0334939A0FEF777FD98B95D
:10175000012033490860142006F0D8FA00203149EE
:10176000C1F8AC01344831490860022008F07CFD22
:1017700000202E49086049E0264930A0FEF75EFDB2
:1017800098B9012026490860142006F0BFFA00200D
:101790002449C1F8AC012C482C490860012008F00C
:1017A00063FD00202949086030E01A4928A0FEF7AF
:1017B00045FD98B901201A490860142006F0A6FAE0
:1017C00000201849C1F8AC012448204908600120D4
:1017D00008F04AFD00201D49086017E00D4920A0CF
:1017E000FEF72CFD90B900240EE001200C490860A2
:1017F000142006F08BFA00200A49C1F8AC0114202D
:1018000006F084FA601CC4B2032CEEDB10BD0000AD
:101810009E020020F0060020676F6261636B00008B
:10182000AC01214200002142000070C124000020D0
:10183000676F616865616400000070417475726E65
:101840006C656674000000000000C8C3280000201A
:101850007475726E72696768740000000000C84396
:1018600062757A7A6572000010B526480078012802
:1018700046D1002023490870234924A0FEF7DEFC4E
:1018800078B901230022032121A001F064FF012087
:101890002249086008F0E8FC00202149C1F8AC01A9
:1018A0002EE019491FA0FEF7C9FC90B901230022C0
:1018B00003211DA001F04FFF1E481F4908600120B1
:1018C00008F0D2FC012008F0CFFC00201A49086083
:1018D00016E00D4919A0FEF7B1FC88B901230022DA
:1018E000032117A001F037FF1848134908600120B1
:1018F00008F0BAFC012008F0B7FC00200E4908608F
:1019000010BD00009E020020F006002036000000FE
:101910006E756D3A3621202000000000AC01214296
:1019200000002142320000006E756D3A3221202005
:10193000000000000000C8C32800002033000000A1
:101940006E756D3A33212020000000000000C8436E
:1019500010B523480078012840D1002020490870A4
:10196000204921A0FEF76AFC48B9204820490860B8
:10197000022008F079FC00201D4908602EE019497A
:101980001CA0FEF75BFC90B91B481C4908600120B5
:1019900008F06AFC002019490860194814490860D9
:1019A000012008F061FC00201149086016E00D4993
:1019B00014A0FEF743FC88B90C48104908600120C8
:1019C00008F052FC00200D4908600D4808490860E5
:1019D000012008F049FC00200549086010BD000006
:1019E0009E020020F0060020310000000000C843E5
:1019F00024000020320000000000C8C3280000209E
:101A000000007041330000002DE9F05F05460C46F0
:101A1000124E134801682046FEF783FC83461148A6
:101A200001685846FEF725FC804631464FF07E504F
:101A3000FEF771FC82464146FEF773FC07463146CD
:101A40002846FEF76EFC81463946FEF712FC054932
:101A5000086008460068BDE8F09F00000AD7A33C74
:101A6000D00100200C0200202DE9F05F05460C4655
:101A7000124E134801682046FEF753FC8346114876
:101A800001685846FEF7F5FB804631464FF07E5020
:101A9000FEF741FC82464146FEF743FC07463146CD
:101AA0002846FEF73EFC81463946FEF7E2FB054933
:101AB000086008460068BDE8F09F00000AD7A33C14
:101AC000D0010020480200200146072323EA01023A
:101AD0001202054B18684FF6FF031840034B1843DA
:101AE0001043014B186070470CED00E00000FA0550
:101AF00038B5002000906B4601227521682007F060
:101B00002DFA2CA004F084FE9DF8000068280ED069
:101B100000BF3148006800F4E06030490843001D10
:101B20002D490860BFF34F8F00BF00BFFEE707F0ED
:101B30008FFC00283CD1782008F094FA10B91DA041
:101B400004F066FE782007F071FB10B924A004F0C1
:101B50005FFEC82008F038FA10B92BA004F058FE38
:101B600006F072FA10B932A004F052FE3D4807F0B8
:101B700097FA044606F0C2FC10B93BA004F048FEF8
:101B800040F2731006F008F910B941A004F040FECD
:101B9000C82006F0E3FB10B947A004F039FE08F0B6
:101BA000A1FB012008F00CF910B94CA004F030FEA4
:101BB00038BD00006D70755F7365745F73656E731B
:101BC0006F7220636F6D706C657465202E2E2E2EE3
:101BD0002E2E0D0A000000000CED00E00000FA05BA
:101BE0006D70755F636F6E6669677572655F666954
:101BF000666F20636F6D706C657465202E2E2E2EBF
:101C00002E2E0D0A000000006D70755F7365745F05
:101C100073616D706C655F7261746520636F6D7068
:101C20006C657465202E2E2E2E2E2E0D0A000000BF
:101C3000646D705F6C6F61645F6D6F74696F6E5F10
:101C40006472697665725F6669726D77617265202C
:101C5000636F6D706C657465202E2E2E2E2E2E0DEA
:101C60000A00000088000020646D705F7365745F77
:101C70006F7269656E746174696F6E20636F6D70E9
:101C80006C657465202E2E2E2E2E2E0D0A0000005F
:101C9000646D705F656E61626C655F6665617475C9
:101CA000726520636F6D706C657465202E2E2E2E0C
:101CB0002E2E0D0A00000000646D705F7365745F66
:101CC0006669666F5F7261746520636F6D706C65C5
:101CD0007465202E2E2E2E2E2E0D0A006D70755F2F
:101CE0007365745F646D705F737461746520636F96
:101CF0006D706C657465202E2E2E2E2E2E0D0A0012
:101D000010B50446242C0AD11C48007838B90120AB
:101D10001A49087014211A48FEF772FA10BD1748C4
:101D20000078012828D1232C0BD1002013490870FA
:101D30001449087000F0E0FD14211148FEF760FA24
:101D40001AE00E480078012816D1242C14D00D4832
:101D500001780078401C0B4A107009484454104622
:101D60000078142808DD0020114608700349087027
:101D700014210348FEF744FA00BFCFE7A002002079
:101D800004070020A102002010B50446242C0AD12B
:101D90001B48007838B901201949087014211948E6
:101DA000FEF72EFA10BD16480078012826D1232C04
:101DB00007D1002012490870134908700120134907
:101DC00008700F480078012818D1242C16D00E482E
:101DD00001780078401C0C4A10700A4844541046A0
:101DE000007814280ADD00201146087004490870A4
:101DF0000649087014210348FEF702FA00BFD1E734
:101E00009C020020F00600209D0200209E0200207F
:101E100010B50446242C0AD11B48007838B901209B
:101E20001949087014211948FEF7EAF910BD16483F
:101E30000078012826D1232C07D1002012490870F0
:101E4000134908700120134908700F4800780128D1
:101E500018D1242C16D00E4801780078401C0C4A6A
:101E600010700A4844541046007814280ADD0020F7
:101E70001146087004490870064908701421034887
:101E8000FEF7BEF900BFD1E79C020020F00600205B
:101E90009D0200209E02002010B50446242C0AD189
:101EA0001B48007838B901201949087014211948D5
:101EB000FEF7A6F910BD16480078012826D1232C7C
:101EC00007D10020124908701349087001201349F6
:101ED00008700F480078012818D1242C16D00E481D
:101EE00001780078401C0C4A10700A48445410468F
:101EF000007814280ADD0020114608700449087093
:101F00000649087014210348FEF77AF900BFD1E7AB
:101F10009C020020F00600209D0200209E0200206E
:101F2000704701B500200AE0002001E0411CC8B262
:101F30000A28FBDB9DF80010491EC9B200919DF8EC
:101F400000100029F0D108BD2DE9F0414B48006890
:101F500000287CD14FF480504949086049480088E6
:101F6000002804DD47480088401E4649088046484E
:101F70000078032802D103F0A9F805E04248007870
:101F8000042801D1FFF7A8F94048007800F0B8FA1A
:101F9000002002F063FE8046012002F05FFE454211
:101FA0002946404600F014FD394801683948006868
:101FB000FFF75CFA07462946404604F057FB064601
:101FC00031480078032805D13348006803F06EFFDC
:101FD000044604E03048006803F0D6FF0446B81910
:101FE00020442E490860B819001B2D4908602B4871
:101FF000006802F083F8294908602948006802F067
:102000007DF827490860274A51422448006802F0B9
:1020100082F822490860234A51422148006802F0B0
:102020007AF81F49086018480078B8B92B4642462C
:10203000184801681C48006802F078F810B10120C7
:102040001A4908702A4641461248006800E012E02A
:1020500002F0DCFB10B1002014490870144801683C
:102060000C48006803F054FF28B90D4801680B487C
:10207000006803F0C7F8BDE8F0810000300121429C
:1020800014040140E00000209D0100200000002019
:1020900008000020040000200C0000201000002098
:1020A00014000020D8F5FFFF1C0000202C000020A9
:1020B000E4000020002123498279002A3AD00A4610
:1020C000126803689A430B461A600A1D1268036877
:1020D0009A430B1D1A60027911440A6803681A4377
:1020E0000A60184A0832126803689A43154B08338D
:1020F0001A601A1D126803689A43124B0C331A6057
:102100004279102A0ED11A1F126803681A430D4B28
:1021100008331A601A1D126803681A43094B0C33FE
:102120001A600DE00749427911440A6803681A43AE
:102130000A6005E0027911440A6803689A430A605C
:10214000704700000004014000B587B00121022063
:1021500002F0ACFB0121042002F0C8FBC020ADF866
:10216000000004208DF8030069461C4800F0EAF8DE
:1021700004A803F091FE0020ADF810004FF6FF70A8
:10218000ADF814000020ADF81600ADF8120004A957
:10219000134803F02FFE00231A460321104803F0D2
:1021A00005FC01A803F08AFC0A20ADF80C0001A987
:1021B0000B4803F02DFC0121094803F0E1FA01224C
:1021C0001146074803F083FC0021054803F0E3FDB6
:1021D0000121034803F0DAFA07B000BD000801400E
:1021E0000004004000B587B00121042002F05EFB2E
:1021F0000121082002F07AFBC020ADF80000042085
:102200008DF8030069461C4800F09CF804A803F010
:1022100043FE0020ADF810004FF6FF70ADF814003B
:102220000020ADF81600ADF8120004A9134803F021
:10223000E1FD00231A460321104803F0B7FB01A873
:1022400003F03CFC0A20ADF80C0001A90B4803F098
:10225000DFFB0121094803F093FA012211460748E8
:1022600003F035FC0021054803F095FD01210348EA
:1022700003F08CFA07B000BD000C014000080040DC
:102280002DE9F05F1848B0F9000018490880B1F94D
:102290000010174AB2F90020881AFEF748FA0646DD
:1022A000144A154BFEF754F904460D460F48B0F991
:1022B0000000FEF73CFA06460E4A104BFEF748F9BE
:1022C000804622462B46FEF79CF88246FEF7B8FA77
:1022D0000B4908600548B0F9000005490880084826
:1022E0000068BDE8F09F0000B0020020B2020020AC
:1022F000B4020020FCA9F1D24D62403F4D62503F34
:10230000B802002030B500228B071C0F0F2303FA00
:1023100004F20B4B8C1053F824309343084C8D106F
:1023200044F8253023468C1053F824308C07240FB2
:1023300000FA04F42343024C8D1044F8253030BDDC
:10234000080001402DE9F04102460025002600204A
:1023500000230024002791F803C00CF00F0591F82A
:1023600003C00CF0100CBCF1000F03D091F802C0B8
:102370004CEA050591F800C0BCF1000F31D014689B
:1023800000202BE04FF0010C0CFA00F3B1F800C074
:102390000CEA03069E4220D183004FF00F0C0CFA8A
:1023A00003F7BC4305FA03FC4CEA040491F803C0AC
:1023B000BCF1280F06D14FF0010C0CFA00FCC2F85A
:1023C00014C00AE091F803C0BCF1480F05D14FF0EA
:1023D000010C0CFA00FCC2F810C0401C0828D1D334
:1023E0001460B1F800C0BCF1FF0F34DD5468002068
:1023F0002EE000F1080C4FF0010808FA0CF3B1F8D8
:1024000000C00CEA03069E4221D183004FF00F0C5E
:102410000CFA03F7BC4305FA03FC4CEA040491F8F8
:1024200003C0BCF1280F05D100F1080C08FA0CF824
:10243000C2F8148091F803C0BCF1480F07D100F135
:10244000080C4FF0010808FA0CF8C2F81080401C84
:102450000828CED35460BDE8F0810000F0B50A46EC
:10246000002300240021002500F00046B6F1004FB3
:1024700002D11D4EF16901E01B4E7168C0F30345A6
:1024800083B200F44016B6F5401F08D121F0706108
:10249000154E766826F07066134F7E6012E000F4E9
:1024A0008016B6F5801F06D1032606FA05F4A1436F
:1024B00041F0706106E0460D360103FA06F6B143BD
:1024C00041F0706122B1460D360103FA06F6314340
:1024D00000F00046B6F1004F02D1034EF16101E079
:1024E000014E7160F0BD0000000001400246002076
:1024F00093680B400BB1012000E000207047000002
:102500002DE9F04F91B0804602F0C4FBE24908602B
:10251000B8F1010F1BD102F073FAE0480068E049FE
:102520000860E049B1F90000FEF7F3F8DE49086001
:10253000DC49B1F90400FEF7ECF8DC490860DC493D
:10254000B1F90400FEF7E5F8DA490860A1E1442199
:10255000D02000F0C5FA83464321D02000F0C0FA15
:102560000BEB00200990FEF7D4F806464621D02058
:1025700000F0B6FA83464521D02000F0B1FA0BEB0B
:1025800000200990FEF7C5F80A904821D02000F0FD
:10259000A7FA83464721D02000F0A2FA0BEB0020D7
:1025A0000990FEF7B6F807463C21D02000F098FAD3
:1025B00083463B21D02000F093FA0BEB00200990DA
:1025C000FEF7A7F80D903E21D02000F089FA83464F
:1025D0003D21D02000F084FA0BEB00200990FEF79B
:1025E00098F882464021D02000F07AFA83463F21B5
:1025F000D02000F075FA0BEB00200990FEF789F867
:1026000005464FF08E413046FEF740F905D24FF0B7
:102610008F413046FDF77FFE06464FF08E410A9807
:10262000FEF734F905D24FF08F410A98FDF773FE9B
:102630000A904FF08E413846FEF728F905D24FF048
:102640008F413846FDF767FE07464FF08E410D98E3
:10265000FEF71CF905D24FF08F410D98FDF75BFE98
:102660000D904FF08E415046FEF710F905D24FF015
:102670008F415046FDF74FFE82464FF08E4128466F
:10268000FEF704F905D24FF08F412846FDF743FECF
:10269000054686F00040844908600D98FEF7A4F8CE
:1026A000854A864BCDE90601FDF7C4FFCDE9080157
:1026B000FEF7C6F810905046FEF796F87E4A7F4B1C
:1026C000CDE90601FDF7B6FFCDE90801FEF7B8F840
:1026D0000F902846FEF788F8774A784BCDE9060137
:1026E000FDF7A8FFCDE90801FEF7AAF80E903046E5
:1026F000FEF77AF84FF06632714BCDE90601FDF72F
:1027000099FFCDE90801FEF79BF881460A98FEF78C
:102710006BF84FF066326A4BCDE90601FDF78AFF90
:10272000CDE90801FEF78CF80446664800780228D7
:1027300037D189F0004002460390DDE90E1000F029
:1027400013FC8346FEF750F85F4A604BCDE9040165
:10275000FDF770FF00225E4BCDE90601FDF7F8FEA4
:10276000CDE90801FEF76CF84C49086022460E9945
:10277000109800F055FD8346FEF736F8524A534B49
:10278000CDE90401FDF756FF0022514BCDE90601CA
:10279000FDF7DEFECDE90801FEF752F84D4908606D
:1027A0006FE04848007803286BD12846FEF71CF8F4
:1027B000CDE902015046FEF717F8CDE90001DDE949
:1027C000022304F0CFFF0022414BCDE90401FDF7C5
:1027D000BFFE3D4A3D4BCDE90601FDF72BFFCDE99C
:1027E0000801FEF72DF80C902846FDF7FDFFCDE916
:1027F00002010D98FDF7F8FFCDE90001DDE90223A4
:1028000004F0B0FF0022324BCDE90401FDF7A0FE39
:102810002D4A2E4BCDE90601FDF70CFFCDE908014D
:10282000FEF70EF80B903046FDF7DEFF4FF06632F4
:10283000294BCDE90601FDF7FDFECDE90801FDF7C5
:10284000FFFF834659460C98FFF7DEF880F0004002
:10285000124908600A98FDF7C7FF4FF066321E4B19
:10286000CDE90601FDF7E6FECDE90801FDF7E8FF39
:10287000834659460B98FFF7F7F880F0004015495A
:10288000086006480068064908600848076009486B
:10289000056011B0BDE8F08F180000207000002026
:1028A000040000205C000020080000200C00002034
:1028B000620000201C0000208FC2F5285C1F9A4097
:1028C000665E8D4000000020F1D4C853FB21094012
:1028D000008066406C0000206666304010B500F055
:1028E00065F8044603492046FDF71BFD04462046D3
:1028F00010BD0000C3F580402948007830386421BD
:10290000484327494978303901EB810100EB410107
:102910002348807830380844224908802048C0780D
:102920003038642148431E490979303901EB81016F
:1029300000EB41011A484079303808441949488071
:1029400019480078042829D1154880793038642145
:1029500048431349C979303901EB810100EB41014A
:102960000F48007A303808440E4988800C48407A75
:102970003038642148430A49897A303901EB8101B2
:1029800000EB41010648C07A303808440549C88048
:1029900008468088C988484302490881704700007A
:1029A00004070020A20200209D01002070B5052030
:1029B000FEF7AAFD05462846FDF7B4FE0646034984
:1029C000FDF7AFFC0446204670BD00003333533A98
:1029D0002DE9F04F87B083468A465846FDF7A7FE9B
:1029E0000022344BCDE90001FDF7B2FD0022324B4D
:1029F000CDE90201FDF71EFE804600222F4BFDF7B8
:102A000019FE064600222E4BFDF714FE0446FDF784
:102A100017FF05900598FDF7E7FE2A4A2A4BCDE9F6
:102A20000201FDF795FD80460022284BFDF790FD41
:102A300006460022264BFDF7FDFD0446FDF700FF8C
:102A4000244908605046FDF772FE0022194BCDE97B
:102A50000001FDF77DFD06460022174BFDF7EAFD5C
:102A600004460022154BFDF7E5FD80460022144B7D
:102A7000FDF7E0FDCDE90201FDF7E2FE04900498C8
:102A8000FDF7B2FE80460F4A0F4BFDF761FD0022B5
:102A90000E4BCDE90201FDF75BFD064600220C4B13
:102AA000FDF7C8FD0446FDF7CBFE0B49086007B0F3
:102AB000BDE8F08F000069400000104000003E407B
:102AC00000002640F1D4C853FB21094000C050400B
:102AD00000002440F4000020F800002000BFFEE7C2
:102AE00070B505460E46002400F0EAF8284600F0CE
:102AF000B5F8641C00F03CF9304600F0AFF8641CF7
:102B000000F036F900F0DCF8691CC8B200F0A6F855
:102B1000641C00F02DF9002000F068F8044600F075
:102B200003F9204670BD000010B500200E49086072
:102B30000E48006820F470600C4908600846006880
:102B400040F44070086000200949C1F8A801012044
:102B500005F0E6F801200449086005F0E1F80020DE
:102B60000349C1F8AC0110BDAC812142040C014005
:102B70000080214208B50121082001F0B7FE4FF482
:102B80004060ADF8000010208DF8030003208DF8A0
:102B9000020069460148FFF7D5FB08BD000C014063
:102BA00010B500200E4908600E48006820F47060DF
:102BB0000C4908600846006840F440700860012035
:102BC0000949C1F8A80105F0ABF8012004490860E3
:102BD00005F0A6F800200449C1F8AC0110BD0000C2
:102BE000AC812142040C01400080214270B50546B1
:102BF00000241748006820F47060154908600846F2
:102C0000006840F400600860002616E000201149CA
:102C10000860022005F084F801200F49C1F8AC01DA
:102C20006006040E0B488438006808B1601CC4B20A
:102C3000022005F075F8701CC6B2082EE6DB15B14F
:102C4000FFF772FF01E0FFF7ABFF204670BD000009
:102C5000040C0140AC8121420080214270B5044641
:102C60001448006820F47060124908600846006843
:102C700040F44070086000200F490860002516E00D
:102C8000E0090D49091F08606006040E012005F0E7
:102C900047F801200949C1F8AC0105F041F80020CE
:102CA00005490860012005F03BF8681CC5B2082DF5
:102CB000E6DB70BD040C0140AC8121420080214262
:102CC00010B51648006820F4706014490860084682
:102CD000006840F440700860012011490860114804
:102CE000D0F8280108B9002010BD01200C49091DA9
:102CF000086005F015F800200A49C1F8A801084845
:102D00008038006808B10020EEE7012005F008F8DF
:102D100000200349091D08600120E5E7040C01407B
:102D2000A88121420080214210B50E48006820F49D
:102D300070600C4908600846006840F44070086004
:102D40000020094908600949C1F8A801012004F0E0
:102D5000E7FF0120044908600449C1F8A80104F014
:102D6000DFFF10BD040C0140AC81214200802142F4
:102D700010B500241548006820F4706013490860FD
:102D80000846006840F400600860012010490860AF
:102D900004F0C6FF01200F49C1F8AC0104F0C0FFE8
:102DA0000AE0601CC4B2322C03DDFFF7BDFF002037
:102DB00010BD012004F0B4FF0548803800680028E9
:102DC000EFD10349091D08600120F1E7040C01401F
:102DD000A88121420080214270B505460E46144666
:102DE00031462846FFF77CFE2070012070BDF8B503
:102DF00006460F4614461D466A4639463046FFF7DA
:102E0000EBFF2DB10120A0409DF80010084305E024
:102E10000120A0409DF8001021EA0000C0B20090FF
:102E20009DF800203946304600F036F8F8BD2DE90F
:102E3000F8430746884614461D46089E6A464146A2
:102E40003846FFF7C9FF28B3601CFF2101FA00F0E4
:102E5000C4F108012944491EFF220A41104300F031
:102E6000FF09C5F1080006FA00F0C6B2C4F1070078
:102E700006419DF8000000EA090000909DF800005E
:102E8000304300909DF800204146384600F004F899
:102E9000BDE8F8830020FBE737B504460D4602ABDA
:102EA00001222946204600F001F83EBD2DE9F041FF
:102EB00080460D4616461F460024FFF701FF404698
:102EC000FFF7CCFEFFF754FF2846FFF7C7FEFFF7DA
:102ED0004FFF00BF06E0385DFFF7C0FEFFF748FF79
:102EE000601CC4B2B442F6DBFFF71EFF0120BDE850
:102EF000F081000009480068094908600948006835
:102F0000486009480068886008480068C860084848
:102F100000680861074800684861704708010020A0
:102F2000A80600200C010020100100201401002040
:102F3000180100201C01002001464906084A926938
:102F400042F00102064B9A61064A526822F0E062A2
:102F5000044B5A601A4652680A435A607047000090
:102F600000100240000001402DE9F04FADB00446D2
:102F700089469246A3482B90A349D1E90023D1E981
:102F80000201CDE92723CDE92901CDF898A09E4B78
:102F90001033D3E90021D3E90203CDE92403CDE9BD
:102FA00022219949203103C9CDE9200196492831D0
:102FB00003C9CDE91E01944B30330FCB1AAD0FC5B9
:102FC00091484030006819908F4B4433D3E900207A
:102FD000D3E9021316AD0BC515928B49543103C9C1
:102FE000CDE913010020119012900F9010900B90DA
:102FF0000C900D900E900790089009900A90059003
:10300000069004904846FDF7EFFB0746884684F09B
:1030100000400190FDF7E8FB3A464346CDE9020146
:1030200004F0A0FB0546FDF70BFC834611A8774989
:1030300022AA0123CDE90021029002221146104666
:1030400007F0B8F80FA826A920AA0123CDE900218E
:1030500002901A461946022007F0ACF80F99119811
:10306000FDF707F96A49086010991298FDF701F910
:10307000674948600BA8674922AA0223CDE90021CD
:1030800002901A461946184607F094F807A815A9A1
:103090000BAA0223CDE9002102901A4619461846D0
:1030A00007F088F81A990798FDF7E3F85A4908607D
:1030B0001B990898FDF7DDF8574948601C99099855
:1030C000FDF7D7F8544988601D990A98FDF7D1F8A3
:1030D0005149C86005A81EAA0223CDE9002102902B
:1030E0001A461946012007F065F804A813A905AA95
:1030F0000123CDE90021029002221146184607F073
:1031000059F819990498FDF7B4F8054629464FF087
:103110007E50FDF738F9049011A813A93E4A012307
:10312000CDE90021029002221146104607F042F834
:103130003A4804A911AA0123CDE9002102901A46B8
:103140001946022007F036F804A831491EAA0123C7
:10315000CDE90021029002221146184607F02AF814
:1031600058460499FDF7D7F8049011A804A92B4AF2
:103170000123CDE9002102901A461946022007F0EA
:1031800019F8234A11991068FDF773F81F49086070
:103190001F4A12995068FDF76CF81C4948600BA84B
:1031A0001EA91E4A0223CDE90021029001221146E8
:1031B000184606F0FFFF0B992798FDF7ACF80B9027
:1031C0000C992898FDF7A7F80C900D992998FDF710
:1031D000A2F80D9027AA0E99D068FDF79CF80E90E2
:1031E0000C480D490BAA0223CDE9002102901A4692
:1031F0001946184606F0DEFF044800682DB0BDE809
:10320000F08F00000AD7A33B8CDA00084C020020A4
:10321000540200205C020020D00600206C02002036
:103220002DE9F04FADB0044689469246A3482B9055
:10323000A349D1E90023D1E90201CDE92723CDE952
:103240002901CDF898A09E4B1033D3E90021D3E992
:103250000203CDE92403CDE922219949203103C994
:10326000CDE920019649283103C9CDE91E01944BCF
:1032700030330FCB1AAD0FC591484030006819901C
:103280008F4B4433D3E90020D3E9021316AD0BC5AD
:1032900015928B49543103C9CDE9130100201190D7
:1032A00012900F9010900B900C900D900E90079034
:1032B000089009900A900590069004904846FDF702
:1032C00093FA0746884684F000400190FDF78CFA97
:1032D0003A464346CDE9020104F044FA0546FDF7BB
:1032E000AFFA834611A8774922AA0123CDE900212C
:1032F000029002221146104606F05CFF0FA826A994
:1033000020AA0123CDE9002102901A461946022085
:1033100006F050FF0F991198FCF7ABFF6A4908605F
:1033200010991298FCF7A5FF674948600BA86749F8
:1033300022AA0223CDE9002102901A461946184616
:1033400006F038FF07A815A90BAA0223CDE9002132
:1033500002901A461946184606F02CFF1A9907984B
:10336000FCF787FF5A4908601B990898FCF781FF12
:10337000574948601C990998FCF77BFF54498860BD
:103380001D990A98FCF775FF5149C86005A81EAA47
:103390000223CDE9002102901A461946012006F0C9
:1033A00009FF04A813A905AA0123CDE90021029071
:1033B00002221146184606F0FDFE19990498FCF702
:1033C00058FF054629464FF07E50FCF7DCFF04907D
:1033D00011A813A93E4A0123CDE90021029002223F
:1033E0001146104606F0E6FE3A4804A911AA012348
:1033F000CDE9002102901A461946022006F0DAFEB5
:1034000004A831491EAA0123CDE90021029002221D
:103410001146184606F0CEFE58460499FCF77BFF8D
:10342000049011A804A92B4A0123CDE900210290A0
:103430001A461946022006F0BDFE234A119910686B
:10344000FCF717FF1F4908601F4A12995068FCF7E4
:1034500010FF1C4948600BA81EA91E4A0223CDE993
:103460000021029001221146184606F0A3FE0B9996
:103470002798FCF750FF0B900C992898FCF74BFF0E
:103480000C900D992998FCF746FF0D9027AA0E99EC
:10349000D068FCF740FF0E900C480D490BAA0223A0
:1034A000CDE9002102901A461946184606F082FE20
:1034B000044800682DB0BDE8F08F00000AD7A33B98
:1034C000E8DA0008740200207C0200208402002058
:1034D000E00600209402002008B50121042001F03C
:1034E00005FA4FF48070ADF8000048208DF8030015
:1034F00069460248FEF726FF08BD000000080140AB
:1035000010B5044600F022F801280BD1601C0D49CB
:103510000988B1EB400F0ADA0A480088401C0949C3
:10352000088004E000200749088007490880054812
:103530000088022803D101200349088010BD002023
:10354000FCE70000D0000020CE00002010B54FF4B2
:1035500080710448FEF7CAFF08B9012010BD0020A1
:10356000FCE70000000801401FB50121084601F0FA
:10357000BDF90121042001F0B9F94FF48050ADF8F4
:103580000C0048208DF80F0003A91248FEF7DAFE60
:103590000C210020FEF7B6FE4FF480500190002071
:1035A0008DF808000C208DF8090001208DF80A0024
:1035B00001A8FEF77FFD28208DF8000002208DF87D
:1035C000010001208DF802008DF80300684600F02C
:1035D00085F81FBD0008014010B5022000F010F86A
:1035E000032000F021F8002000F014F8002000F083
:1035F00037F8002000F02BF8002000F01FF810BD75
:1036000038B50446032302226B21D0200094FFF733
:103610000EFC38BD38B50446022304221C21D020FC
:103620000094FFF704FC38BD38B504460223042299
:103630001B21D0200094FFF7FAFB38BD10B50446DB
:10364000234601223721D020FFF7D1FB10BD10B552
:103650000446234605226A21D020FFF7C8FB10BD8F
:1036600010B50446234606226B21D020FFF7BFFB8E
:1036700010BD00BFFEE7000010B5002401231A466C
:10368000194611A000F067F80FE0002001F0E6FAFB
:10369000204404B2012001F0E1FA4042204404B287
:1036A000204604F0F5F906F0ADFE0120FFF728FFF3
:1036B0000028EAD001F012FD01F0E2FD01F000FE69
:1036C00001F02CFD10BD0000312E5374616E646159
:1036D0007264204D6F6465007047000070B5002172
:1036E00000230F22C47804B3154C246804F4E0646A
:1036F000C4F5E064210AC1F10403CA40447804FA25
:1037000003F184781440214309010E4C0678A15539
:10371000047804F01F050124AC4005786D11AD005C
:1037200005F1E025C5F8004109E0047804F01F0523
:103730000124AC40044D0678761145F8264070BD52
:103740000CED00E000E400E080E100E010B50020B6
:1037500001F082FB10BDF8B507460C4615461E4623
:10376000002C0CDD032C0ADC601E00EB8000400600
:10377000020E2B4600213846009600F001F8F8BDF5
:103780002DE9F04107460C4615461E46DDF8188027
:103790000EB1FFF7DBFF2946204601F06DFB012249
:1037A0000549384601F0C2FBB8F1000F01D000F026
:1037B00095F9BDE8F0810000A400002010B500F0EC
:1037C00013F800F0E9F801231A46194601A0FFF7A3
:1037D000C2FF10BD6F6C656420696E6974207375DB
:1037E00063636573732100000848806940F0080036
:1037F000064988610648006820F0FF000449086017
:103800000846006840F0330008607047001002402E
:10381000040C014070B504461448006820F0F00024
:10382000124908600846006840F030000860002037
:103830000F490860002516E0E0090D49091D0860E0
:103840006006040E0120FEF76CFB01200949C1F857
:10385000A001FEF766FB0020054908600120FEF785
:1038600060FB681CC5B2082DE6DB70BD040C01408E
:10387000A08121420080214210B51648006820F046
:10388000F000144908600846006840F03000086005
:103890000120114908601148D0F8240108B900201E
:1038A00010BD01200C49091F0860FEF73AFB0020FB
:1038B0000A49C1F8A40108488038006808B100200E
:1038C000EEE70220FEF72DFB00200349091F0860E8
:1038D0000120E5E7040C0140A4812142008021423F
:1038E00010B51048006820F0F0000E490860084646
:1038F000006840F03000086000200B4908600B4968
:10390000C1F8A4010220FEF70CFB01200649086063
:10391000FEF707FB01200549C1F8A4010220FEF7CC
:1039200000FB10BD040C0140A08121420080214217
:1039300010B500241548006820F0F0001349086015
:103940000846006840F080000860012010490860C7
:10395000FEF7E7FA01200F49C1F8A001FEF7E1FAEE
:103960000AE0601CC4B2322C03DDFFF7B9FF00206F
:1039700010BD0120FEF7D5FA054880380068002800
:10398000EFD10349091F08600120F1E7040C014051
:10399000A48121420080214210B540F6C41400E009
:1039A000641E002CFCD1AE2200213C2006F0D8FD84
:1039B000A62200213C2006F0D3FDAE2200213C20AF
:1039C00006F0CEFDD52200213C2006F0C9FD802264
:1039D00000213C2006F0C4FDA82200213C2006F076
:1039E000BFFD1F2200213C2006F0BAFDD32200219A
:1039F0003C2006F0B5FD002211463C2006F0B0FD4B
:103A0000402200213C2006F0ABFD8D2200213C200D
:103A100006F0A6FD142200213C2006F0A1FD202284
:103A200000213C2006F09CFD022200213C2006F0F3
:103A300097FDA12200213C2006F092FDC822002122
:103A40003C2006F08DFDDA2200213C2006F088FDA6
:103A5000022200213C2006F083FD812200213C202F
:103A600006F07EFDCF2200213C2006F079FDD92210
:103A700000213C2006F074FDF12200213C2006F0DC
:103A80006FFDDB2200213C2006F06AFD4022002170
:103A90003C2006F065FD2E2200213C2006F060FD52
:103AA000A42200213C2006F05BFDA62200213C2040
:103AB00006F056FDAF2200213C2006F051FD00200B
:103AC00001F0CAF901F048FA002003490880488053
:103AD0000120487110BD00009C00002010B501F0CD
:103AE0003BFA10BD2DE9F04105460E4617469846B3
:103AF000FFF7C2FE10B90120BDE8F0816906080E8B
:103B0000FFF788FEFFF714FF18B9FFF7E9FE012061
:103B1000F2E73046FFF77EFEFFF70AFF00240BE0D6
:103B200018F80400FFF776FEFFF702FF18B9FFF759
:103B3000D7FE0020E0E7641CBC42F1DBFFF7D0FEBB
:103B40000020D9E710B51B480078F0B11A4800886A
:103B50004FF6FF71884204DA17480088401C164966
:103B600008801548008832280FDB1448007860B9B7
:103B700000201349086013490860012012490870A9
:103B80000E490870042000F009FA10480078104926
:103B9000097888420DD00E4800780C4908700C480E
:103BA000007818B1012000F0F9F902E0022000F0DD
:103BB000F5F910BDDA000020D8000020DB0000205D
:103BC00024000020280000202C000020DC00002021
:103BD000CA000020014608784A7840EA022000B274
:103BE000704770B504460D4684F001066E4086EAC3
:103BF0000200002103E05E5C70404E1CF1B2914275
:103C0000F9DB70BD10B5044607492046FCF73EFEBF
:103C100001D2054810BD05492046FCF72DFE01D212
:103C20000248F7E72046F5E70000F0410000F0C148
:103C30002DE9F05F06460F4615461C46082E74D245
:103C4000DFE806F0CC0411375E9BA6B634B1022241
:103C50003146384600F0DDF9BDE8F09F3146384680
:103C600000F070F9C0E0012C05D002223146384640
:103C700000F0CFF9F0E72878012805DD042231466D
:103C8000384600F0C6F9E7E7287840B901205849DE
:103C900008700020574908605749086002E000207A
:103CA0005349087000F028F93146384600F04AF9C7
:103CB0009AE0012C05D002223146384600F0A9F9DD
:103CC000CAE72878072805DB04223146384600F089
:103CD000A0F9C1E7287849490870002045490860E3
:103CE000454908600120424908704448007800F0C6
:103CF000E5F800F001F93146384600F023F973E0A9
:103D0000042C05D002223146384600F082F9A3E7A0
:103D10003A48007850B139480078012806D0052289
:103D20003146384600F075F996E757E02846FFF728
:103D300051FF8346FCF7EDFC82463149FCF723FB3B
:103D40008046A81CFFF746FF8346FCF7E2FC82464C
:103D50002B49FCF718FB81464046FFF753FF2549E6
:103D600008604846FFF74EFF2349086000F0C4F89A
:103D70003146384600F0E6F836E02CB102223146F2
:103D8000384600F046F967E7384600F053F92BE073
:103D90002CB102223146384600F03BF95CE700F0D6
:103DA000ABF800231A463946852000F001F91BE0E4
:103DB0002CB102223146384600F02BF94CE70020A6
:103DC0000C4908600C49086001200949087000F09E
:103DD00093F83146384600F0B5F805E00322314645
:103DE000384600F016F900BF00BF00BF34E70000FE
:103DF0002C00002024000020280000209D0100202D
:103E00000000204110B586B004460121112000F0C9
:103E10006DFD0121880400F049FD01212448FEF7D1
:103E20001DFB4FF48060ADF8140018208DF81700CA
:103E300003208DF8160005A91E48FEF783FA4FF4FB
:103E40000060ADF8140004208DF8170005A919488A
:103E5000FEF778FA27208DF8000001208DF8010088
:103E600002208DF8020001208DF803006846FFF75C
:103E700035FC01940020ADF80800ADF80A00ADF85B
:103E80000C00ADF810000C20ADF80E0001A90A4896
:103E900002F074FB012240F22551074802F048FB72
:103EA0000121054802F001FB00F036F806B010BD14
:103EB00010001400001001400048004010B50446F6
:103EC0000CB1012C02D103F031FD0DE0022C07D022
:103ED000032C05D0042C03D0052C01D0062C03D1D3
:103EE0004FF4E13002F0CEF910BD10B54254C2F3E8
:103EF00007244B1CC45410BD012004490870002045
:103F0000034908800349087070470000DA00002068
:103F1000D8000020DB00002000200549087005497A
:103F20000870054908700549087005490870704710
:103F3000D2000020D3000020D4000020D5000020B3
:103F4000D600002038B504460D468DF800508DF897
:103F5000014002236A462146812000F029F838BD3D
:103F600070B505460E46002404E0285D00F006F812
:103F7000601CC4B2B442F8DB70BD000010B504464A
:103F800000BF8021044802F09CFA0028F9D02146A5
:103F9000014802F064FB10BD0048004038B50446FB
:103FA000009401236A460021842000F001F838BD06
:103FB0002DE9F04186B00746884616461C46AA20E1
:103FC0008DF8000055208DF8010001208DF80200C9
:103FD0008DF803708DF804808DF80540002505E00C
:103FE000715DA81D0DF80010681CC5B2A542F7DB75
:103FF0003346224641463846FFF7F3FDA11D0DF832
:104000000100E01DC1B26846FFF7AAFF06B0BDE897
:10401000F081F8B504460E4615468DF800608DF81F
:1040200001408DF8025003236A4621468220FFF7A3
:10403000BFFFF8BD2DE9FE43044627492748006825
:10404000FCF76FF98146FCF783FB06B2224924484E
:104050000068FCF766F98146FCF77AFB07B2214954
:1040600021480068FCF75DF98146FCF78AFB85B2C0
:1040700019491E480068FCF754F98146FCF768FBB3
:104080000FFA80F81A4800788DF800001948007877
:104090008DF80100184800788DF80200324603219F
:1040A0006846FFF722FF3A4605216846FFF71DFFE5
:1040B000E8B28DF80700280A8DF808004246092169
:1040C0006846FFF712FF0B236A4621468320FFF75D
:1040D0006FFFBDE8FE8300000000204124000020A7
:1040E000280000200000C842E40000200400002056
:1040F0009D0100202C000020CA000020014600295C
:1041000002DD01F214507047002902DAA1F21450C6
:10411000F9E70846F7E703461846884200DD0846F7
:10412000904200DA10467047704700002DE9F041D8
:1041300006460F4614461D4634480088E0B920461E
:1041400006F09DF88046284606F099F8404432284B
:1041500005DA2F480088401C2D49088002E0002025
:104160002B4908802A4800880A2805DD01202749B4
:10417000088000202649088024480088012827D18B
:1041800024480088401C80B222490880C82803DDEA
:10419000002008801D4908801F493046FCF776FB47
:1041A00016D21E4801681E48FCF763F8804639465F
:1041B000FCF762FB0CD2194801681A48FCF759F861
:1041C00080463946FCF762FB02D202200F49088084
:1041D0000E480088022816D113480088401C80B27F
:1041E00011490880642803DD002008800749088001
:1041F000601906F044F8322805DD002003490880E4
:104200000120BDE8F0810020FBE70000E80000206D
:10421000EA000020EC00002000E0AB462000002077
:104220000000A0C10000A041EE0000202DE9F043F5
:104230008BB0D34840783038052818D2DFE800F03A
:104240001303070B0F000120CE49087013E0022072
:10425000CC4908700FE00320CA4908700BE0042025
:10426000C849087007E00020C649087003E0002034
:10427000C449087000BF00BFC148C078312802D1CE
:104280000520C0490870BE48C078322802D10620F7
:10429000BC490870BA48FBF7CAFF15280CD20020A9
:1042A000B94908705021B648FBF7AAFFB7A001F042
:1042B00083FF0BB0BDE8F083B1484079312807D1C6
:1042C00000F0A2F9052003F003FD00F09DF90AE0DB
:1042D000AB484079322806D100F01CFD00F094F97B
:1042E000AFA001F069FFA648C079312806D10120AE
:1042F000AD490860AAA001F05FFF09E0A048C079BD
:10430000322805D10020A8490860A5A001F054FF7B
:104310009B48407A312860D11C2104A8FBF770FF2C
:1043200000200290039000900190A0A1944800F01A
:10433000DFFF814609F1010000B9BAE79C48006837
:10434000A0EB09028E4800EB090104A8FBF73FFF30
:1043500098A104A800F0CCFF0446601C00B9A8E7AF
:10436000A21E0DF1120102A8FBF731FF02A803F013
:10437000C7FA07460022904BFCF7EAF80546FCF71F
:104380005FFA8E4908601C2104A8FBF739FF09EB8E
:104390000400874B1B681A1A794848442044411C82
:1043A00004A8FBF714FF83A104A800F0A1FF0446B2
:1043B000601C00B97DE7A21E0DF112016846FBF7F3
:1043C00006FF684603F09CFA0546FCF739FA7C497B
:1043D000086073A001F0F0FE00BF6948C07A312880
:1043E00060D11C2104A8FBF70BFF00200290039072
:1043F0000090019073A1624800F07AFF814609F1B4
:10440000010000B955E76A480068A0EB09025C4862
:1044100000EB090104A8FBF7DAFE66A104A800F08E
:1044200067FF0446601C00B943E7A21E0DF11201AC
:1044300002A8FBF7CCFE02A803F062FA07460022AE
:104440005D4BFCF785F80546FCF7FAF95E49086014
:104450001C2104A8FBF7D4FE09EB0400544B1B6895
:104460001A1A474848442044411C04A8FBF7AFFEF1
:1044700050A104A800F03CFF0446601C00B918E7F6
:10448000A21E0DF112016846FBF7A1FE684603F07B
:1044900037FA0546FCF7D4F94C49086040A001F012
:1044A0008BFE00BF3648407B312860D11C2104A818
:1044B000FBF7A6FE0020029003900090019044A11B
:1044C0002F4800F015FF814609F1010000B9F0E620
:1044D00037480068A0EB0902294800EB090104A84D
:1044E000FBF775FE33A104A800F002FF0446601C30
:1044F00000B9DEE6A21E0DF1120102A8FBF767FE6D
:1045000002A803F0FDF9074600222B4BFCF720F828
:104510000546FCF795F92F4908601C2104A8FBF714
:104520006FFE09EB0400224B1B681A1A144848441A
:104530002044411C04A8FBF74AFE27A104A800F070
:10454000D7FE0446601C00B9B3E6A21E0DF11201AD
:104550006846FBF73CFE684603F0D2F90546FCF7D7
:104560006FF91E4908600EA001F026FE00BF002072
:104570000549087050210248FBF742FE00BF98E64B
:104580001C0600205C0100204C01002024526563C1
:10459000656976655061636B4572726F72230000C6
:1045A000244F4B2300000000480100204150000030
:1045B000580100202C000000000059400801002094
:1045C0000C010020565000001001002014010020B2
:1045D0005450000018010020230000001C0100209E
:1045E00010B506480268521C05490648FBF7EFFD66
:1045F00050210348FBF704FE10BD000050010020CD
:10460000CC0500201C06002070B532216548FBF760
:10461000F7FD644864A109680160002163480068EF
:10462000FCF734F90FD8624960480068FBF7ABFE2D
:104630000646FCF7D9F8044622460B465DA15F48C2
:1046400002F0F6F803E05EA001F0B6FD70BD0021B7
:104650005F480068FCF71AF90BD85D480068FCF762
:10466000C3F8044622460B4652A15A4802F0E0F82D
:1046700003E053A001F0A0FDE8E7002156480068E0
:10468000FCF704F90FD84A4953480068FBF77BFE52
:104690000646FCF7A9F8044622460B4645A14F48BA
:1046A00002F0C6F803E046A001F086FDCEE7002147
:1046B0004B480068FCF7EAF80BD849480068FCF75B
:1046C00093F8044622460B463AA1464802F0B0F859
:1046D00003E03BA001F070FDB8E70021424800680C
:1046E000FCF7D4F80FD832493F480068FBF74BFE7F
:1046F0000646FCF779F8044622460B462DA13B48B6
:1047000002F096F803E02EA001F056FD9EE700218E
:1047100037480068FCF7BAF80BD835480068FCF752
:1047200063F8044622460B4622A1324802F080F884
:1047300003E023A001F040FD88E720491948FBF77A
:104740006AFD2DA11748FBF766FD22491548FBF7C6
:1047500062FD2AA11348FBF75EFD20491148FBF7D3
:104760005AFD27A10F48FBF756FD1E490D48FBF7E0
:1047700052FD24A10B48FBF74EFD1C490948FBF7ED
:104780004AFD21A10748FBF746FD1A490548FBF7FA
:1047900042FD0EA10348FBF73EFD024801F00CFD6F
:1047A00000BF53E75D0100202441500008010020B4
:1047B0000000C84225332E32660000006C0600203F
:1047C000244765745049444572726F72230000009B
:1047D0000C01002076060020100100208006002039
:1047E000140100208A0600201801002094060020F1
:1047F0001C0100209E0600202C4144002C56500035
:104800002C5649002C5450002C5444002DE9F04102
:1048100006460C4615461A48007810B90020BDE837
:10482000F08118480088C0B9174801681748FBF79D
:1048300020FD07463146FCF71FF80ED212480168EA
:104840001348FBF716FD07463146FCF71FF804D264
:104850001CB915B901200B4908800A4800880128B5
:104860000CD1032C01DD282C03DB032D06DD282DC4
:1048700004DA0020034908800120D0E70020CEE7B9
:104880002C000020F000002020000020000020C1AB
:104890000000204101460020034A506820F44040B7
:1048A00008435060704700000010024029B1064ADA
:1048B000D2690243044BDA6104E0034AD2698243BD
:1048C000014BDA61704700000010024029B1064A2E
:1048D00012690243044B1A6104E0034A12698243DD
:1048E000014B1A61704700000010024029B1064ACE
:1048F00092690243044B9A6104E0034A926982433D
:10490000014B9A61704700000010024029B1064A2D
:10491000D2680243044BDA6004E0034AD26882435F
:10492000014BDA60704700000010024030B50021F2
:104930000022002400232D4D6D6805F00C0121B1EB
:10494000042905D0082923D105E0294D056022E07E
:10495000274D05601FE0254D6D6805F47012234D4D
:104960006D6805F48034022505EB92421CB9214D97
:10497000554305600BE01D4D6D6805F400351DB114
:104980001C4D5543056002E0194D5543056002E09A
:10499000174D056000BF00BF144D6D6805F0F001B4
:1049A0000909154D6B5C0568DD4045600F4D6D686C
:1049B00005F4E061090A104D6B5C4568DD408560D7
:1049C0000A4D6D6805F46051C90A0B4D6B5C456872
:1049D000DD40C560054D6D6805F44041890B074D0C
:1049E0006B5CC568B5FBF3F5056130BD0010024096
:1049F00000127A0000093D0044000020540000200D
:104A00002DE9F04F8FB00CA889490DAB08AACDE96C
:104A100000108849884803F023FB8548008800F48B
:104A2000807000287ED00898FBF773FE04464FF094
:104A30009D41FBF7A8FC814908600998FBF769FED6
:104A400004464FF09D41FBF79EFC7D4908600A98A3
:104A5000FBF75FFE04464FF09D41FBF794FC79495C
:104A600008600B98FBF755FE04464FF09D41FBF79D
:104A70008AFC75490860714801684FF08040FBF777
:104A800050FC06906F4801680698FBF74AFC824686
:104A90006B4801684FF04040FBF743FC06906A48C2
:104AA00001680698FBF73DFC83465146FBF7E1FBA6
:104AB0000790FBF799FE804602F00CFC06464FF08B
:104AC0006632624BFBF744FD0446FBF7B9FE6049D2
:104AD00008605C4801684FF08040FBF722FC0390BF
:104AE000584801680398FBF71CFC8246544801684B
:104AF0004FF04040FBF715FC0390514801680398C4
:104B0000FBF70FFC83465146FBF705FC81464FF04F
:104B10007E51FBF7AEFB0446FBF766FECDE90401D0
:104B2000464800E081E001684FF08040FBF7F9FB68
:104B30008346434801685846FBF7F3FB81464148EA
:104B400001684FF08040FBF7ECFB83463E4801686C
:104B50005846FBF7E6FB82464946FBF78AFB0446CC
:104B6000FBF742FE0746DDE9042302F0FBFD4FF0B0
:104B70006632364BCDE90601FBF7EAFC0546FBF74A
:104B80005FFE34490860304801680068FBF7C9FBE4
:104B900003902C4801680068FBF7C3FB029028488B
:104BA00001680068FBF7BDFB834624480168006884
:104BB000FBF7B7FB59460190FBF75BFB8246029976
:104BC000FBF7A9FB81460399FBF7A5FB0446FBF71E
:104BD0000BFECDE904011C48016818480068FBF78A
:104BE000A0FB82461748016815480068FBF799FB4F
:104BF00083465146FBF73DFB81464FF08041FBF772
:104C000090FB0446FBF7F0FD0746DDE9042302F0C4
:104C1000A9FD4FF066320D4BCDE90601FBF798FC7C
:104C20000546FBF70DFE0C4908600FB0BDE8F08F9C
:104C300068000020620000205C0000207800002056
:104C40007C000020800000208400002066A64C40EC
:104C50006C0000207000002074000020014611B19B
:104C600001290ED106E0094A128810B20022074B32
:104C70001A8008E0064A128810B20022044B1A80FB
:104C800001E0002000BF00BF704700002404004086
:104C9000240800402DE9F05F4221D020FDF720FFDD
:104CA00005464121D020FDF71BFF05EB00242046DF
:104CB000FBF72FFD82464FF08E415046FBF7E6FD95
:104CC00005D24FF08F415046FBF725FB82460D4938
:104CD0005046FBF758FB8346FBF786FD80460A4AA1
:104CE0000A4BFBF78EFB06460022094BFBF730FC14
:104CF0000446FBF7A5FD82465046FBF729FDBDE8BB
:104D0000F09F00000000AA43A4703D0AD743424030
:104D10000000244010B52148016821480068FBF7D5
:104D2000ABFD03D01D4800681D4908601B48416861
:104D30001C480068FBF7A0FD03D0184840681949DB
:104D400008601648816818480068FBF795FD03D095
:104D500012488068144908601048C1681348006808
:104D6000FBF78AFD03D00D48C068104908600B4866
:104D700001690F480068FBF77FFD03D00748006911
:104D80000B490860054841690A480068FBF774FD53
:104D900003D0024840690749086010BDA8060020FA
:104DA000080100200C010020100100201401002047
:104DB000180100201C010020F0B503461446802B8A
:104DC00001DA202900DBF0BD2148007920B10CB9BF
:104DD000012000E000200446012C1CD1CD1701EB7E
:104DE0005575ED1003EBC5151A4E755D0A46CE17C5
:104DF00001EB5676F610A1EBC6070126BE403543FF
:104E0000EEB20846CD1701EB5575ED1003EBC51555
:104E1000104F7E551AE0CD1701EB5575ED1003EBE1
:104E2000C5150C4E755D0A46CE1701EB5676F61089
:104E3000A1EBC6070126BE40B5430846CE1701EBDD
:104E40005676F61003EBC616024FBD5500BFBAE703
:104E50009C000020E002002010B504460CB90020A0
:104E600000E0FF2002464FF400710248FBF7C1F951
:104E700010BD0000E0020020014A10805180704700
:104E80009C0000202DE9F04307460C46904626483A
:104E9000008821780844802805DA23484088617812
:104EA0000844202802DB0020BDE8F083002530E024
:104EB000A7F12000617800FB0150616831F8109083
:104EC000002622E009FA06F000F4004058B1164A24
:104ED00052882A4491B2144A1288324490B242460F
:104EE000FFF76AFF10E0B8F1000F01D1012300E0E5
:104EF00000231A460C4B5B882B4499B20A4B1B8843
:104F0000334498B2FFF758FF761C2078B042D9D8C6
:104F10006D1C6078A842CBD80348008821780844EB
:104F2000014908803846BFE79C00002070B5044660
:104F30000D4616460AE0207832462946FFF7A2FFC2
:104F40002178884201D0207870BD641C2078002828
:104F5000F1D12078F8E7000010B500241BE004F13F
:104F6000B000C2B200213C2005F0FAFA002211463E
:104F70003C2005F0F5FA102200213C2005F0F0FA63
:104F80000648802101FB04020B4640213C2005F02D
:104F9000F1FA601CC4B2082CE1DB10BDE002002075
:104FA0007047000010B50C480068401E0A490860B0
:104FB0000A480068012807D10846006820B9FCF7B4
:104FC0000BFB074801F0F8F80348006810B901200E
:104FD0000149086010BD0000980100204801002030
:104FE0004005002010B500F001F810BD0CB5002000
:104FF000019000903348006840F4803031490860E7
:1050000000BF3048006800F4003000900198401C58
:105010000190009818B90198B0F5A06FF1D1294816
:10502000006800F4003010B10120009001E0002081
:1050300000900098012843D12348006840F01000F8
:10504000214908600846006820F00300086008460F
:10505000006840F0020008601A484068194948603A
:105060000846406848600846406840F480604860F0
:105070000846406820F47C1048600846406840F4C8
:10508000E81048600846006840F08070086000BF83
:105090000C48006800F000700028F9D0094840680A
:1050A00020F00300074948600846406840F00200CD
:1050B000486000BF0348406800F00C000828F9D1A0
:1050C0000CBD0000001002400020024001480249CF
:1050D0000860704700007041240000200C480078F0
:1050E000072812D2DFE800F00405090A0B0C0D00B6
:1050F00000BF00200749086007E000BF00BF00BFF5
:1051000000BF05480349086000BF00BF70470000AA
:105110009D01002020000020000080BF234800786F
:10512000012803D021480078042812D120482149C1
:105130000860214821490860214822490860224826
:10514000224908602248234908602348234908600F
:105150002BE016480078032812D121481549086031
:105160002048164908602048164908601F4817491A
:1051700008601F481749086017481849086014E07C
:105180000A48007888B90A480A49086019480B4952
:10519000086019480B49086018480C49086018480D
:1051A0000C4908600C480D49086070479D010020BB
:1051B0000000164608010020000096420C01002065
:1051C00000C0DA451001002000000C42140100204C
:1051D0000000AF44180100200000A0411C01002085
:1051E00000803B46000090420000FA45000020424B
:1051F00000401C450000404200C0C1450000F8418D
:105200000080D44470B505460C4625B900201B49E2
:105210000880091D08802CB9002018490831088031
:10522000091D0880002D09DD284605F028F81349DE
:10523000091D08800020091F088008E000200F4990
:10524000091D0880284605F01AF80C490880002C32
:1052500009DD204605F013F80849083108800020D0
:10526000091D088009E00020044908310880204613
:1052700005F005F801490C31088070BD3434014057
:105280000D48007802280FD00B48007803280BD077
:1052900009480078042807D007480078052803D07B
:1052A00005480078062803D11E200449087002E052
:1052B00028200249087070479D0100209C010020B1
:1052C0000648007818B105480078012805D104483F
:1052D0000449086004480549086070479D010020A2
:1052E0000000F041200100200000104224010020B5
:1052F00030B503460C4600211AE0585C2578A842D8
:1053000000D014E0002206E0521CA05C8D185D5D08
:10531000A84200D005E0A05C18B18818185C0028ED
:10532000F2D100BFA05C08B9084630BD00BF491CDF
:10533000585C0028E1D1401EF7E7042808D14FF05F
:10534000E021096941F004014FF0E022116107E01A
:105350004FF0E021096921F004014FF0E0221161D2
:105360007047704710B51348006840F001001149BC
:10537000086008464068104908400E4948600846E1
:1053800000680E4908400B4908600846006820F490
:10539000802008600846406820F4FE0048604FF412
:1053A0001F008860FFF71EFE4FF000600449086090
:1053B00010BD0000001002400000FFF8FFFFF6FEE5
:1053C00008ED00E0F0B50C46154600220021068CE1
:1053D0004FF6FE773E400684028B018C4FF60C762A
:1053E00032407E1C06EA03162E433243104EB04272
:1053F0000ED0104EB0420BD0B0F1804F08D00E4E00
:10540000B04205D00D4EB04202D00D4EB04206D192
:105410004FF6FD76314044F00106314305E04FF68A
:10542000F576314044F00106314302830184F0BD3A
:10543000002C0140003401400004004000080040FE
:10544000000C0040F0B50C46154600220021002655
:10545000078C4FF6EF7C07EA0C070784028B018C60
:105460004FF6FF7707EA041640F6FF473A404FF63B
:10547000FF7707EA03373A434FF6FF7707EA052736
:105480003A43114FB8420ED0104FB8420BD0B0F192
:10549000804F08D00E4FB84205D00E4FB84202D010
:1054A0000D4FB84206D14FF6DF77394046F010076E
:1054B000394305E04FF65F77394044F01007394330
:1054C00002830184F0BD0000002C01400034014043
:1054D0000004004000080040000C0040F0B50C46FD
:1054E0001546002200210026078C4FF6FF6C07EAC4
:1054F0000C070784828B018C4FF6FF7707EA04269E
:105500004FF60C773A404FF6FF7707EA03172F4321
:105510003A43114FB8420ED0104FB8420BD0B0F101
:10552000804F08D00E4FB84205D00E4FB84202D07F
:105530000D4FB84206D14FF6FF57394046F48077F9
:10554000394305E04FF2FF57394044F4807739433F
:1055500082830184F0BD0000002C01400034014032
:105560000004004000080040000C0040F0B50C466C
:105570001546002200210026078C4EF6FF7C07EA24
:105580000C070784828B018C4FF6FF7707EA0436FD
:1055900040F6FF473A404FF6FF7707EA05273A43C0
:1055A0004FF6FF7707EA03373A43114FB8420ED060
:1055B000104FB8420BD0B0F1804F08D00E4FB84218
:1055C00005D00E4FB84202D00D4FB84206D14DF66D
:1055D000FF77394046F48057394305E047F6FF57D7
:1055E000394044F48057394382830184F0BD000080
:1055F000002C01400034014000040040000800403D
:10560000000C0040044800880348008820F0010096
:1056100001490880704700001004004004480088D9
:105620000348008820F0010001490880704700000D
:105630001008004010B50121294800F0D8F90028D1
:105640004CD00121264800F09EF826480088401CD6
:105650002449088024480078401C234908702348C6
:105660000088002804DD21480088401E1F4908806A
:10567000FEF768FA1E48007818B11D480078012826
:1056800002D101201B49087017480078022823DD49
:10569000002015490870FDF721F9044616480168F5
:1056A0002046FAF7E6FD1449086014480078401CCB
:1056B000124908700846007832280DD110490E486A
:1056C0000068FAF760FE0F49086000200A49086088
:1056D0000A49087004F0DCFD02F012FA10BD000067
:1056E00000100040C8000020C1000020C2000020BF
:1056F0009D010020CB000020BC000020C000002045
:1057000000004842E40000201FB501211020FFF7EF
:10571000CDF841F61F40ADF804006320ADF8080055
:1057200001A9104800F066FB01210E4800F028F89E
:10573000012211460B4800F0CAF936208DF800000E
:1057400004208DF8010002208DF8020001208DF860
:1057500003006846FDF7C2FF0121024800F016F879
:105760001FBD00000010004021B1028842F08002FD
:10577000028004E002884FF67F731A40028070476F
:10578000CA4302827047CA430282704721B102882D
:1057900042F00102028004E002884FF6FE731A40D4
:1057A0000280704731B1B0F8442042F40042A0F8C2
:1057B000442005E0B0F84420C2F30E02A0F84420D3
:1057C0007047000010B504466848844208D10121A2
:1057D000C014FFF79BF80021E014FFF797F8C4E02E
:1057E000B4F1804F08D101210846FFF76FF800217E
:1057F0000120FFF76BF8B8E05D48844208D1012131
:105800000220FFF763F800210220FFF75FF8ACE009
:105810005848844208D101210420FFF757F800219D
:105820000420FFF753F8A0E05348844208D1012137
:105830000820FFF74BF800210820FFF747F894E015
:105840004E48844208D101211020FFF73FF8002183
:105850001020FFF73BF888E04948844208D1012135
:105860002020FFF733F800212020FFF72FF87CE0FD
:105870004448844208D101214014FFF747F8002131
:105880006014FFF743F870E03F48844209D10121DA
:10589000C804FFF73BF800214FF40020FFF736F86B
:1058A00063E03A48844209D101210805FFF72EF848
:1058B00000214FF48010FFF729F856E03448844265
:1058C00009D101214805FFF721F800214FF400100C
:1058D000FFF71CF849E02F48844208D101214020FD
:1058E000FEF7F4FF00214020FEF7F0FF3DE02A48DC
:1058F000844208D101218020FEF7E8FF00218020AA
:10590000FEF7E4FF31E02548844208D101218015EB
:10591000FEF7DCFF0021A015FEF7D8FF25E02048A8
:10592000844209D101210804FEF7F0FF00214FF461
:105930008030FEF7EBFF18E01A48844209D10121BC
:105940004804FEF7E3FF00214FF40030FEF7DEFFCE
:105950000BE01548844208D101218804FEF7D6FFE8
:1059600000214FF48020FEF7D1FF10BD002C014034
:105970000004004000080040000C004000100040FF
:105980000014004000340140004C01400050014030
:105990000054014000180040001C0040002000405E
:1059A000004001400044014000480140F0B50C4671
:1059B00015461E460021002200230189028B038C1C
:1059C0004FF6F877394021434FF6FC473A4040F212
:1059D00001173A434FF6DD773B404FF6FF7707EA72
:1059E00006172F433B43018102830384F0BD30B58A
:1059F0000246002000230024158A05EA0103958948
:105A000005EA010413B10CB1012000E0002030BD13
:105A100070B505460C46244885420ED02348854281
:105A20000BD0B5F1804F08D02148854205D02148E0
:105A3000854202D02048854200D100E000BF208886
:105A400050B92389A28861882846FFF7BBFCE1880A
:105A5000284600F0A2F925E0208804280AD12389ED
:105A6000A28861882846FFF7EDFCE188284600F00F
:105A70009DF917E0208808280AD12389A288618827
:105A80002846FFF72BFDE188284600F09CF909E045
:105A90002389A28861882846FFF768FDE1882846A7
:105AA00000F09AF970BD0000002C01400034014064
:105AB0000004004000080040000C0040002101806C
:105AC0004180012181800021C180018170471AB18C
:105AD00083890B43838102E083898B4383817047F1
