:020000040800F2
:10000000000B00204901000845360008492A000875
:10001000DF350008D5150008CF5E0008000000009D
:10002000000000000000000000000000554900082A
:10003000211F000800000000DD3A0008174D0008ED
:100040006301000863010008630100086301000800
:1000500063010008630100086301000863010008F0
:1000600063010008630100086301000863010008E0
:1000700063010008630100086301000863010008D0
:1000800063010008630100086301000863010008C0
:1000900063010008630100086301000863010008B0
:1000A00063010008630100086301000863010008A0
:1000B00063010008B94F0008D14F00086301000830
:1000C0006301000863010008630100086301000880
:1000D00063010008815B0008C55B0008630100083C
:1000E000491F00086301000863010008630100085C
:1000F0006301000863010008630100086301000850
:10010000630100086301000863010008630100083F
:1001100063010008455B0008E94F0008630100081F
:10012000630100086301000863010008630100081F
:10013000DFF810D000F056FD00480047798900082C
:10014000AFF30080000B00200648804706480047B8
:10015000FEE7FEE7FEE7FEE7FEE7FEE7FEE7FEE777
:10016000FEE7FEE7194D0008310100082DE9F041D6
:100170000024061B254671F1000605DA012400273C
:10018000D0EB070067EB0101161E73F1000605DADC
:100190000027D2EB0702012567EB030300F096FB73
:1001A00086460E4617469C46AC4204D00025D0EB4E
:1001B000050E65EB010624B10020D2EB000760EBD1
:1001C000030C704631463A466346BDE8F08140EA8A
:1001D00001039B0703D009E008C9121F08C0042AC5
:1001E000FAD203E011F8013B00F8013B521EF9D2AC
:1001F0007047D2B201E000F8012B491EFBD27047D4
:100200000022F6E710B513460A4604461946FFF7E2
:10021000F0FF204610BD421E12F8013F002BFBD11B
:1002200011F8013B02F8013B002BF9D17047421C49
:1002300010F8011B0029FBD1801A704710B500226D
:1002400000E0521C835C8C5CA34201D1002BF8D1EE
:10025000D8B2E1B2401A10BD30B5044600200346C2
:1002600000E05B1C934203D2E05CCD5C401BF8D005
:1002700030BDF0B480EA0102D40F4200B2EB410F6E
:1002800002D20246084611464A0042D0C30DDDB2F2
:10029000C1F3C752AD1A202D35DAC1F3160141F46E
:1002A000000204B15242C5F1200602FA06F12A41C9
:1002B0001044B3EBD05F23D0C4B1012DA0EBC350E9
:1002C00009DCF0BC4FF0004202EAC352DBB200F599
:1002D000000000F0B4BB400000F1807000EBC350A0
:1002E000A0F1807040EAD170490009E0490841EA74
:1002F000C071A0EBC35000F50000400800EBC350F4
:10030000F0BC00F093BB6142012202EB4101001BF3
:10031000F6E7F0BC704781F00041AAE780F00040AA
:10032000A7E780EA010210B502F00043400022D0A6
:100330004A001FD0010E01EB1261C0F35600C2F358
:10034000560240F4000042F40002A0FB0220000428
:100350007F39140400D0401C50EA124001D4400000
:10036000491EC2B20C0604EBD010401C4008802A83
:1003700002D003E0002010BD20F00100002900DAC7
:100380000020184310BD30B480EA010202F000459D
:1003900030F0004221F0004013D090B1C30DD40DD5
:1003A000C2F31601C0F31600E41A41F4000140F450
:1003B00000027D34914201D3641C00E04900002C0E
:1003C00002DA30BC002070474FF400000023914255
:1003D00001D3891A034340084FEA4101F7D151B1D3
:1003E000914202D14FF0004105E002D24FF00101ED
:1003F00001E06FF0010103EBC450284430BC00F071
:1004000015BB2DE9FE4F804681EA0300C00F0C4664
:10041000009021F0004123F00045B8EB0200A94113
:1004200005D24046214690461C460B46024623F024
:100430000040104347D0270DC7F30A00C3F30A5109
:100440000290401A019040286BDAC3F3130040F485
:10045000801B0098924620B10023D2EB030A63EB85
:100460000B0B01985946C0F14002504600F05FFA6C
:1004700006460D4650465946019A00F077FA10EBB1
:1004800008006141002487EA115284EAE7731A43A5
:1004900040D0009A62B3019A012A4FEA075215DC54
:1004A000001B61EB02014FF0004202EA0752CDE966
:1004B0000042001C41F5801132462B4600F0FCFA48
:1004C00003B0BDE8F08F40462146F9E7001B61EB21
:1004D0000201001C41F5801300185B412018A2F5B1
:1004E000001747EB030140EAD570B6196D4111E0E2
:1004F0006D084FEA360645EAC0754FEA0752001B01
:1005000061EB0201001C41F5801149084FEA3000FF
:100510000019514132462B4603B0BDE8F04F00F0C0
:10052000BCBA0098012240000023D0EB020263EB2A
:10053000E073009821464FEAE074B8EB000061EBED
:100540000401E9E783F000435BE781F0004158E7ED
:100550002DE9FE4F81EA030404F0004421F000413C
:1005600000944FF0000B23F0004350EA01045ED0EA
:1005700052EA03045BD0C3F30A54C1F30A552C4476
:10058000A4F2F3340194A0FB0254C1F3130141F42B
:100590008011C3F3130343F4801301FB024400FBF7
:1005A000034E840A970A44EA815447EA8357A4FB1E
:1005B000076802958D0A05FB07854FEA932C04FB1B
:1005C0000C542705029D4FEA065847EA1637B5EB4B
:1005D00008056EEB070C870E920E47EA811742EA78
:1005E0008312A7FB0201B6EB0B0164EB00042B0D99
:1005F00043EA0C335E1844EB1C50DA465146E7FBE5
:100600000201C5F313044FEA0B3343EA14534FEAD4
:100610000432019C43EA0603A4F10C040294009CFA
:10062000CDE900B400F048FA03B0BDE8F08F002037
:100630000146F9E72DE9F04D81EA030404F0004B8F
:1006400021F0004514464FF0000A23F0004150EA23
:10065000050220D054EA01021DD0C5F30A57024614
:10066000C5F31303C1F31300C1F30A5640F4801518
:1006700043F48013A7EB0608101BD64608F2FD389A
:1006800073EB050002D308F1010801E092185B4109
:10069000B8F1000F03DA00200146BDE8F08D00201C
:1006A0004FF48011064684460EE0171B73EB0507D6
:1006B00005D3121B63EB050306434CEA010C490802
:1006C0004FEA300092185B4150EA0107EDD152EA3F
:1006D000030012D082EA040083EA0501084305D032
:1006E000101BAB4106D20122002306E000224FF08E
:1006F000004302E06FF0010253101AEB06004CEBCE
:10070000085110EB0A0041EB0B01BDE8F04D00F081
:10071000C4B9C10F80EAE0700844CA0796230021DB
:1007200000F08DB996230022114600F088B90EB56D
:10073000C10F80EAE0700844CA07002140F2334349
:100740008DE80E000A460B4600F0B6F903B000BD76
:1007500000F0004220F00040C10DC0F3160040F44C
:1007600000007F2901DA00207047962903DCC1F1DF
:100770009601C84001E096398840002AF4D04042F2
:10078000704720F00040C10DC0F3160040F4000097
:100790007F2901DA00207047962903DCC1F1960118
:1007A000C840704796398840704770B5C1F30A5207
:1007B00001F000450024C1F3130140F2FF3341F47E
:1007C00080119A4201DA002070BD40F233439A4210
:1007D000A2F2334203DC524200F0B8F800E090404D
:1007E0002C43F1D0404270BD00F0004230F0004098
:1007F0000AD0C10D01F56071C0F3160042EA015143
:10080000C2084007114370470020014670470000AE
:1008100030B5041E71F1000404DB4FF00044404287
:1008200064EB0101141E73F1000405DB1C464FF05C
:100830000043524263EB04038B4208BF824230BD47
:1008400001F0004330B421F0004150EA010206D02B
:100850000A0DA2F56072C1F31301002A02DC30BC5C
:1008600000207047440F44EAC104C100E01830BCC6
:1008700000EBC25000F0DAB8002801DBC0F1004004
:10088000002901DBC1F1004181427047002801DBF2
:10089000C0F10040002901DBC1F1004188427047EE
:1008A00030B50B46014600202022012409E021FA40
:1008B00002F59D4205D303FA02F5491B04FA02F53D
:1008C0002844151EA2F10102F1DC30BD2DE9F05FD4
:1008D0000546002092469B468846064681464024AF
:1008E0001BE0284641464746224600F02FF8534673
:1008F0005A46C01A914110D311461846224600F0BC
:1009000016F82D1A67EB01084F46224601200021F8
:1009100000F00DF817EB00094E41201EA4F1010470
:10092000DFDC484631462A464346BDE8F09F202A90
:1009300004DB203A00FA02F1002070479140C2F136
:10094000200320FA03F3194390407047202A04DB68
:10095000203A21FA02F00021704721FA02F3D04038
:10096000C2F120029140084319467047202A06DB55
:10097000CB17203A41FA02F043EAE07306E041FA6D
:1009800002F3D040C2F1200291400843194670475B
:100990000FB4002300B589B00CA900910B996FF03A
:1009A0000042CB601E4B06931E4B07930423CDE9F8
:1009B00001321D4A089202466B46002000F0BEF943
:1009C00009B05DF814FB70B586B006464FF0FF30F5
:1009D0000091CDE90101002015460C4604903246F5
:1009E000694604A8FFF7D4FF02460498211825B1F0
:1009F00008B1084600E020462860049800280DD081
:100A0000002A02DD0098884208D0081B0094CDE936
:100A100001043246694604A8FFF7BAFF06B070BD6C
:100A2000750F0008930F0008090C00080029A8BFE3
:100A30007047401C490008BF20F00100704710B407
:100A4000B0FA80FC00FA0CF050EA010404BF10BCBC
:100A5000704749B1CCF1200421FA04F411FA0CF1E9
:100A600018BF012121430843A3EB0C01CB1D4FEA22
:100A700000614FEA102042BF002010BC704700EB1D
:100A8000C35010440029A4BF10BC7047401C49004B
:100A900008BF20F0010010BC704710B5141E73F1A0
:100AA000000408DA401C41F1000192185B411A432E
:100AB00001D120F0010010BD2DE9F04D92469B467A
:100AC00011B1B1FA81F202E0B0FA80F22032904620
:100AD000FFF72DFF04460F4640EA0A0041EA0B01EA
:100AE00053465A46084313D0114653EA010019D021
:100AF000C8F140025046FFF729FF05460E46504612
:100B000059464246FFF713FF084305D0012004E091
:100B100020463946BDE8F08D0020054346EAE076E0
:100B20002C4337430A986305E40AA0EB080000222F
:100B3000FD0A44EA47540A3002D500200146E9E79D
:100B4000010510196941DDE9084500196941BDE851
:100B5000F04DA2E770B521F0004303430CD0C1F380
:100B60000A550024D5EB040564EB0403D617AD1A2F
:100B7000B34102DB0020014670BD201841EB025159
:100B800070BDC1F30A52C1F3130140F2FF3341F4C7
:100B900080119A4202DA00200146704740F2334346
:100BA0009A42A2F2334202DC5242FFF7CFBEFFF775
:100BB000BEBE000030B5041E71F1000404DB4FF02E
:100BC0000044404264EB0101141E73F1000405DB94
:100BD0001C464FF00043524263EB0403994208BFA6
:100BE000904230BD064C074D06E0E06840F001033E
:100BF00094E8070098471034AC42F6D3FFF79CFA0C
:100C000028D5000848D50008C0B24FF4F05100F0D4
:100C100023BA00002DE9FF4F087883B09946FF28DA
:100C200005D0491C2D2804D00024002008E0002015
:100C30000BE00124F9E700EB800003EB4000491CC6
:100C40000B78FF2BF7D104B14042002302931478B4
:100C500019461D462D2C01D02B2C04D1521C2D2CB5
:100C600013D000240294AA461478FF2C0FD00A2532
:100C7000A3FB057801FB05814FF0000C03FB0C1171
:100C8000521CE3194AEB0101EEE70124EAE7814433
:100C900053EA010002D019F5C87F06DA0398002153
:100CA000C0E9001107B0BDE8F08F0025AE4E2F4619
:100CB000DFF8B882184600F0E3F9CDE90001B9F198
:100CC000000002DAC9F1000400E004460023A74A4C
:100CD0001AEB030B42EB045A12E0E00707D02A4656
:100CE000334638464146FFF733FC074688462A46D6
:100CF000334610461946FFF72BFC05460E46641096
:100D0000002CEAD1DDE90001B9F1000F5A46534643
:100D100006DAFFF78FFC3A464346FFF78BFC05E007
:100D2000FFF716FC3A464346FFF712FC029A0AB157
:100D300081F00041039AC2E90001B3E72DE9FF4FBA
:100D40001F468DB0D7E901464FF0FF382E204546AB
:100D50004FF000090B90B9696D1C0E988847396AED
:100D6000824688470028F6D1BAF1FF3F0AD024F422
:100D7000D064002E11DDBAF12B0F08D0BAF12D0F7F
:100D80000BD102E0404611B08DE744F48064B969AC
:100D90006D1C0E9888478246761E6946600501D50F
:100DA0002D2000E02B208DF8000001F1010B0DF14A
:100DB000200809E0B9696D1C0E98884782460F9893
:100DC00044F40074761E0560002E02DDBAF1300F87
:100DD000F0D00B998A453ED144F0800406E00F998B
:100DE000681CA9F1010944F400740860B9696D1C1C
:100DF000761E0E98884782463028F0D02BE00B995B
:100E00008A4505D1200603D444F08004761E18E0FC
:100E1000504605F0AFFA08B30DF11301761E44F405
:100E200000748B4508D2AAF130000BF8010B2006A4
:100E300007D5A9F1010003E0200602D409F1010061
:100E40008146A00502D50F99681C0860B9696D1C20
:100E50000E9888478246002ED1DC53E0002E51DDEB
:100E6000BAF1650F02D0BAF1450F4BD1A00549D5B3
:100E7000B9696D1C24F44074761E0E98884782462A
:100E8000002E0CDD2B2804D0BAF12D0F07D144F42D
:100E90008074B9696D1C0E9888478246761EE005FD
:100EA00001D52D2100E02B2108F8011BCDF82C8065
:100EB00021E00DF12901761E44F4007488450CD21E
:100EC000AAF1300010F0FF0088F8000002D10B9961
:100ED000884509D908F1010806E0E00501D5244854
:100EE00001E042F20F708146B9696D1C0E98884787
:100EF00082460F980560002E04DD504605F03AFA50
:100F00000028D6D1F9690E988847FF208BF8000099
:100F100088F800000020069007904B466A4608A912
:100F200006A8FFF777FEA00502D46FF001002AE7BC
:100F300014F0240F0AD0E00714D1DDE90612386856
:100F4000031D3B600068C0E900120BE0DDE906010B
:100F5000FFF776FC0146E00704D13868021D3A60CD
:100F60000068016028460EE7000014400000F03FD2
:100F7000F1D8FFFF426842B1016811F8013B23B18B
:100F8000521EC0E90012184670470121C160881E38
:100F9000704742685AB1C368016843B983688B429D
:100FA00005D0491E521CC0E90012002070474FF0C6
:100FB000FF3070472DE9F04D00231A461B1A8A4175
:100FC00003DB00200146BDE8F08DC1F30A52C1F3F6
:100FD000130141F480154FF0000BD10702D1001826
:100FE0006D41521E0027044640F2FF11384601EBC6
:100FF000620A3E468046024600204FF48011FFF709
:10100000A5FCC2197141BB1846EB0100B4EB030CFF
:1010100075EB000C04D3E41A65EB000517460E4689
:10102000241908F101006D4180463428E3DDF919E7
:1010300046EB0600091BA84103D24FF0FF321346CE
:1010400001E0002213461BEB070046EB0A51BDE806
:10105000F04DFFF722BD00007F2801D9002208E0F3
:10106000064A02EB5002C007127800D1120902F0C2
:101070000F020120904008407047000098D40008FB
:101080000EB540F2334202920022CDE9002213460F
:10109000FFF712FD03B000BD70B58C1810F8015BAE
:1010A00015F0070301D110F8013B2A1106D110F801
:1010B000012B03E010F8016B01F8016B5B1EF9D105
:1010C0002B0705D40023521E0DD401F8013BFAE78B
:1010D00010F8013BCB1A921C03E013F8015B01F8F6
:1010E000015B521EF9D5A142D8D3002070BD21B1B9
:1010F000826842F00102826003E0826822F001020D
:101100008260704710B504461248844208D101211C
:10111000401503F0D5F80021601503F0D1F817E071
:101120000D48844208D10121001503F0C9F80021BF
:10113000201503F0C5F80BE00848844208D10121CE
:10114000C80303F0BDF800214FF4004003F0B8F8E5
:1011500010BD00000024014000280140003C014077
:10116000014600208A6802F004020AB1012000E072
:10117000002070470146C86C80B2704702460020CC
:1011800013680B400BB1012000E0002070470146BE
:1011900000208A6802F008020AB1012000E0002065
:1011A0007047000030B502460020002350680F4C05
:1011B00020400D790C6844EA052420435060906873
:1011C0000B4C2040D1E902542C434D7944EA4504AC
:1011D00020439060D06A20F470000C7C641EE4B25E
:1011E000234340EA0350D06230BD0000FFFEF0FF11
:1011F000FDF7F1FFF0B504460D4600200021092D52
:1012000011DDE068A5F10A0606EB4607072606FA97
:1012100007F18843A5F10A0606EB460603FA06F134
:101220000843E0600CE0206905EB4507072606FA55
:1012300007F1884305EB450603FA06F108432061F0
:10124000072A0FDA606B561E06EB86071F2606FA82
:1012500007F18843561E06EB860605FA06F1084399
:10126000606322E00D2A0FDA206BD61F06EB86079B
:101270001F2606FA07F18843D61F06EB860605FAF5
:1012800006F10843206310E0E06AA2F10D0606EBC8
:1012900086071F2606FA07F18843A2F10D0606EB22
:1012A000860605FA06F10843E062F0BD816841F068
:1012B00008018160704721B1826842F4A002826017
:1012C00003E0826822F4A00282607047816841F0E6
:1012D000040181607047000010B527480088C0F104
:1012E000A00000B2254908802348008943F2C821A4
:1012F000884202DD0846204908811F48008941F6DE
:101300006411081A00B21E4908801B48008928B9D8
:1013100000201C4908601C49086010BD1848B0F93D
:10132000000040F2DC51884205DC1548B0F90000AD
:1013300010F57A6F04DA00F0A3FF1249086002E0AA
:1013400000201049086004F07BFB0F4908600F493A
:101350000C480068FFF79AFA03D20C480949086064
:1013600008E00B4907480068FFF786FA02D20848F0
:101370000449086000BFD0E796020020A0020020C8
:10138000A402002024000020280000200000F041DA
:101390000000F0C108B50121102002F081FF4FF4D8
:1013A0007070ADF8000018208DF8030003208DF850
:1013B00002006946014800F0C5FF08BD0010014069
:1013C00030B587B005460C460121480302F068FF9E
:1013D000254803F0CFFE681E80B2ADF81400ADF8CA
:1013E00010400020ADF81600ADF8120004A91E4808
:1013F00004F0D8F96020ADF800000120ADF802003B
:101400000020ADF80600ADF808006946164804F063
:101410003FF86946144804F091F86946124804F010
:10142000EDF86946104804F043F901210E4803F035
:1014300091FE08210C4804F077F808210A4804F0CE
:10144000CFF80821084804F029F90821064804F0DB
:101450006DF90121044803F05FFE0121024803F009
:101460006DFE07B030BD0000003401402DE9FC5F87
:1014700004460D461E4801682046FEF74FFF0190C6
:1014800029460020FEF747FF00901A48016800989F
:10149000FEF747FF82461849FEF775FF804617485A
:1014A000006880F0004B14495846FEF76CFF8246F6
:1014B0000199FEF736FF81464146FEF72CFF0746AD
:1014C000FFF746F906460E48007801280CD1304651
:1014D000FFF71FF980460B4801684046FEF721FFE1
:1014E0000746FFF735F906463046BDE8FC9F000089
:1014F00020000020000100200000C842FC00002065
:1015000091010020F000002070B504464FF47A7578
:101510000723012221460B48FFF76CFE01210948F1
:10152000FFF7C9FE00BF02210648FFF727FE20B9DA
:10153000281EA5F101018DB2F5D10248FFF71AFE70
:1015400070BD00000024014000B587B001214FF4B8
:10155000017002F0A5FE4FF4004002F075FE20205D
:10156000ADF8040000208DF8070001A9174800F02D
:10157000E9FE1748FFF7C6FD002002908DF80C0029
:101580008DF80D004FF4602004900020059001209C
:101590008DF8180002A90E48FFF704FE01210C483F
:1015A000FFF7A5FD0A48FFF781FE00BF0848FFF7D7
:1015B000EEFD0028FAD10648FFF788FE00BF044878
:1015C000FFF7CEFD0028FAD107B000BD00080140AA
:1015D0000024014000BFFEE72DE9F04F91B000204C
:1015E00010902F480068012856D12E48D0F800A04E
:1015F0002D48D0F800B02D492D480068FEF7C3FEF5
:101600002C4908602C4800682C49086050212C485F
:10161000FEF7F6FD2A482BA1096801602A480068F8
:10162000FFF7E2F804460D461098FFF7DDF806468E
:101630000F4622480068FFF7D7F8804689461D48C4
:101640000068FFF7D1F8CDE90E015846FFF7CCF856
:10165000CDE90C015046FFF7C7F8CDE90489CDE983
:101660000667CDE90845CDE90A01DDE90E01CDE9BE
:101670000201DDE90C01CDE9000114A11048DDE90A
:101680000A2304F009FD50211D48FEF7B9FD502240
:101690000B491B48FEF79BFD11B0BDE8F08F000021
:1016A0003C010020E8000020EC0000200000C842BF
:1016B0001C00002084010020080000208801002078
:1016C000D4040020244C5600D8000020244C562579
:1016D000332E32662C525625332E32662C4143254A
:1016E000332E32662C475925332E32662C43534213
:1016F00025332E32662C565425332E3266230000B5
:101700002405002010B54248007801287ED1002031
:101710003F4908703F4940A0FEF790FD98B901206D
:101720003F490860142005F021FF00203D49C1F821
:10173000AC013D483D490860022008F0C5F9002091
:101740003A49086062E0334939A0FEF777FD98B95D
:10175000012033490860142005F008FF00203149BA
:10176000C1F8AC01344831490860022008F0ACF9F6
:1017700000202E49086049E0264930A0FEF75EFDB2
:1017800098B9012026490860142005F0EFFE0020DA
:101790002449C1F8AC012C482C490860012008F00C
:1017A00093F900202949086030E01A4928A0FEF783
:1017B00045FD98B901201A490860142005F0D6FEAD
:1017C00000201849C1F8AC012448204908600120D4
:1017D00008F07AF900201D49086017E00D4920A0A3
:1017E000FEF72CFD90B900240EE001200C490860A2
:1017F000142005F0BBFE00200A49C1F8AC011420FA
:1018000005F0B4FE601CC4B2032CEEDB10BD00007A
:1018100092020020D4060020676F6261636B0000B3
:10182000AC01214200002142000070C124000020D0
:10183000676F616865616400000070417475726E65
:101840006C656674000000000000C8C3280000201A
:101850007475726E72696768740000000000C84396
:1018600062757A7A6572000010B526480078012802
:1018700046D1002023490870234924A0FEF7DEFC4E
:1018800078B901230022032121A001F01AFF0120D1
:101890002249086008F018F900202149C1F8AC017C
:1018A0002EE019491FA0FEF7C9FC90B901230022C0
:1018B00003211DA001F005FF1E481F4908600120FB
:1018C00008F002F9012008F0FFF800201A4908602A
:1018D00016E00D4919A0FEF7B1FC88B901230022DA
:1018E000032117A001F0EDFE1848134908600120FC
:1018F00008F0EAF8012008F0E7F800200E49086037
:1019000010BD000092020020D40600203600000026
:101910006E756D3A3621202000000000AC01214296
:1019200000002142320000006E756D3A3221202005
:10193000000000000000C8C32800002033000000A1
:101940006E756D3A33212020000000000000C8436E
:1019500010B523480078012840D1002020490870A4
:10196000204921A0FEF76AFC48B9204820490860B8
:10197000022008F0A9F800201D4908602EE019494E
:101980001CA0FEF75BFC90B91B481C4908600120B5
:1019900008F09AF8002019490860194814490860AD
:1019A000012008F091F800201149086016E00D4967
:1019B00014A0FEF743FC88B90C48104908600120C8
:1019C00008F082F800200D4908600D4808490860B9
:1019D000012008F079F800200549086010BD0000DA
:1019E00092020020D4060020310000000000C8430D
:1019F00024000020320000000000C8C3280000209E
:101A000000007041330000002DE9F05F05460C46F0
:101A1000124E134801682046FEF783FC83461148A6
:101A200001685846FEF725FC804631464FF07E504F
:101A3000FEF771FC82464146FEF773FC07463146CD
:101A40002846FEF76EFC81463946FEF712FC054932
:101A5000086008460068BDE8F09F00000AD7A33C74
:101A6000C4010020000200202DE9F05F05460C466D
:101A7000124E134801682046FEF753FC8346114876
:101A800001685846FEF7F5FB804631464FF07E5020
:101A9000FEF741FC82464146FEF743FC07463146CD
:101AA0002846FEF73EFC81463946FEF7E2FB054933
:101AB000086008460068BDE8F09F00000AD7A33C14
:101AC000C40100203C0200200146072323EA010252
:101AD0001202054B18684FF6FF031840034B1843DA
:101AE0001043014B186070470CED00E00000FA0550
:101AF00038B5002000906B4601227521682006F061
:101B00005DFE2CA004F0B8FA9DF8000068280ED005
:101B100000BF3148006800F4E06030490843001D10
:101B20002D490860BFF34F8F00BF00BFFEE707F0ED
:101B3000BFF800283CD1782007F0C4FE10B91DA0E2
:101B400004F09AFA782006F0A1FF10B924A004F05E
:101B500093FAC82007F068FE10B92BA004F08CFAA5
:101B600005F0A2FE10B932A004F086FA3D4806F056
:101B7000C7FE044606F0F2F810B93BA004F07CFA68
:101B800040F2731005F038FD10B941A004F074FA6A
:101B9000C82006F013F810B947A004F06DFA07F05A
:101BA000D1FF012007F03CFD10B94CA004F064FA0D
:101BB00038BD00006D70755F7365745F73656E731B
:101BC0006F7220636F6D706C657465202E2E2E2EE3
:101BD0002E2E0D0A000000000CED00E00000FA05BA
:101BE0006D70755F636F6E6669677572655F666954
:101BF000666F20636F6D706C657465202E2E2E2EBF
:101C00002E2E0D0A000000006D70755F7365745F05
:101C100073616D706C655F7261746520636F6D7068
:101C20006C657465202E2E2E2E2E2E0D0A000000BF
:101C3000646D705F6C6F61645F6D6F74696F6E5F10
:101C40006472697665725F6669726D77617265202C
:101C5000636F6D706C657465202E2E2E2E2E2E0DEA
:101C60000A00000088000020646D705F7365745F77
:101C70006F7269656E746174696F6E20636F6D70E9
:101C80006C657465202E2E2E2E2E2E0D0A0000005F
:101C9000646D705F656E61626C655F6665617475C9
:101CA000726520636F6D706C657465202E2E2E2E0C
:101CB0002E2E0D0A00000000646D705F7365745F66
:101CC0006669666F5F7261746520636F6D706C65C5
:101CD0007465202E2E2E2E2E2E0D0A006D70755F2F
:101CE0007365745F646D705F737461746520636F96
:101CF0006D706C657465202E2E2E2E2E2E0D0A0012
:101D000010B50446242C0AD11C48007838B90120AB
:101D10001A49087014211A48FEF772FA10BD1748C4
:101D20000078012828D1232C0BD1002013490870FA
:101D30001449087000F096FD14211148FEF760FA6E
:101D40001AE00E480078012816D1242C14D00D4832
:101D500001780078401C0B4A107009484454104622
:101D60000078142808DD0020114608700349087027
:101D700014210348FEF744FA00BFCFE79402002085
:101D8000E80600209502002010B50446242C0AD154
:101D90001B48007838B901201949087014211948E6
:101DA000FEF72EFA10BD16480078012826D1232C04
:101DB00007D1002012490870134908700120134907
:101DC00008700F480078012818D1242C16D00E482E
:101DD00001780078401C0C4A10700A4844541046A0
:101DE000007814280ADD00201146087004490870A4
:101DF0000649087014210348FEF702FA00BFD1E734
:101E000090020020D40600209102002092020020BF
:101E100010B50446242C0AD11B48007838B901209B
:101E20001949087014211948FEF7EAF910BD16483F
:101E30000078012826D1232C07D1002012490870F0
:101E4000134908700120134908700F4800780128D1
:101E500018D1242C16D00E4801780078401C0C4A6A
:101E600010700A4844541046007814280ADD0020F7
:101E70001146087004490870064908701421034887
:101E8000FEF7BEF900BFD1E790020020D406002083
:101E9000910200209202002010B50446242C0AD1A1
:101EA0001B48007838B901201949087014211948D5
:101EB000FEF7A6F910BD16480078012826D1232C7C
:101EC00007D10020124908701349087001201349F6
:101ED00008700F480078012818D1242C16D00E481D
:101EE00001780078401C0C4A10700A48445410468F
:101EF000007814280ADD0020114608700449087093
:101F00000649087014210348FEF77AF900BFD1E7AB
:101F100090020020D40600209102002092020020AE
:101F2000704701B500200AE0002001E0411CC8B262
:101F30000A28FBDB9DF80010491EC9B200919DF8EC
:101F400000100029F0D108BD2DE9F0414B48006890
:101F500000287CD14FF480504949086049480088E6
:101F6000002804DD47480088401E4649088046484E
:101F70000078032802D102F083FD05E04248007892
:101F8000042801D1FFF7A8F94048007800F06EFA64
:101F9000002002F03DFB8046012002F039FB454263
:101FA0002946404600F0CAFC3948016839480068B3
:101FB000FFF75CFA07462946404603F08BFF0646CA
:101FC00031480078032805D13348006803F046FC07
:101FD000044604E03048006803F0AEFC0446B8193B
:101FE00020442E490860B819001B2D4908602B4871
:101FF000006801F05DFD294908602948006801F08A
:1020000057FD27490860274A51422448006801F0DB
:102010005CFD22490860234A51422148006801F0D2
:1020200054FD1F49086018480078B8B92B4642464D
:10203000184801681C48006801F052FD10B10120E9
:102040001A4908702A4641461248006800E012E02A
:1020500002F0B6F810B10020144908701448016865
:102060000C48006803F02CFC28B90D4801680B48A7
:10207000006802F0A1FDBDE8F081000030012142BE
:1020800014040140D4000020910100200000002031
:1020900008000020040000200C0000201000002098
:1020A00014000020D8F5FFFF1C0000202C000020A9
:1020B000D8000020002123498279002A3AD00A461C
:1020C000126803689A430B461A600A1D1268036877
:1020D0009A430B1D1A60027911440A6803681A4377
:1020E0000A60184A0832126803689A43154B08338D
:1020F0001A601A1D126803689A43124B0C331A6057
:102100004279102A0ED11A1F126803681A430D4B28
:1021100008331A601A1D126803681A43094B0C33FE
:102120001A600DE00749427911440A6803681A43AE
:102130000A6005E0027911440A6803689A430A605C
:10214000704700000004014000B587B00121022063
:1021500002F086F80121042002F0A2F8C020ADF8B8
:10216000000004208DF8030069461C4800F0EAF8DE
:1021700004A803F069FB0020ADF810004FF6FF70D3
:10218000ADF814000020ADF81600ADF8120004A957
:10219000134803F007FB00231A460321104803F0FD
:1021A000DDF801A803F062F90A20ADF80C0001A9DE
:1021B0000B4803F005F90121094802F0B9FF01229B
:1021C0001146074803F05BF90021054803F0BBFA0C
:1021D0000121034802F0B2FF07B000BD0008014032
:1021E0000004004000B587B00121042002F038F857
:1021F0000121082002F054F8C020ADF800000420AE
:102200008DF8030069461C4800F09CF804A803F010
:102210001BFB0020ADF810004FF6FF70ADF8140066
:102220000020ADF81600ADF8120004A9134803F021
:10223000B9FA00231A460321104803F08FF801A8C9
:1022400003F014F90A20ADF80C0001A90B4803F0C3
:10225000B7F80121094802F06BFF01221146074837
:1022600003F00DF90021054803F06DFA0121034840
:1022700002F064FF07B000BD000C01400008004000
:102280002DE9F05F1848B0F9000018490880B1F94D
:102290000010174AB2F90020881AFEF748FA0646DD
:1022A000144A154BFEF754F904460D460F48B0F991
:1022B0000000FEF73CFA06460E4A104BFEF748F9BE
:1022C000804622462B46FEF79CF88246FEF7B8FA77
:1022D0000B4908600548B0F9000005490880084826
:1022E0000068BDE8F09F0000A4020020A6020020C4
:1022F000A8020020FCA9F1D24D62403F4D62503F40
:10230000AC02002030B500228B071C0F0F2303FA0C
:1023100004F20B4B8C1053F824309343084C8D106F
:1023200044F8253023468C1053F824308C07240FB2
:1023300000FA04F42343024C8D1044F8253030BDDC
:10234000080001402DE9F04102460025002600204A
:1023500000230024002791F803C00CF00F0591F82A
:1023600003C00CF0100CBCF1000F03D091F802C0B8
:102370004CEA050591F800C0BCF1000F31D014689B
:1023800000202BE04FF0010C0CFA00F3B1F800C074
:102390000CEA03069E4220D183004FF00F0C0CFA8A
:1023A00003F7BC4305FA03FC4CEA040491F803C0AC
:1023B000BCF1280F06D14FF0010C0CFA00FCC2F85A
:1023C00014C00AE091F803C0BCF1480F05D14FF0EA
:1023D000010C0CFA00FCC2F810C0401C0828D1D334
:1023E0001460B1F800C0BCF1FF0F34DD5468002068
:1023F0002EE000F1080C4FF0010808FA0CF3B1F8D8
:1024000000C00CEA03069E4221D183004FF00F0C5E
:102410000CFA03F7BC4305FA03FC4CEA040491F8F8
:1024200003C0BCF1280F05D100F1080C08FA0CF824
:10243000C2F8148091F803C0BCF1480F07D100F135
:10244000080C4FF0010808FA0CF8C2F81080401C84
:102450000828CED35460BDE8F0810246002093687E
:102460000B400BB1012000E0002070472DE9F04F38
:1024700091B0804602F0E8F8E2490860B8F1010F37
:102480001BD101F097FFE0480068E0490860E0498F
:10249000B1F90000FEF73DF9DE490860DC49B1F909
:1024A0000400FEF736F9DC490860DC49B1F90400A4
:1024B000FEF72FF9DA490860A1E14421D02000F0AD
:1024C000C5FA83464321D02000F0C0FA0BEB002070
:1024D0000990FEF71EF906464621D02000F0B6FA14
:1024E00083464521D02000F0B1FA0BEB0020099083
:1024F000FEF70FF90A904821D02000F0A7FA834692
:102500004721D02000F0A2FA0BEB00200990FEF743
:1025100000F907463C21D02000F098FA83463B2181
:10252000D02000F093FA0BEB00200990FEF7F1F8B1
:102530000D903E21D02000F089FA83463D21D02025
:1025400000F084FA0BEB00200990FEF7E2F88246D7
:102550004021D02000F07AFA83463F21D02000F0BD
:1025600075FA0BEB00200990FEF7D3F805464FF003
:102570008E413046FEF78AF905D24FF08F41304642
:10258000FDF7C9FE06464FF08E410A98FEF77EF928
:1025900005D24FF08F410A98FDF7BDFE0A904FF02B
:1025A0008E413846FEF772F905D24FF08F4138461A
:1025B000FDF7B1FE07464FF08E410D98FEF766F924
:1025C00005D24FF08F410D98FDF7A5FE0D904FF00D
:1025D0008E415046FEF75AF905D24FF08F415046D2
:1025E000FDF799FE82464FF08E412846FEF74EF9E0
:1025F00005D24FF08F412846FDF78DFE054686F047
:102600000040844908600D98FEF7EEF8854A864B35
:10261000CDE90601FEF70EF8CDE90801FEF710F945
:1026200010905046FEF7E0F87E4A7F4BCDE9060158
:10263000FEF700F8CDE90801FEF702F90F902846F1
:10264000FEF7D2F8774A784BCDE90601FDF7F2FFA5
:10265000CDE90801FEF7F4F80E903046FEF7C4F815
:102660004FF06632714BCDE90601FDF7E3FFCDE98E
:102670000801FEF7E5F881460A98FEF7B5F84FF035
:1026800066326A4BCDE90601FDF7D4FFCDE90801BA
:10269000FEF7D6F8044666480078022837D189F05C
:1026A000004002460390DDE90E1000F013FC834663
:1026B000FEF79AF85F4A604BCDE90401FDF7BAFFD7
:1026C00000225E4BCDE90601FDF742FFCDE908018E
:1026D000FEF7B6F84C49086022460E99109800F0B3
:1026E00055FD8346FEF780F8524A534BCDE904016D
:1026F000FDF7A0FF0022514BCDE90601FDF728FFB1
:10270000CDE90801FEF79CF84D4908606FE04848A4
:10271000007803286BD12846FEF766F8CDE9020160
:102720005046FEF761F8CDE90001DDE9022304F02F
:102730004DFC0022414BCDE90401FDF709FF3D4A64
:102740003D4BCDE90601FDF775FFCDE90801FEF728
:1027500077F80C902846FEF747F8CDE902010D986E
:10276000FEF742F8CDE90001DDE9022304F02EFC7A
:102770000022324BCDE90401FDF7EAFE2D4A2E4B33
:10278000CDE90601FDF756FFCDE90801FEF758F83F
:102790000B903046FEF728F84FF06632294BCDE912
:1027A0000601FDF747FFCDE90801FEF749F883462A
:1027B00059460C98FFF728F980F00040124908604C
:1027C0000A98FEF711F84FF066321E4BCDE906016C
:1027D000FDF730FFCDE90801FEF732F88346594690
:1027E0000B98FFF741F980F0004015490860064852
:1027F000006806490860084807600948056011B08C
:10280000BDE8F08F180000207000002004000020B8
:102810005C000020080000200C0000206200002066
:102820001C0000208FC2F5285C1F9A40665E8D4018
:1028300000000020F1D4C853FB210940008066400D
:102840006C0000206666304010B500F065F8044664
:1028500003492046FDF765FD0446204610BD0000F3
:10286000C3F580402948007830386421484327491F
:102870004978303901EB810100EB41012348807830
:1028800030380844224908802048C0783038642114
:1028900048431E490979303901EB810100EB4101C0
:1028A0001A48407930380844194948801948007856
:1028B000042829D1154880793038642148431349C8
:1028C000C979303901EB810100EB41010F48007AF1
:1028D000303808440E4988800C48407A30386421EA
:1028E00048430A49897A303901EB810100EB410103
:1028F0000648C07A303808440549C88008468088B0
:10290000C98848430249088170470000E806002052
:10291000960200209101002070B50520FEF7F4FD1D
:1029200005462846FDF7FEFE06460349FDF7F9FC7D
:102930000446204670BD00003333533A2DE9F04F72
:1029400087B083468A465846FDF7F1FE0022344B95
:10295000CDE90001FDF7FCFD0022324BCDE902017B
:10296000FDF768FE804600222F4BFDF763FE06460A
:1029700000222E4BFDF75EFE0446FDF761FF059039
:102980000598FDF731FF2A4A2A4BCDE90201FDF7F0
:10299000DFFD80460022284BFDF7DAFD06460022C7
:1029A000264BFDF747FE0446FDF74AFF2449086021
:1029B0005046FDF7BCFE0022194BCDE90001FDF7A2
:1029C000C7FD06460022174BFDF734FE04460022E1
:1029D000154BFDF72FFE80460022144BFDF72AFE13
:1029E000CDE90201FDF72CFF04900498FDF7FCFEF1
:1029F00080460F4A0F4BFDF7ABFD00220E4BCDE991
:102A00000201FDF7A5FD064600220C4BFDF712FE64
:102A10000446FDF715FF0B49086007B0BDE8F08FCD
:102A2000000069400000104000003E4000002640C9
:102A3000F1D4C853FB21094000C05040000024409D
:102A4000E8000020EC00002000BFFEE770B505465E
:102A50000E46002400F0EAF8284600F0B5F8641CA1
:102A600000F03CF9304600F0AFF8641C00F036F995
:102A700000F0DCF8691CC8B200F0A6F8641C00F095
:102A80002DF9002000F068F8044600F003F9204614
:102A900070BD000010B500200E4908600E480068A7
:102AA00020F470600C4908600846006840F44070EB
:102AB000086000200949C1F8A801012004F060FD68
:102AC00001200449086004F05BFD00200349C1F8BF
:102AD000AC0110BDAC812142040C014000802142B8
:102AE00008B50121082001F0DBFB4FF44060ADF890
:102AF000000010208DF8030003208DF802006946C5
:102B00000148FFF71FFC08BD000C014010B5002074
:102B10000E4908600E48006820F470600C49086097
:102B20000846006840F44070086001200949C1F877
:102B3000A80104F025FD01200449086004F020FDEF
:102B400000200449C1F8AC0110BD0000AC81214255
:102B5000040C01400080214270B50546002417484E
:102B6000006820F47060154908600846006840F469
:102B700000600860002616E000201149086002206D
:102B800004F0FEFC01200F49C1F8AC016006040E00
:102B90000B488438006808B1601CC4B2022004F0FD
:102BA000EFFC701CC6B2082EE6DB15B1FFF772FF12
:102BB00001E0FFF7ABFF204670BD0000040C0140B0
:102BC000AC8121420080214270B50446144800685F
:102BD00020F47060124908600846006840F44070B4
:102BE000086000200F490860002516E0E0090D4943
:102BF000091F08606006040E012004F0C1FC0120DA
:102C00000949C1F8AC0104F0BBFC0020054908608B
:102C1000012004F0B5FC681CC5B2082DE6DB70BDD0
:102C2000040C0140AC8121420080214210B51648BD
:102C3000006820F47060144908600846006840F499
:102C4000407008600120114908601148D0F828013F
:102C500008B9002010BD01200C49091D086004F0CE
:102C60008FFC00200A49C1F8A80108488038006894
:102C700008B10020EEE7012004F082FC00200349A7
:102C8000091D08600120E5E7040C0140A8812142EC
:102C90000080214210B50E48006820F470600C4995
:102CA00008600846006840F4407008600020094948
:102CB00008600949C1F8A801012004F061FC012065
:102CC000044908600449C1F8A80104F059FC10BD8A
:102CD000040C0140AC8121420080214210B5002447
:102CE0001548006820F470601349086008460068C1
:102CF00040F40060086001201049086004F040FCC6
:102D000001200F49C1F8AC0104F03AFC0AE0601C54
:102D1000C4B2322C03DDFFF7BDFF002010BD01203F
:102D200004F02EFC0548803800680028EFD10349E4
:102D3000091D08600120F1E7040C0140A88121422F
:102D40000080214270B505460E461446314628469D
:102D5000FFF77CFE2070012070BDF8B506460F46D7
:102D600014461D466A4639463046FFF7EBFF2DB143
:102D70000120A0409DF80010084305E00120A0407C
:102D80009DF8001021EA0000C0B200909DF80020DC
:102D90003946304600F036F8F8BD2DE9F8430746CD
:102DA000884614461D46089E6A4641463846FFF747
:102DB000C9FF28B3601CFF2101FA00F0C4F108012B
:102DC0002944491EFF220A41104300F0FF09C5F1C2
:102DD000080006FA00F0C6B2C4F1070006419DF8EB
:102DE000000000EA090000909DF8000030430090C8
:102DF0009DF800204146384600F004F8BDE8F8830D
:102E00000020FBE737B504460D4602AB01222946F8
:102E1000204600F001F83EBD2DE9F04180460D4608
:102E200016461F460024FFF701FF4046FFF7CCFE81
:102E3000FFF754FF2846FFF7C7FEFFF74FFF00BF1D
:102E400006E0385DFFF7C0FEFFF748FF601CC4B224
:102E5000B442F6DBFFF71EFF0120BDE8F081000061
:102E6000094800680949086009480068486009483D
:102E70000068886008480068C86008480068086101
:102E80000748006848617047FC0000208C0600205D
:102E90000001002004010020080100200C01002096
:102EA0001001002001464906084A926942F00102D9
:102EB000064B9A61064A526822F0E062044B5A605F
:102EC0001A4652680A435A607047000000100240D8
:102ED000000001402DE9F04FADB00446894692460E
:102EE000A3482B90A349D1E90023D1E90201CDE900
:102EF0002723CDE92901CDF898A09E4B1033D3E9C3
:102F00000021D3E90203CDE92403CDE92221994927
:102F1000203103C9CDE920019649283103C9CDE903
:102F20001E01944B30330FCB1AAD0FC59148403082
:102F3000006819908F4B4433D3E90020D3E9021382
:102F400016AD0BC515928B49543103C9CDE9130158
:102F50000020119012900F9010900B900C900D90FB
:102F60000E900790089009900A90059006900490A2
:102F70004846FDF739FC0746884684F0004001903A
:102F8000FDF732FC3A464346CDE9020104F01EF853
:102F90000546FDF755FC834611A8774922AA01236F
:102FA000CDE90021029002221146104606F032FDC2
:102FB0000FA826A920AA0123CDE9002102901A46D4
:102FC0001946022006F026FD0F991198FDF751F9D8
:102FD0006A49086010991298FDF74BF967494860F3
:102FE0000BA8674922AA0223CDE9002102901A46C4
:102FF0001946184606F00EFD07A815A90BAA0223CC
:10300000CDE9002102901A461946184606F002FD45
:103010001A990798FDF72DF95A4908601B990898E5
:10302000FDF727F9574948601C990998FDF721F9E0
:10303000544988601D990A98FDF71BF95149C860E9
:1030400005A81EAA0223CDE9002102901A461946BE
:10305000012006F0DFFC04A813A905AA0123CDE98D
:103060000021029002221146184606F0D3FC19995D
:103070000498FDF7FEF8054629464FF07E50FDF70F
:1030800082F9049011A813A93E4A0123CDE9002139
:10309000029002221146104606F0BCFC3A4804A9F0
:1030A00011AA0123CDE9002102901A4619460220F7
:1030B00006F0B0FC04A831491EAA0123CDE9002185
:1030C000029002221146184606F0A4FC58460499C4
:1030D000FDF721F9049011A804A92B4A0123CDE999
:1030E000002102901A461946022006F093FC234A5A
:1030F00011991068FDF7BDF81F4908601F4A129921
:103100005068FDF7B6F81C4948600BA81EA91E4A76
:103110000223CDE90021029001221146184606F053
:1031200079FC0B992798FDF7F6F80B900C992898E5
:10313000FDF7F1F80C900D992998FDF7ECF80D903A
:1031400027AA0E99D068FDF7E6F80E900C480D49B5
:103150000BAA0223CDE9002102901A46194618460F
:1031600006F058FC044800682DB0BDE8F08F000060
:103170000AD7A33BECD200084002002048020020FE
:1031800050020020B4060020600200202DE9F04F1C
:10319000ADB0044689469246A3482B90A349D1E995
:1031A0000023D1E90201CDE92723CDE92901CDF89A
:1031B00098A09E4B1033D3E90021D3E90203CDE957
:1031C0002403CDE922219949203103C9CDE9200109
:1031D0009649283103C9CDE91E01944B30330FCBFA
:1031E0001AAD0FC591484030006819908F4B443399
:1031F000D3E90020D3E9021316AD0BC515928B4914
:10320000543103C9CDE913010020119012900F90A1
:1032100010900B900C900D900E90079008900990D4
:103220000A900590069004904846FDF7DDFA07469F
:10323000884684F000400190FDF7D6FA3A464346AE
:10324000CDE9020103F0C2FE0546FDF7F9FA834617
:1032500011A8774922AA0123CDE900210290022278
:103260001146104606F0D6FB0FA826A920AA012376
:10327000CDE9002102901A461946022006F0CAFB49
:103280000F991198FCF7F5FF6A4908601099129898
:10329000FCF7EFFF674948600BA8674922AA0223A1
:1032A000CDE9002102901A461946184606F0B2FBF5
:1032B00007A815A90BAA0223CDE9002102901A46FE
:1032C0001946184606F0A6FB1A990798FCF7D1FF95
:1032D0005A4908601B990898FCF7CBFF574948608A
:1032E0001C990998FCF7C5FF544988601D990A98F4
:1032F000FCF7BFFF5149C86005A81EAA0223CDE90B
:10330000002102901A461946012006F083FB04A80A
:1033100013A905AA0123CDE900210290022211463A
:10332000184606F077FB19990498FCF7A2FF0546AA
:1033300029464FF07E50FDF726F8049011A813A9F6
:103340003E4A0123CDE90021029002221146104697
:1033500006F060FB3A4804A911AA0123CDE9002137
:1033600002901A461946022006F054FB04A831497F
:103370001EAA0123CDE9002102900222114618461F
:1033800006F048FB58460499FCF7C5FF049011A8C5
:1033900004A92B4A0123CDE9002102901A461946BF
:1033A000022006F037FB234A11991068FCF761FFF1
:1033B0001F4908601F4A12995068FCF75AFF1C49C0
:1033C00048600BA81EA91E4A0223CDE900210290E5
:1033D00001221146184606F01DFB0B992798FCF7B1
:1033E0009AFF0B900C992898FCF795FF0C900D997B
:1033F0002998FCF790FF0D9027AA0E99D068FCF74A
:103400008AFF0E900C480D490BAA0223CDE900213A
:1034100002901A461946184606F0FCFA044800685D
:103420002DB0BDE8F08F00000AD7A33B48D30008B9
:10343000680200207002002078020020C4060020EC
:103440008802002008B50121042000F029FF4FF474
:103450008070ADF8000048208DF8030069460248EE
:10346000FEF770FF08BD00000008014010B50446DB
:1034700000F022F801280BD1601C0D490988B1EB3E
:10348000400F0ADA0A480088401C0949088004E015
:10349000002007490880074908800548008802285D
:1034A00003D101200349088010BD0020FCE7000083
:1034B000D0000020CE00002010B54FF480710448E9
:1034C000FEF7CBFF08B9012010BD0020FCE700008B
:1034D000000801401FB50121084600F0E1FE01216E
:1034E000042000F0DDFE4FF48050ADF80C004820C1
:1034F0008DF80F0003A91248FEF724FF0C210020CD
:10350000FEF700FF4FF48050019000208DF8080076
:103510000C208DF8090001208DF80A0001A8FEF7A3
:10352000C9FD28208DF8000002208DF8010001203F
:103530008DF802008DF80300684600F085F81FBD85
:103540000008014010B5022000F010F8032000F040
:1035500021F8002000F014F8002000F037F80020D7
:1035600000F02BF8002000F01FF810BD38B504461D
:10357000032302226B21D0200094FFF70EFC38BDFC
:1035800038B50446022304221C21D0200094FFF702
:1035900004FC38BD38B50446022304221B21D02088
:1035A0000094FFF7FAFB38BD10B50446234601220C
:1035B0003721D020FFF7D1FB10BD10B504462346BC
:1035C00005226A21D020FFF7C8FB10BD10B50446C4
:1035D000234606226B21D020FFF7BFFB10BD00BFA2
:1035E000FEE7000010B5002401231A46194611A079
:1035F00000F067F80FE0002001F00AF8204404B260
:10360000012001F005F84042204404B2204603F0B6
:103610006FFE06F027FB0120FFF728FF0028EAD005
:1036200001F036FA01F006FB01F024FB01F050FA3C
:1036300010BD0000312E5374616E64617264204DC0
:103640006F6465007047000070B5002100230F22F1
:10365000C47804B3154C246804F4E064C4F5E06451
:10366000210AC1F10403CA40447804FA03F18478C2
:103670001440214309010E4C0678A155047804F04A
:103680001F050124AC4005786D11AD0005F1E02562
:10369000C5F8004109E0047804F01F050124AC409E
:1036A000044D0678761145F8264070BD0CED00E01B
:1036B00000E400E080E100E010B5002001F0A6F891
:1036C00010BDF8B507460C4615461E46002C0CDD0D
:1036D000032C0ADC601E00EB80004006020E2B4625
:1036E00000213846009600F001F8F8BD2DE9F041C0
:1036F00007460C4615461E46DDF818800EB1FFF74A
:10370000DBFF2946204601F091F8012205493846A1
:1037100001F0E6F8B8F1000F01D000F095F9BDE82E
:10372000F0810000A400002010B500F013F800F0B4
:10373000E9F801231A46194601A0FFF7C2FF10BDA0
:103740006F6C656420696E6974207375636365735B
:10375000732100000848806940F00800064988612C
:103760000648006820F0FF00044908600846006829
:1037700040F033000860704700100240040C014024
:1037800070B504461448006820F0F0001249086043
:103790000846006840F03000086000200F490860CB
:1037A000002516E0E0090D49091D08606006040EB9
:1037B0000120FEF7B6FB01200949C1F8A001FEF780
:1037C000B0FB0020054908600120FEF7AAFB681C39
:1037D000C5B2082DE6DB70BD040C0140A08121427A
:1037E0000080214210B51648006820F0F00014490E
:1037F00008600846006840F0300008600120114968
:1038000008601148D0F8240108B9002010BD01203B
:103810000C49091F0860FEF784FB00200A49C1F823
:10382000A40108488038006808B10020EEE70220B3
:10383000FEF777FB00200349091F08600120E5E738
:10384000040C0140A48121420080214210B510489F
:10385000006820F0F0000E4908600846006840F05B
:103860003000086000200B4908600B49C1F8A40132
:103870000220FEF756FB012006490860FEF751FBC7
:1038800001200549C1F8A4010220FEF74AFB10BD42
:10389000040C0140A08121420080214210B5002487
:1038A0001548006820F0F0001349086008460068D9
:1038B00040F080000860012010490860FEF731FBED
:1038C00001200F49C1F8A001FEF72BFB0AE0601CA4
:1038D000C4B2322C03DDFFF7B9FF002010BD012078
:1038E000FEF71FFB0548803800680028EFD1034928
:1038F000091F08600120F1E7040C0140A481214266
:103900000080214210B540F6C41400E0641E002C73
:10391000FCD1AE2200213C2006F052FAA622002162
:103920003C2006F04DFAAE2200213C2006F048FA79
:10393000D52200213C2006F043FA802200213C20C1
:1039400006F03EFAA82200213C2006F039FA1F2298
:1039500000213C2006F034FAD32200213C2006F05E
:103960002FFA002211463C2006F02AFA40220021BC
:103970003C2006F025FA8D2200213C2006F020FA9A
:10398000142200213C2006F01BFA202200213C20BA
:1039900006F016FA022200213C2006F011FAA122BC
:1039A00000213C2006F00CFAC82200213C2006F041
:1039B00007FADA2200213C2006F002FA0222002156
:1039C0003C2006F0FDF9812200213C2006F0F8F9A8
:1039D000CF2200213C2006F0F3F9D92200213C201F
:1039E00006F0EEF9F12200213C2006F0E9F9DB2295
:1039F00000213C2006F0E4F9402200213C2006F0A2
:103A0000DFF92E2200213C2006F0DAF9A422002161
:103A10003C2006F0D5F9A62200213C2006F0D0F982
:103A2000AF2200213C2006F0CBF9002000F0EEFE92
:103A300000F06CFF00200349088048800120487195
:103A400010BD00009C00002010B500F05FFF10BD0D
:103A50002DE9F04105460E4617469846FFF7C2FE8F
:103A600010B90120BDE8F0816906080EFFF788FE55
:103A7000FFF714FF18B9FFF7E9FE0120F2E730461F
:103A8000FFF77EFEFFF70AFF00240BE018F80400A2
:103A9000FFF776FEFFF702FF18B9FFF7D7FE002009
:103AA000E0E7641CBC42F1DBFFF7D0FE0020D9E761
:103AB0000146002902DD01F214507047002902DAA4
:103AC000A1F21450F9E70846F7E703461846884282
:103AD00000DD0846904200DA10467047704700004B
:103AE0002DE9F04106460F4614461D46344800882D
:103AF000E0B9204605F0F3FF8046284605F0EFFFC9
:103B00004044322805DA2F480088401C2D4908809F
:103B100002E000202B4908802A4800880A2805DD99
:103B20000120274908800020264908802448008871
:103B3000012827D124480088401C80B222490880EF
:103B4000C82803DD002008801D4908801F49304631
:103B5000FCF79CFE16D21E4801681E48FCF789FB44
:103B600080463946FCF788FE0CD2194801681A488D
:103B7000FCF77FFB80463946FCF788FE02D2022024
:103B80000F4908800E480088022816D11348008883
:103B9000401C80B211490880642803DD00200880A1
:103BA00007490880601905F09AFF322805DD0020DA
:103BB000034908800120BDE8F0810020FBE70000F8
:103BC000DC000020DE000020E000002000E0AB462A
:103BD000200000200000A0C10000A041E200002061
:103BE0002DE9F0438BB0D34840783038052818D2FF
:103BF000DFE800F01303070B0F000120CE49087027
:103C000013E00220CC4908700FE00320CA49087075
:103C10000BE00420C849087007E00020C64908707E
:103C200003E00020C449087000BF00BFC148C0784D
:103C3000312802D10520C0490870BE48C07832281A
:103C400002D10620BC490870BA48FCF7F0FA1528E2
:103C50000CD20020B94908705021B648FCF7D0FAC0
:103C6000B7A001F081FF0BB0BDE8F083B148407907
:103C7000312807D100F0A2F9052003F059FC00F02B
:103C80009DF90AE0AB484079322806D100F01CFDCE
:103C900000F094F9AFA001F067FFA648C079312881
:103CA00006D10120AD490860AAA001F05DFF09E03E
:103CB000A048C079322805D10020A8490860A5A0F5
:103CC00001F052FF9B48407A312860D11C2104A8A2
:103CD000FCF796FA00200290039000900190A0A1BA
:103CE000944800F0DFFF814609F1010000B9BAE70E
:103CF0009C480068A0EB09028E4800EB090104A86B
:103D0000FCF765FA98A104A800F0CCFF0446601CFB
:103D100000B9A8E7A21E0DF1120102A8FCF757FA9C
:103D200002A803F021FA07460022904BFCF710FC92
:103D30000546FCF785FD8E4908601C2104A8FCF7A8
:103D40005FFA09EB0400874B1B681A1A794848444C
:103D50002044411C04A8FCF73AFA83A104A800F00F
:103D6000A1FF0446601C00B97DE7A21E0DF11201FF
:103D70006846FCF72CFA684603F0F6F90546FCF7AE
:103D80005FFD7C49086073A001F0EEFE00BF69484A
:103D9000C07A312860D11C2104A8FCF731FA002038
:103DA000029003900090019073A1624800F07AFFA6
:103DB000814609F1010000B955E76A480068A0EBA7
:103DC00009025C4800EB090104A8FCF700FA66A1AF
:103DD00004A800F067FF0446601C00B943E7A21E78
:103DE0000DF1120102A8FCF7F2F902A803F0BCF9E8
:103DF000074600225D4BFCF7ABFB0546FCF720FDB8
:103E00005E4908601C2104A8FCF7FAF909EB0400DC
:103E1000544B1B681A1A474848442044411C04A8C4
:103E2000FCF7D5F950A104A800F03CFF0446601C43
:103E300000B918E7A21E0DF112016846FCF7C7F998
:103E4000684603F091F90546FCF7FAFC4C49086016
:103E500040A001F089FE00BF3648407B312860D188
:103E60001C2104A8FCF7CCF90020029003900090DC
:103E7000019044A12F4800F015FF814609F101008F
:103E800000B9F0E637480068A0EB0902294800EBCA
:103E9000090104A8FCF79BF933A104A800F002FF74
:103EA0000446601C00B9DEE6A21E0DF1120102A854
:103EB000FCF78DF902A803F057F9074600222B4BB7
:103EC000FCF746FB0546FCF7BBFC2F4908601C21AC
:103ED00004A8FCF795F909EB0400224B1B681A1A99
:103EE000144848442044411C04A8FCF770F927A159
:103EF00004A800F0D7FE0446601C00B9B3E6A21E79
:103F00000DF112016846FCF762F9684603F02CF9DE
:103F10000546FCF795FC1E4908600EA001F024FE42
:103F200000BF00200549087050210248FCF768F9DD
:103F300000BF98E60006002050010020400100204C
:103F400024526563656976655061636B4572726F73
:103F500072230000244F4B23000000003C0100208E
:103F6000415000004C0100202C000000000059408E
:103F7000FC00002000010020565000000401002039
:103F800008010020545000000C0100202300000014
:103F90001001002010B506480268521C0549064869
:103FA000FCF715F950210348FCF72AF910BD000071
:103FB00044010020B00500200006002070B5322129
:103FC0006548FCF71DF9644864A109680160002197
:103FD00063480068FCF75AFC0FD8624960480068E3
:103FE000FCF7D1F90646FCF7FFFB044622460B46D8
:103FF0005DA15F4802F050F803E05EA001F0B4FD5F
:1040000070BD00215F480068FCF740FC0BD85D489C
:104010000068FCF7E9FB044622460B4652A15A48C9
:1040200002F03AF803E053A001F09EFDE8E700211A
:1040300056480068FCF72AFC0FD84A4953480068E4
:10404000FCF7A1F90646FCF7CFFB044622460B46D7
:1040500045A14F4802F020F803E046A001F084FD9E
:10406000CEE700214B480068FCF710FC0BD849480C
:104070000068FCF7B9FB044622460B463AA14648C5
:1040800002F00AF803E03BA001F06EFDB8E7002162
:1040900042480068FCF7FAFB0FD832493F480068F5
:1040A000FCF771F90646FCF79FFB044622460B46D7
:1040B0002DA13B4801F0F0FF03E02EA001F054FDDC
:1040C0009EE7002137480068FCF7E0FB0BD8354835
:1040D0000068FCF789FB044622460B4622A13248C1
:1040E00001F0DAFF03E023A001F03EFD88E720495C
:1040F0001948FCF790F82DA11748FCF78CF82249D5
:104100001548FCF788F82AA11348FCF784F82049E1
:104110001148FCF780F827A10F48FCF77CF81E49EE
:104120000D48FCF778F824A10B48FCF774F81C49FB
:104130000948FCF770F821A10748FCF76CF81A4908
:104140000548FCF768F80EA10348FCF764F802483C
:1041500001F00AFD00BF53E7510100202441500047
:10416000FC0000200000C84225332E32660000000B
:1041700050060020244765745049444572726F729E
:1041800023000000000100205A0600200401002046
:1041900064060020080100206E0600200C010020AB
:1041A0007806002010010020820600202C414400E7
:1041B0002C5650002C5649002C5450002C544400CE
:1041C0002DE9F04106460C4615461A48007810B90C
:1041D0000020BDE8F08118480088C0B91748016880
:1041E0001748FCF746F807463146FCF745FB0ED268
:1041F000124801681348FCF73CF807463146FCF7C3
:1042000045FB04D21CB915B901200B4908800A48A6
:10421000008801280CD1032C01DD282C03DB032DA1
:1042200006DD282D04DA0020034908800120D0E7AC
:104230000020CEE72C000020E40000202000002019
:10424000000020C10000204101460020034A5068C0
:1042500020F44040084350607047000000100240C6
:1042600029B1064AD2690243044BDA6104E0034AE9
:10427000D2698243014BDA617047000000100240AE
:1042800029B1064A12690243044B1A6104E0034A49
:1042900012698243014B1A6170470000001002400E
:1042A00029B1064A92690243044B9A6104E0034A29
:1042B00092698243014B9A617047000000100240EE
:1042C00029B1064AD2680243044BDA6004E0034A8B
:1042D000D2688243014BDA60704700000010024050
:1042E00030B500210022002400232D4D6D6805F01B
:1042F0000C0121B1042905D0082923D105E0294D5D
:10430000056022E0274D05601FE0254D6D6805F42E
:104310007012234D6D6805F48034022505EB92423E
:104320001CB9214D554305600BE01D4D6D6805F42A
:1043300000351DB11C4D5543056002E0194D554334
:10434000056002E0174D056000BF00BF144D6D68A9
:1043500005F0F0010909154D6B5C0568DD4045600D
:104360000F4D6D6805F4E061090A104D6B5C4568FE
:10437000DD4085600A4D6D6805F46051C90A0B4D3A
:104380006B5C4568DD40C560054D6D6805F44041D6
:10439000890B074D6B5CC568B5FBF3F5056130BD56
:1043A0000010024000127A0000093D004400002085
:1043B000540000202DE9F04F8FB00CA889490DABB7
:1043C00008AACDE900108849884803F079FA8548A1
:1043D000008800F4807000287ED00898FCF799F9D6
:1043E00004464FF09D41FBF7CEFF814908600998D4
:1043F000FCF78FF904464FF09D41FBF7C4FF7D4960
:1044000008600A98FCF785F904464FF09D41FBF7D8
:10441000BAFF794908600B98FCF77BF904464FF026
:104420009D41FBF7B0FF75490860714801684FF086
:104430008040FBF776FF06906F4801680698FBF70F
:1044400070FF82466B4801684FF04040FBF769FF00
:1044500006906A4801680698FBF763FF8346514659
:10446000FBF707FF0790FCF7BFF9804602F066FBF9
:1044700006464FF06632624BFCF76AF80446FCF7DA
:10448000DFF9604908605C4801684FF08040FBF745
:1044900048FF0390584801680398FBF742FF8246A3
:1044A000544801684FF04040FBF73BFF03905148F0
:1044B00001680398FBF735FF83465146FBF72BFF56
:1044C00081464FF07E51FBF7D4FE0446FCF78CF991
:1044D000CDE90401464800E081E001684FF08040EA
:1044E000FBF71FFF8346434801685846FBF719FF57
:1044F0008146414801684FF08040FBF712FF834638
:104500003E4801685846FBF70CFF82464946FBF7D8
:10451000B0FE0446FCF768F90746DDE9042302F023
:1045200055FD4FF06632364BCDE90601FCF710F829
:104530000546FCF785F93449086030480168006891
:10454000FBF7EFFE03902C4801680068FBF7E9FEDB
:104550000290284801680068FBF7E3FE8346244880
:1045600001680068FBF7DDFE59460190FBF781FE0C
:1045700082460299FBF7CFFE81460399FBF7CBFEFB
:104580000446FCF731F9CDE904011C4801681848DC
:104590000068FBF7C6FE82461748016815480068A8
:1045A000FBF7BFFE83465146FBF763FE81464FF0A3
:1045B0008041FBF7B6FE0446FCF716F90746DDE935
:1045C000042302F003FD4FF066320D4BCDE90601E6
:1045D000FBF7BEFF0546FCF733F90C4908600FB046
:1045E000BDE8F08F68000020620000205C00002021
:1045F000780000207C000020800000208400002043
:1046000066A64C406C000020700000207400002062
:10461000014611B101290ED106E0094A128810B2F3
:104620000022074B1A8008E0064A128810B20022C6
:10463000044B1A8001E0002000BF00BF704700005B
:1046400024040040240800402DE9F05F4221D020DE
:10465000FEF7FCF905464121D020FEF7F7F905EBFE
:1046600000242046FCF755F882464FF08E41504614
:10467000FCF70CF905D24FF08F415046FBF74BFE8B
:1046800082460D495046FBF77EFE8346FCF7ACF8A8
:1046900080460A4A0A4BFBF7B4FE06460022094B45
:1046A000FBF756FF0446FCF7CBF882465046FCF772
:1046B0004FF8BDE8F09F00000000AA43A4703D0A37
:1046C000D74342400000244010B5214801682148EA
:1046D0000068FCF7D1F803D01D4800681D49086048
:1046E0001B4841681C480068FCF7C6F803D018480E
:1046F0004068194908601648816818480068FCF746
:10470000BBF803D012488068144908601048C1689B
:1047100013480068FCF7B0F803D00D48C068104992
:1047200008600B4801690F480068FCF7A5F803D042
:10473000074800690B490860054841690A48006854
:10474000FCF79AF803D0024840690749086010BD99
:104750008C060020FC000020000100200401002045
:10476000080100200C01002010010020F0B50346D4
:104770001446802B01DA202900DBF0BD21480079A6
:1047800020B10CB9012000E000200446012C1CD10E
:10479000CD1701EB5575ED1003EBC5151A4E755D80
:1047A0000A46CE1701EB5676F610A1EBC607012696
:1047B000BE403543EEB20846CD1701EB5575ED10FE
:1047C00003EBC515104F7E551AE0CD1701EB55755B
:1047D000ED1003EBC5150C4E755D0A46CE1701EBC7
:1047E0005676F610A1EBC6070126BE40B543084633
:1047F000CE1701EB5676F61003EBC616024FBD55E9
:1048000000BFBAE79C000020D402002010B5044687
:104810000CB9002000E0FF2002464FF4007102486E
:10482000FBF7E7FC10BD0000D4020020014A108015
:10483000518070479C0000202DE9F04307460C464C
:1048400090462648008821780844802805DA2348C5
:10485000408861780844202802DB0020BDE8F0830E
:10486000002530E0A7F12000617800FB015061686D
:1048700031F81090002622E009FA06F000F400401A
:1048800058B1164A52882A4491B2144A12883244C6
:1048900090B24246FFF76AFF10E0B8F1000F01D175
:1048A000012300E000231A460C4B5B882B4499B28D
:1048B0000A4B1B88334498B2FFF758FF761C2078C8
:1048C000B042D9D86D1C6078A842CBD80348008884
:1048D00021780844014908803846BFE79C00002041
:1048E00070B504460D4616460AE020783246294641
:1048F000FFF7A2FF2178884201D0207870BD641CA8
:1049000020780028F1D12078F8E7000010B50024C5
:104910001BE004F1B000C2B200213C2005F050FAC7
:10492000002211463C2005F04BFA102200213C20C9
:1049300005F046FA0648802101FB04020B4640219F
:104940003C2005F047FA601CC4B2082CE1DB10BD26
:10495000D40200207047000010B50C480068401ECB
:104960000A4908600A480068012807D1084600681B
:1049700020B9FCF731FE074801F0F6F8034800685B
:1049800010B901200149086010BD00008C01002011
:104990003C0100202405002010B500F001F810BDF6
:1049A0000CB50020019000903348006840F480303E
:1049B0003149086000BF3048006800F400300090C2
:1049C0000198401C0190009818B90198B0F5A06FAB
:1049D000F1D12948006800F4003010B101200090A6
:1049E00001E0002000900098012843D1234800688E
:1049F00040F01000214908600846006820F00300DC
:104A000008600846006840F0020008601A484068E4
:104A1000194948600846406848600846406840F4C4
:104A2000806048600846406820F47C104860084672
:104A3000406840F4E81048600846006840F0807024
:104A4000086000BF0C48006800F000700028F9D032
:104A50000948406820F0030007494860084640685C
:104A600040F00200486000BF0348406800F00C00BE
:104A70000828F9D10CBD00000010024000200240BF
:104A8000014802490860704700007041240000207E
:104A90000C480078072812D2DFE800F00405090A64
:104AA0000B0C0D0000BF00200749086007E000BFA5
:104AB00000BF00BF00BF05480349086000BF00BF3A
:104AC000704700009101002020000020000080BFFE
:104AD00023480078012803D021480078042812D107
:104AE000204821490860214821490860214822497D
:104AF0000860224822490860224823490860234868
:104B0000234908602BE016480078032812D1214879
:104B10001549086020481649086020481649086071
:104B20001F48174908601F48174908601748184967
:104B3000086014E00A48007888B90A480A49086001
:104B400019480B49086019480B49086018480C4976
:104B5000086018480C4908600C480D490860704707
:104B60009101002000001646FC0000200000964243
:104B70000001002000C0DA450401002000000C42C2
:104B8000080100200000AF440C0100200000A041FB
:104B90001001002000803B46000090420000FA45D2
:104BA0000000204200401C450000404200C0C145BA
:104BB0000000F8410080D44470B505460C4625B984
:104BC00000201B490880091D08802CB900201849C5
:104BD00008310880091D0880002D09DD284604F0F1
:104BE0007EFF1349091D08800020091F088008E086
:104BF00000200F49091D0880284604F070FF0C4969
:104C00000880002C09DD204604F069FF08490831BE
:104C100008800020091D088009E0002004490831AF
:104C20000880204604F05BFF01490C31088070BD0C
:104C3000343401400D48007802280FD00B4800782A
:104C400003280BD009480078042807D007480078CB
:104C5000052803D005480078062803D11E20044902
:104C6000087002E028200249087070479101002076
:104C7000900100200648007818B105480078012806
:104C800005D1044804490860044805490860704794
:104C9000910100200000F0411401002000001042AA
:104CA0001801002030B503460C4600211AE0585C7C
:104CB0002578A84200D014E0002206E0521CA05C37
:104CC0008D185D5DA84200D005E0A05C18B1881881
:104CD000185C0028F2D100BFA05C08B9084630BDBE
:104CE00000BF491C585C0028E1D1401EF7E70428AA
:104CF00008D14FF0E021096941F004014FF0E022B2
:104D0000116107E04FF0E021096921F004014FF043
:104D1000E02211617047704710B51348006840F0F9
:104D200001001149086008464068104908400E49D2
:104D30004860084600680E4908400B49086008466C
:104D4000006820F4802008600846406820F4FE00D7
:104D500048604FF41F008860FFF71EFE4FF00060B0
:104D60000449086010BD0000001002400000FFF878
:104D7000FFFFF6FE08ED00E0F0B50C4615460022F8
:104D80000021068C4FF6FE773E400684028B018C94
:104D90004FF60C7632407E1C06EA03162E43324351
:104DA000104EB0420ED0104EB0420BD0B0F1804F3A
:104DB00008D00E4EB04205D00D4EB04202D00D4E7E
:104DC000B04206D14FF6FD76314044F00106314342
:104DD00005E04FF6F576314044F001063143028399
:104DE0000184F0BD002C014000340140000400406B
:104DF00000080040000C0040F0B50C4615460022AB
:104E000000210026078C4FF6EF7C07EA0C07078489
:104E1000028B018C4FF6FF7707EA041640F6FF4736
:104E20003A404FF6FF7707EA03373A434FF6FF77EA
:104E300007EA05273A43114FB8420ED0104FB84247
:104E40000BD0B0F1804F08D00E4FB84205D00E4FB6
:104E5000B84202D00D4FB84206D14FF6DF77394045
:104E600046F01007394305E04FF65F77394044F0CC
:104E70001007394302830184F0BD0000002C01407B
:104E8000003401400004004000080040000C0040D5
:104E9000F0B50C461546002200210026078C4FF67F
:104EA000FF6C07EA0C070784828B018C4FF6FF77B3
:104EB00007EA04264FF60C773A404FF6FF7707EAE9
:104EC00003172F433A43114FB8420ED0104FB84248
:104ED0000BD0B0F1804F08D00E4FB84205D00E4F26
:104EE000B84202D00D4FB84206D14FF6FF573940B5
:104EF00046F48077394305E04FF2FF57394044F4D8
:104F00008077394382830184F0BD0000002C01408A
:104F1000003401400004004000080040000C004044
:104F2000F0B50C461546002200210026078C4EF6EF
:104F3000FF7C07EA0C070784828B018C4FF6FF7712
:104F400007EA043640F6FF473A404FF6FF7707EA94
:104F500005273A434FF6FF7707EA03373A43114FE5
:104F6000B8420ED0104FB8420BD0B0F1804F08D0ED
:104F70000E4FB84205D00E4FB84202D00D4FB84286
:104F800006D14DF6FF77394046F48057394305E0A6
:104F900047F6FF57394044F48057394382830184F0
:104FA000F0BD0000002C014000340140000400402E
:104FB00000080040000C00400448008803480088B6
:104FC00020F00100014908807047000010040040F3
:104FD000044800880348008820F001000149088047
:104FE000704700001008004010B50121284800F06B
:104FF000D6F900284AD00121254800F09CF8254820
:105000000088401C2349088023480078401C22491E
:10501000087022480088002804DD20480088401ECF
:105020001E4908801E48007818B11D4800780128E4
:1050300002D101201B49087017480078022823DD9F
:10504000002015490870FDF7FFFB0446164801686B
:105050002046FBF70EF91449086014480078401CFC
:10506000124908700846007832280DD110490E48C0
:105070000068FBF788F90F49086000200A490860BA
:105080000A49087004F034FD02F06AF910BD00000E
:1050900000100040C8000020C1000020C200002015
:1050A00091010020CB000020BC000020C0000020A7
:1050B00000004842D80000201FB501211020FFF752
:1050C000CFF841F61F40ADF804006320ADF80800AA
:1050D00001A9104800F066FB01210E4800F028F8F5
:1050E000012211460B4800F0CAF936208DF8000065
:1050F00004208DF8010002208DF8020001208DF8B7
:1051000003006846FEF7A0FA0121024800F016F8F5
:105110001FBD00000010004021B1028842F0800253
:10512000028004E002884FF67F731A4002807047C5
:10513000CA4302827047CA430282704721B1028883
:1051400042F00102028004E002884FF6FE731A402A
:105150000280704731B1B0F8442042F40042A0F818
:10516000442005E0B0F84420C2F30E02A0F8442029
:105170007047000010B504466848844208D10121F8
:10518000C014FFF79DF80021E014FFF799F8C4E080
:10519000B4F1804F08D101210846FFF771F80021D2
:1051A0000120FFF76DF8B8E05D48844208D1012185
:1051B0000220FFF765F800210220FFF761F8ACE05C
:1051C0005848844208D101210420FFF759F80021F2
:1051D0000420FFF755F8A0E05348844208D101218C
:1051E0000820FFF74DF800210820FFF749F894E068
:1051F0004E48844208D101211020FFF741F80021D8
:105200001020FFF73DF888E04948844208D1012189
:105210002020FFF735F800212020FFF731F87CE04F
:105220004448844208D101214014FFF749F8002185
:105230006014FFF745F870E03F48844209D101212E
:10524000C804FFF73DF800214FF40020FFF738F8BD
:1052500063E03A48844209D101210805FFF730F89C
:1052600000214FF48010FFF72BF856E034488442B9
:1052700009D101214805FFF723F800214FF4001060
:10528000FFF71EF849E02F48844208D10121402051
:10529000FEF7F6FF00214020FEF7F2FF3DE02A482E
:1052A000844208D101218020FEF7EAFF00218020FE
:1052B000FEF7E6FF31E02548844208D10121801540
:1052C000FEF7DEFF0021A015FEF7DAFF25E02048FB
:1052D000844209D101210804FEF7F2FF00214FF4B6
:1052E0008030FEF7EDFF18E01A48844209D1012111
:1052F0004804FEF7E5FF00214FF40030FEF7E0FF21
:105300000BE01548844208D101218804FEF7D8FF3C
:1053100000214FF48020FEF7D3FF10BD002C014088
:105320000004004000080040000C00400010004055
:105330000014004000340140004C01400050014086
:105340000054014000180040001C004000200040B4
:10535000004001400044014000480140F0B50C46C7
:1053600015461E460021002200230189028B038C72
:105370004FF6F877394021434FF6FC473A4040F268
:1053800001173A434FF6DD773B404FF6FF7707EAC8
:1053900006172F433B43018102830384F0BD30B5E0
:1053A0000246002000230024158A05EA010395899E
:1053B00005EA010413B10CB1012000E0002030BD6A
:1053C00070B505460C46244885420ED023488542D8
:1053D0000BD0B5F1804F08D02148854205D0214837
:1053E000854202D02048854200D100E000BF2088DD
:1053F00050B92389A28861882846FFF7BDFCE1885F
:10540000284600F0A2F925E0208804280AD1238943
:10541000A28861882846FFF7EFFCE188284600F063
:105420009DF917E0208808280AD12389A28861887D
:105430002846FFF72DFDE188284600F09CF909E099
:105440002389A28861882846FFF76AFDE1882846FB
:1054500000F09AF970BD0000002C014000340140BA
:105460000004004000080040000C004000210180C2
:105470004180012181800021C180018170471AB1E2
:1054800083890B43838102E083898B438381704747
:1054900070B5002400220023058C4FF6FE763540BF
:1054A0000584028C8388048B4FF68F752C40B51EC3
:1054B0002C400D882C43751E2A400D892A434D88A7
:1054C0002A43144DA8420BD0134DA84208D0134DC7
:1054D000A84205D0124DA84202D0124DA84213D1C5
:1054E0004FF6F7752A404D892A434FF6FB752A403F
:1054F0008D882A434FF6FF652B404FF6FF552B4012
:105500008D892B43CD892B4383800483CD88858669
:10551000028470BD002C0140003401400040014075
:1055200000440140004801400A460021018B4FF62B
:10553000F7731940114301837047000070B50024D0
:1055400000220023058C4FF6EF7635400584028C4F
:105550008388048B48F6FF752C404FF6FF452C409E
:105560000D884FF6FF7606EA05252C434FF6DF75CA
:105570002A400D8906EA05152A434D8806EA0515D5
:105580002A43154DA84202D0144DA8421DD14FF612
:105590007F752A404D894FF6FF7606EA05152A43A6
:1055A0004FF6BF752A408D8806EA05152A434FF647
:1055B000FF352B404FF2FF752B408D8906EA85059C
:1055C0002B43CD8906EA85052B4383800483CD8850
:1055D0000587028470BD0000002C014000340140AA
:1055E0000A460021018B4FF2FF7319404FF6FF73FB
:1055F00003EA0223194301837047000070B50024B9
:1056000000220023058C4FF6FF6635400584028C8E
:105610008388848B4FF68F752C404FF6FC752C4099
:105620000D882C434FF6FF552A400D894FF6FF7623
:1056300006EA05252A434D8806EA05252A43154D25
:10564000A84202D0144DA8421DD14FF2FF752A4046
:105650004D894FF6FF7606EA05252A434FF6FF35BA
:105660002A408D8806EA05252A434EF6FF752B4011
:105670004DF6FF752B408D8906EA05152B43CD8924
:1056800006EA05152B4383808483CD8885870284B1
:1056900070BD0000002C0140003401400A4600218A
:1056A000818B4FF6F77319401143818370470000D7
:1056B00070B5002200230024058C4EF6FF7635409D
:1056C0000584038C8488828B48F6FF752A404FF648
:1056D000FF452A400D884FF6FF7606EA05252A4346
:1056E0004DF6FF752B400D8906EA05352B434D8895
:1056F00006EA05352B430B4DA84202D00A4DA842BD
:1057000008D14BF6FF752C408D894FF6FF7606EADF
:1057100085152C4384808283CD88A0F84050038473
:1057200070BD0000002C0140003401400A460021F9
:10573000818B4FF2FF7319404FF6FF7303EA022388
:1057400019438183704781847047028B4FF6F3734E
:105750001A400283028B0A4302837047028B4FF286
:10576000FF331A400283028B4FF6FF7303EA0123D3
:105770001A4302837047828B4FF6F3731A40828379
:10578000828B0A4382837047828B4FF2FF331A4029
:105790008283828B4FF6FF7303EA01231A438283CD
:1057A00070470000002202881D4B98420ED01D4B0E
:1057B00098420BD0B0F1804F08D01B4B984205D0D7
:1057C0001A4B984202D01A4B984204D14FF68F736D
:1057D0001A404B881A43174B984207D0164B9842F1
:1057E00004D04FF6FF431A40CB881A4302808B88BF
:1057F00083850B8803850A4B98420BD0094B98424E
:1058000008D00E4B984205D00D4B984202D00D4B5C
:10581000984201D10B7A03860123838270470000EE
:10582000002C01400034014000040040000800400A
:10583000000C0040001000400014004000400140F7
:1058400000440140004801404FF6FF718180002173
:105850000180C18041800172704700002DE9F14F45
:1058600082B000200190009011490988A1F1A000A8
:10587000FAF74FFF00900298FAF7B6FF80460D4AFC
:105880000D4BFAF765FE04460D460C490098FAF7F1
:1058900048FD8046FAF7A8FF064622462B46FAF74F
:1058A000B0FD8246FAF781FF01900198BDE8FE8FB6
:1058B000960200209A9999999999B93F0000404021
:1058C0002DE9F0410546884615492846FAF7D4FFE8
:1058D00017D314480078FAF725FF06462946FAF749
:1058E000CBFF0ED310480068FAF77EFF06464FF054
:1058F00033320E4BFAF78CFF03D30D4800780128A2
:105900000AD1012400200B490880091D0880091DC7
:105910000880091D088000E000242046BDE8F081D1
:10592000000020C290010020D80000203333234023
:105930002C000020343401402DE9F047054633485F
:10594000066833480078032806D13248006880F0A2
:105950000040314908601BE02D480078042804D13C
:105960002C4800682C49086012E029480078052876
:1059700003D12A48284908600AE02548007806280B
:1059800003D127482449086002E00020224908602A
:105990001F480078012803D01D480078022802D152
:1059A0002048046801E02048046821462846FAF7A8
:1059B000B8FC82461D49FAF7E6FC80463146164897
:1059C0000068FAF7AEFC82461849FAF7DCFC81461B
:1059D0004146FAF74EFC0746154801683846FAF783
:1059E00048FC1449086014480078012807D113487E
:1059F000016810480068FAF794FC0E4908600D48E9
:105A00000068FAF7A5FEBDE8F08700000C01002051
:105A1000500100201801002034010020000048C27D
:105A200000004842100100201C0100200000C84274
:105A3000280000203801002091010020F8000020FB
:105A40002DE9FF5F3148B0F9000031490880314944
:105A500031480068FAF71AFF03D22E482E49086031
:105A600008E02E492C480068FAF706FF02D22B48BE
:105A7000294908602649B1F90010294AB2F90020E5
:105A8000881AFAF754FE0446264A274BFAF760FDB7
:105A900082468B4620480068FAF7A6FE0646234A4F
:105AA000234BFAF755FD04460D461948B0F900009E
:105AB000FAF73DFE06464FF033321E4BFAF748FD2B
:105AC000804622462B46FAF73DFD52465B46CDE91D
:105AD0000001FAF737FDCDE90201FAF7B1FE1649E8
